{
	"build/solidity/base.sol": {
		"PonyDrilandBase": {
			"abi": [
				{
					"inputs": [],
					"stateMutability": "nonpayable",
					"type": "constructor"
				},
				{
					"anonymous": false,
					"inputs": [
						{
							"indexed": true,
							"internalType": "address",
							"name": "from",
							"type": "address"
						},
						{
							"indexed": false,
							"internalType": "uint256",
							"name": "chapter",
							"type": "uint256"
						},
						{
							"indexed": false,
							"internalType": "uint256",
							"name": "value",
							"type": "uint256"
						}
					],
					"name": "Bookmark",
					"type": "event"
				},
				{
					"anonymous": false,
					"inputs": [
						{
							"indexed": true,
							"internalType": "address",
							"name": "from",
							"type": "address"
						},
						{
							"indexed": false,
							"internalType": "uint256",
							"name": "value",
							"type": "uint256"
						}
					],
					"name": "Burn",
					"type": "event"
				},
				{
					"anonymous": false,
					"inputs": [
						{
							"indexed": true,
							"internalType": "address",
							"name": "value",
							"type": "address"
						}
					],
					"name": "Enable",
					"type": "event"
				},
				{
					"anonymous": false,
					"inputs": [
						{
							"indexed": true,
							"internalType": "address",
							"name": "from",
							"type": "address"
						},
						{
							"indexed": false,
							"internalType": "string",
							"name": "value",
							"type": "string"
						}
					],
					"name": "Interaction",
					"type": "event"
				},
				{
					"anonymous": false,
					"inputs": [
						{
							"indexed": true,
							"internalType": "address",
							"name": "from",
							"type": "address"
						},
						{
							"indexed": true,
							"internalType": "address",
							"name": "to",
							"type": "address"
						},
						{
							"indexed": false,
							"internalType": "uint256",
							"name": "value",
							"type": "uint256"
						}
					],
					"name": "Mint",
					"type": "event"
				},
				{
					"anonymous": false,
					"inputs": [
						{
							"indexed": true,
							"internalType": "address",
							"name": "from",
							"type": "address"
						},
						{
							"indexed": false,
							"internalType": "string",
							"name": "filter",
							"type": "string"
						},
						{
							"indexed": false,
							"internalType": "uint256",
							"name": "value",
							"type": "uint256"
						}
					],
					"name": "NsfwFilter",
					"type": "event"
				},
				{
					"anonymous": false,
					"inputs": [
						{
							"indexed": true,
							"internalType": "address",
							"name": "previousOwner",
							"type": "address"
						},
						{
							"indexed": true,
							"internalType": "address",
							"name": "newOwner",
							"type": "address"
						}
					],
					"name": "OwnershipTransferred",
					"type": "event"
				},
				{
					"anonymous": false,
					"inputs": [
						{
							"indexed": true,
							"internalType": "address",
							"name": "from",
							"type": "address"
						},
						{
							"indexed": true,
							"internalType": "address",
							"name": "to",
							"type": "address"
						},
						{
							"indexed": false,
							"internalType": "string",
							"name": "perm",
							"type": "string"
						},
						{
							"indexed": false,
							"internalType": "uint256",
							"name": "value",
							"type": "uint256"
						}
					],
					"name": "SetPerm",
					"type": "event"
				},
				{
					"anonymous": false,
					"inputs": [
						{
							"indexed": true,
							"internalType": "address",
							"name": "from",
							"type": "address"
						},
						{
							"indexed": true,
							"internalType": "address",
							"name": "to",
							"type": "address"
						},
						{
							"indexed": false,
							"internalType": "uint256",
							"name": "value",
							"type": "uint256"
						}
					],
					"name": "Transfer",
					"type": "event"
				},
				{
					"anonymous": false,
					"inputs": [
						{
							"indexed": true,
							"internalType": "address",
							"name": "from",
							"type": "address"
						},
						{
							"indexed": false,
							"internalType": "string",
							"name": "value",
							"type": "string"
						}
					],
					"name": "Volume",
					"type": "event"
				},
				{
					"inputs": [
						{
							"internalType": "address",
							"name": "_account",
							"type": "address"
						}
					],
					"name": "balanceOf",
					"outputs": [
						{
							"internalType": "uint256",
							"name": "",
							"type": "uint256"
						}
					],
					"stateMutability": "view",
					"type": "function"
				},
				{
					"inputs": [
						{
							"internalType": "address",
							"name": "",
							"type": "address"
						}
					],
					"name": "balances",
					"outputs": [
						{
							"internalType": "uint256",
							"name": "",
							"type": "uint256"
						}
					],
					"stateMutability": "view",
					"type": "function"
				},
				{
					"inputs": [
						{
							"internalType": "address",
							"name": "",
							"type": "address"
						},
						{
							"internalType": "uint256",
							"name": "",
							"type": "uint256"
						}
					],
					"name": "bookmark",
					"outputs": [
						{
							"internalType": "uint256",
							"name": "",
							"type": "uint256"
						}
					],
					"stateMutability": "view",
					"type": "function"
				},
				{
					"inputs": [
						{
							"internalType": "uint256",
							"name": "_value",
							"type": "uint256"
						}
					],
					"name": "burn",
					"outputs": [
						{
							"internalType": "bool",
							"name": "success",
							"type": "bool"
						}
					],
					"stateMutability": "nonpayable",
					"type": "function"
				},
				{
					"inputs": [
						{
							"internalType": "string",
							"name": "_name",
							"type": "string"
						},
						{
							"internalType": "uint256",
							"name": "_value",
							"type": "uint256"
						}
					],
					"name": "changeNsfwFilter",
					"outputs": [
						{
							"internalType": "bool",
							"name": "success",
							"type": "bool"
						}
					],
					"stateMutability": "nonpayable",
					"type": "function"
				},
				{
					"inputs": [],
					"name": "decimals",
					"outputs": [
						{
							"internalType": "uint8",
							"name": "",
							"type": "uint8"
						}
					],
					"stateMutability": "view",
					"type": "function"
				},
				{
					"inputs": [],
					"name": "donate",
					"outputs": [
						{
							"internalType": "bool",
							"name": "success",
							"type": "bool"
						}
					],
					"stateMutability": "payable",
					"type": "function"
				},
				{
					"inputs": [
						{
							"internalType": "address",
							"name": "",
							"type": "address"
						}
					],
					"name": "donations",
					"outputs": [
						{
							"internalType": "uint256",
							"name": "",
							"type": "uint256"
						}
					],
					"stateMutability": "view",
					"type": "function"
				},
				{
					"inputs": [],
					"name": "enable",
					"outputs": [
						{
							"internalType": "bool",
							"name": "success",
							"type": "bool"
						}
					],
					"stateMutability": "nonpayable",
					"type": "function"
				},
				{
					"inputs": [
						{
							"internalType": "address",
							"name": "_account",
							"type": "address"
						},
						{
							"internalType": "uint256",
							"name": "_chapter",
							"type": "uint256"
						}
					],
					"name": "getBookmark",
					"outputs": [
						{
							"internalType": "uint256",
							"name": "",
							"type": "uint256"
						}
					],
					"stateMutability": "view",
					"type": "function"
				},
				{
					"inputs": [
						{
							"internalType": "address",
							"name": "_account",
							"type": "address"
						},
						{
							"internalType": "string",
							"name": "_name",
							"type": "string"
						}
					],
					"name": "getNsfwFilter",
					"outputs": [
						{
							"internalType": "uint256",
							"name": "",
							"type": "uint256"
						}
					],
					"stateMutability": "view",
					"type": "function"
				},
				{
					"inputs": [],
					"name": "getOwner",
					"outputs": [
						{
							"internalType": "address",
							"name": "",
							"type": "address"
						}
					],
					"stateMutability": "view",
					"type": "function"
				},
				{
					"inputs": [
						{
							"internalType": "address",
							"name": "_account",
							"type": "address"
						},
						{
							"internalType": "string",
							"name": "_perm",
							"type": "string"
						}
					],
					"name": "getPerm",
					"outputs": [
						{
							"internalType": "uint256",
							"name": "",
							"type": "uint256"
						}
					],
					"stateMutability": "view",
					"type": "function"
				},
				{
					"inputs": [
						{
							"internalType": "address",
							"name": "_account",
							"type": "address"
						}
					],
					"name": "getVolume",
					"outputs": [
						{
							"internalType": "uint256",
							"name": "",
							"type": "uint256"
						}
					],
					"stateMutability": "view",
					"type": "function"
				},
				{
					"inputs": [
						{
							"internalType": "uint256",
							"name": "_chapter",
							"type": "uint256"
						},
						{
							"internalType": "uint256",
							"name": "_value",
							"type": "uint256"
						}
					],
					"name": "insertBookmark",
					"outputs": [
						{
							"internalType": "bool",
							"name": "success",
							"type": "bool"
						}
					],
					"stateMutability": "nonpayable",
					"type": "function"
				},
				{
					"inputs": [
						{
							"internalType": "address",
							"name": "",
							"type": "address"
						}
					],
					"name": "interactions",
					"outputs": [
						{
							"internalType": "uint256",
							"name": "",
							"type": "uint256"
						}
					],
					"stateMutability": "view",
					"type": "function"
				},
				{
					"inputs": [
						{
							"internalType": "address",
							"name": "_to",
							"type": "address"
						},
						{
							"internalType": "uint256",
							"name": "_value",
							"type": "uint256"
						}
					],
					"name": "mint",
					"outputs": [
						{
							"internalType": "bool",
							"name": "success",
							"type": "bool"
						}
					],
					"stateMutability": "nonpayable",
					"type": "function"
				},
				{
					"inputs": [],
					"name": "name",
					"outputs": [
						{
							"internalType": "string",
							"name": "",
							"type": "string"
						}
					],
					"stateMutability": "view",
					"type": "function"
				},
				{
					"inputs": [
						{
							"internalType": "address",
							"name": "",
							"type": "address"
						},
						{
							"internalType": "string",
							"name": "",
							"type": "string"
						}
					],
					"name": "nsfw_filter",
					"outputs": [
						{
							"internalType": "uint256",
							"name": "",
							"type": "uint256"
						}
					],
					"stateMutability": "view",
					"type": "function"
				},
				{
					"inputs": [],
					"name": "owner",
					"outputs": [
						{
							"internalType": "address payable",
							"name": "",
							"type": "address"
						}
					],
					"stateMutability": "view",
					"type": "function"
				},
				{
					"inputs": [
						{
							"internalType": "address",
							"name": "",
							"type": "address"
						},
						{
							"internalType": "string",
							"name": "",
							"type": "string"
						}
					],
					"name": "perm",
					"outputs": [
						{
							"internalType": "uint256",
							"name": "",
							"type": "uint256"
						}
					],
					"stateMutability": "view",
					"type": "function"
				},
				{
					"inputs": [
						{
							"internalType": "address",
							"name": "_to",
							"type": "address"
						},
						{
							"internalType": "string",
							"name": "_perm",
							"type": "string"
						},
						{
							"internalType": "uint256",
							"name": "_value",
							"type": "uint256"
						}
					],
					"name": "setPerm",
					"outputs": [
						{
							"internalType": "bool",
							"name": "success",
							"type": "bool"
						}
					],
					"stateMutability": "nonpayable",
					"type": "function"
				},
				{
					"inputs": [
						{
							"internalType": "uint256",
							"name": "_value",
							"type": "uint256"
						}
					],
					"name": "setVolume",
					"outputs": [
						{
							"internalType": "bool",
							"name": "success",
							"type": "bool"
						}
					],
					"stateMutability": "nonpayable",
					"type": "function"
				},
				{
					"inputs": [],
					"name": "symbol",
					"outputs": [
						{
							"internalType": "string",
							"name": "",
							"type": "string"
						}
					],
					"stateMutability": "view",
					"type": "function"
				},
				{
					"inputs": [],
					"name": "totalInteractions",
					"outputs": [
						{
							"internalType": "uint256",
							"name": "",
							"type": "uint256"
						}
					],
					"stateMutability": "view",
					"type": "function"
				},
				{
					"inputs": [],
					"name": "totalSupply",
					"outputs": [
						{
							"internalType": "uint256",
							"name": "",
							"type": "uint256"
						}
					],
					"stateMutability": "view",
					"type": "function"
				},
				{
					"inputs": [
						{
							"internalType": "address",
							"name": "_to",
							"type": "address"
						},
						{
							"internalType": "uint256",
							"name": "_value",
							"type": "uint256"
						}
					],
					"name": "transfer",
					"outputs": [
						{
							"internalType": "bool",
							"name": "success",
							"type": "bool"
						}
					],
					"stateMutability": "nonpayable",
					"type": "function"
				},
				{
					"inputs": [
						{
							"internalType": "address",
							"name": "newOwner",
							"type": "address"
						}
					],
					"name": "transferOwnership",
					"outputs": [],
					"stateMutability": "nonpayable",
					"type": "function"
				},
				{
					"inputs": [
						{
							"internalType": "address",
							"name": "",
							"type": "address"
						}
					],
					"name": "volume",
					"outputs": [
						{
							"internalType": "uint256",
							"name": "",
							"type": "uint256"
						}
					],
					"stateMutability": "view",
					"type": "function"
				}
			],
			"devdoc": {
				"kind": "dev",
				"methods": {},
				"version": 1
			},
			"evm": {
				"assembly": "    /* \"build/solidity/base.sol\":64:7563  contract PonyDrilandBase {... */\n  mstore(0x40, 0x80)\n    /* \"build/solidity/base.sol\":1469:1680  constructor() {... */\n  callvalue\n  dup1\n  iszero\n  tag_1\n  jumpi\n  0x00\n  dup1\n  revert\ntag_1:\n  pop\n    /* \"build/solidity/base.sol\":1512:1522  msg.sender */\n  caller\n    /* \"build/solidity/base.sol\":1496:1501  owner */\n  0x00\n  dup1\n    /* \"build/solidity/base.sol\":1496:1523  owner = payable(msg.sender) */\n  0x0100\n  exp\n  dup2\n  sload\n  dup2\n  0xffffffffffffffffffffffffffffffffffffffff\n  mul\n  not\n  and\n  swap1\n  dup4\n  0xffffffffffffffffffffffffffffffffffffffff\n  and\n  mul\n  or\n  swap1\n  sstore\n  pop\n    /* \"build/solidity/base.sol\":1542:1563  name = \"Pony Driland\" */\n  mload(0x40)\n  dup1\n  0x40\n  add\n  0x40\n  mstore\n  dup1\n  0x0c\n  dup2\n  mstore\n  0x20\n  add\n  0x506f6e79204472696c616e640000000000000000000000000000000000000000\n  dup2\n  mstore\n  pop\n    /* \"build/solidity/base.sol\":1542:1546  name */\n  0x08\n    /* \"build/solidity/base.sol\":1542:1563  name = \"Pony Driland\" */\n  swap1\n  dup2\n  tag_4\n  swap2\n  swap1\n  tag_5\n  jump\t// in\ntag_4:\n  pop\n    /* \"build/solidity/base.sol\":1574:1587  symbol = \"PD\" */\n  mload(0x40)\n  dup1\n  0x40\n  add\n  0x40\n  mstore\n  dup1\n  0x02\n  dup2\n  mstore\n  0x20\n  add\n  0x5044000000000000000000000000000000000000000000000000000000000000\n  dup2\n  mstore\n  pop\n    /* \"build/solidity/base.sol\":1574:1580  symbol */\n  0x09\n    /* \"build/solidity/base.sol\":1574:1587  symbol = \"PD\" */\n  swap1\n  dup2\n  tag_6\n  swap2\n  swap1\n  tag_5\n  jump\t// in\ntag_6:\n  pop\n    /* \"build/solidity/base.sol\":1609:1610  3 */\n  0x03\n    /* \"build/solidity/base.sol\":1598:1606  decimals */\n  0x0a\n  0x00\n    /* \"build/solidity/base.sol\":1598:1610  decimals = 3 */\n  0x0100\n  exp\n  dup2\n  sload\n  dup2\n  0xff\n  mul\n  not\n  and\n  swap1\n  dup4\n  0xff\n  and\n  mul\n  or\n  swap1\n  sstore\n  pop\n    /* \"build/solidity/base.sol\":1637:1638  0 */\n  0x00\n    /* \"build/solidity/base.sol\":1623:1634  totalSupply */\n  0x0b\n    /* \"build/solidity/base.sol\":1623:1638  totalSupply = 0 */\n  dup2\n  swap1\n  sstore\n  pop\n    /* \"build/solidity/base.sol\":1669:1670  0 */\n  0x00\n    /* \"build/solidity/base.sol\":1649:1666  totalInteractions */\n  0x0c\n    /* \"build/solidity/base.sol\":1649:1670  totalInteractions = 0 */\n  dup2\n  swap1\n  sstore\n  pop\n    /* \"build/solidity/base.sol\":64:7563  contract PonyDrilandBase {... */\n  jump(tag_7)\n    /* \"#utility.yul\":7:106   */\ntag_8:\n    /* \"#utility.yul\":59:65   */\n  0x00\n    /* \"#utility.yul\":93:98   */\n  dup2\n    /* \"#utility.yul\":87:99   */\n  mload\n    /* \"#utility.yul\":77:99   */\n  swap1\n  pop\n    /* \"#utility.yul\":7:106   */\n  swap2\n  swap1\n  pop\n  jump\t// out\n    /* \"#utility.yul\":112:292   */\ntag_9:\n    /* \"#utility.yul\":160:237   */\n  0x4e487b7100000000000000000000000000000000000000000000000000000000\n    /* \"#utility.yul\":157:158   */\n  0x00\n    /* \"#utility.yul\":150:238   */\n  mstore\n    /* \"#utility.yul\":257:261   */\n  0x41\n    /* \"#utility.yul\":254:255   */\n  0x04\n    /* \"#utility.yul\":247:262   */\n  mstore\n    /* \"#utility.yul\":281:285   */\n  0x24\n    /* \"#utility.yul\":278:279   */\n  0x00\n    /* \"#utility.yul\":271:286   */\n  revert\n    /* \"#utility.yul\":298:478   */\ntag_10:\n    /* \"#utility.yul\":346:423   */\n  0x4e487b7100000000000000000000000000000000000000000000000000000000\n    /* \"#utility.yul\":343:344   */\n  0x00\n    /* \"#utility.yul\":336:424   */\n  mstore\n    /* \"#utility.yul\":443:447   */\n  0x22\n    /* \"#utility.yul\":440:441   */\n  0x04\n    /* \"#utility.yul\":433:448   */\n  mstore\n    /* \"#utility.yul\":467:471   */\n  0x24\n    /* \"#utility.yul\":464:465   */\n  0x00\n    /* \"#utility.yul\":457:472   */\n  revert\n    /* \"#utility.yul\":484:804   */\ntag_11:\n    /* \"#utility.yul\":528:534   */\n  0x00\n    /* \"#utility.yul\":565:566   */\n  0x02\n    /* \"#utility.yul\":559:563   */\n  dup3\n    /* \"#utility.yul\":555:567   */\n  div\n    /* \"#utility.yul\":545:567   */\n  swap1\n  pop\n    /* \"#utility.yul\":612:613   */\n  0x01\n    /* \"#utility.yul\":606:610   */\n  dup3\n    /* \"#utility.yul\":602:614   */\n  and\n    /* \"#utility.yul\":633:651   */\n  dup1\n    /* \"#utility.yul\":623:704   */\n  tag_33\n  jumpi\n    /* \"#utility.yul\":689:693   */\n  0x7f\n    /* \"#utility.yul\":681:687   */\n  dup3\n    /* \"#utility.yul\":677:694   */\n  and\n    /* \"#utility.yul\":667:694   */\n  swap2\n  pop\n    /* \"#utility.yul\":623:704   */\ntag_33:\n    /* \"#utility.yul\":751:753   */\n  0x20\n    /* \"#utility.yul\":743:749   */\n  dup3\n    /* \"#utility.yul\":740:754   */\n  lt\n    /* \"#utility.yul\":720:738   */\n  dup2\n    /* \"#utility.yul\":717:755   */\n  sub\n    /* \"#utility.yul\":714:798   */\n  tag_34\n  jumpi\n    /* \"#utility.yul\":770:788   */\n  tag_35\n  tag_10\n  jump\t// in\ntag_35:\n    /* \"#utility.yul\":714:798   */\ntag_34:\n    /* \"#utility.yul\":535:804   */\n  pop\n    /* \"#utility.yul\":484:804   */\n  swap2\n  swap1\n  pop\n  jump\t// out\n    /* \"#utility.yul\":810:951   */\ntag_12:\n    /* \"#utility.yul\":859:863   */\n  0x00\n    /* \"#utility.yul\":882:885   */\n  dup2\n    /* \"#utility.yul\":874:885   */\n  swap1\n  pop\n    /* \"#utility.yul\":905:908   */\n  dup2\n    /* \"#utility.yul\":902:903   */\n  0x00\n    /* \"#utility.yul\":895:909   */\n  mstore\n    /* \"#utility.yul\":939:943   */\n  0x20\n    /* \"#utility.yul\":936:937   */\n  0x00\n    /* \"#utility.yul\":926:944   */\n  keccak256\n    /* \"#utility.yul\":918:944   */\n  swap1\n  pop\n    /* \"#utility.yul\":810:951   */\n  swap2\n  swap1\n  pop\n  jump\t// out\n    /* \"#utility.yul\":957:1050   */\ntag_13:\n    /* \"#utility.yul\":994:1000   */\n  0x00\n    /* \"#utility.yul\":1041:1043   */\n  0x20\n    /* \"#utility.yul\":1036:1038   */\n  0x1f\n    /* \"#utility.yul\":1029:1034   */\n  dup4\n    /* \"#utility.yul\":1025:1039   */\n  add\n    /* \"#utility.yul\":1021:1044   */\n  div\n    /* \"#utility.yul\":1011:1044   */\n  swap1\n  pop\n    /* \"#utility.yul\":957:1050   */\n  swap2\n  swap1\n  pop\n  jump\t// out\n    /* \"#utility.yul\":1056:1163   */\ntag_14:\n    /* \"#utility.yul\":1100:1108   */\n  0x00\n    /* \"#utility.yul\":1150:1155   */\n  dup3\n    /* \"#utility.yul\":1144:1148   */\n  dup3\n    /* \"#utility.yul\":1140:1156   */\n  shl\n    /* \"#utility.yul\":1119:1156   */\n  swap1\n  pop\n    /* \"#utility.yul\":1056:1163   */\n  swap3\n  swap2\n  pop\n  pop\n  jump\t// out\n    /* \"#utility.yul\":1169:1562   */\ntag_15:\n    /* \"#utility.yul\":1238:1244   */\n  0x00\n    /* \"#utility.yul\":1288:1289   */\n  0x08\n    /* \"#utility.yul\":1276:1286   */\n  dup4\n    /* \"#utility.yul\":1272:1290   */\n  mul\n    /* \"#utility.yul\":1311:1408   */\n  tag_40\n    /* \"#utility.yul\":1341:1407   */\n  0xffffffffffffffffffffffffffffffffffffffffffffffffffffffffffffffff\n    /* \"#utility.yul\":1330:1339   */\n  dup3\n    /* \"#utility.yul\":1311:1408   */\n  tag_14\n  jump\t// in\ntag_40:\n    /* \"#utility.yul\":1429:1468   */\n  tag_41\n    /* \"#utility.yul\":1459:1467   */\n  dup7\n    /* \"#utility.yul\":1448:1457   */\n  dup4\n    /* \"#utility.yul\":1429:1468   */\n  tag_14\n  jump\t// in\ntag_41:\n    /* \"#utility.yul\":1417:1468   */\n  swap6\n  pop\n    /* \"#utility.yul\":1501:1505   */\n  dup1\n    /* \"#utility.yul\":1497:1506   */\n  not\n    /* \"#utility.yul\":1490:1495   */\n  dup5\n    /* \"#utility.yul\":1486:1507   */\n  and\n    /* \"#utility.yul\":1477:1507   */\n  swap4\n  pop\n    /* \"#utility.yul\":1550:1554   */\n  dup1\n    /* \"#utility.yul\":1540:1548   */\n  dup7\n    /* \"#utility.yul\":1536:1555   */\n  and\n    /* \"#utility.yul\":1529:1534   */\n  dup5\n    /* \"#utility.yul\":1526:1556   */\n  or\n    /* \"#utility.yul\":1516:1556   */\n  swap3\n  pop\n    /* \"#utility.yul\":1245:1562   */\n  pop\n  pop\n    /* \"#utility.yul\":1169:1562   */\n  swap4\n  swap3\n  pop\n  pop\n  pop\n  jump\t// out\n    /* \"#utility.yul\":1568:1645   */\ntag_16:\n    /* \"#utility.yul\":1605:1612   */\n  0x00\n    /* \"#utility.yul\":1634:1639   */\n  dup2\n    /* \"#utility.yul\":1623:1639   */\n  swap1\n  pop\n    /* \"#utility.yul\":1568:1645   */\n  swap2\n  swap1\n  pop\n  jump\t// out\n    /* \"#utility.yul\":1651:1711   */\ntag_17:\n    /* \"#utility.yul\":1679:1682   */\n  0x00\n    /* \"#utility.yul\":1700:1705   */\n  dup2\n    /* \"#utility.yul\":1693:1705   */\n  swap1\n  pop\n    /* \"#utility.yul\":1651:1711   */\n  swap2\n  swap1\n  pop\n  jump\t// out\n    /* \"#utility.yul\":1717:1859   */\ntag_18:\n    /* \"#utility.yul\":1767:1776   */\n  0x00\n    /* \"#utility.yul\":1800:1853   */\n  tag_45\n    /* \"#utility.yul\":1818:1852   */\n  tag_46\n    /* \"#utility.yul\":1827:1851   */\n  tag_47\n    /* \"#utility.yul\":1845:1850   */\n  dup5\n    /* \"#utility.yul\":1827:1851   */\n  tag_16\n  jump\t// in\ntag_47:\n    /* \"#utility.yul\":1818:1852   */\n  tag_17\n  jump\t// in\ntag_46:\n    /* \"#utility.yul\":1800:1853   */\n  tag_16\n  jump\t// in\ntag_45:\n    /* \"#utility.yul\":1787:1853   */\n  swap1\n  pop\n    /* \"#utility.yul\":1717:1859   */\n  swap2\n  swap1\n  pop\n  jump\t// out\n    /* \"#utility.yul\":1865:1940   */\ntag_19:\n    /* \"#utility.yul\":1908:1911   */\n  0x00\n    /* \"#utility.yul\":1929:1934   */\n  dup2\n    /* \"#utility.yul\":1922:1934   */\n  swap1\n  pop\n    /* \"#utility.yul\":1865:1940   */\n  swap2\n  swap1\n  pop\n  jump\t// out\n    /* \"#utility.yul\":1946:2215   */\ntag_20:\n    /* \"#utility.yul\":2056:2095   */\n  tag_50\n    /* \"#utility.yul\":2087:2094   */\n  dup4\n    /* \"#utility.yul\":2056:2095   */\n  tag_18\n  jump\t// in\ntag_50:\n    /* \"#utility.yul\":2117:2208   */\n  tag_51\n    /* \"#utility.yul\":2166:2207   */\n  tag_52\n    /* \"#utility.yul\":2190:2206   */\n  dup3\n    /* \"#utility.yul\":2166:2207   */\n  tag_19\n  jump\t// in\ntag_52:\n    /* \"#utility.yul\":2158:2164   */\n  dup5\n    /* \"#utility.yul\":2151:2155   */\n  dup5\n    /* \"#utility.yul\":2145:2156   */\n  sload\n    /* \"#utility.yul\":2117:2208   */\n  tag_15\n  jump\t// in\ntag_51:\n    /* \"#utility.yul\":2111:2115   */\n  dup3\n    /* \"#utility.yul\":2104:2209   */\n  sstore\n    /* \"#utility.yul\":2022:2215   */\n  pop\n    /* \"#utility.yul\":1946:2215   */\n  pop\n  pop\n  pop\n  jump\t// out\n    /* \"#utility.yul\":2221:2294   */\ntag_21:\n    /* \"#utility.yul\":2266:2269   */\n  0x00\n    /* \"#utility.yul\":2221:2294   */\n  swap1\n  jump\t// out\n    /* \"#utility.yul\":2300:2489   */\ntag_22:\n    /* \"#utility.yul\":2377:2409   */\n  tag_55\n  tag_21\n  jump\t// in\ntag_55:\n    /* \"#utility.yul\":2418:2483   */\n  tag_56\n    /* \"#utility.yul\":2476:2482   */\n  dup2\n    /* \"#utility.yul\":2468:2474   */\n  dup5\n    /* \"#utility.yul\":2462:2466   */\n  dup5\n    /* \"#utility.yul\":2418:2483   */\n  tag_20\n  jump\t// in\ntag_56:\n    /* \"#utility.yul\":2353:2489   */\n  pop\n    /* \"#utility.yul\":2300:2489   */\n  pop\n  pop\n  jump\t// out\n    /* \"#utility.yul\":2495:2681   */\ntag_23:\n    /* \"#utility.yul\":2555:2675   */\ntag_58:\n    /* \"#utility.yul\":2572:2575   */\n  dup2\n    /* \"#utility.yul\":2565:2570   */\n  dup2\n    /* \"#utility.yul\":2562:2576   */\n  lt\n    /* \"#utility.yul\":2555:2675   */\n  iszero\n  tag_60\n  jumpi\n    /* \"#utility.yul\":2626:2665   */\n  tag_61\n    /* \"#utility.yul\":2663:2664   */\n  0x00\n    /* \"#utility.yul\":2656:2661   */\n  dup3\n    /* \"#utility.yul\":2626:2665   */\n  tag_22\n  jump\t// in\ntag_61:\n    /* \"#utility.yul\":2599:2600   */\n  0x01\n    /* \"#utility.yul\":2592:2597   */\n  dup2\n    /* \"#utility.yul\":2588:2601   */\n  add\n    /* \"#utility.yul\":2579:2601   */\n  swap1\n  pop\n    /* \"#utility.yul\":2555:2675   */\n  jump(tag_58)\ntag_60:\n    /* \"#utility.yul\":2495:2681   */\n  pop\n  pop\n  jump\t// out\n    /* \"#utility.yul\":2687:3230   */\ntag_24:\n    /* \"#utility.yul\":2788:2790   */\n  0x1f\n    /* \"#utility.yul\":2783:2786   */\n  dup3\n    /* \"#utility.yul\":2780:2791   */\n  gt\n    /* \"#utility.yul\":2777:3223   */\n  iszero\n  tag_63\n  jumpi\n    /* \"#utility.yul\":2822:2860   */\n  tag_64\n    /* \"#utility.yul\":2854:2859   */\n  dup2\n    /* \"#utility.yul\":2822:2860   */\n  tag_12\n  jump\t// in\ntag_64:\n    /* \"#utility.yul\":2906:2935   */\n  tag_65\n    /* \"#utility.yul\":2924:2934   */\n  dup5\n    /* \"#utility.yul\":2906:2935   */\n  tag_13\n  jump\t// in\ntag_65:\n    /* \"#utility.yul\":2896:2904   */\n  dup2\n    /* \"#utility.yul\":2892:2936   */\n  add\n    /* \"#utility.yul\":3089:3091   */\n  0x20\n    /* \"#utility.yul\":3077:3087   */\n  dup6\n    /* \"#utility.yul\":3074:3092   */\n  lt\n    /* \"#utility.yul\":3071:3120   */\n  iszero\n  tag_66\n  jumpi\n    /* \"#utility.yul\":3110:3118   */\n  dup2\n    /* \"#utility.yul\":3095:3118   */\n  swap1\n  pop\n    /* \"#utility.yul\":3071:3120   */\ntag_66:\n    /* \"#utility.yul\":3133:3213   */\n  tag_67\n    /* \"#utility.yul\":3189:3211   */\n  tag_68\n    /* \"#utility.yul\":3207:3210   */\n  dup6\n    /* \"#utility.yul\":3189:3211   */\n  tag_13\n  jump\t// in\ntag_68:\n    /* \"#utility.yul\":3179:3187   */\n  dup4\n    /* \"#utility.yul\":3175:3212   */\n  add\n    /* \"#utility.yul\":3162:3173   */\n  dup3\n    /* \"#utility.yul\":3133:3213   */\n  tag_23\n  jump\t// in\ntag_67:\n    /* \"#utility.yul\":2792:3223   */\n  pop\n  pop\n    /* \"#utility.yul\":2777:3223   */\ntag_63:\n    /* \"#utility.yul\":2687:3230   */\n  pop\n  pop\n  pop\n  jump\t// out\n    /* \"#utility.yul\":3236:3353   */\ntag_25:\n    /* \"#utility.yul\":3290:3298   */\n  0x00\n    /* \"#utility.yul\":3340:3345   */\n  dup3\n    /* \"#utility.yul\":3334:3338   */\n  dup3\n    /* \"#utility.yul\":3330:3346   */\n  shr\n    /* \"#utility.yul\":3309:3346   */\n  swap1\n  pop\n    /* \"#utility.yul\":3236:3353   */\n  swap3\n  swap2\n  pop\n  pop\n  jump\t// out\n    /* \"#utility.yul\":3359:3528   */\ntag_26:\n    /* \"#utility.yul\":3403:3409   */\n  0x00\n    /* \"#utility.yul\":3436:3487   */\n  tag_71\n    /* \"#utility.yul\":3484:3485   */\n  0x00\n    /* \"#utility.yul\":3480:3486   */\n  not\n    /* \"#utility.yul\":3472:3477   */\n  dup5\n    /* \"#utility.yul\":3469:3470   */\n  0x08\n    /* \"#utility.yul\":3465:3478   */\n  mul\n    /* \"#utility.yul\":3436:3487   */\n  tag_25\n  jump\t// in\ntag_71:\n    /* \"#utility.yul\":3432:3488   */\n  not\n    /* \"#utility.yul\":3517:3521   */\n  dup1\n    /* \"#utility.yul\":3511:3515   */\n  dup4\n    /* \"#utility.yul\":3507:3522   */\n  and\n    /* \"#utility.yul\":3497:3522   */\n  swap2\n  pop\n    /* \"#utility.yul\":3410:3528   */\n  pop\n    /* \"#utility.yul\":3359:3528   */\n  swap3\n  swap2\n  pop\n  pop\n  jump\t// out\n    /* \"#utility.yul\":3533:3828   */\ntag_27:\n    /* \"#utility.yul\":3609:3613   */\n  0x00\n    /* \"#utility.yul\":3755:3784   */\n  tag_73\n    /* \"#utility.yul\":3780:3783   */\n  dup4\n    /* \"#utility.yul\":3774:3778   */\n  dup4\n    /* \"#utility.yul\":3755:3784   */\n  tag_26\n  jump\t// in\ntag_73:\n    /* \"#utility.yul\":3747:3784   */\n  swap2\n  pop\n    /* \"#utility.yul\":3817:3820   */\n  dup3\n    /* \"#utility.yul\":3814:3815   */\n  0x02\n    /* \"#utility.yul\":3810:3821   */\n  mul\n    /* \"#utility.yul\":3804:3808   */\n  dup3\n    /* \"#utility.yul\":3801:3822   */\n  or\n    /* \"#utility.yul\":3793:3822   */\n  swap1\n  pop\n    /* \"#utility.yul\":3533:3828   */\n  swap3\n  swap2\n  pop\n  pop\n  jump\t// out\n    /* \"#utility.yul\":3833:5228   */\ntag_5:\n    /* \"#utility.yul\":3950:3987   */\n  tag_75\n    /* \"#utility.yul\":3983:3986   */\n  dup3\n    /* \"#utility.yul\":3950:3987   */\n  tag_8\n  jump\t// in\ntag_75:\n    /* \"#utility.yul\":4052:4070   */\n  0xffffffffffffffff\n    /* \"#utility.yul\":4044:4050   */\n  dup2\n    /* \"#utility.yul\":4041:4071   */\n  gt\n    /* \"#utility.yul\":4038:4094   */\n  iszero\n  tag_76\n  jumpi\n    /* \"#utility.yul\":4074:4092   */\n  tag_77\n  tag_9\n  jump\t// in\ntag_77:\n    /* \"#utility.yul\":4038:4094   */\ntag_76:\n    /* \"#utility.yul\":4118:4156   */\n  tag_78\n    /* \"#utility.yul\":4150:4154   */\n  dup3\n    /* \"#utility.yul\":4144:4155   */\n  sload\n    /* \"#utility.yul\":4118:4156   */\n  tag_11\n  jump\t// in\ntag_78:\n    /* \"#utility.yul\":4203:4270   */\n  tag_79\n    /* \"#utility.yul\":4263:4269   */\n  dup3\n    /* \"#utility.yul\":4255:4261   */\n  dup3\n    /* \"#utility.yul\":4249:4253   */\n  dup6\n    /* \"#utility.yul\":4203:4270   */\n  tag_24\n  jump\t// in\ntag_79:\n    /* \"#utility.yul\":4297:4298   */\n  0x00\n    /* \"#utility.yul\":4321:4325   */\n  0x20\n    /* \"#utility.yul\":4308:4325   */\n  swap1\n  pop\n    /* \"#utility.yul\":4353:4355   */\n  0x1f\n    /* \"#utility.yul\":4345:4351   */\n  dup4\n    /* \"#utility.yul\":4342:4356   */\n  gt\n    /* \"#utility.yul\":4370:4371   */\n  0x01\n    /* \"#utility.yul\":4365:4983   */\n  dup2\n  eq\n  tag_81\n  jumpi\n    /* \"#utility.yul\":5027:5028   */\n  0x00\n    /* \"#utility.yul\":5044:5050   */\n  dup5\n    /* \"#utility.yul\":5041:5118   */\n  iszero\n  tag_82\n  jumpi\n    /* \"#utility.yul\":5093:5102   */\n  dup3\n    /* \"#utility.yul\":5088:5091   */\n  dup8\n    /* \"#utility.yul\":5084:5103   */\n  add\n    /* \"#utility.yul\":5078:5104   */\n  mload\n    /* \"#utility.yul\":5069:5104   */\n  swap1\n  pop\n    /* \"#utility.yul\":5041:5118   */\ntag_82:\n    /* \"#utility.yul\":5144:5211   */\n  tag_83\n    /* \"#utility.yul\":5204:5210   */\n  dup6\n    /* \"#utility.yul\":5197:5202   */\n  dup3\n    /* \"#utility.yul\":5144:5211   */\n  tag_27\n  jump\t// in\ntag_83:\n    /* \"#utility.yul\":5138:5142   */\n  dup7\n    /* \"#utility.yul\":5131:5212   */\n  sstore\n    /* \"#utility.yul\":5000:5222   */\n  pop\n    /* \"#utility.yul\":4335:5222   */\n  jump(tag_80)\n    /* \"#utility.yul\":4365:4983   */\ntag_81:\n    /* \"#utility.yul\":4417:4421   */\n  0x1f\n    /* \"#utility.yul\":4413:4422   */\n  not\n    /* \"#utility.yul\":4405:4411   */\n  dup5\n    /* \"#utility.yul\":4401:4423   */\n  and\n    /* \"#utility.yul\":4451:4488   */\n  tag_84\n    /* \"#utility.yul\":4483:4487   */\n  dup7\n    /* \"#utility.yul\":4451:4488   */\n  tag_12\n  jump\t// in\ntag_84:\n    /* \"#utility.yul\":4510:4511   */\n  0x00\n    /* \"#utility.yul\":4524:4732   */\ntag_85:\n    /* \"#utility.yul\":4538:4545   */\n  dup3\n    /* \"#utility.yul\":4535:4536   */\n  dup2\n    /* \"#utility.yul\":4532:4546   */\n  lt\n    /* \"#utility.yul\":4524:4732   */\n  iszero\n  tag_87\n  jumpi\n    /* \"#utility.yul\":4617:4626   */\n  dup5\n    /* \"#utility.yul\":4612:4615   */\n  dup10\n    /* \"#utility.yul\":4608:4627   */\n  add\n    /* \"#utility.yul\":4602:4628   */\n  mload\n    /* \"#utility.yul\":4594:4600   */\n  dup3\n    /* \"#utility.yul\":4587:4629   */\n  sstore\n    /* \"#utility.yul\":4668:4669   */\n  0x01\n    /* \"#utility.yul\":4660:4666   */\n  dup3\n    /* \"#utility.yul\":4656:4670   */\n  add\n    /* \"#utility.yul\":4646:4670   */\n  swap2\n  pop\n    /* \"#utility.yul\":4715:4717   */\n  0x20\n    /* \"#utility.yul\":4704:4713   */\n  dup6\n    /* \"#utility.yul\":4700:4718   */\n  add\n    /* \"#utility.yul\":4687:4718   */\n  swap5\n  pop\n    /* \"#utility.yul\":4561:4565   */\n  0x20\n    /* \"#utility.yul\":4558:4559   */\n  dup2\n    /* \"#utility.yul\":4554:4566   */\n  add\n    /* \"#utility.yul\":4549:4566   */\n  swap1\n  pop\n    /* \"#utility.yul\":4524:4732   */\n  jump(tag_85)\ntag_87:\n    /* \"#utility.yul\":4760:4766   */\n  dup7\n    /* \"#utility.yul\":4751:4758   */\n  dup4\n    /* \"#utility.yul\":4748:4767   */\n  lt\n    /* \"#utility.yul\":4745:4924   */\n  iszero\n  tag_88\n  jumpi\n    /* \"#utility.yul\":4818:4827   */\n  dup5\n    /* \"#utility.yul\":4813:4816   */\n  dup10\n    /* \"#utility.yul\":4809:4828   */\n  add\n    /* \"#utility.yul\":4803:4829   */\n  mload\n    /* \"#utility.yul\":4861:4909   */\n  tag_89\n    /* \"#utility.yul\":4903:4907   */\n  0x1f\n    /* \"#utility.yul\":4895:4901   */\n  dup10\n    /* \"#utility.yul\":4891:4908   */\n  and\n    /* \"#utility.yul\":4880:4889   */\n  dup3\n    /* \"#utility.yul\":4861:4909   */\n  tag_26\n  jump\t// in\ntag_89:\n    /* \"#utility.yul\":4853:4859   */\n  dup4\n    /* \"#utility.yul\":4846:4910   */\n  sstore\n    /* \"#utility.yul\":4768:4924   */\n  pop\n    /* \"#utility.yul\":4745:4924   */\ntag_88:\n    /* \"#utility.yul\":4970:4971   */\n  0x01\n    /* \"#utility.yul\":4966:4967   */\n  0x02\n    /* \"#utility.yul\":4958:4964   */\n  dup9\n    /* \"#utility.yul\":4954:4968   */\n  mul\n    /* \"#utility.yul\":4950:4972   */\n  add\n    /* \"#utility.yul\":4944:4948   */\n  dup9\n    /* \"#utility.yul\":4937:4973   */\n  sstore\n    /* \"#utility.yul\":4372:4983   */\n  pop\n  pop\n  pop\n    /* \"#utility.yul\":4335:5222   */\ntag_80:\n  pop\n    /* \"#utility.yul\":3925:5228   */\n  pop\n  pop\n  pop\n    /* \"#utility.yul\":3833:5228   */\n  pop\n  pop\n  jump\t// out\n    /* \"build/solidity/base.sol\":64:7563  contract PonyDrilandBase {... */\ntag_7:\n  dataSize(sub_0)\n  dup1\n  dataOffset(sub_0)\n  0x00\n  codecopy\n  0x00\n  return\nstop\n\nsub_0: assembly {\n        /* \"build/solidity/base.sol\":64:7563  contract PonyDrilandBase {... */\n      mstore(0x40, 0x80)\n      jumpi(tag_1, lt(calldatasize, 0x04))\n      shr(0xe0, calldataload(0x00))\n      dup1\n      0x8ba17f86\n      gt\n      tag_31\n      jumpi\n      dup1\n      0xa9059cbb\n      gt\n      tag_32\n      jumpi\n      dup1\n      0xed88c68e\n      gt\n      tag_33\n      jumpi\n      dup1\n      0xed88c68e\n      eq\n      tag_27\n      jumpi\n      dup1\n      0xedc84da0\n      eq\n      tag_28\n      jumpi\n      dup1\n      0xf2fde38b\n      eq\n      tag_29\n      jumpi\n      dup1\n      0xf41e7222\n      eq\n      tag_30\n      jumpi\n      jump(tag_1)\n    tag_33:\n      dup1\n      0xa9059cbb\n      eq\n      tag_23\n      jumpi\n      dup1\n      0xadeabba9\n      eq\n      tag_24\n      jumpi\n      dup1\n      0xb943cd16\n      eq\n      tag_25\n      jumpi\n      dup1\n      0xcc6cb19a\n      eq\n      tag_26\n      jumpi\n      jump(tag_1)\n    tag_32:\n      dup1\n      0x9a3d66c0\n      gt\n      tag_34\n      jumpi\n      dup1\n      0x9a3d66c0\n      eq\n      tag_19\n      jumpi\n      dup1\n      0x9c6950a1\n      eq\n      tag_20\n      jumpi\n      dup1\n      0xa3907d71\n      eq\n      tag_21\n      jumpi\n      dup1\n      0xa843651e\n      eq\n      tag_22\n      jumpi\n      jump(tag_1)\n    tag_34:\n      dup1\n      0x8ba17f86\n      eq\n      tag_16\n      jumpi\n      dup1\n      0x8da5cb5b\n      eq\n      tag_17\n      jumpi\n      dup1\n      0x95d89b41\n      eq\n      tag_18\n      jumpi\n      jump(tag_1)\n    tag_31:\n      dup1\n      0x40c10f19\n      gt\n      tag_35\n      jumpi\n      dup1\n      0x481dcb7b\n      gt\n      tag_36\n      jumpi\n      dup1\n      0x481dcb7b\n      eq\n      tag_12\n      jumpi\n      dup1\n      0x70734fb2\n      eq\n      tag_13\n      jumpi\n      dup1\n      0x70a08231\n      eq\n      tag_14\n      jumpi\n      dup1\n      0x893d20e8\n      eq\n      tag_15\n      jumpi\n      jump(tag_1)\n    tag_36:\n      dup1\n      0x40c10f19\n      eq\n      tag_9\n      jumpi\n      dup1\n      0x42966c68\n      eq\n      tag_10\n      jumpi\n      dup1\n      0x4559dcdc\n      eq\n      tag_11\n      jumpi\n      jump(tag_1)\n    tag_35:\n      dup1\n      0x18160ddd\n      gt\n      tag_37\n      jumpi\n      dup1\n      0x18160ddd\n      eq\n      tag_5\n      jumpi\n      dup1\n      0x18835c2a\n      eq\n      tag_6\n      jumpi\n      dup1\n      0x27e235e3\n      eq\n      tag_7\n      jumpi\n      dup1\n      0x313ce567\n      eq\n      tag_8\n      jumpi\n      jump(tag_1)\n    tag_37:\n      dup1\n      0x06fdde03\n      eq\n      tag_2\n      jumpi\n      dup1\n      0x08a6f252\n      eq\n      tag_3\n      jumpi\n      dup1\n      0x0db17965\n      eq\n      tag_4\n      jumpi\n    tag_1:\n      0x00\n      dup1\n      revert\n        /* \"build/solidity/base.sol\":572:590  string public name */\n    tag_2:\n      callvalue\n      dup1\n      iszero\n      tag_38\n      jumpi\n      0x00\n      dup1\n      revert\n    tag_38:\n      pop\n      tag_39\n      tag_40\n      jump\t// in\n    tag_39:\n      mload(0x40)\n      tag_41\n      swap2\n      swap1\n      tag_42\n      jump\t// in\n    tag_41:\n      mload(0x40)\n      dup1\n      swap2\n      sub\n      swap1\n      return\n        /* \"build/solidity/base.sol\":251:299  mapping (address => uint256) public interactions */\n    tag_3:\n      callvalue\n      dup1\n      iszero\n      tag_43\n      jumpi\n      0x00\n      dup1\n      revert\n    tag_43:\n      pop\n      tag_44\n      0x04\n      dup1\n      calldatasize\n      sub\n      dup2\n      add\n      swap1\n      tag_45\n      swap2\n      swap1\n      tag_46\n      jump\t// in\n    tag_45:\n      tag_47\n      jump\t// in\n    tag_44:\n      mload(0x40)\n      tag_48\n      swap2\n      swap1\n      tag_49\n      jump\t// in\n    tag_48:\n      mload(0x40)\n      dup1\n      swap2\n      sub\n      swap1\n      return\n        /* \"build/solidity/base.sol\":6042:6190  function getNsfwFilter(address _account, string memory _name) external view returns (uint256) {... */\n    tag_4:\n      callvalue\n      dup1\n      iszero\n      tag_50\n      jumpi\n      0x00\n      dup1\n      revert\n    tag_50:\n      pop\n      tag_51\n      0x04\n      dup1\n      calldatasize\n      sub\n      dup2\n      add\n      swap1\n      tag_52\n      swap2\n      swap1\n      tag_53\n      jump\t// in\n    tag_52:\n      tag_54\n      jump\t// in\n    tag_51:\n      mload(0x40)\n      tag_55\n      swap2\n      swap1\n      tag_49\n      jump\t// in\n    tag_55:\n      mload(0x40)\n      dup1\n      swap2\n      sub\n      swap1\n      return\n        /* \"build/solidity/base.sol\":654:680  uint256 public totalSupply */\n    tag_5:\n      callvalue\n      dup1\n      iszero\n      tag_56\n      jumpi\n      0x00\n      dup1\n      revert\n    tag_56:\n      pop\n      tag_57\n      tag_58\n      jump\t// in\n    tag_57:\n      mload(0x40)\n      tag_59\n      swap2\n      swap1\n      tag_49\n      jump\t// in\n    tag_59:\n      mload(0x40)\n      dup1\n      swap2\n      sub\n      swap1\n      return\n        /* \"build/solidity/base.sol\":2343:2834  function setPerm(address _to, string memory _perm, uint256 _value) public returns (bool success) {... */\n    tag_6:\n      callvalue\n      dup1\n      iszero\n      tag_60\n      jumpi\n      0x00\n      dup1\n      revert\n    tag_60:\n      pop\n      tag_61\n      0x04\n      dup1\n      calldatasize\n      sub\n      dup2\n      add\n      swap1\n      tag_62\n      swap2\n      swap1\n      tag_63\n      jump\t// in\n    tag_62:\n      tag_64\n      jump\t// in\n    tag_61:\n      mload(0x40)\n      tag_65\n      swap2\n      swap1\n      tag_66\n      jump\t// in\n    tag_65:\n      mload(0x40)\n      dup1\n      swap2\n      sub\n      swap1\n      return\n        /* \"build/solidity/base.sol\":148:192  mapping (address => uint256) public balances */\n    tag_7:\n      callvalue\n      dup1\n      iszero\n      tag_67\n      jumpi\n      0x00\n      dup1\n      revert\n    tag_67:\n      pop\n      tag_68\n      0x04\n      dup1\n      calldatasize\n      sub\n      dup2\n      add\n      swap1\n      tag_69\n      swap2\n      swap1\n      tag_46\n      jump\t// in\n    tag_69:\n      tag_70\n      jump\t// in\n    tag_68:\n      mload(0x40)\n      tag_71\n      swap2\n      swap1\n      tag_49\n      jump\t// in\n    tag_71:\n      mload(0x40)\n      dup1\n      swap2\n      sub\n      swap1\n      return\n        /* \"build/solidity/base.sol\":624:645  uint8 public decimals */\n    tag_8:\n      callvalue\n      dup1\n      iszero\n      tag_72\n      jumpi\n      0x00\n      dup1\n      revert\n    tag_72:\n      pop\n      tag_73\n      tag_74\n      jump\t// in\n    tag_73:\n      mload(0x40)\n      tag_75\n      swap2\n      swap1\n      tag_76\n      jump\t// in\n    tag_75:\n      mload(0x40)\n      dup1\n      swap2\n      sub\n      swap1\n      return\n        /* \"build/solidity/base.sol\":3005:3534  function mint(address _to, uint256 _value) public returns (bool success) {... */\n    tag_9:\n      callvalue\n      dup1\n      iszero\n      tag_77\n      jumpi\n      0x00\n      dup1\n      revert\n    tag_77:\n      pop\n      tag_78\n      0x04\n      dup1\n      calldatasize\n      sub\n      dup2\n      add\n      swap1\n      tag_79\n      swap2\n      swap1\n      tag_80\n      jump\t// in\n    tag_79:\n      tag_81\n      jump\t// in\n    tag_78:\n      mload(0x40)\n      tag_82\n      swap2\n      swap1\n      tag_66\n      jump\t// in\n    tag_82:\n      mload(0x40)\n      dup1\n      swap2\n      sub\n      swap1\n      return\n        /* \"build/solidity/base.sol\":3561:4116  function burn(uint256 _value) public returns (bool success) {... */\n    tag_10:\n      callvalue\n      dup1\n      iszero\n      tag_83\n      jumpi\n      0x00\n      dup1\n      revert\n    tag_83:\n      pop\n      tag_84\n      0x04\n      dup1\n      calldatasize\n      sub\n      dup2\n      add\n      swap1\n      tag_85\n      swap2\n      swap1\n      tag_86\n      jump\t// in\n    tag_85:\n      tag_87\n      jump\t// in\n    tag_84:\n      mload(0x40)\n      tag_88\n      swap2\n      swap1\n      tag_66\n      jump\t// in\n    tag_88:\n      mload(0x40)\n      dup1\n      swap2\n      sub\n      swap1\n      return\n        /* \"build/solidity/base.sol\":6976:7554  function setVolume(uint256 _value) public returns (bool success) {... */\n    tag_11:\n      callvalue\n      dup1\n      iszero\n      tag_89\n      jumpi\n      0x00\n      dup1\n      revert\n    tag_89:\n      pop\n      tag_90\n      0x04\n      dup1\n      calldatasize\n      sub\n      dup2\n      add\n      swap1\n      tag_91\n      swap2\n      swap1\n      tag_86\n      jump\t// in\n    tag_91:\n      tag_92\n      jump\t// in\n    tag_90:\n      mload(0x40)\n      tag_93\n      swap2\n      swap1\n      tag_66\n      jump\t// in\n    tag_93:\n      mload(0x40)\n      dup1\n      swap2\n      sub\n      swap1\n      return\n        /* \"build/solidity/base.sol\":6198:6834  function changeNsfwFilter(string memory _name, uint256 _value) public returns (bool success) {... */\n    tag_12:\n      callvalue\n      dup1\n      iszero\n      tag_94\n      jumpi\n      0x00\n      dup1\n      revert\n    tag_94:\n      pop\n      tag_95\n      0x04\n      dup1\n      calldatasize\n      sub\n      dup2\n      add\n      swap1\n      tag_96\n      swap2\n      swap1\n      tag_97\n      jump\t// in\n    tag_96:\n      tag_98\n      jump\t// in\n    tag_95:\n      mload(0x40)\n      tag_99\n      swap2\n      swap1\n      tag_66\n      jump\t// in\n    tag_99:\n      mload(0x40)\n      dup1\n      swap2\n      sub\n      swap1\n      return\n        /* \"build/solidity/base.sol\":306:366  mapping (address => mapping (string => uint256)) public perm */\n    tag_13:\n      callvalue\n      dup1\n      iszero\n      tag_100\n      jumpi\n      0x00\n      dup1\n      revert\n    tag_100:\n      pop\n      tag_101\n      0x04\n      dup1\n      calldatasize\n      sub\n      dup2\n      add\n      swap1\n      tag_102\n      swap2\n      swap1\n      tag_53\n      jump\t// in\n    tag_102:\n      tag_103\n      jump\t// in\n    tag_101:\n      mload(0x40)\n      tag_104\n      swap2\n      swap1\n      tag_49\n      jump\t// in\n    tag_104:\n      mload(0x40)\n      dup1\n      swap2\n      sub\n      swap1\n      return\n        /* \"build/solidity/base.sol\":1703:1816  function balanceOf(address _account) external view returns (uint256) {... */\n    tag_14:\n      callvalue\n      dup1\n      iszero\n      tag_105\n      jumpi\n      0x00\n      dup1\n      revert\n    tag_105:\n      pop\n      tag_106\n      0x04\n      dup1\n      calldatasize\n      sub\n      dup2\n      add\n      swap1\n      tag_107\n      swap2\n      swap1\n      tag_46\n      jump\t// in\n    tag_107:\n      tag_108\n      jump\t// in\n    tag_106:\n      mload(0x40)\n      tag_109\n      swap2\n      swap1\n      tag_49\n      jump\t// in\n    tag_109:\n      mload(0x40)\n      dup1\n      swap2\n      sub\n      swap1\n      return\n        /* \"build/solidity/base.sol\":5146:5227  function getOwner() public view returns (address) {... */\n    tag_15:\n      callvalue\n      dup1\n      iszero\n      tag_110\n      jumpi\n      0x00\n      dup1\n      revert\n    tag_110:\n      pop\n      tag_111\n      tag_112\n      jump\t// in\n    tag_111:\n      mload(0x40)\n      tag_113\n      swap2\n      swap1\n      tag_114\n      jump\t// in\n    tag_113:\n      mload(0x40)\n      dup1\n      swap2\n      sub\n      swap1\n      return\n        /* \"build/solidity/base.sol\":6857:6968  function getVolume(address _account) external view returns (uint256) {... */\n    tag_16:\n      callvalue\n      dup1\n      iszero\n      tag_115\n      jumpi\n      0x00\n      dup1\n      revert\n    tag_115:\n      pop\n      tag_116\n      0x04\n      dup1\n      calldatasize\n      sub\n      dup2\n      add\n      swap1\n      tag_117\n      swap2\n      swap1\n      tag_46\n      jump\t// in\n    tag_117:\n      tag_118\n      jump\t// in\n    tag_116:\n      mload(0x40)\n      tag_119\n      swap2\n      swap1\n      tag_49\n      jump\t// in\n    tag_119:\n      mload(0x40)\n      dup1\n      swap2\n      sub\n      swap1\n      return\n        /* \"build/solidity/base.sol\":111:139  address payable public owner */\n    tag_17:\n      callvalue\n      dup1\n      iszero\n      tag_120\n      jumpi\n      0x00\n      dup1\n      revert\n    tag_120:\n      pop\n      tag_121\n      tag_122\n      jump\t// in\n    tag_121:\n      mload(0x40)\n      tag_123\n      swap2\n      swap1\n      tag_124\n      jump\t// in\n    tag_123:\n      mload(0x40)\n      dup1\n      swap2\n      sub\n      swap1\n      return\n        /* \"build/solidity/base.sol\":597:617  string public symbol */\n    tag_18:\n      callvalue\n      dup1\n      iszero\n      tag_125\n      jumpi\n      0x00\n      dup1\n      revert\n    tag_125:\n      pop\n      tag_126\n      tag_127\n      jump\t// in\n    tag_126:\n      mload(0x40)\n      tag_128\n      swap2\n      swap1\n      tag_42\n      jump\t// in\n    tag_128:\n      mload(0x40)\n      dup1\n      swap2\n      sub\n      swap1\n      return\n        /* \"build/solidity/base.sol\":5253:5396  function getBookmark(address _account, uint256 _chapter) external view returns (uint256) {... */\n    tag_19:\n      callvalue\n      dup1\n      iszero\n      tag_129\n      jumpi\n      0x00\n      dup1\n      revert\n    tag_129:\n      pop\n      tag_130\n      0x04\n      dup1\n      calldatasize\n      sub\n      dup2\n      add\n      swap1\n      tag_131\n      swap2\n      swap1\n      tag_80\n      jump\t// in\n    tag_131:\n      tag_132\n      jump\t// in\n    tag_130:\n      mload(0x40)\n      tag_133\n      swap2\n      swap1\n      tag_49\n      jump\t// in\n    tag_133:\n      mload(0x40)\n      dup1\n      swap2\n      sub\n      swap1\n      return\n        /* \"build/solidity/base.sol\":375:440  mapping (address => mapping (uint256 => uint256)) public bookmark */\n    tag_20:\n      callvalue\n      dup1\n      iszero\n      tag_134\n      jumpi\n      0x00\n      dup1\n      revert\n    tag_134:\n      pop\n      tag_135\n      0x04\n      dup1\n      calldatasize\n      sub\n      dup2\n      add\n      swap1\n      tag_136\n      swap2\n      swap1\n      tag_80\n      jump\t// in\n    tag_136:\n      tag_137\n      jump\t// in\n    tag_135:\n      mload(0x40)\n      tag_138\n      swap2\n      swap1\n      tag_49\n      jump\t// in\n    tag_138:\n      mload(0x40)\n      dup1\n      swap2\n      sub\n      swap1\n      return\n        /* \"build/solidity/base.sol\":4703:5125  function enable() public returns (bool success) {... */\n    tag_21:\n      callvalue\n      dup1\n      iszero\n      tag_139\n      jumpi\n      0x00\n      dup1\n      revert\n    tag_139:\n      pop\n      tag_140\n      tag_141\n      jump\t// in\n    tag_140:\n      mload(0x40)\n      tag_142\n      swap2\n      swap1\n      tag_66\n      jump\t// in\n    tag_142:\n      mload(0x40)\n      dup1\n      swap2\n      sub\n      swap1\n      return\n        /* \"build/solidity/base.sol\":687:719  uint256 public totalInteractions */\n    tag_22:\n      callvalue\n      dup1\n      iszero\n      tag_143\n      jumpi\n      0x00\n      dup1\n      revert\n    tag_143:\n      pop\n      tag_144\n      tag_145\n      jump\t// in\n    tag_144:\n      mload(0x40)\n      tag_146\n      swap2\n      swap1\n      tag_49\n      jump\t// in\n    tag_146:\n      mload(0x40)\n      dup1\n      swap2\n      sub\n      swap1\n      return\n        /* \"build/solidity/base.sol\":4144:4674  function transfer(address _to, uint256 _value) public returns (bool success) {... */\n    tag_23:\n      callvalue\n      dup1\n      iszero\n      tag_147\n      jumpi\n      0x00\n      dup1\n      revert\n    tag_147:\n      pop\n      tag_148\n      0x04\n      dup1\n      calldatasize\n      sub\n      dup2\n      add\n      swap1\n      tag_149\n      swap2\n      swap1\n      tag_80\n      jump\t// in\n    tag_149:\n      tag_150\n      jump\t// in\n    tag_148:\n      mload(0x40)\n      tag_151\n      swap2\n      swap1\n      tag_66\n      jump\t// in\n    tag_151:\n      mload(0x40)\n      dup1\n      swap2\n      sub\n      swap1\n      return\n        /* \"build/solidity/base.sol\":521:563  mapping (address => uint256) public volume */\n    tag_24:\n      callvalue\n      dup1\n      iszero\n      tag_152\n      jumpi\n      0x00\n      dup1\n      revert\n    tag_152:\n      pop\n      tag_153\n      0x04\n      dup1\n      calldatasize\n      sub\n      dup2\n      add\n      swap1\n      tag_154\n      swap2\n      swap1\n      tag_46\n      jump\t// in\n    tag_154:\n      tag_155\n      jump\t// in\n    tag_153:\n      mload(0x40)\n      tag_156\n      swap2\n      swap1\n      tag_49\n      jump\t// in\n    tag_156:\n      mload(0x40)\n      dup1\n      swap2\n      sub\n      swap1\n      return\n        /* \"build/solidity/base.sol\":447:514  mapping (address => mapping (string => uint256)) public nsfw_filter */\n    tag_25:\n      callvalue\n      dup1\n      iszero\n      tag_157\n      jumpi\n      0x00\n      dup1\n      revert\n    tag_157:\n      pop\n      tag_158\n      0x04\n      dup1\n      calldatasize\n      sub\n      dup2\n      add\n      swap1\n      tag_159\n      swap2\n      swap1\n      tag_53\n      jump\t// in\n    tag_159:\n      tag_160\n      jump\t// in\n    tag_158:\n      mload(0x40)\n      tag_161\n      swap2\n      swap1\n      tag_49\n      jump\t// in\n    tag_161:\n      mload(0x40)\n      dup1\n      swap2\n      sub\n      swap1\n      return\n        /* \"build/solidity/base.sol\":199:244  mapping (address => uint256) public donations */\n    tag_26:\n      callvalue\n      dup1\n      iszero\n      tag_162\n      jumpi\n      0x00\n      dup1\n      revert\n    tag_162:\n      pop\n      tag_163\n      0x04\n      dup1\n      calldatasize\n      sub\n      dup2\n      add\n      swap1\n      tag_164\n      swap2\n      swap1\n      tag_46\n      jump\t// in\n    tag_164:\n      tag_165\n      jump\t// in\n    tag_163:\n      mload(0x40)\n      tag_166\n      swap2\n      swap1\n      tag_49\n      jump\t// in\n    tag_166:\n      mload(0x40)\n      dup1\n      swap2\n      sub\n      swap1\n      return\n        /* \"build/solidity/base.sol\":1841:2069  function donate() payable public returns (bool success) {... */\n    tag_27:\n      tag_167\n      tag_168\n      jump\t// in\n    tag_167:\n      mload(0x40)\n      tag_169\n      swap2\n      swap1\n      tag_66\n      jump\t// in\n    tag_169:\n      mload(0x40)\n      dup1\n      swap2\n      sub\n      swap1\n      return\n        /* \"build/solidity/base.sol\":5404:6014  function insertBookmark(uint256 _chapter, uint256 _value) public returns (bool success) {... */\n    tag_28:\n      callvalue\n      dup1\n      iszero\n      tag_170\n      jumpi\n      0x00\n      dup1\n      revert\n    tag_170:\n      pop\n      tag_171\n      0x04\n      dup1\n      calldatasize\n      sub\n      dup2\n      add\n      swap1\n      tag_172\n      swap2\n      swap1\n      tag_173\n      jump\t// in\n    tag_172:\n      tag_174\n      jump\t// in\n    tag_171:\n      mload(0x40)\n      tag_175\n      swap2\n      swap1\n      tag_66\n      jump\t// in\n    tag_175:\n      mload(0x40)\n      dup1\n      swap2\n      sub\n      swap1\n      return\n        /* \"build/solidity/base.sol\":2077:2318  function transferOwnership(address newOwner) public {... */\n    tag_29:\n      callvalue\n      dup1\n      iszero\n      tag_176\n      jumpi\n      0x00\n      dup1\n      revert\n    tag_176:\n      pop\n      tag_177\n      0x04\n      dup1\n      calldatasize\n      sub\n      dup2\n      add\n      swap1\n      tag_178\n      swap2\n      swap1\n      tag_46\n      jump\t// in\n    tag_178:\n      tag_179\n      jump\t// in\n    tag_177:\n      stop\n        /* \"build/solidity/base.sol\":2842:2977  function getPerm(address _account, string memory _perm) external view returns (uint256) {... */\n    tag_30:\n      callvalue\n      dup1\n      iszero\n      tag_180\n      jumpi\n      0x00\n      dup1\n      revert\n    tag_180:\n      pop\n      tag_181\n      0x04\n      dup1\n      calldatasize\n      sub\n      dup2\n      add\n      swap1\n      tag_182\n      swap2\n      swap1\n      tag_53\n      jump\t// in\n    tag_182:\n      tag_183\n      jump\t// in\n    tag_181:\n      mload(0x40)\n      tag_184\n      swap2\n      swap1\n      tag_49\n      jump\t// in\n    tag_184:\n      mload(0x40)\n      dup1\n      swap2\n      sub\n      swap1\n      return\n        /* \"build/solidity/base.sol\":572:590  string public name */\n    tag_40:\n      0x08\n      dup1\n      sload\n      tag_185\n      swap1\n      tag_186\n      jump\t// in\n    tag_185:\n      dup1\n      0x1f\n      add\n      0x20\n      dup1\n      swap2\n      div\n      mul\n      0x20\n      add\n      mload(0x40)\n      swap1\n      dup2\n      add\n      0x40\n      mstore\n      dup1\n      swap3\n      swap2\n      swap1\n      dup2\n      dup2\n      mstore\n      0x20\n      add\n      dup3\n      dup1\n      sload\n      tag_187\n      swap1\n      tag_186\n      jump\t// in\n    tag_187:\n      dup1\n      iszero\n      tag_188\n      jumpi\n      dup1\n      0x1f\n      lt\n      tag_189\n      jumpi\n      0x0100\n      dup1\n      dup4\n      sload\n      div\n      mul\n      dup4\n      mstore\n      swap2\n      0x20\n      add\n      swap2\n      jump(tag_188)\n    tag_189:\n      dup3\n      add\n      swap2\n      swap1\n      0x00\n      mstore\n      keccak256(0x00, 0x20)\n      swap1\n    tag_190:\n      dup2\n      sload\n      dup2\n      mstore\n      swap1\n      0x01\n      add\n      swap1\n      0x20\n      add\n      dup1\n      dup4\n      gt\n      tag_190\n      jumpi\n      dup3\n      swap1\n      sub\n      0x1f\n      and\n      dup3\n      add\n      swap2\n    tag_188:\n      pop\n      pop\n      pop\n      pop\n      pop\n      dup2\n      jump\t// out\n        /* \"build/solidity/base.sol\":251:299  mapping (address => uint256) public interactions */\n    tag_47:\n      mstore(0x20, 0x03)\n      dup1\n      0x00\n      mstore\n      keccak256(0x00, 0x40)\n      0x00\n      swap2\n      pop\n      swap1\n      pop\n      sload\n      dup2\n      jump\t// out\n        /* \"build/solidity/base.sol\":6042:6190  function getNsfwFilter(address _account, string memory _name) external view returns (uint256) {... */\n    tag_54:\n        /* \"build/solidity/base.sol\":6127:6134  uint256 */\n      0x00\n        /* \"build/solidity/base.sol\":6154:6165  nsfw_filter */\n      0x06\n        /* \"build/solidity/base.sol\":6154:6175  nsfw_filter[_account] */\n      0x00\n        /* \"build/solidity/base.sol\":6166:6174  _account */\n      dup5\n        /* \"build/solidity/base.sol\":6154:6175  nsfw_filter[_account] */\n      0xffffffffffffffffffffffffffffffffffffffff\n      and\n      0xffffffffffffffffffffffffffffffffffffffff\n      and\n      dup2\n      mstore\n      0x20\n      add\n      swap1\n      dup2\n      mstore\n      0x20\n      add\n      0x00\n      keccak256\n        /* \"build/solidity/base.sol\":6176:6181  _name */\n      dup3\n        /* \"build/solidity/base.sol\":6154:6182  nsfw_filter[_account][_name] */\n      mload(0x40)\n      tag_192\n      swap2\n      swap1\n      tag_193\n      jump\t// in\n    tag_192:\n      swap1\n      dup2\n      mstore\n      0x20\n      add\n      mload(0x40)\n      dup1\n      swap2\n      sub\n      swap1\n      keccak256\n      sload\n        /* \"build/solidity/base.sol\":6147:6182  return nsfw_filter[_account][_name] */\n      swap1\n      pop\n        /* \"build/solidity/base.sol\":6042:6190  function getNsfwFilter(address _account, string memory _name) external view returns (uint256) {... */\n      swap3\n      swap2\n      pop\n      pop\n      jump\t// out\n        /* \"build/solidity/base.sol\":654:680  uint256 public totalSupply */\n    tag_58:\n      sload(0x0b)\n      dup2\n      jump\t// out\n        /* \"build/solidity/base.sol\":2343:2834  function setPerm(address _to, string memory _perm, uint256 _value) public returns (bool success) {... */\n    tag_64:\n        /* \"build/solidity/base.sol\":2426:2438  bool success */\n      0x00\n        /* \"build/solidity/base.sol\":2514:2519  owner */\n      dup1\n      0x00\n      swap1\n      sload\n      swap1\n      0x0100\n      exp\n      swap1\n      div\n      0xffffffffffffffffffffffffffffffffffffffff\n      and\n        /* \"build/solidity/base.sol\":2483:2520  address(msg.sender) == address(owner) */\n      0xffffffffffffffffffffffffffffffffffffffff\n      and\n        /* \"build/solidity/base.sol\":2491:2501  msg.sender */\n      caller\n        /* \"build/solidity/base.sol\":2483:2520  address(msg.sender) == address(owner) */\n      0xffffffffffffffffffffffffffffffffffffffff\n      and\n      eq\n        /* \"build/solidity/base.sol\":2475:2556  require(address(msg.sender) == address(owner), \"You are not allowed to do this.\") */\n      tag_195\n      jumpi\n      mload(0x40)\n      0x08c379a000000000000000000000000000000000000000000000000000000000\n      dup2\n      mstore\n      0x04\n      add\n      tag_196\n      swap1\n      tag_197\n      jump\t// in\n    tag_196:\n      mload(0x40)\n      dup1\n      swap2\n      sub\n      swap1\n      revert\n    tag_195:\n        /* \"build/solidity/base.sol\":2590:2591  0 */\n      0x00\n        /* \"build/solidity/base.sol\":2575:2592  _to != address(0) */\n      0xffffffffffffffffffffffffffffffffffffffff\n      and\n        /* \"build/solidity/base.sol\":2575:2578  _to */\n      dup5\n        /* \"build/solidity/base.sol\":2575:2592  _to != address(0) */\n      0xffffffffffffffffffffffffffffffffffffffff\n      and\n      sub\n        /* \"build/solidity/base.sol\":2567:2610  require(_to != address(0), \"Zero address.\") */\n      tag_198\n      jumpi\n      mload(0x40)\n      0x08c379a000000000000000000000000000000000000000000000000000000000\n      dup2\n      mstore\n      0x04\n      add\n      tag_199\n      swap1\n      tag_200\n      jump\t// in\n    tag_199:\n      mload(0x40)\n      dup1\n      swap2\n      sub\n      swap1\n      revert\n    tag_198:\n        /* \"build/solidity/base.sol\":2639:2640  0 */\n      0x00\n        /* \"build/solidity/base.sol\":2629:2635  _value */\n      dup3\n        /* \"build/solidity/base.sol\":2629:2640  _value >= 0 */\n      lt\n      iszero\n        /* \"build/solidity/base.sol\":2621:2660  require(_value >= 0, \"Invalid amount!\") */\n      tag_201\n      jumpi\n      mload(0x40)\n      0x08c379a000000000000000000000000000000000000000000000000000000000\n      dup2\n      mstore\n      0x04\n      add\n      tag_202\n      swap1\n      tag_203\n      jump\t// in\n    tag_202:\n      mload(0x40)\n      dup1\n      swap2\n      sub\n      swap1\n      revert\n    tag_201:\n        /* \"build/solidity/base.sol\":2718:2724  _value */\n      dup2\n        /* \"build/solidity/base.sol\":2699:2703  perm */\n      0x04\n        /* \"build/solidity/base.sol\":2699:2708  perm[_to] */\n      0x00\n        /* \"build/solidity/base.sol\":2704:2707  _to */\n      dup7\n        /* \"build/solidity/base.sol\":2699:2708  perm[_to] */\n      0xffffffffffffffffffffffffffffffffffffffff\n      and\n      0xffffffffffffffffffffffffffffffffffffffff\n      and\n      dup2\n      mstore\n      0x20\n      add\n      swap1\n      dup2\n      mstore\n      0x20\n      add\n      0x00\n      keccak256\n        /* \"build/solidity/base.sol\":2709:2714  _perm */\n      dup5\n        /* \"build/solidity/base.sol\":2699:2715  perm[_to][_perm] */\n      mload(0x40)\n      tag_204\n      swap2\n      swap1\n      tag_193\n      jump\t// in\n    tag_204:\n      swap1\n      dup2\n      mstore\n      0x20\n      add\n      mload(0x40)\n      dup1\n      swap2\n      sub\n      swap1\n      keccak256\n        /* \"build/solidity/base.sol\":2699:2724  perm[_to][_perm] = _value */\n      dup2\n      swap1\n      sstore\n      pop\n        /* \"build/solidity/base.sol\":2783:2786  _to */\n      dup4\n        /* \"build/solidity/base.sol\":2763:2802  SetPerm(msg.sender, _to, _perm, _value) */\n      0xffffffffffffffffffffffffffffffffffffffff\n      and\n        /* \"build/solidity/base.sol\":2771:2781  msg.sender */\n      caller\n        /* \"build/solidity/base.sol\":2763:2802  SetPerm(msg.sender, _to, _perm, _value) */\n      0xffffffffffffffffffffffffffffffffffffffff\n      and\n      0xdd5e174b0234e3aa867220959585ed4060eab789cea697d562b60b0731f54af8\n        /* \"build/solidity/base.sol\":2788:2793  _perm */\n      dup6\n        /* \"build/solidity/base.sol\":2795:2801  _value */\n      dup6\n        /* \"build/solidity/base.sol\":2763:2802  SetPerm(msg.sender, _to, _perm, _value) */\n      mload(0x40)\n      tag_205\n      swap3\n      swap2\n      swap1\n      tag_206\n      jump\t// in\n    tag_205:\n      mload(0x40)\n      dup1\n      swap2\n      sub\n      swap1\n      log3\n        /* \"build/solidity/base.sol\":2820:2824  true */\n      0x01\n        /* \"build/solidity/base.sol\":2813:2824  return true */\n      swap1\n      pop\n        /* \"build/solidity/base.sol\":2343:2834  function setPerm(address _to, string memory _perm, uint256 _value) public returns (bool success) {... */\n      swap4\n      swap3\n      pop\n      pop\n      pop\n      jump\t// out\n        /* \"build/solidity/base.sol\":148:192  mapping (address => uint256) public balances */\n    tag_70:\n      mstore(0x20, 0x01)\n      dup1\n      0x00\n      mstore\n      keccak256(0x00, 0x40)\n      0x00\n      swap2\n      pop\n      swap1\n      pop\n      sload\n      dup2\n      jump\t// out\n        /* \"build/solidity/base.sol\":624:645  uint8 public decimals */\n    tag_74:\n      0x0a\n      0x00\n      swap1\n      sload\n      swap1\n      0x0100\n      exp\n      swap1\n      div\n      0xff\n      and\n      dup2\n      jump\t// out\n        /* \"build/solidity/base.sol\":3005:3534  function mint(address _to, uint256 _value) public returns (bool success) {... */\n    tag_81:\n        /* \"build/solidity/base.sol\":3064:3076  bool success */\n      0x00\n        /* \"build/solidity/base.sol\":3159:3160  1 */\n      0x01\n        /* \"build/solidity/base.sol\":3121:3125  perm */\n      0x04\n        /* \"build/solidity/base.sol\":3121:3146  perm[address(msg.sender)] */\n      0x00\n        /* \"build/solidity/base.sol\":3134:3144  msg.sender */\n      caller\n        /* \"build/solidity/base.sol\":3121:3146  perm[address(msg.sender)] */\n      0xffffffffffffffffffffffffffffffffffffffff\n      and\n      0xffffffffffffffffffffffffffffffffffffffff\n      and\n      dup2\n      mstore\n      0x20\n      add\n      swap1\n      dup2\n      mstore\n      0x20\n      add\n      0x00\n      keccak256\n        /* \"build/solidity/base.sol\":3121:3155  perm[address(msg.sender)][\"admin\"] */\n      mload(0x40)\n      tag_208\n      swap1\n      tag_209\n      jump\t// in\n    tag_208:\n      swap1\n      dup2\n      mstore\n      0x20\n      add\n      mload(0x40)\n      dup1\n      swap2\n      sub\n      swap1\n      keccak256\n      sload\n        /* \"build/solidity/base.sol\":3121:3160  perm[address(msg.sender)][\"admin\"] == 1 */\n      eq\n        /* \"build/solidity/base.sol\":3113:3196  require(perm[address(msg.sender)][\"admin\"] == 1, \"You are not allowed to do this.\") */\n      tag_210\n      jumpi\n      mload(0x40)\n      0x08c379a000000000000000000000000000000000000000000000000000000000\n      dup2\n      mstore\n      0x04\n      add\n      tag_211\n      swap1\n      tag_197\n      jump\t// in\n    tag_211:\n      mload(0x40)\n      dup1\n      swap2\n      sub\n      swap1\n      revert\n    tag_210:\n        /* \"build/solidity/base.sol\":3230:3231  0 */\n      0x00\n        /* \"build/solidity/base.sol\":3215:3232  _to != address(0) */\n      0xffffffffffffffffffffffffffffffffffffffff\n      and\n        /* \"build/solidity/base.sol\":3215:3218  _to */\n      dup4\n        /* \"build/solidity/base.sol\":3215:3232  _to != address(0) */\n      0xffffffffffffffffffffffffffffffffffffffff\n      and\n      sub\n        /* \"build/solidity/base.sol\":3207:3262  require(_to != address(0), \"Mint to the zero address.\") */\n      tag_212\n      jumpi\n      mload(0x40)\n      0x08c379a000000000000000000000000000000000000000000000000000000000\n      dup2\n      mstore\n      0x04\n      add\n      tag_213\n      swap1\n      tag_214\n      jump\t// in\n    tag_213:\n      mload(0x40)\n      dup1\n      swap2\n      sub\n      swap1\n      revert\n    tag_212:\n        /* \"build/solidity/base.sol\":3291:3292  0 */\n      0x00\n        /* \"build/solidity/base.sol\":3281:3287  _value */\n      dup3\n        /* \"build/solidity/base.sol\":3281:3292  _value >= 0 */\n      lt\n      iszero\n        /* \"build/solidity/base.sol\":3273:3312  require(_value >= 0, \"Invalid amount!\") */\n      tag_215\n      jumpi\n      mload(0x40)\n      0x08c379a000000000000000000000000000000000000000000000000000000000\n      dup2\n      mstore\n      0x04\n      add\n      tag_216\n      swap1\n      tag_203\n      jump\t// in\n    tag_216:\n      mload(0x40)\n      dup1\n      swap2\n      sub\n      swap1\n      revert\n    tag_215:\n        /* \"build/solidity/base.sol\":3383:3389  _value */\n      dup2\n        /* \"build/solidity/base.sol\":3367:3375  balances */\n      0x01\n        /* \"build/solidity/base.sol\":3367:3380  balances[_to] */\n      0x00\n        /* \"build/solidity/base.sol\":3376:3379  _to */\n      dup6\n        /* \"build/solidity/base.sol\":3367:3380  balances[_to] */\n      0xffffffffffffffffffffffffffffffffffffffff\n      and\n      0xffffffffffffffffffffffffffffffffffffffff\n      and\n      dup2\n      mstore\n      0x20\n      add\n      swap1\n      dup2\n      mstore\n      0x20\n      add\n      0x00\n      keccak256\n      sload\n        /* \"build/solidity/base.sol\":3367:3389  balances[_to] + _value */\n      tag_217\n      swap2\n      swap1\n      tag_218\n      jump\t// in\n    tag_217:\n        /* \"build/solidity/base.sol\":3351:3359  balances */\n      0x01\n        /* \"build/solidity/base.sol\":3351:3364  balances[_to] */\n      0x00\n        /* \"build/solidity/base.sol\":3360:3363  _to */\n      dup6\n        /* \"build/solidity/base.sol\":3351:3364  balances[_to] */\n      0xffffffffffffffffffffffffffffffffffffffff\n      and\n      0xffffffffffffffffffffffffffffffffffffffff\n      and\n      dup2\n      mstore\n      0x20\n      add\n      swap1\n      dup2\n      mstore\n      0x20\n      add\n      0x00\n      keccak256\n        /* \"build/solidity/base.sol\":3351:3389  balances[_to] = balances[_to] + _value */\n      dup2\n      swap1\n      sstore\n      pop\n        /* \"build/solidity/base.sol\":3428:3434  _value */\n      dup2\n        /* \"build/solidity/base.sol\":3414:3425  totalSupply */\n      sload(0x0b)\n        /* \"build/solidity/base.sol\":3414:3434  totalSupply + _value */\n      tag_219\n      swap2\n      swap1\n      tag_218\n      jump\t// in\n    tag_219:\n        /* \"build/solidity/base.sol\":3400:3411  totalSupply */\n      0x0b\n        /* \"build/solidity/base.sol\":3400:3434  totalSupply = totalSupply + _value */\n      dup2\n      swap1\n      sstore\n      pop\n        /* \"build/solidity/base.sol\":3490:3493  _to */\n      dup3\n        /* \"build/solidity/base.sol\":3473:3502  Mint(msg.sender, _to, _value) */\n      0xffffffffffffffffffffffffffffffffffffffff\n      and\n        /* \"build/solidity/base.sol\":3478:3488  msg.sender */\n      caller\n        /* \"build/solidity/base.sol\":3473:3502  Mint(msg.sender, _to, _value) */\n      0xffffffffffffffffffffffffffffffffffffffff\n      and\n      0xab8530f87dc9b59234c4623bf917212bb2536d647574c8e7e5da92c2ede0c9f8\n        /* \"build/solidity/base.sol\":3495:3501  _value */\n      dup5\n        /* \"build/solidity/base.sol\":3473:3502  Mint(msg.sender, _to, _value) */\n      mload(0x40)\n      tag_220\n      swap2\n      swap1\n      tag_49\n      jump\t// in\n    tag_220:\n      mload(0x40)\n      dup1\n      swap2\n      sub\n      swap1\n      log3\n        /* \"build/solidity/base.sol\":3520:3524  true */\n      0x01\n        /* \"build/solidity/base.sol\":3513:3524  return true */\n      swap1\n      pop\n        /* \"build/solidity/base.sol\":3005:3534  function mint(address _to, uint256 _value) public returns (bool success) {... */\n      swap3\n      swap2\n      pop\n      pop\n      jump\t// out\n        /* \"build/solidity/base.sol\":3561:4116  function burn(uint256 _value) public returns (bool success) {... */\n    tag_87:\n        /* \"build/solidity/base.sol\":3607:3619  bool success */\n      0x00\n        /* \"build/solidity/base.sol\":3702:3703  1 */\n      0x01\n        /* \"build/solidity/base.sol\":3664:3668  perm */\n      0x04\n        /* \"build/solidity/base.sol\":3664:3689  perm[address(msg.sender)] */\n      0x00\n        /* \"build/solidity/base.sol\":3677:3687  msg.sender */\n      caller\n        /* \"build/solidity/base.sol\":3664:3689  perm[address(msg.sender)] */\n      0xffffffffffffffffffffffffffffffffffffffff\n      and\n      0xffffffffffffffffffffffffffffffffffffffff\n      and\n      dup2\n      mstore\n      0x20\n      add\n      swap1\n      dup2\n      mstore\n      0x20\n      add\n      0x00\n      keccak256\n        /* \"build/solidity/base.sol\":3664:3698  perm[address(msg.sender)][\"admin\"] */\n      mload(0x40)\n      tag_222\n      swap1\n      tag_209\n      jump\t// in\n    tag_222:\n      swap1\n      dup2\n      mstore\n      0x20\n      add\n      mload(0x40)\n      dup1\n      swap2\n      sub\n      swap1\n      keccak256\n      sload\n        /* \"build/solidity/base.sol\":3664:3703  perm[address(msg.sender)][\"admin\"] == 1 */\n      eq\n        /* \"build/solidity/base.sol\":3656:3739  require(perm[address(msg.sender)][\"admin\"] == 1, \"You are not allowed to do this.\") */\n      tag_223\n      jumpi\n      mload(0x40)\n      0x08c379a000000000000000000000000000000000000000000000000000000000\n      dup2\n      mstore\n      0x04\n      add\n      tag_224\n      swap1\n      tag_197\n      jump\t// in\n    tag_224:\n      mload(0x40)\n      dup1\n      swap2\n      sub\n      swap1\n      revert\n    tag_223:\n        /* \"build/solidity/base.sol\":3768:3776  balances */\n      0x01\n        /* \"build/solidity/base.sol\":3768:3797  balances[address(msg.sender)] */\n      0x00\n        /* \"build/solidity/base.sol\":3785:3795  msg.sender */\n      caller\n        /* \"build/solidity/base.sol\":3768:3797  balances[address(msg.sender)] */\n      0xffffffffffffffffffffffffffffffffffffffff\n      and\n      0xffffffffffffffffffffffffffffffffffffffff\n      and\n      dup2\n      mstore\n      0x20\n      add\n      swap1\n      dup2\n      mstore\n      0x20\n      add\n      0x00\n      keccak256\n      sload\n        /* \"build/solidity/base.sol\":3758:3764  _value */\n      dup3\n        /* \"build/solidity/base.sol\":3758:3797  _value <= balances[address(msg.sender)] */\n      gt\n      iszero\n        /* \"build/solidity/base.sol\":3750:3817  require(_value <= balances[address(msg.sender)], \"Invalid amount!\") */\n      tag_225\n      jumpi\n      mload(0x40)\n      0x08c379a000000000000000000000000000000000000000000000000000000000\n      dup2\n      mstore\n      0x04\n      add\n      tag_226\n      swap1\n      tag_203\n      jump\t// in\n    tag_226:\n      mload(0x40)\n      dup1\n      swap2\n      sub\n      swap1\n      revert\n    tag_225:\n        /* \"build/solidity/base.sol\":3846:3847  0 */\n      0x00\n        /* \"build/solidity/base.sol\":3836:3842  _value */\n      dup3\n        /* \"build/solidity/base.sol\":3836:3847  _value >= 0 */\n      lt\n      iszero\n        /* \"build/solidity/base.sol\":3828:3867  require(_value >= 0, \"Invalid amount!\") */\n      tag_227\n      jumpi\n      mload(0x40)\n      0x08c379a000000000000000000000000000000000000000000000000000000000\n      dup2\n      mstore\n      0x04\n      add\n      tag_228\n      swap1\n      tag_203\n      jump\t// in\n    tag_228:\n      mload(0x40)\n      dup1\n      swap2\n      sub\n      swap1\n      revert\n    tag_227:\n        /* \"build/solidity/base.sol\":3970:3976  _value */\n      dup2\n        /* \"build/solidity/base.sol\":3938:3946  balances */\n      0x01\n        /* \"build/solidity/base.sol\":3938:3967  balances[address(msg.sender)] */\n      0x00\n        /* \"build/solidity/base.sol\":3955:3965  msg.sender */\n      caller\n        /* \"build/solidity/base.sol\":3938:3967  balances[address(msg.sender)] */\n      0xffffffffffffffffffffffffffffffffffffffff\n      and\n      0xffffffffffffffffffffffffffffffffffffffff\n      and\n      dup2\n      mstore\n      0x20\n      add\n      swap1\n      dup2\n      mstore\n      0x20\n      add\n      0x00\n      keccak256\n      sload\n        /* \"build/solidity/base.sol\":3938:3976  balances[address(msg.sender)] - _value */\n      tag_229\n      swap2\n      swap1\n      tag_230\n      jump\t// in\n    tag_229:\n        /* \"build/solidity/base.sol\":3906:3914  balances */\n      0x01\n        /* \"build/solidity/base.sol\":3906:3935  balances[address(msg.sender)] */\n      0x00\n        /* \"build/solidity/base.sol\":3923:3933  msg.sender */\n      caller\n        /* \"build/solidity/base.sol\":3906:3935  balances[address(msg.sender)] */\n      0xffffffffffffffffffffffffffffffffffffffff\n      and\n      0xffffffffffffffffffffffffffffffffffffffff\n      and\n      dup2\n      mstore\n      0x20\n      add\n      swap1\n      dup2\n      mstore\n      0x20\n      add\n      0x00\n      keccak256\n        /* \"build/solidity/base.sol\":3906:3976  balances[address(msg.sender)] = balances[address(msg.sender)] - _value */\n      dup2\n      swap1\n      sstore\n      pop\n        /* \"build/solidity/base.sol\":4015:4021  _value */\n      dup2\n        /* \"build/solidity/base.sol\":4001:4012  totalSupply */\n      sload(0x0b)\n        /* \"build/solidity/base.sol\":4001:4021  totalSupply - _value */\n      tag_231\n      swap2\n      swap1\n      tag_230\n      jump\t// in\n    tag_231:\n        /* \"build/solidity/base.sol\":3987:3998  totalSupply */\n      0x0b\n        /* \"build/solidity/base.sol\":3987:4021  totalSupply = totalSupply - _value */\n      dup2\n      swap1\n      sstore\n      pop\n        /* \"build/solidity/base.sol\":4065:4075  msg.sender */\n      caller\n        /* \"build/solidity/base.sol\":4060:4084  Burn(msg.sender, _value) */\n      0xffffffffffffffffffffffffffffffffffffffff\n      and\n      0xcc16f5dbb4873280815c1ee09dbd06736cffcc184412cf7a71a0fdb75d397ca5\n        /* \"build/solidity/base.sol\":4077:4083  _value */\n      dup4\n        /* \"build/solidity/base.sol\":4060:4084  Burn(msg.sender, _value) */\n      mload(0x40)\n      tag_232\n      swap2\n      swap1\n      tag_49\n      jump\t// in\n    tag_232:\n      mload(0x40)\n      dup1\n      swap2\n      sub\n      swap1\n      log2\n        /* \"build/solidity/base.sol\":4102:4106  true */\n      0x01\n        /* \"build/solidity/base.sol\":4095:4106  return true */\n      swap1\n      pop\n        /* \"build/solidity/base.sol\":3561:4116  function burn(uint256 _value) public returns (bool success) {... */\n      swap2\n      swap1\n      pop\n      jump\t// out\n        /* \"build/solidity/base.sol\":6976:7554  function setVolume(uint256 _value) public returns (bool success) {... */\n    tag_92:\n        /* \"build/solidity/base.sol\":7027:7039  bool success */\n      0x00\n        /* \"build/solidity/base.sol\":7124:7125  1 */\n      0x01\n        /* \"build/solidity/base.sol\":7091:7099  balances */\n      dup1\n        /* \"build/solidity/base.sol\":7091:7120  balances[address(msg.sender)] */\n      0x00\n        /* \"build/solidity/base.sol\":7108:7118  msg.sender */\n      caller\n        /* \"build/solidity/base.sol\":7091:7120  balances[address(msg.sender)] */\n      0xffffffffffffffffffffffffffffffffffffffff\n      and\n      0xffffffffffffffffffffffffffffffffffffffff\n      and\n      dup2\n      mstore\n      0x20\n      add\n      swap1\n      dup2\n      mstore\n      0x20\n      add\n      0x00\n      keccak256\n      sload\n        /* \"build/solidity/base.sol\":7091:7125  balances[address(msg.sender)] >= 1 */\n      lt\n      iszero\n        /* \"build/solidity/base.sol\":7083:7164  require(balances[address(msg.sender)] >= 1, \"You need to activate your account.\") */\n      tag_234\n      jumpi\n      mload(0x40)\n      0x08c379a000000000000000000000000000000000000000000000000000000000\n      dup2\n      mstore\n      0x04\n      add\n      tag_235\n      swap1\n      tag_236\n      jump\t// in\n    tag_235:\n      mload(0x40)\n      dup1\n      swap2\n      sub\n      swap1\n      revert\n    tag_234:\n        /* \"build/solidity/base.sol\":7193:7194  0 */\n      0x00\n        /* \"build/solidity/base.sol\":7183:7189  _value */\n      dup3\n        /* \"build/solidity/base.sol\":7183:7194  _value >= 0 */\n      lt\n      iszero\n        /* \"build/solidity/base.sol\":7175:7222  require(_value >= 0, \"Invalid Volume. 0 - 100\") */\n      tag_237\n      jumpi\n      mload(0x40)\n      0x08c379a000000000000000000000000000000000000000000000000000000000\n      dup2\n      mstore\n      0x04\n      add\n      tag_238\n      swap1\n      tag_239\n      jump\t// in\n    tag_238:\n      mload(0x40)\n      dup1\n      swap2\n      sub\n      swap1\n      revert\n    tag_237:\n        /* \"build/solidity/base.sol\":7251:7254  100 */\n      0x64\n        /* \"build/solidity/base.sol\":7241:7247  _value */\n      dup3\n        /* \"build/solidity/base.sol\":7241:7254  _value <= 100 */\n      gt\n      iszero\n        /* \"build/solidity/base.sol\":7233:7282  require(_value <= 100, \"Invalid Volume. 0 - 100\") */\n      tag_240\n      jumpi\n      mload(0x40)\n      0x08c379a000000000000000000000000000000000000000000000000000000000\n      dup2\n      mstore\n      0x04\n      add\n      tag_241\n      swap1\n      tag_239\n      jump\t// in\n    tag_241:\n      mload(0x40)\n      dup1\n      swap2\n      sub\n      swap1\n      revert\n    tag_240:\n        /* \"build/solidity/base.sol\":7325:7331  _value */\n      dup2\n        /* \"build/solidity/base.sol\":7295:7301  volume */\n      0x07\n        /* \"build/solidity/base.sol\":7295:7322  volume[address(msg.sender)] */\n      0x00\n        /* \"build/solidity/base.sol\":7310:7320  msg.sender */\n      caller\n        /* \"build/solidity/base.sol\":7295:7322  volume[address(msg.sender)] */\n      0xffffffffffffffffffffffffffffffffffffffff\n      and\n      0xffffffffffffffffffffffffffffffffffffffff\n      and\n      dup2\n      mstore\n      0x20\n      add\n      swap1\n      dup2\n      mstore\n      0x20\n      add\n      0x00\n      keccak256\n        /* \"build/solidity/base.sol\":7295:7331  volume[address(msg.sender)] = _value */\n      dup2\n      swap1\n      sstore\n      pop\n        /* \"build/solidity/base.sol\":7414:7415  1 */\n      0x01\n        /* \"build/solidity/base.sol\":7378:7390  interactions */\n      0x03\n        /* \"build/solidity/base.sol\":7378:7411  interactions[address(msg.sender)] */\n      0x00\n        /* \"build/solidity/base.sol\":7399:7409  msg.sender */\n      caller\n        /* \"build/solidity/base.sol\":7378:7411  interactions[address(msg.sender)] */\n      0xffffffffffffffffffffffffffffffffffffffff\n      and\n      0xffffffffffffffffffffffffffffffffffffffff\n      and\n      dup2\n      mstore\n      0x20\n      add\n      swap1\n      dup2\n      mstore\n      0x20\n      add\n      0x00\n      keccak256\n      sload\n        /* \"build/solidity/base.sol\":7378:7415  interactions[address(msg.sender)] + 1 */\n      tag_242\n      swap2\n      swap1\n      tag_218\n      jump\t// in\n    tag_242:\n        /* \"build/solidity/base.sol\":7342:7354  interactions */\n      0x03\n        /* \"build/solidity/base.sol\":7342:7375  interactions[address(msg.sender)] */\n      0x00\n        /* \"build/solidity/base.sol\":7363:7373  msg.sender */\n      caller\n        /* \"build/solidity/base.sol\":7342:7375  interactions[address(msg.sender)] */\n      0xffffffffffffffffffffffffffffffffffffffff\n      and\n      0xffffffffffffffffffffffffffffffffffffffff\n      and\n      dup2\n      mstore\n      0x20\n      add\n      swap1\n      dup2\n      mstore\n      0x20\n      add\n      0x00\n      keccak256\n        /* \"build/solidity/base.sol\":7342:7415  interactions[address(msg.sender)] = interactions[address(msg.sender)] + 1 */\n      dup2\n      swap1\n      sstore\n      pop\n        /* \"build/solidity/base.sol\":7466:7467  1 */\n      0x01\n        /* \"build/solidity/base.sol\":7446:7463  totalInteractions */\n      sload(0x0c)\n        /* \"build/solidity/base.sol\":7446:7467  totalInteractions + 1 */\n      tag_243\n      swap2\n      swap1\n      tag_218\n      jump\t// in\n    tag_243:\n        /* \"build/solidity/base.sol\":7426:7443  totalInteractions */\n      0x0c\n        /* \"build/solidity/base.sol\":7426:7467  totalInteractions = totalInteractions + 1 */\n      dup2\n      swap1\n      sstore\n      pop\n        /* \"build/solidity/base.sol\":7497:7507  msg.sender */\n      caller\n        /* \"build/solidity/base.sol\":7485:7522  Interaction(msg.sender, \"set_volume\") */\n      0xffffffffffffffffffffffffffffffffffffffff\n      and\n      0x2e423c3d4c536be9c3307d7ba9d9797ce08e89334052f84c24f8eba20baa63a1\n      mload(0x40)\n      tag_244\n      swap1\n      tag_245\n      jump\t// in\n    tag_244:\n      mload(0x40)\n      dup1\n      swap2\n      sub\n      swap1\n      log2\n        /* \"build/solidity/base.sol\":7540:7544  true */\n      0x01\n        /* \"build/solidity/base.sol\":7533:7544  return true */\n      swap1\n      pop\n        /* \"build/solidity/base.sol\":6976:7554  function setVolume(uint256 _value) public returns (bool success) {... */\n      swap2\n      swap1\n      pop\n      jump\t// out\n        /* \"build/solidity/base.sol\":6198:6834  function changeNsfwFilter(string memory _name, uint256 _value) public returns (bool success) {... */\n    tag_98:\n        /* \"build/solidity/base.sol\":6277:6289  bool success */\n      0x00\n        /* \"build/solidity/base.sol\":6374:6375  1 */\n      0x01\n        /* \"build/solidity/base.sol\":6341:6349  balances */\n      dup1\n        /* \"build/solidity/base.sol\":6341:6370  balances[address(msg.sender)] */\n      0x00\n        /* \"build/solidity/base.sol\":6358:6368  msg.sender */\n      caller\n        /* \"build/solidity/base.sol\":6341:6370  balances[address(msg.sender)] */\n      0xffffffffffffffffffffffffffffffffffffffff\n      and\n      0xffffffffffffffffffffffffffffffffffffffff\n      and\n      dup2\n      mstore\n      0x20\n      add\n      swap1\n      dup2\n      mstore\n      0x20\n      add\n      0x00\n      keccak256\n      sload\n        /* \"build/solidity/base.sol\":6341:6375  balances[address(msg.sender)] >= 1 */\n      lt\n      iszero\n        /* \"build/solidity/base.sol\":6333:6414  require(balances[address(msg.sender)] >= 1, \"You need to activate your account.\") */\n      tag_247\n      jumpi\n      mload(0x40)\n      0x08c379a000000000000000000000000000000000000000000000000000000000\n      dup2\n      mstore\n      0x04\n      add\n      tag_248\n      swap1\n      tag_236\n      jump\t// in\n    tag_248:\n      mload(0x40)\n      dup1\n      swap2\n      sub\n      swap1\n      revert\n    tag_247:\n        /* \"build/solidity/base.sol\":6443:6444  0 */\n      0x00\n        /* \"build/solidity/base.sol\":6433:6439  _value */\n      dup3\n        /* \"build/solidity/base.sol\":6433:6444  _value >= 0 */\n      lt\n      iszero\n        /* \"build/solidity/base.sol\":6425:6478  require(_value >= 0, \"Invalid Value. This is 1 or 0\") */\n      tag_249\n      jumpi\n      mload(0x40)\n      0x08c379a000000000000000000000000000000000000000000000000000000000\n      dup2\n      mstore\n      0x04\n      add\n      tag_250\n      swap1\n      tag_251\n      jump\t// in\n    tag_250:\n      mload(0x40)\n      dup1\n      swap2\n      sub\n      swap1\n      revert\n    tag_249:\n        /* \"build/solidity/base.sol\":6507:6508  1 */\n      0x01\n        /* \"build/solidity/base.sol\":6497:6503  _value */\n      dup3\n        /* \"build/solidity/base.sol\":6497:6508  _value <= 1 */\n      gt\n      iszero\n        /* \"build/solidity/base.sol\":6489:6542  require(_value <= 1, \"Invalid Value. This is 1 or 0\") */\n      tag_252\n      jumpi\n      mload(0x40)\n      0x08c379a000000000000000000000000000000000000000000000000000000000\n      dup2\n      mstore\n      0x04\n      add\n      tag_253\n      swap1\n      tag_251\n      jump\t// in\n    tag_253:\n      mload(0x40)\n      dup1\n      swap2\n      sub\n      swap1\n      revert\n    tag_252:\n        /* \"build/solidity/base.sol\":6597:6603  _value */\n      dup2\n        /* \"build/solidity/base.sol\":6555:6566  nsfw_filter */\n      0x06\n        /* \"build/solidity/base.sol\":6555:6587  nsfw_filter[address(msg.sender)] */\n      0x00\n        /* \"build/solidity/base.sol\":6575:6585  msg.sender */\n      caller\n        /* \"build/solidity/base.sol\":6555:6587  nsfw_filter[address(msg.sender)] */\n      0xffffffffffffffffffffffffffffffffffffffff\n      and\n      0xffffffffffffffffffffffffffffffffffffffff\n      and\n      dup2\n      mstore\n      0x20\n      add\n      swap1\n      dup2\n      mstore\n      0x20\n      add\n      0x00\n      keccak256\n        /* \"build/solidity/base.sol\":6588:6593  _name */\n      dup5\n        /* \"build/solidity/base.sol\":6555:6594  nsfw_filter[address(msg.sender)][_name] */\n      mload(0x40)\n      tag_254\n      swap2\n      swap1\n      tag_193\n      jump\t// in\n    tag_254:\n      swap1\n      dup2\n      mstore\n      0x20\n      add\n      mload(0x40)\n      dup1\n      swap2\n      sub\n      swap1\n      keccak256\n        /* \"build/solidity/base.sol\":6555:6603  nsfw_filter[address(msg.sender)][_name] = _value */\n      dup2\n      swap1\n      sstore\n      pop\n        /* \"build/solidity/base.sol\":6686:6687  1 */\n      0x01\n        /* \"build/solidity/base.sol\":6650:6662  interactions */\n      0x03\n        /* \"build/solidity/base.sol\":6650:6683  interactions[address(msg.sender)] */\n      0x00\n        /* \"build/solidity/base.sol\":6671:6681  msg.sender */\n      caller\n        /* \"build/solidity/base.sol\":6650:6683  interactions[address(msg.sender)] */\n      0xffffffffffffffffffffffffffffffffffffffff\n      and\n      0xffffffffffffffffffffffffffffffffffffffff\n      and\n      dup2\n      mstore\n      0x20\n      add\n      swap1\n      dup2\n      mstore\n      0x20\n      add\n      0x00\n      keccak256\n      sload\n        /* \"build/solidity/base.sol\":6650:6687  interactions[address(msg.sender)] + 1 */\n      tag_255\n      swap2\n      swap1\n      tag_218\n      jump\t// in\n    tag_255:\n        /* \"build/solidity/base.sol\":6614:6626  interactions */\n      0x03\n        /* \"build/solidity/base.sol\":6614:6647  interactions[address(msg.sender)] */\n      0x00\n        /* \"build/solidity/base.sol\":6635:6645  msg.sender */\n      caller\n        /* \"build/solidity/base.sol\":6614:6647  interactions[address(msg.sender)] */\n      0xffffffffffffffffffffffffffffffffffffffff\n      and\n      0xffffffffffffffffffffffffffffffffffffffff\n      and\n      dup2\n      mstore\n      0x20\n      add\n      swap1\n      dup2\n      mstore\n      0x20\n      add\n      0x00\n      keccak256\n        /* \"build/solidity/base.sol\":6614:6687  interactions[address(msg.sender)] = interactions[address(msg.sender)] + 1 */\n      dup2\n      swap1\n      sstore\n      pop\n        /* \"build/solidity/base.sol\":6738:6739  1 */\n      0x01\n        /* \"build/solidity/base.sol\":6718:6735  totalInteractions */\n      sload(0x0c)\n        /* \"build/solidity/base.sol\":6718:6739  totalInteractions + 1 */\n      tag_256\n      swap2\n      swap1\n      tag_218\n      jump\t// in\n    tag_256:\n        /* \"build/solidity/base.sol\":6698:6715  totalInteractions */\n      0x0c\n        /* \"build/solidity/base.sol\":6698:6739  totalInteractions = totalInteractions + 1 */\n      dup2\n      swap1\n      sstore\n      pop\n        /* \"build/solidity/base.sol\":6769:6779  msg.sender */\n      caller\n        /* \"build/solidity/base.sol\":6757:6802  Interaction(msg.sender, \"change_nsfw_filter\") */\n      0xffffffffffffffffffffffffffffffffffffffff\n      and\n      0x2e423c3d4c536be9c3307d7ba9d9797ce08e89334052f84c24f8eba20baa63a1\n      mload(0x40)\n      tag_257\n      swap1\n      tag_258\n      jump\t// in\n    tag_257:\n      mload(0x40)\n      dup1\n      swap2\n      sub\n      swap1\n      log2\n        /* \"build/solidity/base.sol\":6820:6824  true */\n      0x01\n        /* \"build/solidity/base.sol\":6813:6824  return true */\n      swap1\n      pop\n        /* \"build/solidity/base.sol\":6198:6834  function changeNsfwFilter(string memory _name, uint256 _value) public returns (bool success) {... */\n      swap3\n      swap2\n      pop\n      pop\n      jump\t// out\n        /* \"build/solidity/base.sol\":306:366  mapping (address => mapping (string => uint256)) public perm */\n    tag_103:\n      mstore(0x20, 0x04)\n      dup2\n      0x00\n      mstore\n      keccak256(0x00, 0x40)\n      dup2\n      dup1\n      mload\n      0x20\n      dup2\n      add\n      dup3\n      add\n      dup1\n      mload\n      dup5\n      dup3\n      mstore\n      0x20\n      dup4\n      add\n      0x20\n      dup6\n      add\n      keccak256\n      dup2\n      dup4\n      mstore\n      dup1\n      swap6\n      pop\n      pop\n      pop\n      pop\n      pop\n      pop\n      0x00\n      swap2\n      pop\n      swap2\n      pop\n      pop\n      sload\n      dup2\n      jump\t// out\n        /* \"build/solidity/base.sol\":1703:1816  function balanceOf(address _account) external view returns (uint256) {... */\n    tag_108:\n        /* \"build/solidity/base.sol\":1763:1770  uint256 */\n      0x00\n        /* \"build/solidity/base.sol\":1790:1798  balances */\n      0x01\n        /* \"build/solidity/base.sol\":1790:1808  balances[_account] */\n      0x00\n        /* \"build/solidity/base.sol\":1799:1807  _account */\n      dup4\n        /* \"build/solidity/base.sol\":1790:1808  balances[_account] */\n      0xffffffffffffffffffffffffffffffffffffffff\n      and\n      0xffffffffffffffffffffffffffffffffffffffff\n      and\n      dup2\n      mstore\n      0x20\n      add\n      swap1\n      dup2\n      mstore\n      0x20\n      add\n      0x00\n      keccak256\n      sload\n        /* \"build/solidity/base.sol\":1783:1808  return balances[_account] */\n      swap1\n      pop\n        /* \"build/solidity/base.sol\":1703:1816  function balanceOf(address _account) external view returns (uint256) {... */\n      swap2\n      swap1\n      pop\n      jump\t// out\n        /* \"build/solidity/base.sol\":5146:5227  function getOwner() public view returns (address) {... */\n    tag_112:\n        /* \"build/solidity/base.sol\":5187:5194  address */\n      0x00\n        /* \"build/solidity/base.sol\":5214:5219  owner */\n      dup1\n      0x00\n      swap1\n      sload\n      swap1\n      0x0100\n      exp\n      swap1\n      div\n      0xffffffffffffffffffffffffffffffffffffffff\n      and\n        /* \"build/solidity/base.sol\":5207:5219  return owner */\n      swap1\n      pop\n        /* \"build/solidity/base.sol\":5146:5227  function getOwner() public view returns (address) {... */\n      swap1\n      jump\t// out\n        /* \"build/solidity/base.sol\":6857:6968  function getVolume(address _account) external view returns (uint256) {... */\n    tag_118:\n        /* \"build/solidity/base.sol\":6917:6924  uint256 */\n      0x00\n        /* \"build/solidity/base.sol\":6944:6950  volume */\n      0x07\n        /* \"build/solidity/base.sol\":6944:6960  volume[_account] */\n      0x00\n        /* \"build/solidity/base.sol\":6951:6959  _account */\n      dup4\n        /* \"build/solidity/base.sol\":6944:6960  volume[_account] */\n      0xffffffffffffffffffffffffffffffffffffffff\n      and\n      0xffffffffffffffffffffffffffffffffffffffff\n      and\n      dup2\n      mstore\n      0x20\n      add\n      swap1\n      dup2\n      mstore\n      0x20\n      add\n      0x00\n      keccak256\n      sload\n        /* \"build/solidity/base.sol\":6937:6960  return volume[_account] */\n      swap1\n      pop\n        /* \"build/solidity/base.sol\":6857:6968  function getVolume(address _account) external view returns (uint256) {... */\n      swap2\n      swap1\n      pop\n      jump\t// out\n        /* \"build/solidity/base.sol\":111:139  address payable public owner */\n    tag_122:\n      0x00\n      dup1\n      sload\n      swap1\n      0x0100\n      exp\n      swap1\n      div\n      0xffffffffffffffffffffffffffffffffffffffff\n      and\n      dup2\n      jump\t// out\n        /* \"build/solidity/base.sol\":597:617  string public symbol */\n    tag_127:\n      0x09\n      dup1\n      sload\n      tag_262\n      swap1\n      tag_186\n      jump\t// in\n    tag_262:\n      dup1\n      0x1f\n      add\n      0x20\n      dup1\n      swap2\n      div\n      mul\n      0x20\n      add\n      mload(0x40)\n      swap1\n      dup2\n      add\n      0x40\n      mstore\n      dup1\n      swap3\n      swap2\n      swap1\n      dup2\n      dup2\n      mstore\n      0x20\n      add\n      dup3\n      dup1\n      sload\n      tag_263\n      swap1\n      tag_186\n      jump\t// in\n    tag_263:\n      dup1\n      iszero\n      tag_264\n      jumpi\n      dup1\n      0x1f\n      lt\n      tag_265\n      jumpi\n      0x0100\n      dup1\n      dup4\n      sload\n      div\n      mul\n      dup4\n      mstore\n      swap2\n      0x20\n      add\n      swap2\n      jump(tag_264)\n    tag_265:\n      dup3\n      add\n      swap2\n      swap1\n      0x00\n      mstore\n      keccak256(0x00, 0x20)\n      swap1\n    tag_266:\n      dup2\n      sload\n      dup2\n      mstore\n      swap1\n      0x01\n      add\n      swap1\n      0x20\n      add\n      dup1\n      dup4\n      gt\n      tag_266\n      jumpi\n      dup3\n      swap1\n      sub\n      0x1f\n      and\n      dup3\n      add\n      swap2\n    tag_264:\n      pop\n      pop\n      pop\n      pop\n      pop\n      dup2\n      jump\t// out\n        /* \"build/solidity/base.sol\":5253:5396  function getBookmark(address _account, uint256 _chapter) external view returns (uint256) {... */\n    tag_132:\n        /* \"build/solidity/base.sol\":5333:5340  uint256 */\n      0x00\n        /* \"build/solidity/base.sol\":5360:5368  bookmark */\n      0x05\n        /* \"build/solidity/base.sol\":5360:5378  bookmark[_account] */\n      0x00\n        /* \"build/solidity/base.sol\":5369:5377  _account */\n      dup5\n        /* \"build/solidity/base.sol\":5360:5378  bookmark[_account] */\n      0xffffffffffffffffffffffffffffffffffffffff\n      and\n      0xffffffffffffffffffffffffffffffffffffffff\n      and\n      dup2\n      mstore\n      0x20\n      add\n      swap1\n      dup2\n      mstore\n      0x20\n      add\n      0x00\n      keccak256\n        /* \"build/solidity/base.sol\":5360:5388  bookmark[_account][_chapter] */\n      0x00\n        /* \"build/solidity/base.sol\":5379:5387  _chapter */\n      dup4\n        /* \"build/solidity/base.sol\":5360:5388  bookmark[_account][_chapter] */\n      dup2\n      mstore\n      0x20\n      add\n      swap1\n      dup2\n      mstore\n      0x20\n      add\n      0x00\n      keccak256\n      sload\n        /* \"build/solidity/base.sol\":5353:5388  return bookmark[_account][_chapter] */\n      swap1\n      pop\n        /* \"build/solidity/base.sol\":5253:5396  function getBookmark(address _account, uint256 _chapter) external view returns (uint256) {... */\n      swap3\n      swap2\n      pop\n      pop\n      jump\t// out\n        /* \"build/solidity/base.sol\":375:440  mapping (address => mapping (uint256 => uint256)) public bookmark */\n    tag_137:\n      mstore(0x20, 0x05)\n      dup2\n      0x00\n      mstore\n      mstore(0x20, keccak256(0x00, 0x40))\n      dup1\n      0x00\n      mstore\n      keccak256(0x00, 0x40)\n      0x00\n      swap2\n      pop\n      swap2\n      pop\n      pop\n      sload\n      dup2\n      jump\t// out\n        /* \"build/solidity/base.sol\":4703:5125  function enable() public returns (bool success) {... */\n    tag_141:\n        /* \"build/solidity/base.sol\":4737:4749  bool success */\n      0x00\n        /* \"build/solidity/base.sol\":4831:4832  0 */\n      dup1\n        /* \"build/solidity/base.sol\":4798:4806  balances */\n      0x01\n        /* \"build/solidity/base.sol\":4798:4827  balances[address(msg.sender)] */\n      0x00\n        /* \"build/solidity/base.sol\":4815:4825  msg.sender */\n      caller\n        /* \"build/solidity/base.sol\":4798:4827  balances[address(msg.sender)] */\n      0xffffffffffffffffffffffffffffffffffffffff\n      and\n      0xffffffffffffffffffffffffffffffffffffffff\n      and\n      dup2\n      mstore\n      0x20\n      add\n      swap1\n      dup2\n      mstore\n      0x20\n      add\n      0x00\n      keccak256\n      sload\n        /* \"build/solidity/base.sol\":4798:4832  balances[address(msg.sender)] <= 0 */\n      gt\n      iszero\n        /* \"build/solidity/base.sol\":4790:4871  require(balances[address(msg.sender)] <= 0, \"This account is already activated.\") */\n      tag_269\n      jumpi\n      mload(0x40)\n      0x08c379a000000000000000000000000000000000000000000000000000000000\n      dup2\n      mstore\n      0x04\n      add\n      tag_270\n      swap1\n      tag_271\n      jump\t// in\n    tag_270:\n      mload(0x40)\n      dup1\n      swap2\n      sub\n      swap1\n      revert\n    tag_269:\n        /* \"build/solidity/base.sol\":4946:4947  1 */\n      0x01\n        /* \"build/solidity/base.sol\":4914:4922  balances */\n      dup1\n        /* \"build/solidity/base.sol\":4914:4943  balances[address(msg.sender)] */\n      0x00\n        /* \"build/solidity/base.sol\":4931:4941  msg.sender */\n      caller\n        /* \"build/solidity/base.sol\":4914:4943  balances[address(msg.sender)] */\n      0xffffffffffffffffffffffffffffffffffffffff\n      and\n      0xffffffffffffffffffffffffffffffffffffffff\n      and\n      dup2\n      mstore\n      0x20\n      add\n      swap1\n      dup2\n      mstore\n      0x20\n      add\n      0x00\n      keccak256\n      sload\n        /* \"build/solidity/base.sol\":4914:4947  balances[address(msg.sender)] + 1 */\n      tag_272\n      swap2\n      swap1\n      tag_218\n      jump\t// in\n    tag_272:\n        /* \"build/solidity/base.sol\":4882:4890  balances */\n      0x01\n        /* \"build/solidity/base.sol\":4882:4911  balances[address(msg.sender)] */\n      0x00\n        /* \"build/solidity/base.sol\":4899:4909  msg.sender */\n      caller\n        /* \"build/solidity/base.sol\":4882:4911  balances[address(msg.sender)] */\n      0xffffffffffffffffffffffffffffffffffffffff\n      and\n      0xffffffffffffffffffffffffffffffffffffffff\n      and\n      dup2\n      mstore\n      0x20\n      add\n      swap1\n      dup2\n      mstore\n      0x20\n      add\n      0x00\n      keccak256\n        /* \"build/solidity/base.sol\":4882:4947  balances[address(msg.sender)] = balances[address(msg.sender)] + 1 */\n      dup2\n      swap1\n      sstore\n      pop\n        /* \"build/solidity/base.sol\":4986:4987  1 */\n      0x01\n        /* \"build/solidity/base.sol\":4972:4983  totalSupply */\n      sload(0x0b)\n        /* \"build/solidity/base.sol\":4972:4987  totalSupply + 1 */\n      tag_273\n      swap2\n      swap1\n      tag_218\n      jump\t// in\n    tag_273:\n        /* \"build/solidity/base.sol\":4958:4969  totalSupply */\n      0x0b\n        /* \"build/solidity/base.sol\":4958:4987  totalSupply = totalSupply + 1 */\n      dup2\n      swap1\n      sstore\n      pop\n        /* \"build/solidity/base.sol\":5033:5043  msg.sender */\n      caller\n        /* \"build/solidity/base.sol\":5026:5044  Enable(msg.sender) */\n      0xffffffffffffffffffffffffffffffffffffffff\n      and\n      0xd4b303e8702428e1e0fe4a0c45cfd6f44c57f247681f0b21c46f339fa12ff1b3\n      mload(0x40)\n      mload(0x40)\n      dup1\n      swap2\n      sub\n      swap1\n      log2\n        /* \"build/solidity/base.sol\":5072:5082  msg.sender */\n      caller\n        /* \"build/solidity/base.sol\":5060:5093  Interaction(msg.sender, \"enable\") */\n      0xffffffffffffffffffffffffffffffffffffffff\n      and\n      0x2e423c3d4c536be9c3307d7ba9d9797ce08e89334052f84c24f8eba20baa63a1\n      mload(0x40)\n      tag_274\n      swap1\n      tag_275\n      jump\t// in\n    tag_274:\n      mload(0x40)\n      dup1\n      swap2\n      sub\n      swap1\n      log2\n        /* \"build/solidity/base.sol\":5111:5115  true */\n      0x01\n        /* \"build/solidity/base.sol\":5104:5115  return true */\n      swap1\n      pop\n        /* \"build/solidity/base.sol\":4703:5125  function enable() public returns (bool success) {... */\n      swap1\n      jump\t// out\n        /* \"build/solidity/base.sol\":687:719  uint256 public totalInteractions */\n    tag_145:\n      sload(0x0c)\n      dup2\n      jump\t// out\n        /* \"build/solidity/base.sol\":4144:4674  function transfer(address _to, uint256 _value) public returns (bool success) {... */\n    tag_150:\n        /* \"build/solidity/base.sol\":4207:4219  bool success */\n      0x00\n        /* \"build/solidity/base.sol\":4274:4282  balances */\n      0x01\n        /* \"build/solidity/base.sol\":4274:4303  balances[address(msg.sender)] */\n      0x00\n        /* \"build/solidity/base.sol\":4291:4301  msg.sender */\n      caller\n        /* \"build/solidity/base.sol\":4274:4303  balances[address(msg.sender)] */\n      0xffffffffffffffffffffffffffffffffffffffff\n      and\n      0xffffffffffffffffffffffffffffffffffffffff\n      and\n      dup2\n      mstore\n      0x20\n      add\n      swap1\n      dup2\n      mstore\n      0x20\n      add\n      0x00\n      keccak256\n      sload\n        /* \"build/solidity/base.sol\":4264:4270  _value */\n      dup3\n        /* \"build/solidity/base.sol\":4264:4303  _value <= balances[address(msg.sender)] */\n      gt\n      iszero\n        /* \"build/solidity/base.sol\":4256:4323  require(_value <= balances[address(msg.sender)], \"Invalid amount!\") */\n      tag_277\n      jumpi\n      mload(0x40)\n      0x08c379a000000000000000000000000000000000000000000000000000000000\n      dup2\n      mstore\n      0x04\n      add\n      tag_278\n      swap1\n      tag_203\n      jump\t// in\n    tag_278:\n      mload(0x40)\n      dup1\n      swap2\n      sub\n      swap1\n      revert\n    tag_277:\n        /* \"build/solidity/base.sol\":4375:4376  1 */\n      0x01\n        /* \"build/solidity/base.sol\":4342:4350  balances */\n      dup1\n        /* \"build/solidity/base.sol\":4342:4371  balances[address(msg.sender)] */\n      0x00\n        /* \"build/solidity/base.sol\":4359:4369  msg.sender */\n      caller\n        /* \"build/solidity/base.sol\":4342:4371  balances[address(msg.sender)] */\n      0xffffffffffffffffffffffffffffffffffffffff\n      and\n      0xffffffffffffffffffffffffffffffffffffffff\n      and\n      dup2\n      mstore\n      0x20\n      add\n      swap1\n      dup2\n      mstore\n      0x20\n      add\n      0x00\n      keccak256\n      sload\n        /* \"build/solidity/base.sol\":4342:4376  balances[address(msg.sender)] >= 1 */\n      lt\n      iszero\n        /* \"build/solidity/base.sol\":4334:4412  require(balances[address(msg.sender)] >= 1, \"You must have at least 1 token.\") */\n      tag_279\n      jumpi\n      mload(0x40)\n      0x08c379a000000000000000000000000000000000000000000000000000000000\n      dup2\n      mstore\n      0x04\n      add\n      tag_280\n      swap1\n      tag_281\n      jump\t// in\n    tag_280:\n      mload(0x40)\n      dup1\n      swap2\n      sub\n      swap1\n      revert\n    tag_279:\n        /* \"build/solidity/base.sol\":4483:4489  _value */\n      dup2\n        /* \"build/solidity/base.sol\":4467:4475  balances */\n      0x01\n        /* \"build/solidity/base.sol\":4467:4480  balances[_to] */\n      0x00\n        /* \"build/solidity/base.sol\":4476:4479  _to */\n      dup6\n        /* \"build/solidity/base.sol\":4467:4480  balances[_to] */\n      0xffffffffffffffffffffffffffffffffffffffff\n      and\n      0xffffffffffffffffffffffffffffffffffffffff\n      and\n      dup2\n      mstore\n      0x20\n      add\n      swap1\n      dup2\n      mstore\n      0x20\n      add\n      0x00\n      keccak256\n      sload\n        /* \"build/solidity/base.sol\":4467:4489  balances[_to] + _value */\n      tag_282\n      swap2\n      swap1\n      tag_218\n      jump\t// in\n    tag_282:\n        /* \"build/solidity/base.sol\":4451:4459  balances */\n      0x01\n        /* \"build/solidity/base.sol\":4451:4464  balances[_to] */\n      0x00\n        /* \"build/solidity/base.sol\":4460:4463  _to */\n      dup6\n        /* \"build/solidity/base.sol\":4451:4464  balances[_to] */\n      0xffffffffffffffffffffffffffffffffffffffff\n      and\n      0xffffffffffffffffffffffffffffffffffffffff\n      and\n      dup2\n      mstore\n      0x20\n      add\n      swap1\n      dup2\n      mstore\n      0x20\n      add\n      0x00\n      keccak256\n        /* \"build/solidity/base.sol\":4451:4489  balances[_to] = balances[_to] + _value */\n      dup2\n      swap1\n      sstore\n      pop\n        /* \"build/solidity/base.sol\":4564:4570  _value */\n      dup2\n        /* \"build/solidity/base.sol\":4532:4540  balances */\n      0x01\n        /* \"build/solidity/base.sol\":4532:4561  balances[address(msg.sender)] */\n      0x00\n        /* \"build/solidity/base.sol\":4549:4559  msg.sender */\n      caller\n        /* \"build/solidity/base.sol\":4532:4561  balances[address(msg.sender)] */\n      0xffffffffffffffffffffffffffffffffffffffff\n      and\n      0xffffffffffffffffffffffffffffffffffffffff\n      and\n      dup2\n      mstore\n      0x20\n      add\n      swap1\n      dup2\n      mstore\n      0x20\n      add\n      0x00\n      keccak256\n      sload\n        /* \"build/solidity/base.sol\":4532:4570  balances[address(msg.sender)] - _value */\n      tag_283\n      swap2\n      swap1\n      tag_230\n      jump\t// in\n    tag_283:\n        /* \"build/solidity/base.sol\":4500:4508  balances */\n      0x01\n        /* \"build/solidity/base.sol\":4500:4529  balances[address(msg.sender)] */\n      0x00\n        /* \"build/solidity/base.sol\":4517:4527  msg.sender */\n      caller\n        /* \"build/solidity/base.sol\":4500:4529  balances[address(msg.sender)] */\n      0xffffffffffffffffffffffffffffffffffffffff\n      and\n      0xffffffffffffffffffffffffffffffffffffffff\n      and\n      dup2\n      mstore\n      0x20\n      add\n      swap1\n      dup2\n      mstore\n      0x20\n      add\n      0x00\n      keccak256\n        /* \"build/solidity/base.sol\":4500:4570  balances[address(msg.sender)] = balances[address(msg.sender)] - _value */\n      dup2\n      swap1\n      sstore\n      pop\n        /* \"build/solidity/base.sol\":4630:4633  _to */\n      dup3\n        /* \"build/solidity/base.sol\":4609:4642  Transfer(msg.sender, _to, _value) */\n      0xffffffffffffffffffffffffffffffffffffffff\n      and\n        /* \"build/solidity/base.sol\":4618:4628  msg.sender */\n      caller\n        /* \"build/solidity/base.sol\":4609:4642  Transfer(msg.sender, _to, _value) */\n      0xffffffffffffffffffffffffffffffffffffffff\n      and\n      0xddf252ad1be2c89b69c2b068fc378daa952ba7f163c4a11628f55a4df523b3ef\n        /* \"build/solidity/base.sol\":4635:4641  _value */\n      dup5\n        /* \"build/solidity/base.sol\":4609:4642  Transfer(msg.sender, _to, _value) */\n      mload(0x40)\n      tag_284\n      swap2\n      swap1\n      tag_49\n      jump\t// in\n    tag_284:\n      mload(0x40)\n      dup1\n      swap2\n      sub\n      swap1\n      log3\n        /* \"build/solidity/base.sol\":4660:4664  true */\n      0x01\n        /* \"build/solidity/base.sol\":4653:4664  return true */\n      swap1\n      pop\n        /* \"build/solidity/base.sol\":4144:4674  function transfer(address _to, uint256 _value) public returns (bool success) {... */\n      swap3\n      swap2\n      pop\n      pop\n      jump\t// out\n        /* \"build/solidity/base.sol\":521:563  mapping (address => uint256) public volume */\n    tag_155:\n      mstore(0x20, 0x07)\n      dup1\n      0x00\n      mstore\n      keccak256(0x00, 0x40)\n      0x00\n      swap2\n      pop\n      swap1\n      pop\n      sload\n      dup2\n      jump\t// out\n        /* \"build/solidity/base.sol\":447:514  mapping (address => mapping (string => uint256)) public nsfw_filter */\n    tag_160:\n      mstore(0x20, 0x06)\n      dup2\n      0x00\n      mstore\n      keccak256(0x00, 0x40)\n      dup2\n      dup1\n      mload\n      0x20\n      dup2\n      add\n      dup3\n      add\n      dup1\n      mload\n      dup5\n      dup3\n      mstore\n      0x20\n      dup4\n      add\n      0x20\n      dup6\n      add\n      keccak256\n      dup2\n      dup4\n      mstore\n      dup1\n      swap6\n      pop\n      pop\n      pop\n      pop\n      pop\n      pop\n      0x00\n      swap2\n      pop\n      swap2\n      pop\n      pop\n      sload\n      dup2\n      jump\t// out\n        /* \"build/solidity/base.sol\":199:244  mapping (address => uint256) public donations */\n    tag_165:\n      mstore(0x20, 0x02)\n      dup1\n      0x00\n      mstore\n      keccak256(0x00, 0x40)\n      0x00\n      swap2\n      pop\n      swap1\n      pop\n      sload\n      dup2\n      jump\t// out\n        /* \"build/solidity/base.sol\":1841:2069  function donate() payable public returns (bool success) {... */\n    tag_168:\n        /* \"build/solidity/base.sol\":1883:1895  bool success */\n      0x00\n        /* \"build/solidity/base.sol\":1992:2001  msg.value */\n      callvalue\n        /* \"build/solidity/base.sol\":1968:1977  donations */\n      0x02\n        /* \"build/solidity/base.sol\":1968:1989  donations[msg.sender] */\n      0x00\n        /* \"build/solidity/base.sol\":1978:1988  msg.sender */\n      caller\n        /* \"build/solidity/base.sol\":1968:1989  donations[msg.sender] */\n      0xffffffffffffffffffffffffffffffffffffffff\n      and\n      0xffffffffffffffffffffffffffffffffffffffff\n      and\n      dup2\n      mstore\n      0x20\n      add\n      swap1\n      dup2\n      mstore\n      0x20\n      add\n      0x00\n      keccak256\n      sload\n        /* \"build/solidity/base.sol\":1968:2001  donations[msg.sender] + msg.value */\n      tag_286\n      swap2\n      swap1\n      tag_218\n      jump\t// in\n    tag_286:\n        /* \"build/solidity/base.sol\":1944:1953  donations */\n      0x02\n        /* \"build/solidity/base.sol\":1944:1965  donations[msg.sender] */\n      0x00\n        /* \"build/solidity/base.sol\":1954:1964  msg.sender */\n      caller\n        /* \"build/solidity/base.sol\":1944:1965  donations[msg.sender] */\n      0xffffffffffffffffffffffffffffffffffffffff\n      and\n      0xffffffffffffffffffffffffffffffffffffffff\n      and\n      dup2\n      mstore\n      0x20\n      add\n      swap1\n      dup2\n      mstore\n      0x20\n      add\n      0x00\n      keccak256\n        /* \"build/solidity/base.sol\":1944:2001  donations[msg.sender] = donations[msg.sender] + msg.value */\n      dup2\n      swap1\n      sstore\n      pop\n        /* \"build/solidity/base.sol\":2012:2017  owner */\n      0x00\n      dup1\n      sload\n      swap1\n      0x0100\n      exp\n      swap1\n      div\n      0xffffffffffffffffffffffffffffffffffffffff\n      and\n        /* \"build/solidity/base.sol\":2012:2026  owner.transfer */\n      0xffffffffffffffffffffffffffffffffffffffff\n      and\n        /* \"build/solidity/base.sol\":2012:2037  owner.transfer(msg.value) */\n      0x08fc\n        /* \"build/solidity/base.sol\":2027:2036  msg.value */\n      callvalue\n        /* \"build/solidity/base.sol\":2012:2037  owner.transfer(msg.value) */\n      swap1\n      dup2\n      iszero\n      mul\n      swap1\n      mload(0x40)\n      0x00\n      mload(0x40)\n      dup1\n      dup4\n      sub\n      dup2\n      dup6\n      dup9\n      dup9\n      call\n      swap4\n      pop\n      pop\n      pop\n      pop\n      iszero\n      dup1\n      iszero\n      tag_288\n      jumpi\n      returndatasize\n      0x00\n      dup1\n      returndatacopy\n      revert(0x00, returndatasize)\n    tag_288:\n      pop\n        /* \"build/solidity/base.sol\":2055:2059  true */\n      0x01\n        /* \"build/solidity/base.sol\":2048:2059  return true */\n      swap1\n      pop\n        /* \"build/solidity/base.sol\":1841:2069  function donate() payable public returns (bool success) {... */\n      swap1\n      jump\t// out\n        /* \"build/solidity/base.sol\":5404:6014  function insertBookmark(uint256 _chapter, uint256 _value) public returns (bool success) {... */\n    tag_174:\n        /* \"build/solidity/base.sol\":5478:5490  bool success */\n      0x00\n        /* \"build/solidity/base.sol\":5575:5576  1 */\n      0x01\n        /* \"build/solidity/base.sol\":5542:5550  balances */\n      dup1\n        /* \"build/solidity/base.sol\":5542:5571  balances[address(msg.sender)] */\n      0x00\n        /* \"build/solidity/base.sol\":5559:5569  msg.sender */\n      caller\n        /* \"build/solidity/base.sol\":5542:5571  balances[address(msg.sender)] */\n      0xffffffffffffffffffffffffffffffffffffffff\n      and\n      0xffffffffffffffffffffffffffffffffffffffff\n      and\n      dup2\n      mstore\n      0x20\n      add\n      swap1\n      dup2\n      mstore\n      0x20\n      add\n      0x00\n      keccak256\n      sload\n        /* \"build/solidity/base.sol\":5542:5576  balances[address(msg.sender)] >= 1 */\n      lt\n      iszero\n        /* \"build/solidity/base.sol\":5534:5615  require(balances[address(msg.sender)] >= 1, \"You need to activate your account.\") */\n      tag_290\n      jumpi\n      mload(0x40)\n      0x08c379a000000000000000000000000000000000000000000000000000000000\n      dup2\n      mstore\n      0x04\n      add\n      tag_291\n      swap1\n      tag_236\n      jump\t// in\n    tag_291:\n      mload(0x40)\n      dup1\n      swap2\n      sub\n      swap1\n      revert\n    tag_290:\n        /* \"build/solidity/base.sol\":5646:5647  1 */\n      0x01\n        /* \"build/solidity/base.sol\":5634:5642  _chapter */\n      dup4\n        /* \"build/solidity/base.sol\":5634:5647  _chapter >= 1 */\n      lt\n      iszero\n        /* \"build/solidity/base.sol\":5626:5668  require(_chapter >= 1, \"Invalid Chapter.\") */\n      tag_292\n      jumpi\n      mload(0x40)\n      0x08c379a000000000000000000000000000000000000000000000000000000000\n      dup2\n      mstore\n      0x04\n      add\n      tag_293\n      swap1\n      tag_294\n      jump\t// in\n    tag_293:\n      mload(0x40)\n      dup1\n      swap2\n      sub\n      swap1\n      revert\n    tag_292:\n        /* \"build/solidity/base.sol\":5697:5698  0 */\n      0x00\n        /* \"build/solidity/base.sol\":5687:5693  _value */\n      dup3\n        /* \"build/solidity/base.sol\":5687:5698  _value >= 0 */\n      lt\n      iszero\n        /* \"build/solidity/base.sol\":5679:5717  require(_value >= 0, \"Invalid Value.\") */\n      tag_295\n      jumpi\n      mload(0x40)\n      0x08c379a000000000000000000000000000000000000000000000000000000000\n      dup2\n      mstore\n      0x04\n      add\n      tag_296\n      swap1\n      tag_297\n      jump\t// in\n    tag_296:\n      mload(0x40)\n      dup1\n      swap2\n      sub\n      swap1\n      revert\n    tag_295:\n        /* \"build/solidity/base.sol\":5780:5786  _value */\n      dup2\n        /* \"build/solidity/base.sol\":5738:5746  bookmark */\n      0x05\n        /* \"build/solidity/base.sol\":5738:5767  bookmark[address(msg.sender)] */\n      0x00\n        /* \"build/solidity/base.sol\":5755:5765  msg.sender */\n      caller\n        /* \"build/solidity/base.sol\":5738:5767  bookmark[address(msg.sender)] */\n      0xffffffffffffffffffffffffffffffffffffffff\n      and\n      0xffffffffffffffffffffffffffffffffffffffff\n      and\n      dup2\n      mstore\n      0x20\n      add\n      swap1\n      dup2\n      mstore\n      0x20\n      add\n      0x00\n      keccak256\n        /* \"build/solidity/base.sol\":5738:5777  bookmark[address(msg.sender)][_chapter] */\n      0x00\n        /* \"build/solidity/base.sol\":5768:5776  _chapter */\n      dup6\n        /* \"build/solidity/base.sol\":5738:5777  bookmark[address(msg.sender)][_chapter] */\n      dup2\n      mstore\n      0x20\n      add\n      swap1\n      dup2\n      mstore\n      0x20\n      add\n      0x00\n      keccak256\n        /* \"build/solidity/base.sol\":5738:5786  bookmark[address(msg.sender)][_chapter] = _value */\n      dup2\n      swap1\n      sstore\n      pop\n        /* \"build/solidity/base.sol\":5869:5870  1 */\n      0x01\n        /* \"build/solidity/base.sol\":5833:5845  interactions */\n      0x03\n        /* \"build/solidity/base.sol\":5833:5866  interactions[address(msg.sender)] */\n      0x00\n        /* \"build/solidity/base.sol\":5854:5864  msg.sender */\n      caller\n        /* \"build/solidity/base.sol\":5833:5866  interactions[address(msg.sender)] */\n      0xffffffffffffffffffffffffffffffffffffffff\n      and\n      0xffffffffffffffffffffffffffffffffffffffff\n      and\n      dup2\n      mstore\n      0x20\n      add\n      swap1\n      dup2\n      mstore\n      0x20\n      add\n      0x00\n      keccak256\n      sload\n        /* \"build/solidity/base.sol\":5833:5870  interactions[address(msg.sender)] + 1 */\n      tag_298\n      swap2\n      swap1\n      tag_218\n      jump\t// in\n    tag_298:\n        /* \"build/solidity/base.sol\":5797:5809  interactions */\n      0x03\n        /* \"build/solidity/base.sol\":5797:5830  interactions[address(msg.sender)] */\n      0x00\n        /* \"build/solidity/base.sol\":5818:5828  msg.sender */\n      caller\n        /* \"build/solidity/base.sol\":5797:5830  interactions[address(msg.sender)] */\n      0xffffffffffffffffffffffffffffffffffffffff\n      and\n      0xffffffffffffffffffffffffffffffffffffffff\n      and\n      dup2\n      mstore\n      0x20\n      add\n      swap1\n      dup2\n      mstore\n      0x20\n      add\n      0x00\n      keccak256\n        /* \"build/solidity/base.sol\":5797:5870  interactions[address(msg.sender)] = interactions[address(msg.sender)] + 1 */\n      dup2\n      swap1\n      sstore\n      pop\n        /* \"build/solidity/base.sol\":5921:5922  1 */\n      0x01\n        /* \"build/solidity/base.sol\":5901:5918  totalInteractions */\n      sload(0x0c)\n        /* \"build/solidity/base.sol\":5901:5922  totalInteractions + 1 */\n      tag_299\n      swap2\n      swap1\n      tag_218\n      jump\t// in\n    tag_299:\n        /* \"build/solidity/base.sol\":5881:5898  totalInteractions */\n      0x0c\n        /* \"build/solidity/base.sol\":5881:5922  totalInteractions = totalInteractions + 1 */\n      dup2\n      swap1\n      sstore\n      pop\n        /* \"build/solidity/base.sol\":5952:5962  msg.sender */\n      caller\n        /* \"build/solidity/base.sol\":5940:5982  Interaction(msg.sender, \"insert_bookmark\") */\n      0xffffffffffffffffffffffffffffffffffffffff\n      and\n      0x2e423c3d4c536be9c3307d7ba9d9797ce08e89334052f84c24f8eba20baa63a1\n      mload(0x40)\n      tag_300\n      swap1\n      tag_301\n      jump\t// in\n    tag_300:\n      mload(0x40)\n      dup1\n      swap2\n      sub\n      swap1\n      log2\n        /* \"build/solidity/base.sol\":6000:6004  true */\n      0x01\n        /* \"build/solidity/base.sol\":5993:6004  return true */\n      swap1\n      pop\n        /* \"build/solidity/base.sol\":5404:6014  function insertBookmark(uint256 _chapter, uint256 _value) public returns (bool success) {... */\n      swap3\n      swap2\n      pop\n      pop\n      jump\t// out\n        /* \"build/solidity/base.sol\":2077:2318  function transferOwnership(address newOwner) public {... */\n    tag_179:\n        /* \"build/solidity/base.sol\":2179:2184  owner */\n      0x00\n      dup1\n      sload\n      swap1\n      0x0100\n      exp\n      swap1\n      div\n      0xffffffffffffffffffffffffffffffffffffffff\n      and\n        /* \"build/solidity/base.sol\":2148:2185  address(msg.sender) == address(owner) */\n      0xffffffffffffffffffffffffffffffffffffffff\n      and\n        /* \"build/solidity/base.sol\":2156:2166  msg.sender */\n      caller\n        /* \"build/solidity/base.sol\":2148:2185  address(msg.sender) == address(owner) */\n      0xffffffffffffffffffffffffffffffffffffffff\n      and\n      eq\n        /* \"build/solidity/base.sol\":2140:2221  require(address(msg.sender) == address(owner), \"You are not allowed to do this.\") */\n      tag_303\n      jumpi\n      mload(0x40)\n      0x08c379a000000000000000000000000000000000000000000000000000000000\n      dup2\n      mstore\n      0x04\n      add\n      tag_304\n      swap1\n      tag_197\n      jump\t// in\n    tag_304:\n      mload(0x40)\n      dup1\n      swap2\n      sub\n      swap1\n      revert\n    tag_303:\n        /* \"build/solidity/base.sol\":2265:2273  newOwner */\n      dup1\n        /* \"build/solidity/base.sol\":2237:2274  OwnershipTransferred(owner, newOwner) */\n      0xffffffffffffffffffffffffffffffffffffffff\n      and\n        /* \"build/solidity/base.sol\":2258:2263  owner */\n      0x00\n      dup1\n      sload\n      swap1\n      0x0100\n      exp\n      swap1\n      div\n      0xffffffffffffffffffffffffffffffffffffffff\n      and\n        /* \"build/solidity/base.sol\":2237:2274  OwnershipTransferred(owner, newOwner) */\n      0xffffffffffffffffffffffffffffffffffffffff\n      and\n      0x8be0079c531659141344cd1fd0a4f28419497f9722a3daafe3b4186f6b6457e0\n      mload(0x40)\n      mload(0x40)\n      dup1\n      swap2\n      sub\n      swap1\n      log3\n        /* \"build/solidity/base.sol\":2301:2309  newOwner */\n      dup1\n        /* \"build/solidity/base.sol\":2285:2290  owner */\n      0x00\n      dup1\n        /* \"build/solidity/base.sol\":2285:2310  owner = payable(newOwner) */\n      0x0100\n      exp\n      dup2\n      sload\n      dup2\n      0xffffffffffffffffffffffffffffffffffffffff\n      mul\n      not\n      and\n      swap1\n      dup4\n      0xffffffffffffffffffffffffffffffffffffffff\n      and\n      mul\n      or\n      swap1\n      sstore\n      pop\n        /* \"build/solidity/base.sol\":2077:2318  function transferOwnership(address newOwner) public {... */\n      pop\n      jump\t// out\n        /* \"build/solidity/base.sol\":2842:2977  function getPerm(address _account, string memory _perm) external view returns (uint256) {... */\n    tag_183:\n        /* \"build/solidity/base.sol\":2921:2928  uint256 */\n      0x00\n        /* \"build/solidity/base.sol\":2948:2952  perm */\n      0x04\n        /* \"build/solidity/base.sol\":2948:2962  perm[_account] */\n      0x00\n        /* \"build/solidity/base.sol\":2953:2961  _account */\n      dup5\n        /* \"build/solidity/base.sol\":2948:2962  perm[_account] */\n      0xffffffffffffffffffffffffffffffffffffffff\n      and\n      0xffffffffffffffffffffffffffffffffffffffff\n      and\n      dup2\n      mstore\n      0x20\n      add\n      swap1\n      dup2\n      mstore\n      0x20\n      add\n      0x00\n      keccak256\n        /* \"build/solidity/base.sol\":2963:2968  _perm */\n      dup3\n        /* \"build/solidity/base.sol\":2948:2969  perm[_account][_perm] */\n      mload(0x40)\n      tag_306\n      swap2\n      swap1\n      tag_193\n      jump\t// in\n    tag_306:\n      swap1\n      dup2\n      mstore\n      0x20\n      add\n      mload(0x40)\n      dup1\n      swap2\n      sub\n      swap1\n      keccak256\n      sload\n        /* \"build/solidity/base.sol\":2941:2969  return perm[_account][_perm] */\n      swap1\n      pop\n        /* \"build/solidity/base.sol\":2842:2977  function getPerm(address _account, string memory _perm) external view returns (uint256) {... */\n      swap3\n      swap2\n      pop\n      pop\n      jump\t// out\n        /* \"#utility.yul\":7:106   */\n    tag_307:\n        /* \"#utility.yul\":59:65   */\n      0x00\n        /* \"#utility.yul\":93:98   */\n      dup2\n        /* \"#utility.yul\":87:99   */\n      mload\n        /* \"#utility.yul\":77:99   */\n      swap1\n      pop\n        /* \"#utility.yul\":7:106   */\n      swap2\n      swap1\n      pop\n      jump\t// out\n        /* \"#utility.yul\":112:281   */\n    tag_308:\n        /* \"#utility.yul\":196:207   */\n      0x00\n        /* \"#utility.yul\":230:236   */\n      dup3\n        /* \"#utility.yul\":225:228   */\n      dup3\n        /* \"#utility.yul\":218:237   */\n      mstore\n        /* \"#utility.yul\":270:274   */\n      0x20\n        /* \"#utility.yul\":265:268   */\n      dup3\n        /* \"#utility.yul\":261:275   */\n      add\n        /* \"#utility.yul\":246:275   */\n      swap1\n      pop\n        /* \"#utility.yul\":112:281   */\n      swap3\n      swap2\n      pop\n      pop\n      jump\t// out\n        /* \"#utility.yul\":287:533   */\n    tag_309:\n        /* \"#utility.yul\":368:369   */\n      0x00\n        /* \"#utility.yul\":378:491   */\n    tag_379:\n        /* \"#utility.yul\":392:398   */\n      dup4\n        /* \"#utility.yul\":389:390   */\n      dup2\n        /* \"#utility.yul\":386:399   */\n      lt\n        /* \"#utility.yul\":378:491   */\n      iszero\n      tag_381\n      jumpi\n        /* \"#utility.yul\":477:478   */\n      dup1\n        /* \"#utility.yul\":472:475   */\n      dup3\n        /* \"#utility.yul\":468:479   */\n      add\n        /* \"#utility.yul\":462:480   */\n      mload\n        /* \"#utility.yul\":458:459   */\n      dup2\n        /* \"#utility.yul\":453:456   */\n      dup5\n        /* \"#utility.yul\":449:460   */\n      add\n        /* \"#utility.yul\":442:481   */\n      mstore\n        /* \"#utility.yul\":414:416   */\n      0x20\n        /* \"#utility.yul\":411:412   */\n      dup2\n        /* \"#utility.yul\":407:417   */\n      add\n        /* \"#utility.yul\":402:417   */\n      swap1\n      pop\n        /* \"#utility.yul\":378:491   */\n      jump(tag_379)\n    tag_381:\n        /* \"#utility.yul\":525:526   */\n      0x00\n        /* \"#utility.yul\":516:522   */\n      dup5\n        /* \"#utility.yul\":511:514   */\n      dup5\n        /* \"#utility.yul\":507:523   */\n      add\n        /* \"#utility.yul\":500:527   */\n      mstore\n        /* \"#utility.yul\":349:533   */\n      pop\n        /* \"#utility.yul\":287:533   */\n      pop\n      pop\n      pop\n      jump\t// out\n        /* \"#utility.yul\":539:641   */\n    tag_310:\n        /* \"#utility.yul\":580:586   */\n      0x00\n        /* \"#utility.yul\":631:633   */\n      0x1f\n        /* \"#utility.yul\":627:634   */\n      not\n        /* \"#utility.yul\":622:624   */\n      0x1f\n        /* \"#utility.yul\":615:620   */\n      dup4\n        /* \"#utility.yul\":611:625   */\n      add\n        /* \"#utility.yul\":607:635   */\n      and\n        /* \"#utility.yul\":597:635   */\n      swap1\n      pop\n        /* \"#utility.yul\":539:641   */\n      swap2\n      swap1\n      pop\n      jump\t// out\n        /* \"#utility.yul\":647:1024   */\n    tag_311:\n        /* \"#utility.yul\":735:738   */\n      0x00\n        /* \"#utility.yul\":763:802   */\n      tag_384\n        /* \"#utility.yul\":796:801   */\n      dup3\n        /* \"#utility.yul\":763:802   */\n      tag_307\n      jump\t// in\n    tag_384:\n        /* \"#utility.yul\":818:889   */\n      tag_385\n        /* \"#utility.yul\":882:888   */\n      dup2\n        /* \"#utility.yul\":877:880   */\n      dup6\n        /* \"#utility.yul\":818:889   */\n      tag_308\n      jump\t// in\n    tag_385:\n        /* \"#utility.yul\":811:889   */\n      swap4\n      pop\n        /* \"#utility.yul\":898:963   */\n      tag_386\n        /* \"#utility.yul\":956:962   */\n      dup2\n        /* \"#utility.yul\":951:954   */\n      dup6\n        /* \"#utility.yul\":944:948   */\n      0x20\n        /* \"#utility.yul\":937:942   */\n      dup7\n        /* \"#utility.yul\":933:949   */\n      add\n        /* \"#utility.yul\":898:963   */\n      tag_309\n      jump\t// in\n    tag_386:\n        /* \"#utility.yul\":988:1017   */\n      tag_387\n        /* \"#utility.yul\":1010:1016   */\n      dup2\n        /* \"#utility.yul\":988:1017   */\n      tag_310\n      jump\t// in\n    tag_387:\n        /* \"#utility.yul\":983:986   */\n      dup5\n        /* \"#utility.yul\":979:1018   */\n      add\n        /* \"#utility.yul\":972:1018   */\n      swap2\n      pop\n        /* \"#utility.yul\":739:1024   */\n      pop\n        /* \"#utility.yul\":647:1024   */\n      swap3\n      swap2\n      pop\n      pop\n      jump\t// out\n        /* \"#utility.yul\":1030:1343   */\n    tag_42:\n        /* \"#utility.yul\":1143:1147   */\n      0x00\n        /* \"#utility.yul\":1181:1183   */\n      0x20\n        /* \"#utility.yul\":1170:1179   */\n      dup3\n        /* \"#utility.yul\":1166:1184   */\n      add\n        /* \"#utility.yul\":1158:1184   */\n      swap1\n      pop\n        /* \"#utility.yul\":1230:1239   */\n      dup2\n        /* \"#utility.yul\":1224:1228   */\n      dup2\n        /* \"#utility.yul\":1220:1240   */\n      sub\n        /* \"#utility.yul\":1216:1217   */\n      0x00\n        /* \"#utility.yul\":1205:1214   */\n      dup4\n        /* \"#utility.yul\":1201:1218   */\n      add\n        /* \"#utility.yul\":1194:1241   */\n      mstore\n        /* \"#utility.yul\":1258:1336   */\n      tag_389\n        /* \"#utility.yul\":1331:1335   */\n      dup2\n        /* \"#utility.yul\":1322:1328   */\n      dup5\n        /* \"#utility.yul\":1258:1336   */\n      tag_311\n      jump\t// in\n    tag_389:\n        /* \"#utility.yul\":1250:1336   */\n      swap1\n      pop\n        /* \"#utility.yul\":1030:1343   */\n      swap3\n      swap2\n      pop\n      pop\n      jump\t// out\n        /* \"#utility.yul\":1349:1424   */\n    tag_312:\n        /* \"#utility.yul\":1382:1388   */\n      0x00\n        /* \"#utility.yul\":1415:1417   */\n      0x40\n        /* \"#utility.yul\":1409:1418   */\n      mload\n        /* \"#utility.yul\":1399:1418   */\n      swap1\n      pop\n        /* \"#utility.yul\":1349:1424   */\n      swap1\n      jump\t// out\n        /* \"#utility.yul\":1430:1547   */\n    tag_313:\n        /* \"#utility.yul\":1539:1540   */\n      0x00\n        /* \"#utility.yul\":1536:1537   */\n      dup1\n        /* \"#utility.yul\":1529:1541   */\n      revert\n        /* \"#utility.yul\":1553:1670   */\n    tag_314:\n        /* \"#utility.yul\":1662:1663   */\n      0x00\n        /* \"#utility.yul\":1659:1660   */\n      dup1\n        /* \"#utility.yul\":1652:1664   */\n      revert\n        /* \"#utility.yul\":1676:1802   */\n    tag_315:\n        /* \"#utility.yul\":1713:1720   */\n      0x00\n        /* \"#utility.yul\":1753:1795   */\n      0xffffffffffffffffffffffffffffffffffffffff\n        /* \"#utility.yul\":1746:1751   */\n      dup3\n        /* \"#utility.yul\":1742:1796   */\n      and\n        /* \"#utility.yul\":1731:1796   */\n      swap1\n      pop\n        /* \"#utility.yul\":1676:1802   */\n      swap2\n      swap1\n      pop\n      jump\t// out\n        /* \"#utility.yul\":1808:1904   */\n    tag_316:\n        /* \"#utility.yul\":1845:1852   */\n      0x00\n        /* \"#utility.yul\":1874:1898   */\n      tag_395\n        /* \"#utility.yul\":1892:1897   */\n      dup3\n        /* \"#utility.yul\":1874:1898   */\n      tag_315\n      jump\t// in\n    tag_395:\n        /* \"#utility.yul\":1863:1898   */\n      swap1\n      pop\n        /* \"#utility.yul\":1808:1904   */\n      swap2\n      swap1\n      pop\n      jump\t// out\n        /* \"#utility.yul\":1910:2032   */\n    tag_317:\n        /* \"#utility.yul\":1983:2007   */\n      tag_397\n        /* \"#utility.yul\":2001:2006   */\n      dup2\n        /* \"#utility.yul\":1983:2007   */\n      tag_316\n      jump\t// in\n    tag_397:\n        /* \"#utility.yul\":1976:1981   */\n      dup2\n        /* \"#utility.yul\":1973:2008   */\n      eq\n        /* \"#utility.yul\":1963:2026   */\n      tag_398\n      jumpi\n        /* \"#utility.yul\":2022:2023   */\n      0x00\n        /* \"#utility.yul\":2019:2020   */\n      dup1\n        /* \"#utility.yul\":2012:2024   */\n      revert\n        /* \"#utility.yul\":1963:2026   */\n    tag_398:\n        /* \"#utility.yul\":1910:2032   */\n      pop\n      jump\t// out\n        /* \"#utility.yul\":2038:2177   */\n    tag_318:\n        /* \"#utility.yul\":2084:2089   */\n      0x00\n        /* \"#utility.yul\":2122:2128   */\n      dup2\n        /* \"#utility.yul\":2109:2129   */\n      calldataload\n        /* \"#utility.yul\":2100:2129   */\n      swap1\n      pop\n        /* \"#utility.yul\":2138:2171   */\n      tag_400\n        /* \"#utility.yul\":2165:2170   */\n      dup2\n        /* \"#utility.yul\":2138:2171   */\n      tag_317\n      jump\t// in\n    tag_400:\n        /* \"#utility.yul\":2038:2177   */\n      swap3\n      swap2\n      pop\n      pop\n      jump\t// out\n        /* \"#utility.yul\":2183:2512   */\n    tag_46:\n        /* \"#utility.yul\":2242:2248   */\n      0x00\n        /* \"#utility.yul\":2291:2293   */\n      0x20\n        /* \"#utility.yul\":2279:2288   */\n      dup3\n        /* \"#utility.yul\":2270:2277   */\n      dup5\n        /* \"#utility.yul\":2266:2289   */\n      sub\n        /* \"#utility.yul\":2262:2294   */\n      slt\n        /* \"#utility.yul\":2259:2378   */\n      iszero\n      tag_402\n      jumpi\n        /* \"#utility.yul\":2297:2376   */\n      tag_403\n      tag_313\n      jump\t// in\n    tag_403:\n        /* \"#utility.yul\":2259:2378   */\n    tag_402:\n        /* \"#utility.yul\":2417:2418   */\n      0x00\n        /* \"#utility.yul\":2442:2495   */\n      tag_404\n        /* \"#utility.yul\":2487:2494   */\n      dup5\n        /* \"#utility.yul\":2478:2484   */\n      dup3\n        /* \"#utility.yul\":2467:2476   */\n      dup6\n        /* \"#utility.yul\":2463:2485   */\n      add\n        /* \"#utility.yul\":2442:2495   */\n      tag_318\n      jump\t// in\n    tag_404:\n        /* \"#utility.yul\":2432:2495   */\n      swap2\n      pop\n        /* \"#utility.yul\":2388:2505   */\n      pop\n        /* \"#utility.yul\":2183:2512   */\n      swap3\n      swap2\n      pop\n      pop\n      jump\t// out\n        /* \"#utility.yul\":2518:2595   */\n    tag_319:\n        /* \"#utility.yul\":2555:2562   */\n      0x00\n        /* \"#utility.yul\":2584:2589   */\n      dup2\n        /* \"#utility.yul\":2573:2589   */\n      swap1\n      pop\n        /* \"#utility.yul\":2518:2595   */\n      swap2\n      swap1\n      pop\n      jump\t// out\n        /* \"#utility.yul\":2601:2719   */\n    tag_320:\n        /* \"#utility.yul\":2688:2712   */\n      tag_407\n        /* \"#utility.yul\":2706:2711   */\n      dup2\n        /* \"#utility.yul\":2688:2712   */\n      tag_319\n      jump\t// in\n    tag_407:\n        /* \"#utility.yul\":2683:2686   */\n      dup3\n        /* \"#utility.yul\":2676:2713   */\n      mstore\n        /* \"#utility.yul\":2601:2719   */\n      pop\n      pop\n      jump\t// out\n        /* \"#utility.yul\":2725:2947   */\n    tag_49:\n        /* \"#utility.yul\":2818:2822   */\n      0x00\n        /* \"#utility.yul\":2856:2858   */\n      0x20\n        /* \"#utility.yul\":2845:2854   */\n      dup3\n        /* \"#utility.yul\":2841:2859   */\n      add\n        /* \"#utility.yul\":2833:2859   */\n      swap1\n      pop\n        /* \"#utility.yul\":2869:2940   */\n      tag_409\n        /* \"#utility.yul\":2937:2938   */\n      0x00\n        /* \"#utility.yul\":2926:2935   */\n      dup4\n        /* \"#utility.yul\":2922:2939   */\n      add\n        /* \"#utility.yul\":2913:2919   */\n      dup5\n        /* \"#utility.yul\":2869:2940   */\n      tag_320\n      jump\t// in\n    tag_409:\n        /* \"#utility.yul\":2725:2947   */\n      swap3\n      swap2\n      pop\n      pop\n      jump\t// out\n        /* \"#utility.yul\":2953:3070   */\n    tag_321:\n        /* \"#utility.yul\":3062:3063   */\n      0x00\n        /* \"#utility.yul\":3059:3060   */\n      dup1\n        /* \"#utility.yul\":3052:3064   */\n      revert\n        /* \"#utility.yul\":3076:3193   */\n    tag_322:\n        /* \"#utility.yul\":3185:3186   */\n      0x00\n        /* \"#utility.yul\":3182:3183   */\n      dup1\n        /* \"#utility.yul\":3175:3187   */\n      revert\n        /* \"#utility.yul\":3199:3379   */\n    tag_323:\n        /* \"#utility.yul\":3247:3324   */\n      0x4e487b7100000000000000000000000000000000000000000000000000000000\n        /* \"#utility.yul\":3244:3245   */\n      0x00\n        /* \"#utility.yul\":3237:3325   */\n      mstore\n        /* \"#utility.yul\":3344:3348   */\n      0x41\n        /* \"#utility.yul\":3341:3342   */\n      0x04\n        /* \"#utility.yul\":3334:3349   */\n      mstore\n        /* \"#utility.yul\":3368:3372   */\n      0x24\n        /* \"#utility.yul\":3365:3366   */\n      0x00\n        /* \"#utility.yul\":3358:3373   */\n      revert\n        /* \"#utility.yul\":3385:3666   */\n    tag_324:\n        /* \"#utility.yul\":3468:3495   */\n      tag_414\n        /* \"#utility.yul\":3490:3494   */\n      dup3\n        /* \"#utility.yul\":3468:3495   */\n      tag_310\n      jump\t// in\n    tag_414:\n        /* \"#utility.yul\":3460:3466   */\n      dup2\n        /* \"#utility.yul\":3456:3496   */\n      add\n        /* \"#utility.yul\":3598:3604   */\n      dup2\n        /* \"#utility.yul\":3586:3596   */\n      dup2\n        /* \"#utility.yul\":3583:3605   */\n      lt\n        /* \"#utility.yul\":3562:3580   */\n      0xffffffffffffffff\n        /* \"#utility.yul\":3550:3560   */\n      dup3\n        /* \"#utility.yul\":3547:3581   */\n      gt\n        /* \"#utility.yul\":3544:3606   */\n      or\n        /* \"#utility.yul\":3541:3629   */\n      iszero\n      tag_415\n      jumpi\n        /* \"#utility.yul\":3609:3627   */\n      tag_416\n      tag_323\n      jump\t// in\n    tag_416:\n        /* \"#utility.yul\":3541:3629   */\n    tag_415:\n        /* \"#utility.yul\":3649:3659   */\n      dup1\n        /* \"#utility.yul\":3645:3647   */\n      0x40\n        /* \"#utility.yul\":3638:3660   */\n      mstore\n        /* \"#utility.yul\":3428:3666   */\n      pop\n        /* \"#utility.yul\":3385:3666   */\n      pop\n      pop\n      jump\t// out\n        /* \"#utility.yul\":3672:3801   */\n    tag_325:\n        /* \"#utility.yul\":3706:3712   */\n      0x00\n        /* \"#utility.yul\":3733:3753   */\n      tag_418\n      tag_312\n      jump\t// in\n    tag_418:\n        /* \"#utility.yul\":3723:3753   */\n      swap1\n      pop\n        /* \"#utility.yul\":3762:3795   */\n      tag_419\n        /* \"#utility.yul\":3790:3794   */\n      dup3\n        /* \"#utility.yul\":3782:3788   */\n      dup3\n        /* \"#utility.yul\":3762:3795   */\n      tag_324\n      jump\t// in\n    tag_419:\n        /* \"#utility.yul\":3672:3801   */\n      swap2\n      swap1\n      pop\n      jump\t// out\n        /* \"#utility.yul\":3807:4115   */\n    tag_326:\n        /* \"#utility.yul\":3869:3873   */\n      0x00\n        /* \"#utility.yul\":3959:3977   */\n      0xffffffffffffffff\n        /* \"#utility.yul\":3951:3957   */\n      dup3\n        /* \"#utility.yul\":3948:3978   */\n      gt\n        /* \"#utility.yul\":3945:4001   */\n      iszero\n      tag_421\n      jumpi\n        /* \"#utility.yul\":3981:3999   */\n      tag_422\n      tag_323\n      jump\t// in\n    tag_422:\n        /* \"#utility.yul\":3945:4001   */\n    tag_421:\n        /* \"#utility.yul\":4019:4048   */\n      tag_423\n        /* \"#utility.yul\":4041:4047   */\n      dup3\n        /* \"#utility.yul\":4019:4048   */\n      tag_310\n      jump\t// in\n    tag_423:\n        /* \"#utility.yul\":4011:4048   */\n      swap1\n      pop\n        /* \"#utility.yul\":4103:4107   */\n      0x20\n        /* \"#utility.yul\":4097:4101   */\n      dup2\n        /* \"#utility.yul\":4093:4108   */\n      add\n        /* \"#utility.yul\":4085:4108   */\n      swap1\n      pop\n        /* \"#utility.yul\":3807:4115   */\n      swap2\n      swap1\n      pop\n      jump\t// out\n        /* \"#utility.yul\":4121:4267   */\n    tag_327:\n        /* \"#utility.yul\":4218:4224   */\n      dup3\n        /* \"#utility.yul\":4213:4216   */\n      dup2\n        /* \"#utility.yul\":4208:4211   */\n      dup4\n        /* \"#utility.yul\":4195:4225   */\n      calldatacopy\n        /* \"#utility.yul\":4259:4260   */\n      0x00\n        /* \"#utility.yul\":4250:4256   */\n      dup4\n        /* \"#utility.yul\":4245:4248   */\n      dup4\n        /* \"#utility.yul\":4241:4257   */\n      add\n        /* \"#utility.yul\":4234:4261   */\n      mstore\n        /* \"#utility.yul\":4121:4267   */\n      pop\n      pop\n      pop\n      jump\t// out\n        /* \"#utility.yul\":4273:4698   */\n    tag_328:\n        /* \"#utility.yul\":4351:4356   */\n      0x00\n        /* \"#utility.yul\":4376:4442   */\n      tag_426\n        /* \"#utility.yul\":4392:4441   */\n      tag_427\n        /* \"#utility.yul\":4434:4440   */\n      dup5\n        /* \"#utility.yul\":4392:4441   */\n      tag_326\n      jump\t// in\n    tag_427:\n        /* \"#utility.yul\":4376:4442   */\n      tag_325\n      jump\t// in\n    tag_426:\n        /* \"#utility.yul\":4367:4442   */\n      swap1\n      pop\n        /* \"#utility.yul\":4465:4471   */\n      dup3\n        /* \"#utility.yul\":4458:4463   */\n      dup2\n        /* \"#utility.yul\":4451:4472   */\n      mstore\n        /* \"#utility.yul\":4503:4507   */\n      0x20\n        /* \"#utility.yul\":4496:4501   */\n      dup2\n        /* \"#utility.yul\":4492:4508   */\n      add\n        /* \"#utility.yul\":4541:4544   */\n      dup5\n        /* \"#utility.yul\":4532:4538   */\n      dup5\n        /* \"#utility.yul\":4527:4530   */\n      dup5\n        /* \"#utility.yul\":4523:4539   */\n      add\n        /* \"#utility.yul\":4520:4545   */\n      gt\n        /* \"#utility.yul\":4517:4629   */\n      iszero\n      tag_428\n      jumpi\n        /* \"#utility.yul\":4548:4627   */\n      tag_429\n      tag_322\n      jump\t// in\n    tag_429:\n        /* \"#utility.yul\":4517:4629   */\n    tag_428:\n        /* \"#utility.yul\":4638:4692   */\n      tag_430\n        /* \"#utility.yul\":4685:4691   */\n      dup5\n        /* \"#utility.yul\":4680:4683   */\n      dup3\n        /* \"#utility.yul\":4675:4678   */\n      dup6\n        /* \"#utility.yul\":4638:4692   */\n      tag_327\n      jump\t// in\n    tag_430:\n        /* \"#utility.yul\":4357:4698   */\n      pop\n        /* \"#utility.yul\":4273:4698   */\n      swap4\n      swap3\n      pop\n      pop\n      pop\n      jump\t// out\n        /* \"#utility.yul\":4718:5058   */\n    tag_329:\n        /* \"#utility.yul\":4774:4779   */\n      0x00\n        /* \"#utility.yul\":4823:4826   */\n      dup3\n        /* \"#utility.yul\":4816:4820   */\n      0x1f\n        /* \"#utility.yul\":4808:4814   */\n      dup4\n        /* \"#utility.yul\":4804:4821   */\n      add\n        /* \"#utility.yul\":4800:4827   */\n      slt\n        /* \"#utility.yul\":4790:4912   */\n      tag_432\n      jumpi\n        /* \"#utility.yul\":4831:4910   */\n      tag_433\n      tag_321\n      jump\t// in\n    tag_433:\n        /* \"#utility.yul\":4790:4912   */\n    tag_432:\n        /* \"#utility.yul\":4948:4954   */\n      dup2\n        /* \"#utility.yul\":4935:4955   */\n      calldataload\n        /* \"#utility.yul\":4973:5052   */\n      tag_434\n        /* \"#utility.yul\":5048:5051   */\n      dup5\n        /* \"#utility.yul\":5040:5046   */\n      dup3\n        /* \"#utility.yul\":5033:5037   */\n      0x20\n        /* \"#utility.yul\":5025:5031   */\n      dup7\n        /* \"#utility.yul\":5021:5038   */\n      add\n        /* \"#utility.yul\":4973:5052   */\n      tag_328\n      jump\t// in\n    tag_434:\n        /* \"#utility.yul\":4964:5052   */\n      swap2\n      pop\n        /* \"#utility.yul\":4780:5058   */\n      pop\n        /* \"#utility.yul\":4718:5058   */\n      swap3\n      swap2\n      pop\n      pop\n      jump\t// out\n        /* \"#utility.yul\":5064:5718   */\n    tag_53:\n        /* \"#utility.yul\":5142:5148   */\n      0x00\n        /* \"#utility.yul\":5150:5156   */\n      dup1\n        /* \"#utility.yul\":5199:5201   */\n      0x40\n        /* \"#utility.yul\":5187:5196   */\n      dup4\n        /* \"#utility.yul\":5178:5185   */\n      dup6\n        /* \"#utility.yul\":5174:5197   */\n      sub\n        /* \"#utility.yul\":5170:5202   */\n      slt\n        /* \"#utility.yul\":5167:5286   */\n      iszero\n      tag_436\n      jumpi\n        /* \"#utility.yul\":5205:5284   */\n      tag_437\n      tag_313\n      jump\t// in\n    tag_437:\n        /* \"#utility.yul\":5167:5286   */\n    tag_436:\n        /* \"#utility.yul\":5325:5326   */\n      0x00\n        /* \"#utility.yul\":5350:5403   */\n      tag_438\n        /* \"#utility.yul\":5395:5402   */\n      dup6\n        /* \"#utility.yul\":5386:5392   */\n      dup3\n        /* \"#utility.yul\":5375:5384   */\n      dup7\n        /* \"#utility.yul\":5371:5393   */\n      add\n        /* \"#utility.yul\":5350:5403   */\n      tag_318\n      jump\t// in\n    tag_438:\n        /* \"#utility.yul\":5340:5403   */\n      swap3\n      pop\n        /* \"#utility.yul\":5296:5413   */\n      pop\n        /* \"#utility.yul\":5480:5482   */\n      0x20\n        /* \"#utility.yul\":5469:5478   */\n      dup4\n        /* \"#utility.yul\":5465:5483   */\n      add\n        /* \"#utility.yul\":5452:5484   */\n      calldataload\n        /* \"#utility.yul\":5511:5529   */\n      0xffffffffffffffff\n        /* \"#utility.yul\":5503:5509   */\n      dup2\n        /* \"#utility.yul\":5500:5530   */\n      gt\n        /* \"#utility.yul\":5497:5614   */\n      iszero\n      tag_439\n      jumpi\n        /* \"#utility.yul\":5533:5612   */\n      tag_440\n      tag_314\n      jump\t// in\n    tag_440:\n        /* \"#utility.yul\":5497:5614   */\n    tag_439:\n        /* \"#utility.yul\":5638:5701   */\n      tag_441\n        /* \"#utility.yul\":5693:5700   */\n      dup6\n        /* \"#utility.yul\":5684:5690   */\n      dup3\n        /* \"#utility.yul\":5673:5682   */\n      dup7\n        /* \"#utility.yul\":5669:5691   */\n      add\n        /* \"#utility.yul\":5638:5701   */\n      tag_329\n      jump\t// in\n    tag_441:\n        /* \"#utility.yul\":5628:5701   */\n      swap2\n      pop\n        /* \"#utility.yul\":5423:5711   */\n      pop\n        /* \"#utility.yul\":5064:5718   */\n      swap3\n      pop\n      swap3\n      swap1\n      pop\n      jump\t// out\n        /* \"#utility.yul\":5724:5846   */\n    tag_330:\n        /* \"#utility.yul\":5797:5821   */\n      tag_443\n        /* \"#utility.yul\":5815:5820   */\n      dup2\n        /* \"#utility.yul\":5797:5821   */\n      tag_319\n      jump\t// in\n    tag_443:\n        /* \"#utility.yul\":5790:5795   */\n      dup2\n        /* \"#utility.yul\":5787:5822   */\n      eq\n        /* \"#utility.yul\":5777:5840   */\n      tag_444\n      jumpi\n        /* \"#utility.yul\":5836:5837   */\n      0x00\n        /* \"#utility.yul\":5833:5834   */\n      dup1\n        /* \"#utility.yul\":5826:5838   */\n      revert\n        /* \"#utility.yul\":5777:5840   */\n    tag_444:\n        /* \"#utility.yul\":5724:5846   */\n      pop\n      jump\t// out\n        /* \"#utility.yul\":5852:5991   */\n    tag_331:\n        /* \"#utility.yul\":5898:5903   */\n      0x00\n        /* \"#utility.yul\":5936:5942   */\n      dup2\n        /* \"#utility.yul\":5923:5943   */\n      calldataload\n        /* \"#utility.yul\":5914:5943   */\n      swap1\n      pop\n        /* \"#utility.yul\":5952:5985   */\n      tag_446\n        /* \"#utility.yul\":5979:5984   */\n      dup2\n        /* \"#utility.yul\":5952:5985   */\n      tag_330\n      jump\t// in\n    tag_446:\n        /* \"#utility.yul\":5852:5991   */\n      swap3\n      swap2\n      pop\n      pop\n      jump\t// out\n        /* \"#utility.yul\":5997:6796   */\n    tag_63:\n        /* \"#utility.yul\":6084:6090   */\n      0x00\n        /* \"#utility.yul\":6092:6098   */\n      dup1\n        /* \"#utility.yul\":6100:6106   */\n      0x00\n        /* \"#utility.yul\":6149:6151   */\n      0x60\n        /* \"#utility.yul\":6137:6146   */\n      dup5\n        /* \"#utility.yul\":6128:6135   */\n      dup7\n        /* \"#utility.yul\":6124:6147   */\n      sub\n        /* \"#utility.yul\":6120:6152   */\n      slt\n        /* \"#utility.yul\":6117:6236   */\n      iszero\n      tag_448\n      jumpi\n        /* \"#utility.yul\":6155:6234   */\n      tag_449\n      tag_313\n      jump\t// in\n    tag_449:\n        /* \"#utility.yul\":6117:6236   */\n    tag_448:\n        /* \"#utility.yul\":6275:6276   */\n      0x00\n        /* \"#utility.yul\":6300:6353   */\n      tag_450\n        /* \"#utility.yul\":6345:6352   */\n      dup7\n        /* \"#utility.yul\":6336:6342   */\n      dup3\n        /* \"#utility.yul\":6325:6334   */\n      dup8\n        /* \"#utility.yul\":6321:6343   */\n      add\n        /* \"#utility.yul\":6300:6353   */\n      tag_318\n      jump\t// in\n    tag_450:\n        /* \"#utility.yul\":6290:6353   */\n      swap4\n      pop\n        /* \"#utility.yul\":6246:6363   */\n      pop\n        /* \"#utility.yul\":6430:6432   */\n      0x20\n        /* \"#utility.yul\":6419:6428   */\n      dup5\n        /* \"#utility.yul\":6415:6433   */\n      add\n        /* \"#utility.yul\":6402:6434   */\n      calldataload\n        /* \"#utility.yul\":6461:6479   */\n      0xffffffffffffffff\n        /* \"#utility.yul\":6453:6459   */\n      dup2\n        /* \"#utility.yul\":6450:6480   */\n      gt\n        /* \"#utility.yul\":6447:6564   */\n      iszero\n      tag_451\n      jumpi\n        /* \"#utility.yul\":6483:6562   */\n      tag_452\n      tag_314\n      jump\t// in\n    tag_452:\n        /* \"#utility.yul\":6447:6564   */\n    tag_451:\n        /* \"#utility.yul\":6588:6651   */\n      tag_453\n        /* \"#utility.yul\":6643:6650   */\n      dup7\n        /* \"#utility.yul\":6634:6640   */\n      dup3\n        /* \"#utility.yul\":6623:6632   */\n      dup8\n        /* \"#utility.yul\":6619:6641   */\n      add\n        /* \"#utility.yul\":6588:6651   */\n      tag_329\n      jump\t// in\n    tag_453:\n        /* \"#utility.yul\":6578:6651   */\n      swap3\n      pop\n        /* \"#utility.yul\":6373:6661   */\n      pop\n        /* \"#utility.yul\":6700:6702   */\n      0x40\n        /* \"#utility.yul\":6726:6779   */\n      tag_454\n        /* \"#utility.yul\":6771:6778   */\n      dup7\n        /* \"#utility.yul\":6762:6768   */\n      dup3\n        /* \"#utility.yul\":6751:6760   */\n      dup8\n        /* \"#utility.yul\":6747:6769   */\n      add\n        /* \"#utility.yul\":6726:6779   */\n      tag_331\n      jump\t// in\n    tag_454:\n        /* \"#utility.yul\":6716:6779   */\n      swap2\n      pop\n        /* \"#utility.yul\":6671:6789   */\n      pop\n        /* \"#utility.yul\":5997:6796   */\n      swap3\n      pop\n      swap3\n      pop\n      swap3\n      jump\t// out\n        /* \"#utility.yul\":6802:6892   */\n    tag_332:\n        /* \"#utility.yul\":6836:6843   */\n      0x00\n        /* \"#utility.yul\":6879:6884   */\n      dup2\n        /* \"#utility.yul\":6872:6885   */\n      iszero\n        /* \"#utility.yul\":6865:6886   */\n      iszero\n        /* \"#utility.yul\":6854:6886   */\n      swap1\n      pop\n        /* \"#utility.yul\":6802:6892   */\n      swap2\n      swap1\n      pop\n      jump\t// out\n        /* \"#utility.yul\":6898:7007   */\n    tag_333:\n        /* \"#utility.yul\":6979:7000   */\n      tag_457\n        /* \"#utility.yul\":6994:6999   */\n      dup2\n        /* \"#utility.yul\":6979:7000   */\n      tag_332\n      jump\t// in\n    tag_457:\n        /* \"#utility.yul\":6974:6977   */\n      dup3\n        /* \"#utility.yul\":6967:7001   */\n      mstore\n        /* \"#utility.yul\":6898:7007   */\n      pop\n      pop\n      jump\t// out\n        /* \"#utility.yul\":7013:7223   */\n    tag_66:\n        /* \"#utility.yul\":7100:7104   */\n      0x00\n        /* \"#utility.yul\":7138:7140   */\n      0x20\n        /* \"#utility.yul\":7127:7136   */\n      dup3\n        /* \"#utility.yul\":7123:7141   */\n      add\n        /* \"#utility.yul\":7115:7141   */\n      swap1\n      pop\n        /* \"#utility.yul\":7151:7216   */\n      tag_459\n        /* \"#utility.yul\":7213:7214   */\n      0x00\n        /* \"#utility.yul\":7202:7211   */\n      dup4\n        /* \"#utility.yul\":7198:7215   */\n      add\n        /* \"#utility.yul\":7189:7195   */\n      dup5\n        /* \"#utility.yul\":7151:7216   */\n      tag_333\n      jump\t// in\n    tag_459:\n        /* \"#utility.yul\":7013:7223   */\n      swap3\n      swap2\n      pop\n      pop\n      jump\t// out\n        /* \"#utility.yul\":7229:7315   */\n    tag_334:\n        /* \"#utility.yul\":7264:7271   */\n      0x00\n        /* \"#utility.yul\":7304:7308   */\n      0xff\n        /* \"#utility.yul\":7297:7302   */\n      dup3\n        /* \"#utility.yul\":7293:7309   */\n      and\n        /* \"#utility.yul\":7282:7309   */\n      swap1\n      pop\n        /* \"#utility.yul\":7229:7315   */\n      swap2\n      swap1\n      pop\n      jump\t// out\n        /* \"#utility.yul\":7321:7433   */\n    tag_335:\n        /* \"#utility.yul\":7404:7426   */\n      tag_462\n        /* \"#utility.yul\":7420:7425   */\n      dup2\n        /* \"#utility.yul\":7404:7426   */\n      tag_334\n      jump\t// in\n    tag_462:\n        /* \"#utility.yul\":7399:7402   */\n      dup3\n        /* \"#utility.yul\":7392:7427   */\n      mstore\n        /* \"#utility.yul\":7321:7433   */\n      pop\n      pop\n      jump\t// out\n        /* \"#utility.yul\":7439:7653   */\n    tag_76:\n        /* \"#utility.yul\":7528:7532   */\n      0x00\n        /* \"#utility.yul\":7566:7568   */\n      0x20\n        /* \"#utility.yul\":7555:7564   */\n      dup3\n        /* \"#utility.yul\":7551:7569   */\n      add\n        /* \"#utility.yul\":7543:7569   */\n      swap1\n      pop\n        /* \"#utility.yul\":7579:7646   */\n      tag_464\n        /* \"#utility.yul\":7643:7644   */\n      0x00\n        /* \"#utility.yul\":7632:7641   */\n      dup4\n        /* \"#utility.yul\":7628:7645   */\n      add\n        /* \"#utility.yul\":7619:7625   */\n      dup5\n        /* \"#utility.yul\":7579:7646   */\n      tag_335\n      jump\t// in\n    tag_464:\n        /* \"#utility.yul\":7439:7653   */\n      swap3\n      swap2\n      pop\n      pop\n      jump\t// out\n        /* \"#utility.yul\":7659:8133   */\n    tag_80:\n        /* \"#utility.yul\":7727:7733   */\n      0x00\n        /* \"#utility.yul\":7735:7741   */\n      dup1\n        /* \"#utility.yul\":7784:7786   */\n      0x40\n        /* \"#utility.yul\":7772:7781   */\n      dup4\n        /* \"#utility.yul\":7763:7770   */\n      dup6\n        /* \"#utility.yul\":7759:7782   */\n      sub\n        /* \"#utility.yul\":7755:7787   */\n      slt\n        /* \"#utility.yul\":7752:7871   */\n      iszero\n      tag_466\n      jumpi\n        /* \"#utility.yul\":7790:7869   */\n      tag_467\n      tag_313\n      jump\t// in\n    tag_467:\n        /* \"#utility.yul\":7752:7871   */\n    tag_466:\n        /* \"#utility.yul\":7910:7911   */\n      0x00\n        /* \"#utility.yul\":7935:7988   */\n      tag_468\n        /* \"#utility.yul\":7980:7987   */\n      dup6\n        /* \"#utility.yul\":7971:7977   */\n      dup3\n        /* \"#utility.yul\":7960:7969   */\n      dup7\n        /* \"#utility.yul\":7956:7978   */\n      add\n        /* \"#utility.yul\":7935:7988   */\n      tag_318\n      jump\t// in\n    tag_468:\n        /* \"#utility.yul\":7925:7988   */\n      swap3\n      pop\n        /* \"#utility.yul\":7881:7998   */\n      pop\n        /* \"#utility.yul\":8037:8039   */\n      0x20\n        /* \"#utility.yul\":8063:8116   */\n      tag_469\n        /* \"#utility.yul\":8108:8115   */\n      dup6\n        /* \"#utility.yul\":8099:8105   */\n      dup3\n        /* \"#utility.yul\":8088:8097   */\n      dup7\n        /* \"#utility.yul\":8084:8106   */\n      add\n        /* \"#utility.yul\":8063:8116   */\n      tag_331\n      jump\t// in\n    tag_469:\n        /* \"#utility.yul\":8053:8116   */\n      swap2\n      pop\n        /* \"#utility.yul\":8008:8126   */\n      pop\n        /* \"#utility.yul\":7659:8133   */\n      swap3\n      pop\n      swap3\n      swap1\n      pop\n      jump\t// out\n        /* \"#utility.yul\":8139:8468   */\n    tag_86:\n        /* \"#utility.yul\":8198:8204   */\n      0x00\n        /* \"#utility.yul\":8247:8249   */\n      0x20\n        /* \"#utility.yul\":8235:8244   */\n      dup3\n        /* \"#utility.yul\":8226:8233   */\n      dup5\n        /* \"#utility.yul\":8222:8245   */\n      sub\n        /* \"#utility.yul\":8218:8250   */\n      slt\n        /* \"#utility.yul\":8215:8334   */\n      iszero\n      tag_471\n      jumpi\n        /* \"#utility.yul\":8253:8332   */\n      tag_472\n      tag_313\n      jump\t// in\n    tag_472:\n        /* \"#utility.yul\":8215:8334   */\n    tag_471:\n        /* \"#utility.yul\":8373:8374   */\n      0x00\n        /* \"#utility.yul\":8398:8451   */\n      tag_473\n        /* \"#utility.yul\":8443:8450   */\n      dup5\n        /* \"#utility.yul\":8434:8440   */\n      dup3\n        /* \"#utility.yul\":8423:8432   */\n      dup6\n        /* \"#utility.yul\":8419:8441   */\n      add\n        /* \"#utility.yul\":8398:8451   */\n      tag_331\n      jump\t// in\n    tag_473:\n        /* \"#utility.yul\":8388:8451   */\n      swap2\n      pop\n        /* \"#utility.yul\":8344:8461   */\n      pop\n        /* \"#utility.yul\":8139:8468   */\n      swap3\n      swap2\n      pop\n      pop\n      jump\t// out\n        /* \"#utility.yul\":8474:9128   */\n    tag_97:\n        /* \"#utility.yul\":8552:8558   */\n      0x00\n        /* \"#utility.yul\":8560:8566   */\n      dup1\n        /* \"#utility.yul\":8609:8611   */\n      0x40\n        /* \"#utility.yul\":8597:8606   */\n      dup4\n        /* \"#utility.yul\":8588:8595   */\n      dup6\n        /* \"#utility.yul\":8584:8607   */\n      sub\n        /* \"#utility.yul\":8580:8612   */\n      slt\n        /* \"#utility.yul\":8577:8696   */\n      iszero\n      tag_475\n      jumpi\n        /* \"#utility.yul\":8615:8694   */\n      tag_476\n      tag_313\n      jump\t// in\n    tag_476:\n        /* \"#utility.yul\":8577:8696   */\n    tag_475:\n        /* \"#utility.yul\":8763:8764   */\n      0x00\n        /* \"#utility.yul\":8752:8761   */\n      dup4\n        /* \"#utility.yul\":8748:8765   */\n      add\n        /* \"#utility.yul\":8735:8766   */\n      calldataload\n        /* \"#utility.yul\":8793:8811   */\n      0xffffffffffffffff\n        /* \"#utility.yul\":8785:8791   */\n      dup2\n        /* \"#utility.yul\":8782:8812   */\n      gt\n        /* \"#utility.yul\":8779:8896   */\n      iszero\n      tag_477\n      jumpi\n        /* \"#utility.yul\":8815:8894   */\n      tag_478\n      tag_314\n      jump\t// in\n    tag_478:\n        /* \"#utility.yul\":8779:8896   */\n    tag_477:\n        /* \"#utility.yul\":8920:8983   */\n      tag_479\n        /* \"#utility.yul\":8975:8982   */\n      dup6\n        /* \"#utility.yul\":8966:8972   */\n      dup3\n        /* \"#utility.yul\":8955:8964   */\n      dup7\n        /* \"#utility.yul\":8951:8973   */\n      add\n        /* \"#utility.yul\":8920:8983   */\n      tag_329\n      jump\t// in\n    tag_479:\n        /* \"#utility.yul\":8910:8983   */\n      swap3\n      pop\n        /* \"#utility.yul\":8706:8993   */\n      pop\n        /* \"#utility.yul\":9032:9034   */\n      0x20\n        /* \"#utility.yul\":9058:9111   */\n      tag_480\n        /* \"#utility.yul\":9103:9110   */\n      dup6\n        /* \"#utility.yul\":9094:9100   */\n      dup3\n        /* \"#utility.yul\":9083:9092   */\n      dup7\n        /* \"#utility.yul\":9079:9101   */\n      add\n        /* \"#utility.yul\":9058:9111   */\n      tag_331\n      jump\t// in\n    tag_480:\n        /* \"#utility.yul\":9048:9111   */\n      swap2\n      pop\n        /* \"#utility.yul\":9003:9121   */\n      pop\n        /* \"#utility.yul\":8474:9128   */\n      swap3\n      pop\n      swap3\n      swap1\n      pop\n      jump\t// out\n        /* \"#utility.yul\":9134:9252   */\n    tag_336:\n        /* \"#utility.yul\":9221:9245   */\n      tag_482\n        /* \"#utility.yul\":9239:9244   */\n      dup2\n        /* \"#utility.yul\":9221:9245   */\n      tag_316\n      jump\t// in\n    tag_482:\n        /* \"#utility.yul\":9216:9219   */\n      dup3\n        /* \"#utility.yul\":9209:9246   */\n      mstore\n        /* \"#utility.yul\":9134:9252   */\n      pop\n      pop\n      jump\t// out\n        /* \"#utility.yul\":9258:9480   */\n    tag_114:\n        /* \"#utility.yul\":9351:9355   */\n      0x00\n        /* \"#utility.yul\":9389:9391   */\n      0x20\n        /* \"#utility.yul\":9378:9387   */\n      dup3\n        /* \"#utility.yul\":9374:9392   */\n      add\n        /* \"#utility.yul\":9366:9392   */\n      swap1\n      pop\n        /* \"#utility.yul\":9402:9473   */\n      tag_484\n        /* \"#utility.yul\":9470:9471   */\n      0x00\n        /* \"#utility.yul\":9459:9468   */\n      dup4\n        /* \"#utility.yul\":9455:9472   */\n      add\n        /* \"#utility.yul\":9446:9452   */\n      dup5\n        /* \"#utility.yul\":9402:9473   */\n      tag_336\n      jump\t// in\n    tag_484:\n        /* \"#utility.yul\":9258:9480   */\n      swap3\n      swap2\n      pop\n      pop\n      jump\t// out\n        /* \"#utility.yul\":9486:9590   */\n    tag_337:\n        /* \"#utility.yul\":9531:9538   */\n      0x00\n        /* \"#utility.yul\":9560:9584   */\n      tag_486\n        /* \"#utility.yul\":9578:9583   */\n      dup3\n        /* \"#utility.yul\":9560:9584   */\n      tag_315\n      jump\t// in\n    tag_486:\n        /* \"#utility.yul\":9549:9584   */\n      swap1\n      pop\n        /* \"#utility.yul\":9486:9590   */\n      swap2\n      swap1\n      pop\n      jump\t// out\n        /* \"#utility.yul\":9596:9738   */\n    tag_338:\n        /* \"#utility.yul\":9699:9731   */\n      tag_488\n        /* \"#utility.yul\":9725:9730   */\n      dup2\n        /* \"#utility.yul\":9699:9731   */\n      tag_337\n      jump\t// in\n    tag_488:\n        /* \"#utility.yul\":9694:9697   */\n      dup3\n        /* \"#utility.yul\":9687:9732   */\n      mstore\n        /* \"#utility.yul\":9596:9738   */\n      pop\n      pop\n      jump\t// out\n        /* \"#utility.yul\":9744:9998   */\n    tag_124:\n        /* \"#utility.yul\":9853:9857   */\n      0x00\n        /* \"#utility.yul\":9891:9893   */\n      0x20\n        /* \"#utility.yul\":9880:9889   */\n      dup3\n        /* \"#utility.yul\":9876:9894   */\n      add\n        /* \"#utility.yul\":9868:9894   */\n      swap1\n      pop\n        /* \"#utility.yul\":9904:9991   */\n      tag_490\n        /* \"#utility.yul\":9988:9989   */\n      0x00\n        /* \"#utility.yul\":9977:9986   */\n      dup4\n        /* \"#utility.yul\":9973:9990   */\n      add\n        /* \"#utility.yul\":9964:9970   */\n      dup5\n        /* \"#utility.yul\":9904:9991   */\n      tag_338\n      jump\t// in\n    tag_490:\n        /* \"#utility.yul\":9744:9998   */\n      swap3\n      swap2\n      pop\n      pop\n      jump\t// out\n        /* \"#utility.yul\":10004:10478   */\n    tag_173:\n        /* \"#utility.yul\":10072:10078   */\n      0x00\n        /* \"#utility.yul\":10080:10086   */\n      dup1\n        /* \"#utility.yul\":10129:10131   */\n      0x40\n        /* \"#utility.yul\":10117:10126   */\n      dup4\n        /* \"#utility.yul\":10108:10115   */\n      dup6\n        /* \"#utility.yul\":10104:10127   */\n      sub\n        /* \"#utility.yul\":10100:10132   */\n      slt\n        /* \"#utility.yul\":10097:10216   */\n      iszero\n      tag_492\n      jumpi\n        /* \"#utility.yul\":10135:10214   */\n      tag_493\n      tag_313\n      jump\t// in\n    tag_493:\n        /* \"#utility.yul\":10097:10216   */\n    tag_492:\n        /* \"#utility.yul\":10255:10256   */\n      0x00\n        /* \"#utility.yul\":10280:10333   */\n      tag_494\n        /* \"#utility.yul\":10325:10332   */\n      dup6\n        /* \"#utility.yul\":10316:10322   */\n      dup3\n        /* \"#utility.yul\":10305:10314   */\n      dup7\n        /* \"#utility.yul\":10301:10323   */\n      add\n        /* \"#utility.yul\":10280:10333   */\n      tag_331\n      jump\t// in\n    tag_494:\n        /* \"#utility.yul\":10270:10333   */\n      swap3\n      pop\n        /* \"#utility.yul\":10226:10343   */\n      pop\n        /* \"#utility.yul\":10382:10384   */\n      0x20\n        /* \"#utility.yul\":10408:10461   */\n      tag_495\n        /* \"#utility.yul\":10453:10460   */\n      dup6\n        /* \"#utility.yul\":10444:10450   */\n      dup3\n        /* \"#utility.yul\":10433:10442   */\n      dup7\n        /* \"#utility.yul\":10429:10451   */\n      add\n        /* \"#utility.yul\":10408:10461   */\n      tag_331\n      jump\t// in\n    tag_495:\n        /* \"#utility.yul\":10398:10461   */\n      swap2\n      pop\n        /* \"#utility.yul\":10353:10471   */\n      pop\n        /* \"#utility.yul\":10004:10478   */\n      swap3\n      pop\n      swap3\n      swap1\n      pop\n      jump\t// out\n        /* \"#utility.yul\":10484:10664   */\n    tag_339:\n        /* \"#utility.yul\":10532:10609   */\n      0x4e487b7100000000000000000000000000000000000000000000000000000000\n        /* \"#utility.yul\":10529:10530   */\n      0x00\n        /* \"#utility.yul\":10522:10610   */\n      mstore\n        /* \"#utility.yul\":10629:10633   */\n      0x22\n        /* \"#utility.yul\":10626:10627   */\n      0x04\n        /* \"#utility.yul\":10619:10634   */\n      mstore\n        /* \"#utility.yul\":10653:10657   */\n      0x24\n        /* \"#utility.yul\":10650:10651   */\n      0x00\n        /* \"#utility.yul\":10643:10658   */\n      revert\n        /* \"#utility.yul\":10670:10990   */\n    tag_186:\n        /* \"#utility.yul\":10714:10720   */\n      0x00\n        /* \"#utility.yul\":10751:10752   */\n      0x02\n        /* \"#utility.yul\":10745:10749   */\n      dup3\n        /* \"#utility.yul\":10741:10753   */\n      div\n        /* \"#utility.yul\":10731:10753   */\n      swap1\n      pop\n        /* \"#utility.yul\":10798:10799   */\n      0x01\n        /* \"#utility.yul\":10792:10796   */\n      dup3\n        /* \"#utility.yul\":10788:10800   */\n      and\n        /* \"#utility.yul\":10819:10837   */\n      dup1\n        /* \"#utility.yul\":10809:10890   */\n      tag_498\n      jumpi\n        /* \"#utility.yul\":10875:10879   */\n      0x7f\n        /* \"#utility.yul\":10867:10873   */\n      dup3\n        /* \"#utility.yul\":10863:10880   */\n      and\n        /* \"#utility.yul\":10853:10880   */\n      swap2\n      pop\n        /* \"#utility.yul\":10809:10890   */\n    tag_498:\n        /* \"#utility.yul\":10937:10939   */\n      0x20\n        /* \"#utility.yul\":10929:10935   */\n      dup3\n        /* \"#utility.yul\":10926:10940   */\n      lt\n        /* \"#utility.yul\":10906:10924   */\n      dup2\n        /* \"#utility.yul\":10903:10941   */\n      sub\n        /* \"#utility.yul\":10900:10984   */\n      tag_499\n      jumpi\n        /* \"#utility.yul\":10956:10974   */\n      tag_500\n      tag_339\n      jump\t// in\n    tag_500:\n        /* \"#utility.yul\":10900:10984   */\n    tag_499:\n        /* \"#utility.yul\":10721:10990   */\n      pop\n        /* \"#utility.yul\":10670:10990   */\n      swap2\n      swap1\n      pop\n      jump\t// out\n        /* \"#utility.yul\":10996:11144   */\n    tag_340:\n        /* \"#utility.yul\":11098:11109   */\n      0x00\n        /* \"#utility.yul\":11135:11138   */\n      dup2\n        /* \"#utility.yul\":11120:11138   */\n      swap1\n      pop\n        /* \"#utility.yul\":10996:11144   */\n      swap3\n      swap2\n      pop\n      pop\n      jump\t// out\n        /* \"#utility.yul\":11150:11540   */\n    tag_341:\n        /* \"#utility.yul\":11256:11259   */\n      0x00\n        /* \"#utility.yul\":11284:11323   */\n      tag_503\n        /* \"#utility.yul\":11317:11322   */\n      dup3\n        /* \"#utility.yul\":11284:11323   */\n      tag_307\n      jump\t// in\n    tag_503:\n        /* \"#utility.yul\":11339:11428   */\n      tag_504\n        /* \"#utility.yul\":11421:11427   */\n      dup2\n        /* \"#utility.yul\":11416:11419   */\n      dup6\n        /* \"#utility.yul\":11339:11428   */\n      tag_340\n      jump\t// in\n    tag_504:\n        /* \"#utility.yul\":11332:11428   */\n      swap4\n      pop\n        /* \"#utility.yul\":11437:11502   */\n      tag_505\n        /* \"#utility.yul\":11495:11501   */\n      dup2\n        /* \"#utility.yul\":11490:11493   */\n      dup6\n        /* \"#utility.yul\":11483:11487   */\n      0x20\n        /* \"#utility.yul\":11476:11481   */\n      dup7\n        /* \"#utility.yul\":11472:11488   */\n      add\n        /* \"#utility.yul\":11437:11502   */\n      tag_309\n      jump\t// in\n    tag_505:\n        /* \"#utility.yul\":11527:11533   */\n      dup1\n        /* \"#utility.yul\":11522:11525   */\n      dup5\n        /* \"#utility.yul\":11518:11534   */\n      add\n        /* \"#utility.yul\":11511:11534   */\n      swap2\n      pop\n        /* \"#utility.yul\":11260:11540   */\n      pop\n        /* \"#utility.yul\":11150:11540   */\n      swap3\n      swap2\n      pop\n      pop\n      jump\t// out\n        /* \"#utility.yul\":11546:11821   */\n    tag_193:\n        /* \"#utility.yul\":11678:11681   */\n      0x00\n        /* \"#utility.yul\":11700:11795   */\n      tag_507\n        /* \"#utility.yul\":11791:11794   */\n      dup3\n        /* \"#utility.yul\":11782:11788   */\n      dup5\n        /* \"#utility.yul\":11700:11795   */\n      tag_341\n      jump\t// in\n    tag_507:\n        /* \"#utility.yul\":11693:11795   */\n      swap2\n      pop\n        /* \"#utility.yul\":11812:11815   */\n      dup2\n        /* \"#utility.yul\":11805:11815   */\n      swap1\n      pop\n        /* \"#utility.yul\":11546:11821   */\n      swap3\n      swap2\n      pop\n      pop\n      jump\t// out\n        /* \"#utility.yul\":11827:12008   */\n    tag_342:\n        /* \"#utility.yul\":11967:12000   */\n      0x596f7520617265206e6f7420616c6c6f77656420746f20646f20746869732e00\n        /* \"#utility.yul\":11963:11964   */\n      0x00\n        /* \"#utility.yul\":11955:11961   */\n      dup3\n        /* \"#utility.yul\":11951:11965   */\n      add\n        /* \"#utility.yul\":11944:12001   */\n      mstore\n        /* \"#utility.yul\":11827:12008   */\n      pop\n      jump\t// out\n        /* \"#utility.yul\":12014:12380   */\n    tag_343:\n        /* \"#utility.yul\":12156:12159   */\n      0x00\n        /* \"#utility.yul\":12177:12244   */\n      tag_510\n        /* \"#utility.yul\":12241:12243   */\n      0x1f\n        /* \"#utility.yul\":12236:12239   */\n      dup4\n        /* \"#utility.yul\":12177:12244   */\n      tag_308\n      jump\t// in\n    tag_510:\n        /* \"#utility.yul\":12170:12244   */\n      swap2\n      pop\n        /* \"#utility.yul\":12253:12346   */\n      tag_511\n        /* \"#utility.yul\":12342:12345   */\n      dup3\n        /* \"#utility.yul\":12253:12346   */\n      tag_342\n      jump\t// in\n    tag_511:\n        /* \"#utility.yul\":12371:12373   */\n      0x20\n        /* \"#utility.yul\":12366:12369   */\n      dup3\n        /* \"#utility.yul\":12362:12374   */\n      add\n        /* \"#utility.yul\":12355:12374   */\n      swap1\n      pop\n        /* \"#utility.yul\":12014:12380   */\n      swap2\n      swap1\n      pop\n      jump\t// out\n        /* \"#utility.yul\":12386:12805   */\n    tag_197:\n        /* \"#utility.yul\":12552:12556   */\n      0x00\n        /* \"#utility.yul\":12590:12592   */\n      0x20\n        /* \"#utility.yul\":12579:12588   */\n      dup3\n        /* \"#utility.yul\":12575:12593   */\n      add\n        /* \"#utility.yul\":12567:12593   */\n      swap1\n      pop\n        /* \"#utility.yul\":12639:12648   */\n      dup2\n        /* \"#utility.yul\":12633:12637   */\n      dup2\n        /* \"#utility.yul\":12629:12649   */\n      sub\n        /* \"#utility.yul\":12625:12626   */\n      0x00\n        /* \"#utility.yul\":12614:12623   */\n      dup4\n        /* \"#utility.yul\":12610:12627   */\n      add\n        /* \"#utility.yul\":12603:12650   */\n      mstore\n        /* \"#utility.yul\":12667:12798   */\n      tag_513\n        /* \"#utility.yul\":12793:12797   */\n      dup2\n        /* \"#utility.yul\":12667:12798   */\n      tag_343\n      jump\t// in\n    tag_513:\n        /* \"#utility.yul\":12659:12798   */\n      swap1\n      pop\n        /* \"#utility.yul\":12386:12805   */\n      swap2\n      swap1\n      pop\n      jump\t// out\n        /* \"#utility.yul\":12811:12974   */\n    tag_344:\n        /* \"#utility.yul\":12951:12966   */\n      0x5a65726f20616464726573732e00000000000000000000000000000000000000\n        /* \"#utility.yul\":12947:12948   */\n      0x00\n        /* \"#utility.yul\":12939:12945   */\n      dup3\n        /* \"#utility.yul\":12935:12949   */\n      add\n        /* \"#utility.yul\":12928:12967   */\n      mstore\n        /* \"#utility.yul\":12811:12974   */\n      pop\n      jump\t// out\n        /* \"#utility.yul\":12980:13346   */\n    tag_345:\n        /* \"#utility.yul\":13122:13125   */\n      0x00\n        /* \"#utility.yul\":13143:13210   */\n      tag_516\n        /* \"#utility.yul\":13207:13209   */\n      0x0d\n        /* \"#utility.yul\":13202:13205   */\n      dup4\n        /* \"#utility.yul\":13143:13210   */\n      tag_308\n      jump\t// in\n    tag_516:\n        /* \"#utility.yul\":13136:13210   */\n      swap2\n      pop\n        /* \"#utility.yul\":13219:13312   */\n      tag_517\n        /* \"#utility.yul\":13308:13311   */\n      dup3\n        /* \"#utility.yul\":13219:13312   */\n      tag_344\n      jump\t// in\n    tag_517:\n        /* \"#utility.yul\":13337:13339   */\n      0x20\n        /* \"#utility.yul\":13332:13335   */\n      dup3\n        /* \"#utility.yul\":13328:13340   */\n      add\n        /* \"#utility.yul\":13321:13340   */\n      swap1\n      pop\n        /* \"#utility.yul\":12980:13346   */\n      swap2\n      swap1\n      pop\n      jump\t// out\n        /* \"#utility.yul\":13352:13771   */\n    tag_200:\n        /* \"#utility.yul\":13518:13522   */\n      0x00\n        /* \"#utility.yul\":13556:13558   */\n      0x20\n        /* \"#utility.yul\":13545:13554   */\n      dup3\n        /* \"#utility.yul\":13541:13559   */\n      add\n        /* \"#utility.yul\":13533:13559   */\n      swap1\n      pop\n        /* \"#utility.yul\":13605:13614   */\n      dup2\n        /* \"#utility.yul\":13599:13603   */\n      dup2\n        /* \"#utility.yul\":13595:13615   */\n      sub\n        /* \"#utility.yul\":13591:13592   */\n      0x00\n        /* \"#utility.yul\":13580:13589   */\n      dup4\n        /* \"#utility.yul\":13576:13593   */\n      add\n        /* \"#utility.yul\":13569:13616   */\n      mstore\n        /* \"#utility.yul\":13633:13764   */\n      tag_519\n        /* \"#utility.yul\":13759:13763   */\n      dup2\n        /* \"#utility.yul\":13633:13764   */\n      tag_345\n      jump\t// in\n    tag_519:\n        /* \"#utility.yul\":13625:13764   */\n      swap1\n      pop\n        /* \"#utility.yul\":13352:13771   */\n      swap2\n      swap1\n      pop\n      jump\t// out\n        /* \"#utility.yul\":13777:13942   */\n    tag_346:\n        /* \"#utility.yul\":13917:13934   */\n      0x496e76616c696420616d6f756e74210000000000000000000000000000000000\n        /* \"#utility.yul\":13913:13914   */\n      0x00\n        /* \"#utility.yul\":13905:13911   */\n      dup3\n        /* \"#utility.yul\":13901:13915   */\n      add\n        /* \"#utility.yul\":13894:13935   */\n      mstore\n        /* \"#utility.yul\":13777:13942   */\n      pop\n      jump\t// out\n        /* \"#utility.yul\":13948:14314   */\n    tag_347:\n        /* \"#utility.yul\":14090:14093   */\n      0x00\n        /* \"#utility.yul\":14111:14178   */\n      tag_522\n        /* \"#utility.yul\":14175:14177   */\n      0x0f\n        /* \"#utility.yul\":14170:14173   */\n      dup4\n        /* \"#utility.yul\":14111:14178   */\n      tag_308\n      jump\t// in\n    tag_522:\n        /* \"#utility.yul\":14104:14178   */\n      swap2\n      pop\n        /* \"#utility.yul\":14187:14280   */\n      tag_523\n        /* \"#utility.yul\":14276:14279   */\n      dup3\n        /* \"#utility.yul\":14187:14280   */\n      tag_346\n      jump\t// in\n    tag_523:\n        /* \"#utility.yul\":14305:14307   */\n      0x20\n        /* \"#utility.yul\":14300:14303   */\n      dup3\n        /* \"#utility.yul\":14296:14308   */\n      add\n        /* \"#utility.yul\":14289:14308   */\n      swap1\n      pop\n        /* \"#utility.yul\":13948:14314   */\n      swap2\n      swap1\n      pop\n      jump\t// out\n        /* \"#utility.yul\":14320:14739   */\n    tag_203:\n        /* \"#utility.yul\":14486:14490   */\n      0x00\n        /* \"#utility.yul\":14524:14526   */\n      0x20\n        /* \"#utility.yul\":14513:14522   */\n      dup3\n        /* \"#utility.yul\":14509:14527   */\n      add\n        /* \"#utility.yul\":14501:14527   */\n      swap1\n      pop\n        /* \"#utility.yul\":14573:14582   */\n      dup2\n        /* \"#utility.yul\":14567:14571   */\n      dup2\n        /* \"#utility.yul\":14563:14583   */\n      sub\n        /* \"#utility.yul\":14559:14560   */\n      0x00\n        /* \"#utility.yul\":14548:14557   */\n      dup4\n        /* \"#utility.yul\":14544:14561   */\n      add\n        /* \"#utility.yul\":14537:14584   */\n      mstore\n        /* \"#utility.yul\":14601:14732   */\n      tag_525\n        /* \"#utility.yul\":14727:14731   */\n      dup2\n        /* \"#utility.yul\":14601:14732   */\n      tag_347\n      jump\t// in\n    tag_525:\n        /* \"#utility.yul\":14593:14732   */\n      swap1\n      pop\n        /* \"#utility.yul\":14320:14739   */\n      swap2\n      swap1\n      pop\n      jump\t// out\n        /* \"#utility.yul\":14745:15168   */\n    tag_206:\n        /* \"#utility.yul\":14886:14890   */\n      0x00\n        /* \"#utility.yul\":14924:14926   */\n      0x40\n        /* \"#utility.yul\":14913:14922   */\n      dup3\n        /* \"#utility.yul\":14909:14927   */\n      add\n        /* \"#utility.yul\":14901:14927   */\n      swap1\n      pop\n        /* \"#utility.yul\":14973:14982   */\n      dup2\n        /* \"#utility.yul\":14967:14971   */\n      dup2\n        /* \"#utility.yul\":14963:14983   */\n      sub\n        /* \"#utility.yul\":14959:14960   */\n      0x00\n        /* \"#utility.yul\":14948:14957   */\n      dup4\n        /* \"#utility.yul\":14944:14961   */\n      add\n        /* \"#utility.yul\":14937:14984   */\n      mstore\n        /* \"#utility.yul\":15001:15079   */\n      tag_527\n        /* \"#utility.yul\":15074:15078   */\n      dup2\n        /* \"#utility.yul\":15065:15071   */\n      dup6\n        /* \"#utility.yul\":15001:15079   */\n      tag_311\n      jump\t// in\n    tag_527:\n        /* \"#utility.yul\":14993:15079   */\n      swap1\n      pop\n        /* \"#utility.yul\":15089:15161   */\n      tag_528\n        /* \"#utility.yul\":15157:15159   */\n      0x20\n        /* \"#utility.yul\":15146:15155   */\n      dup4\n        /* \"#utility.yul\":15142:15160   */\n      add\n        /* \"#utility.yul\":15133:15139   */\n      dup5\n        /* \"#utility.yul\":15089:15161   */\n      tag_320\n      jump\t// in\n    tag_528:\n        /* \"#utility.yul\":14745:15168   */\n      swap4\n      swap3\n      pop\n      pop\n      pop\n      jump\t// out\n        /* \"#utility.yul\":15174:15329   */\n    tag_348:\n        /* \"#utility.yul\":15314:15321   */\n      0x61646d696e000000000000000000000000000000000000000000000000000000\n        /* \"#utility.yul\":15310:15311   */\n      0x00\n        /* \"#utility.yul\":15302:15308   */\n      dup3\n        /* \"#utility.yul\":15298:15312   */\n      add\n        /* \"#utility.yul\":15291:15322   */\n      mstore\n        /* \"#utility.yul\":15174:15329   */\n      pop\n      jump\t// out\n        /* \"#utility.yul\":15335:15735   */\n    tag_349:\n        /* \"#utility.yul\":15495:15498   */\n      0x00\n        /* \"#utility.yul\":15516:15600   */\n      tag_531\n        /* \"#utility.yul\":15598:15599   */\n      0x05\n        /* \"#utility.yul\":15593:15596   */\n      dup4\n        /* \"#utility.yul\":15516:15600   */\n      tag_340\n      jump\t// in\n    tag_531:\n        /* \"#utility.yul\":15509:15600   */\n      swap2\n      pop\n        /* \"#utility.yul\":15609:15702   */\n      tag_532\n        /* \"#utility.yul\":15698:15701   */\n      dup3\n        /* \"#utility.yul\":15609:15702   */\n      tag_348\n      jump\t// in\n    tag_532:\n        /* \"#utility.yul\":15727:15728   */\n      0x05\n        /* \"#utility.yul\":15722:15725   */\n      dup3\n        /* \"#utility.yul\":15718:15729   */\n      add\n        /* \"#utility.yul\":15711:15729   */\n      swap1\n      pop\n        /* \"#utility.yul\":15335:15735   */\n      swap2\n      swap1\n      pop\n      jump\t// out\n        /* \"#utility.yul\":15741:16122   */\n    tag_209:\n        /* \"#utility.yul\":15926:15929   */\n      0x00\n        /* \"#utility.yul\":15948:16096   */\n      tag_534\n        /* \"#utility.yul\":16092:16095   */\n      dup3\n        /* \"#utility.yul\":15948:16096   */\n      tag_349\n      jump\t// in\n    tag_534:\n        /* \"#utility.yul\":15941:16096   */\n      swap2\n      pop\n        /* \"#utility.yul\":16113:16116   */\n      dup2\n        /* \"#utility.yul\":16106:16116   */\n      swap1\n      pop\n        /* \"#utility.yul\":15741:16122   */\n      swap2\n      swap1\n      pop\n      jump\t// out\n        /* \"#utility.yul\":16128:16303   */\n    tag_350:\n        /* \"#utility.yul\":16268:16295   */\n      0x4d696e7420746f20746865207a65726f20616464726573732e00000000000000\n        /* \"#utility.yul\":16264:16265   */\n      0x00\n        /* \"#utility.yul\":16256:16262   */\n      dup3\n        /* \"#utility.yul\":16252:16266   */\n      add\n        /* \"#utility.yul\":16245:16296   */\n      mstore\n        /* \"#utility.yul\":16128:16303   */\n      pop\n      jump\t// out\n        /* \"#utility.yul\":16309:16675   */\n    tag_351:\n        /* \"#utility.yul\":16451:16454   */\n      0x00\n        /* \"#utility.yul\":16472:16539   */\n      tag_537\n        /* \"#utility.yul\":16536:16538   */\n      0x19\n        /* \"#utility.yul\":16531:16534   */\n      dup4\n        /* \"#utility.yul\":16472:16539   */\n      tag_308\n      jump\t// in\n    tag_537:\n        /* \"#utility.yul\":16465:16539   */\n      swap2\n      pop\n        /* \"#utility.yul\":16548:16641   */\n      tag_538\n        /* \"#utility.yul\":16637:16640   */\n      dup3\n        /* \"#utility.yul\":16548:16641   */\n      tag_350\n      jump\t// in\n    tag_538:\n        /* \"#utility.yul\":16666:16668   */\n      0x20\n        /* \"#utility.yul\":16661:16664   */\n      dup3\n        /* \"#utility.yul\":16657:16669   */\n      add\n        /* \"#utility.yul\":16650:16669   */\n      swap1\n      pop\n        /* \"#utility.yul\":16309:16675   */\n      swap2\n      swap1\n      pop\n      jump\t// out\n        /* \"#utility.yul\":16681:17100   */\n    tag_214:\n        /* \"#utility.yul\":16847:16851   */\n      0x00\n        /* \"#utility.yul\":16885:16887   */\n      0x20\n        /* \"#utility.yul\":16874:16883   */\n      dup3\n        /* \"#utility.yul\":16870:16888   */\n      add\n        /* \"#utility.yul\":16862:16888   */\n      swap1\n      pop\n        /* \"#utility.yul\":16934:16943   */\n      dup2\n        /* \"#utility.yul\":16928:16932   */\n      dup2\n        /* \"#utility.yul\":16924:16944   */\n      sub\n        /* \"#utility.yul\":16920:16921   */\n      0x00\n        /* \"#utility.yul\":16909:16918   */\n      dup4\n        /* \"#utility.yul\":16905:16922   */\n      add\n        /* \"#utility.yul\":16898:16945   */\n      mstore\n        /* \"#utility.yul\":16962:17093   */\n      tag_540\n        /* \"#utility.yul\":17088:17092   */\n      dup2\n        /* \"#utility.yul\":16962:17093   */\n      tag_351\n      jump\t// in\n    tag_540:\n        /* \"#utility.yul\":16954:17093   */\n      swap1\n      pop\n        /* \"#utility.yul\":16681:17100   */\n      swap2\n      swap1\n      pop\n      jump\t// out\n        /* \"#utility.yul\":17106:17286   */\n    tag_352:\n        /* \"#utility.yul\":17154:17231   */\n      0x4e487b7100000000000000000000000000000000000000000000000000000000\n        /* \"#utility.yul\":17151:17152   */\n      0x00\n        /* \"#utility.yul\":17144:17232   */\n      mstore\n        /* \"#utility.yul\":17251:17255   */\n      0x11\n        /* \"#utility.yul\":17248:17249   */\n      0x04\n        /* \"#utility.yul\":17241:17256   */\n      mstore\n        /* \"#utility.yul\":17275:17279   */\n      0x24\n        /* \"#utility.yul\":17272:17273   */\n      0x00\n        /* \"#utility.yul\":17265:17280   */\n      revert\n        /* \"#utility.yul\":17292:17483   */\n    tag_218:\n        /* \"#utility.yul\":17332:17335   */\n      0x00\n        /* \"#utility.yul\":17351:17371   */\n      tag_543\n        /* \"#utility.yul\":17369:17370   */\n      dup3\n        /* \"#utility.yul\":17351:17371   */\n      tag_319\n      jump\t// in\n    tag_543:\n        /* \"#utility.yul\":17346:17371   */\n      swap2\n      pop\n        /* \"#utility.yul\":17385:17405   */\n      tag_544\n        /* \"#utility.yul\":17403:17404   */\n      dup4\n        /* \"#utility.yul\":17385:17405   */\n      tag_319\n      jump\t// in\n    tag_544:\n        /* \"#utility.yul\":17380:17405   */\n      swap3\n      pop\n        /* \"#utility.yul\":17428:17429   */\n      dup3\n        /* \"#utility.yul\":17425:17426   */\n      dup3\n        /* \"#utility.yul\":17421:17430   */\n      add\n        /* \"#utility.yul\":17414:17430   */\n      swap1\n      pop\n        /* \"#utility.yul\":17449:17452   */\n      dup1\n        /* \"#utility.yul\":17446:17447   */\n      dup3\n        /* \"#utility.yul\":17443:17453   */\n      gt\n        /* \"#utility.yul\":17440:17476   */\n      iszero\n      tag_545\n      jumpi\n        /* \"#utility.yul\":17456:17474   */\n      tag_546\n      tag_352\n      jump\t// in\n    tag_546:\n        /* \"#utility.yul\":17440:17476   */\n    tag_545:\n        /* \"#utility.yul\":17292:17483   */\n      swap3\n      swap2\n      pop\n      pop\n      jump\t// out\n        /* \"#utility.yul\":17489:17683   */\n    tag_230:\n        /* \"#utility.yul\":17529:17533   */\n      0x00\n        /* \"#utility.yul\":17549:17569   */\n      tag_548\n        /* \"#utility.yul\":17567:17568   */\n      dup3\n        /* \"#utility.yul\":17549:17569   */\n      tag_319\n      jump\t// in\n    tag_548:\n        /* \"#utility.yul\":17544:17569   */\n      swap2\n      pop\n        /* \"#utility.yul\":17583:17603   */\n      tag_549\n        /* \"#utility.yul\":17601:17602   */\n      dup4\n        /* \"#utility.yul\":17583:17603   */\n      tag_319\n      jump\t// in\n    tag_549:\n        /* \"#utility.yul\":17578:17603   */\n      swap3\n      pop\n        /* \"#utility.yul\":17627:17628   */\n      dup3\n        /* \"#utility.yul\":17624:17625   */\n      dup3\n        /* \"#utility.yul\":17620:17629   */\n      sub\n        /* \"#utility.yul\":17612:17629   */\n      swap1\n      pop\n        /* \"#utility.yul\":17651:17652   */\n      dup2\n        /* \"#utility.yul\":17645:17649   */\n      dup2\n        /* \"#utility.yul\":17642:17653   */\n      gt\n        /* \"#utility.yul\":17639:17676   */\n      iszero\n      tag_550\n      jumpi\n        /* \"#utility.yul\":17656:17674   */\n      tag_551\n      tag_352\n      jump\t// in\n    tag_551:\n        /* \"#utility.yul\":17639:17676   */\n    tag_550:\n        /* \"#utility.yul\":17489:17683   */\n      swap3\n      swap2\n      pop\n      pop\n      jump\t// out\n        /* \"#utility.yul\":17689:17910   */\n    tag_353:\n        /* \"#utility.yul\":17829:17863   */\n      0x596f75206e65656420746f20616374697661746520796f7572206163636f756e\n        /* \"#utility.yul\":17825:17826   */\n      0x00\n        /* \"#utility.yul\":17817:17823   */\n      dup3\n        /* \"#utility.yul\":17813:17827   */\n      add\n        /* \"#utility.yul\":17806:17864   */\n      mstore\n        /* \"#utility.yul\":17898:17902   */\n      0x742e000000000000000000000000000000000000000000000000000000000000\n        /* \"#utility.yul\":17893:17895   */\n      0x20\n        /* \"#utility.yul\":17885:17891   */\n      dup3\n        /* \"#utility.yul\":17881:17896   */\n      add\n        /* \"#utility.yul\":17874:17903   */\n      mstore\n        /* \"#utility.yul\":17689:17910   */\n      pop\n      jump\t// out\n        /* \"#utility.yul\":17916:18282   */\n    tag_354:\n        /* \"#utility.yul\":18058:18061   */\n      0x00\n        /* \"#utility.yul\":18079:18146   */\n      tag_554\n        /* \"#utility.yul\":18143:18145   */\n      0x22\n        /* \"#utility.yul\":18138:18141   */\n      dup4\n        /* \"#utility.yul\":18079:18146   */\n      tag_308\n      jump\t// in\n    tag_554:\n        /* \"#utility.yul\":18072:18146   */\n      swap2\n      pop\n        /* \"#utility.yul\":18155:18248   */\n      tag_555\n        /* \"#utility.yul\":18244:18247   */\n      dup3\n        /* \"#utility.yul\":18155:18248   */\n      tag_353\n      jump\t// in\n    tag_555:\n        /* \"#utility.yul\":18273:18275   */\n      0x40\n        /* \"#utility.yul\":18268:18271   */\n      dup3\n        /* \"#utility.yul\":18264:18276   */\n      add\n        /* \"#utility.yul\":18257:18276   */\n      swap1\n      pop\n        /* \"#utility.yul\":17916:18282   */\n      swap2\n      swap1\n      pop\n      jump\t// out\n        /* \"#utility.yul\":18288:18707   */\n    tag_236:\n        /* \"#utility.yul\":18454:18458   */\n      0x00\n        /* \"#utility.yul\":18492:18494   */\n      0x20\n        /* \"#utility.yul\":18481:18490   */\n      dup3\n        /* \"#utility.yul\":18477:18495   */\n      add\n        /* \"#utility.yul\":18469:18495   */\n      swap1\n      pop\n        /* \"#utility.yul\":18541:18550   */\n      dup2\n        /* \"#utility.yul\":18535:18539   */\n      dup2\n        /* \"#utility.yul\":18531:18551   */\n      sub\n        /* \"#utility.yul\":18527:18528   */\n      0x00\n        /* \"#utility.yul\":18516:18525   */\n      dup4\n        /* \"#utility.yul\":18512:18529   */\n      add\n        /* \"#utility.yul\":18505:18552   */\n      mstore\n        /* \"#utility.yul\":18569:18700   */\n      tag_557\n        /* \"#utility.yul\":18695:18699   */\n      dup2\n        /* \"#utility.yul\":18569:18700   */\n      tag_354\n      jump\t// in\n    tag_557:\n        /* \"#utility.yul\":18561:18700   */\n      swap1\n      pop\n        /* \"#utility.yul\":18288:18707   */\n      swap2\n      swap1\n      pop\n      jump\t// out\n        /* \"#utility.yul\":18713:18886   */\n    tag_355:\n        /* \"#utility.yul\":18853:18878   */\n      0x496e76616c696420566f6c756d652e2030202d20313030000000000000000000\n        /* \"#utility.yul\":18849:18850   */\n      0x00\n        /* \"#utility.yul\":18841:18847   */\n      dup3\n        /* \"#utility.yul\":18837:18851   */\n      add\n        /* \"#utility.yul\":18830:18879   */\n      mstore\n        /* \"#utility.yul\":18713:18886   */\n      pop\n      jump\t// out\n        /* \"#utility.yul\":18892:19258   */\n    tag_356:\n        /* \"#utility.yul\":19034:19037   */\n      0x00\n        /* \"#utility.yul\":19055:19122   */\n      tag_560\n        /* \"#utility.yul\":19119:19121   */\n      0x17\n        /* \"#utility.yul\":19114:19117   */\n      dup4\n        /* \"#utility.yul\":19055:19122   */\n      tag_308\n      jump\t// in\n    tag_560:\n        /* \"#utility.yul\":19048:19122   */\n      swap2\n      pop\n        /* \"#utility.yul\":19131:19224   */\n      tag_561\n        /* \"#utility.yul\":19220:19223   */\n      dup3\n        /* \"#utility.yul\":19131:19224   */\n      tag_355\n      jump\t// in\n    tag_561:\n        /* \"#utility.yul\":19249:19251   */\n      0x20\n        /* \"#utility.yul\":19244:19247   */\n      dup3\n        /* \"#utility.yul\":19240:19252   */\n      add\n        /* \"#utility.yul\":19233:19252   */\n      swap1\n      pop\n        /* \"#utility.yul\":18892:19258   */\n      swap2\n      swap1\n      pop\n      jump\t// out\n        /* \"#utility.yul\":19264:19683   */\n    tag_239:\n        /* \"#utility.yul\":19430:19434   */\n      0x00\n        /* \"#utility.yul\":19468:19470   */\n      0x20\n        /* \"#utility.yul\":19457:19466   */\n      dup3\n        /* \"#utility.yul\":19453:19471   */\n      add\n        /* \"#utility.yul\":19445:19471   */\n      swap1\n      pop\n        /* \"#utility.yul\":19517:19526   */\n      dup2\n        /* \"#utility.yul\":19511:19515   */\n      dup2\n        /* \"#utility.yul\":19507:19527   */\n      sub\n        /* \"#utility.yul\":19503:19504   */\n      0x00\n        /* \"#utility.yul\":19492:19501   */\n      dup4\n        /* \"#utility.yul\":19488:19505   */\n      add\n        /* \"#utility.yul\":19481:19528   */\n      mstore\n        /* \"#utility.yul\":19545:19676   */\n      tag_563\n        /* \"#utility.yul\":19671:19675   */\n      dup2\n        /* \"#utility.yul\":19545:19676   */\n      tag_356\n      jump\t// in\n    tag_563:\n        /* \"#utility.yul\":19537:19676   */\n      swap1\n      pop\n        /* \"#utility.yul\":19264:19683   */\n      swap2\n      swap1\n      pop\n      jump\t// out\n        /* \"#utility.yul\":19689:19849   */\n    tag_357:\n        /* \"#utility.yul\":19829:19841   */\n      0x7365745f766f6c756d6500000000000000000000000000000000000000000000\n        /* \"#utility.yul\":19825:19826   */\n      0x00\n        /* \"#utility.yul\":19817:19823   */\n      dup3\n        /* \"#utility.yul\":19813:19827   */\n      add\n        /* \"#utility.yul\":19806:19842   */\n      mstore\n        /* \"#utility.yul\":19689:19849   */\n      pop\n      jump\t// out\n        /* \"#utility.yul\":19855:20221   */\n    tag_358:\n        /* \"#utility.yul\":19997:20000   */\n      0x00\n        /* \"#utility.yul\":20018:20085   */\n      tag_566\n        /* \"#utility.yul\":20082:20084   */\n      0x0a\n        /* \"#utility.yul\":20077:20080   */\n      dup4\n        /* \"#utility.yul\":20018:20085   */\n      tag_308\n      jump\t// in\n    tag_566:\n        /* \"#utility.yul\":20011:20085   */\n      swap2\n      pop\n        /* \"#utility.yul\":20094:20187   */\n      tag_567\n        /* \"#utility.yul\":20183:20186   */\n      dup3\n        /* \"#utility.yul\":20094:20187   */\n      tag_357\n      jump\t// in\n    tag_567:\n        /* \"#utility.yul\":20212:20214   */\n      0x20\n        /* \"#utility.yul\":20207:20210   */\n      dup3\n        /* \"#utility.yul\":20203:20215   */\n      add\n        /* \"#utility.yul\":20196:20215   */\n      swap1\n      pop\n        /* \"#utility.yul\":19855:20221   */\n      swap2\n      swap1\n      pop\n      jump\t// out\n        /* \"#utility.yul\":20227:20646   */\n    tag_245:\n        /* \"#utility.yul\":20393:20397   */\n      0x00\n        /* \"#utility.yul\":20431:20433   */\n      0x20\n        /* \"#utility.yul\":20420:20429   */\n      dup3\n        /* \"#utility.yul\":20416:20434   */\n      add\n        /* \"#utility.yul\":20408:20434   */\n      swap1\n      pop\n        /* \"#utility.yul\":20480:20489   */\n      dup2\n        /* \"#utility.yul\":20474:20478   */\n      dup2\n        /* \"#utility.yul\":20470:20490   */\n      sub\n        /* \"#utility.yul\":20466:20467   */\n      0x00\n        /* \"#utility.yul\":20455:20464   */\n      dup4\n        /* \"#utility.yul\":20451:20468   */\n      add\n        /* \"#utility.yul\":20444:20491   */\n      mstore\n        /* \"#utility.yul\":20508:20639   */\n      tag_569\n        /* \"#utility.yul\":20634:20638   */\n      dup2\n        /* \"#utility.yul\":20508:20639   */\n      tag_358\n      jump\t// in\n    tag_569:\n        /* \"#utility.yul\":20500:20639   */\n      swap1\n      pop\n        /* \"#utility.yul\":20227:20646   */\n      swap2\n      swap1\n      pop\n      jump\t// out\n        /* \"#utility.yul\":20652:20831   */\n    tag_359:\n        /* \"#utility.yul\":20792:20823   */\n      0x496e76616c69642056616c75652e20546869732069732031206f722030000000\n        /* \"#utility.yul\":20788:20789   */\n      0x00\n        /* \"#utility.yul\":20780:20786   */\n      dup3\n        /* \"#utility.yul\":20776:20790   */\n      add\n        /* \"#utility.yul\":20769:20824   */\n      mstore\n        /* \"#utility.yul\":20652:20831   */\n      pop\n      jump\t// out\n        /* \"#utility.yul\":20837:21203   */\n    tag_360:\n        /* \"#utility.yul\":20979:20982   */\n      0x00\n        /* \"#utility.yul\":21000:21067   */\n      tag_572\n        /* \"#utility.yul\":21064:21066   */\n      0x1d\n        /* \"#utility.yul\":21059:21062   */\n      dup4\n        /* \"#utility.yul\":21000:21067   */\n      tag_308\n      jump\t// in\n    tag_572:\n        /* \"#utility.yul\":20993:21067   */\n      swap2\n      pop\n        /* \"#utility.yul\":21076:21169   */\n      tag_573\n        /* \"#utility.yul\":21165:21168   */\n      dup3\n        /* \"#utility.yul\":21076:21169   */\n      tag_359\n      jump\t// in\n    tag_573:\n        /* \"#utility.yul\":21194:21196   */\n      0x20\n        /* \"#utility.yul\":21189:21192   */\n      dup3\n        /* \"#utility.yul\":21185:21197   */\n      add\n        /* \"#utility.yul\":21178:21197   */\n      swap1\n      pop\n        /* \"#utility.yul\":20837:21203   */\n      swap2\n      swap1\n      pop\n      jump\t// out\n        /* \"#utility.yul\":21209:21628   */\n    tag_251:\n        /* \"#utility.yul\":21375:21379   */\n      0x00\n        /* \"#utility.yul\":21413:21415   */\n      0x20\n        /* \"#utility.yul\":21402:21411   */\n      dup3\n        /* \"#utility.yul\":21398:21416   */\n      add\n        /* \"#utility.yul\":21390:21416   */\n      swap1\n      pop\n        /* \"#utility.yul\":21462:21471   */\n      dup2\n        /* \"#utility.yul\":21456:21460   */\n      dup2\n        /* \"#utility.yul\":21452:21472   */\n      sub\n        /* \"#utility.yul\":21448:21449   */\n      0x00\n        /* \"#utility.yul\":21437:21446   */\n      dup4\n        /* \"#utility.yul\":21433:21450   */\n      add\n        /* \"#utility.yul\":21426:21473   */\n      mstore\n        /* \"#utility.yul\":21490:21621   */\n      tag_575\n        /* \"#utility.yul\":21616:21620   */\n      dup2\n        /* \"#utility.yul\":21490:21621   */\n      tag_360\n      jump\t// in\n    tag_575:\n        /* \"#utility.yul\":21482:21621   */\n      swap1\n      pop\n        /* \"#utility.yul\":21209:21628   */\n      swap2\n      swap1\n      pop\n      jump\t// out\n        /* \"#utility.yul\":21634:21802   */\n    tag_361:\n        /* \"#utility.yul\":21774:21794   */\n      0x6368616e67655f6e7366775f66696c7465720000000000000000000000000000\n        /* \"#utility.yul\":21770:21771   */\n      0x00\n        /* \"#utility.yul\":21762:21768   */\n      dup3\n        /* \"#utility.yul\":21758:21772   */\n      add\n        /* \"#utility.yul\":21751:21795   */\n      mstore\n        /* \"#utility.yul\":21634:21802   */\n      pop\n      jump\t// out\n        /* \"#utility.yul\":21808:22174   */\n    tag_362:\n        /* \"#utility.yul\":21950:21953   */\n      0x00\n        /* \"#utility.yul\":21971:22038   */\n      tag_578\n        /* \"#utility.yul\":22035:22037   */\n      0x12\n        /* \"#utility.yul\":22030:22033   */\n      dup4\n        /* \"#utility.yul\":21971:22038   */\n      tag_308\n      jump\t// in\n    tag_578:\n        /* \"#utility.yul\":21964:22038   */\n      swap2\n      pop\n        /* \"#utility.yul\":22047:22140   */\n      tag_579\n        /* \"#utility.yul\":22136:22139   */\n      dup3\n        /* \"#utility.yul\":22047:22140   */\n      tag_361\n      jump\t// in\n    tag_579:\n        /* \"#utility.yul\":22165:22167   */\n      0x20\n        /* \"#utility.yul\":22160:22163   */\n      dup3\n        /* \"#utility.yul\":22156:22168   */\n      add\n        /* \"#utility.yul\":22149:22168   */\n      swap1\n      pop\n        /* \"#utility.yul\":21808:22174   */\n      swap2\n      swap1\n      pop\n      jump\t// out\n        /* \"#utility.yul\":22180:22599   */\n    tag_258:\n        /* \"#utility.yul\":22346:22350   */\n      0x00\n        /* \"#utility.yul\":22384:22386   */\n      0x20\n        /* \"#utility.yul\":22373:22382   */\n      dup3\n        /* \"#utility.yul\":22369:22387   */\n      add\n        /* \"#utility.yul\":22361:22387   */\n      swap1\n      pop\n        /* \"#utility.yul\":22433:22442   */\n      dup2\n        /* \"#utility.yul\":22427:22431   */\n      dup2\n        /* \"#utility.yul\":22423:22443   */\n      sub\n        /* \"#utility.yul\":22419:22420   */\n      0x00\n        /* \"#utility.yul\":22408:22417   */\n      dup4\n        /* \"#utility.yul\":22404:22421   */\n      add\n        /* \"#utility.yul\":22397:22444   */\n      mstore\n        /* \"#utility.yul\":22461:22592   */\n      tag_581\n        /* \"#utility.yul\":22587:22591   */\n      dup2\n        /* \"#utility.yul\":22461:22592   */\n      tag_362\n      jump\t// in\n    tag_581:\n        /* \"#utility.yul\":22453:22592   */\n      swap1\n      pop\n        /* \"#utility.yul\":22180:22599   */\n      swap2\n      swap1\n      pop\n      jump\t// out\n        /* \"#utility.yul\":22605:22826   */\n    tag_363:\n        /* \"#utility.yul\":22745:22779   */\n      0x54686973206163636f756e7420697320616c7265616479206163746976617465\n        /* \"#utility.yul\":22741:22742   */\n      0x00\n        /* \"#utility.yul\":22733:22739   */\n      dup3\n        /* \"#utility.yul\":22729:22743   */\n      add\n        /* \"#utility.yul\":22722:22780   */\n      mstore\n        /* \"#utility.yul\":22814:22818   */\n      0x642e000000000000000000000000000000000000000000000000000000000000\n        /* \"#utility.yul\":22809:22811   */\n      0x20\n        /* \"#utility.yul\":22801:22807   */\n      dup3\n        /* \"#utility.yul\":22797:22812   */\n      add\n        /* \"#utility.yul\":22790:22819   */\n      mstore\n        /* \"#utility.yul\":22605:22826   */\n      pop\n      jump\t// out\n        /* \"#utility.yul\":22832:23198   */\n    tag_364:\n        /* \"#utility.yul\":22974:22977   */\n      0x00\n        /* \"#utility.yul\":22995:23062   */\n      tag_584\n        /* \"#utility.yul\":23059:23061   */\n      0x22\n        /* \"#utility.yul\":23054:23057   */\n      dup4\n        /* \"#utility.yul\":22995:23062   */\n      tag_308\n      jump\t// in\n    tag_584:\n        /* \"#utility.yul\":22988:23062   */\n      swap2\n      pop\n        /* \"#utility.yul\":23071:23164   */\n      tag_585\n        /* \"#utility.yul\":23160:23163   */\n      dup3\n        /* \"#utility.yul\":23071:23164   */\n      tag_363\n      jump\t// in\n    tag_585:\n        /* \"#utility.yul\":23189:23191   */\n      0x40\n        /* \"#utility.yul\":23184:23187   */\n      dup3\n        /* \"#utility.yul\":23180:23192   */\n      add\n        /* \"#utility.yul\":23173:23192   */\n      swap1\n      pop\n        /* \"#utility.yul\":22832:23198   */\n      swap2\n      swap1\n      pop\n      jump\t// out\n        /* \"#utility.yul\":23204:23623   */\n    tag_271:\n        /* \"#utility.yul\":23370:23374   */\n      0x00\n        /* \"#utility.yul\":23408:23410   */\n      0x20\n        /* \"#utility.yul\":23397:23406   */\n      dup3\n        /* \"#utility.yul\":23393:23411   */\n      add\n        /* \"#utility.yul\":23385:23411   */\n      swap1\n      pop\n        /* \"#utility.yul\":23457:23466   */\n      dup2\n        /* \"#utility.yul\":23451:23455   */\n      dup2\n        /* \"#utility.yul\":23447:23467   */\n      sub\n        /* \"#utility.yul\":23443:23444   */\n      0x00\n        /* \"#utility.yul\":23432:23441   */\n      dup4\n        /* \"#utility.yul\":23428:23445   */\n      add\n        /* \"#utility.yul\":23421:23468   */\n      mstore\n        /* \"#utility.yul\":23485:23616   */\n      tag_587\n        /* \"#utility.yul\":23611:23615   */\n      dup2\n        /* \"#utility.yul\":23485:23616   */\n      tag_364\n      jump\t// in\n    tag_587:\n        /* \"#utility.yul\":23477:23616   */\n      swap1\n      pop\n        /* \"#utility.yul\":23204:23623   */\n      swap2\n      swap1\n      pop\n      jump\t// out\n        /* \"#utility.yul\":23629:23785   */\n    tag_365:\n        /* \"#utility.yul\":23769:23777   */\n      0x656e61626c650000000000000000000000000000000000000000000000000000\n        /* \"#utility.yul\":23765:23766   */\n      0x00\n        /* \"#utility.yul\":23757:23763   */\n      dup3\n        /* \"#utility.yul\":23753:23767   */\n      add\n        /* \"#utility.yul\":23746:23778   */\n      mstore\n        /* \"#utility.yul\":23629:23785   */\n      pop\n      jump\t// out\n        /* \"#utility.yul\":23791:24156   */\n    tag_366:\n        /* \"#utility.yul\":23933:23936   */\n      0x00\n        /* \"#utility.yul\":23954:24020   */\n      tag_590\n        /* \"#utility.yul\":24018:24019   */\n      0x06\n        /* \"#utility.yul\":24013:24016   */\n      dup4\n        /* \"#utility.yul\":23954:24020   */\n      tag_308\n      jump\t// in\n    tag_590:\n        /* \"#utility.yul\":23947:24020   */\n      swap2\n      pop\n        /* \"#utility.yul\":24029:24122   */\n      tag_591\n        /* \"#utility.yul\":24118:24121   */\n      dup3\n        /* \"#utility.yul\":24029:24122   */\n      tag_365\n      jump\t// in\n    tag_591:\n        /* \"#utility.yul\":24147:24149   */\n      0x20\n        /* \"#utility.yul\":24142:24145   */\n      dup3\n        /* \"#utility.yul\":24138:24150   */\n      add\n        /* \"#utility.yul\":24131:24150   */\n      swap1\n      pop\n        /* \"#utility.yul\":23791:24156   */\n      swap2\n      swap1\n      pop\n      jump\t// out\n        /* \"#utility.yul\":24162:24581   */\n    tag_275:\n        /* \"#utility.yul\":24328:24332   */\n      0x00\n        /* \"#utility.yul\":24366:24368   */\n      0x20\n        /* \"#utility.yul\":24355:24364   */\n      dup3\n        /* \"#utility.yul\":24351:24369   */\n      add\n        /* \"#utility.yul\":24343:24369   */\n      swap1\n      pop\n        /* \"#utility.yul\":24415:24424   */\n      dup2\n        /* \"#utility.yul\":24409:24413   */\n      dup2\n        /* \"#utility.yul\":24405:24425   */\n      sub\n        /* \"#utility.yul\":24401:24402   */\n      0x00\n        /* \"#utility.yul\":24390:24399   */\n      dup4\n        /* \"#utility.yul\":24386:24403   */\n      add\n        /* \"#utility.yul\":24379:24426   */\n      mstore\n        /* \"#utility.yul\":24443:24574   */\n      tag_593\n        /* \"#utility.yul\":24569:24573   */\n      dup2\n        /* \"#utility.yul\":24443:24574   */\n      tag_366\n      jump\t// in\n    tag_593:\n        /* \"#utility.yul\":24435:24574   */\n      swap1\n      pop\n        /* \"#utility.yul\":24162:24581   */\n      swap2\n      swap1\n      pop\n      jump\t// out\n        /* \"#utility.yul\":24587:24768   */\n    tag_367:\n        /* \"#utility.yul\":24727:24760   */\n      0x596f75206d7573742068617665206174206c65617374203120746f6b656e2e00\n        /* \"#utility.yul\":24723:24724   */\n      0x00\n        /* \"#utility.yul\":24715:24721   */\n      dup3\n        /* \"#utility.yul\":24711:24725   */\n      add\n        /* \"#utility.yul\":24704:24761   */\n      mstore\n        /* \"#utility.yul\":24587:24768   */\n      pop\n      jump\t// out\n        /* \"#utility.yul\":24774:25140   */\n    tag_368:\n        /* \"#utility.yul\":24916:24919   */\n      0x00\n        /* \"#utility.yul\":24937:25004   */\n      tag_596\n        /* \"#utility.yul\":25001:25003   */\n      0x1f\n        /* \"#utility.yul\":24996:24999   */\n      dup4\n        /* \"#utility.yul\":24937:25004   */\n      tag_308\n      jump\t// in\n    tag_596:\n        /* \"#utility.yul\":24930:25004   */\n      swap2\n      pop\n        /* \"#utility.yul\":25013:25106   */\n      tag_597\n        /* \"#utility.yul\":25102:25105   */\n      dup3\n        /* \"#utility.yul\":25013:25106   */\n      tag_367\n      jump\t// in\n    tag_597:\n        /* \"#utility.yul\":25131:25133   */\n      0x20\n        /* \"#utility.yul\":25126:25129   */\n      dup3\n        /* \"#utility.yul\":25122:25134   */\n      add\n        /* \"#utility.yul\":25115:25134   */\n      swap1\n      pop\n        /* \"#utility.yul\":24774:25140   */\n      swap2\n      swap1\n      pop\n      jump\t// out\n        /* \"#utility.yul\":25146:25565   */\n    tag_281:\n        /* \"#utility.yul\":25312:25316   */\n      0x00\n        /* \"#utility.yul\":25350:25352   */\n      0x20\n        /* \"#utility.yul\":25339:25348   */\n      dup3\n        /* \"#utility.yul\":25335:25353   */\n      add\n        /* \"#utility.yul\":25327:25353   */\n      swap1\n      pop\n        /* \"#utility.yul\":25399:25408   */\n      dup2\n        /* \"#utility.yul\":25393:25397   */\n      dup2\n        /* \"#utility.yul\":25389:25409   */\n      sub\n        /* \"#utility.yul\":25385:25386   */\n      0x00\n        /* \"#utility.yul\":25374:25383   */\n      dup4\n        /* \"#utility.yul\":25370:25387   */\n      add\n        /* \"#utility.yul\":25363:25410   */\n      mstore\n        /* \"#utility.yul\":25427:25558   */\n      tag_599\n        /* \"#utility.yul\":25553:25557   */\n      dup2\n        /* \"#utility.yul\":25427:25558   */\n      tag_368\n      jump\t// in\n    tag_599:\n        /* \"#utility.yul\":25419:25558   */\n      swap1\n      pop\n        /* \"#utility.yul\":25146:25565   */\n      swap2\n      swap1\n      pop\n      jump\t// out\n        /* \"#utility.yul\":25571:25737   */\n    tag_369:\n        /* \"#utility.yul\":25711:25729   */\n      0x496e76616c696420436861707465722e00000000000000000000000000000000\n        /* \"#utility.yul\":25707:25708   */\n      0x00\n        /* \"#utility.yul\":25699:25705   */\n      dup3\n        /* \"#utility.yul\":25695:25709   */\n      add\n        /* \"#utility.yul\":25688:25730   */\n      mstore\n        /* \"#utility.yul\":25571:25737   */\n      pop\n      jump\t// out\n        /* \"#utility.yul\":25743:26109   */\n    tag_370:\n        /* \"#utility.yul\":25885:25888   */\n      0x00\n        /* \"#utility.yul\":25906:25973   */\n      tag_602\n        /* \"#utility.yul\":25970:25972   */\n      0x10\n        /* \"#utility.yul\":25965:25968   */\n      dup4\n        /* \"#utility.yul\":25906:25973   */\n      tag_308\n      jump\t// in\n    tag_602:\n        /* \"#utility.yul\":25899:25973   */\n      swap2\n      pop\n        /* \"#utility.yul\":25982:26075   */\n      tag_603\n        /* \"#utility.yul\":26071:26074   */\n      dup3\n        /* \"#utility.yul\":25982:26075   */\n      tag_369\n      jump\t// in\n    tag_603:\n        /* \"#utility.yul\":26100:26102   */\n      0x20\n        /* \"#utility.yul\":26095:26098   */\n      dup3\n        /* \"#utility.yul\":26091:26103   */\n      add\n        /* \"#utility.yul\":26084:26103   */\n      swap1\n      pop\n        /* \"#utility.yul\":25743:26109   */\n      swap2\n      swap1\n      pop\n      jump\t// out\n        /* \"#utility.yul\":26115:26534   */\n    tag_294:\n        /* \"#utility.yul\":26281:26285   */\n      0x00\n        /* \"#utility.yul\":26319:26321   */\n      0x20\n        /* \"#utility.yul\":26308:26317   */\n      dup3\n        /* \"#utility.yul\":26304:26322   */\n      add\n        /* \"#utility.yul\":26296:26322   */\n      swap1\n      pop\n        /* \"#utility.yul\":26368:26377   */\n      dup2\n        /* \"#utility.yul\":26362:26366   */\n      dup2\n        /* \"#utility.yul\":26358:26378   */\n      sub\n        /* \"#utility.yul\":26354:26355   */\n      0x00\n        /* \"#utility.yul\":26343:26352   */\n      dup4\n        /* \"#utility.yul\":26339:26356   */\n      add\n        /* \"#utility.yul\":26332:26379   */\n      mstore\n        /* \"#utility.yul\":26396:26527   */\n      tag_605\n        /* \"#utility.yul\":26522:26526   */\n      dup2\n        /* \"#utility.yul\":26396:26527   */\n      tag_370\n      jump\t// in\n    tag_605:\n        /* \"#utility.yul\":26388:26527   */\n      swap1\n      pop\n        /* \"#utility.yul\":26115:26534   */\n      swap2\n      swap1\n      pop\n      jump\t// out\n        /* \"#utility.yul\":26540:26704   */\n    tag_371:\n        /* \"#utility.yul\":26680:26696   */\n      0x496e76616c69642056616c75652e000000000000000000000000000000000000\n        /* \"#utility.yul\":26676:26677   */\n      0x00\n        /* \"#utility.yul\":26668:26674   */\n      dup3\n        /* \"#utility.yul\":26664:26678   */\n      add\n        /* \"#utility.yul\":26657:26697   */\n      mstore\n        /* \"#utility.yul\":26540:26704   */\n      pop\n      jump\t// out\n        /* \"#utility.yul\":26710:27076   */\n    tag_372:\n        /* \"#utility.yul\":26852:26855   */\n      0x00\n        /* \"#utility.yul\":26873:26940   */\n      tag_608\n        /* \"#utility.yul\":26937:26939   */\n      0x0e\n        /* \"#utility.yul\":26932:26935   */\n      dup4\n        /* \"#utility.yul\":26873:26940   */\n      tag_308\n      jump\t// in\n    tag_608:\n        /* \"#utility.yul\":26866:26940   */\n      swap2\n      pop\n        /* \"#utility.yul\":26949:27042   */\n      tag_609\n        /* \"#utility.yul\":27038:27041   */\n      dup3\n        /* \"#utility.yul\":26949:27042   */\n      tag_371\n      jump\t// in\n    tag_609:\n        /* \"#utility.yul\":27067:27069   */\n      0x20\n        /* \"#utility.yul\":27062:27065   */\n      dup3\n        /* \"#utility.yul\":27058:27070   */\n      add\n        /* \"#utility.yul\":27051:27070   */\n      swap1\n      pop\n        /* \"#utility.yul\":26710:27076   */\n      swap2\n      swap1\n      pop\n      jump\t// out\n        /* \"#utility.yul\":27082:27501   */\n    tag_297:\n        /* \"#utility.yul\":27248:27252   */\n      0x00\n        /* \"#utility.yul\":27286:27288   */\n      0x20\n        /* \"#utility.yul\":27275:27284   */\n      dup3\n        /* \"#utility.yul\":27271:27289   */\n      add\n        /* \"#utility.yul\":27263:27289   */\n      swap1\n      pop\n        /* \"#utility.yul\":27335:27344   */\n      dup2\n        /* \"#utility.yul\":27329:27333   */\n      dup2\n        /* \"#utility.yul\":27325:27345   */\n      sub\n        /* \"#utility.yul\":27321:27322   */\n      0x00\n        /* \"#utility.yul\":27310:27319   */\n      dup4\n        /* \"#utility.yul\":27306:27323   */\n      add\n        /* \"#utility.yul\":27299:27346   */\n      mstore\n        /* \"#utility.yul\":27363:27494   */\n      tag_611\n        /* \"#utility.yul\":27489:27493   */\n      dup2\n        /* \"#utility.yul\":27363:27494   */\n      tag_372\n      jump\t// in\n    tag_611:\n        /* \"#utility.yul\":27355:27494   */\n      swap1\n      pop\n        /* \"#utility.yul\":27082:27501   */\n      swap2\n      swap1\n      pop\n      jump\t// out\n        /* \"#utility.yul\":27507:27672   */\n    tag_373:\n        /* \"#utility.yul\":27647:27664   */\n      0x696e736572745f626f6f6b6d61726b0000000000000000000000000000000000\n        /* \"#utility.yul\":27643:27644   */\n      0x00\n        /* \"#utility.yul\":27635:27641   */\n      dup3\n        /* \"#utility.yul\":27631:27645   */\n      add\n        /* \"#utility.yul\":27624:27665   */\n      mstore\n        /* \"#utility.yul\":27507:27672   */\n      pop\n      jump\t// out\n        /* \"#utility.yul\":27678:28044   */\n    tag_374:\n        /* \"#utility.yul\":27820:27823   */\n      0x00\n        /* \"#utility.yul\":27841:27908   */\n      tag_614\n        /* \"#utility.yul\":27905:27907   */\n      0x0f\n        /* \"#utility.yul\":27900:27903   */\n      dup4\n        /* \"#utility.yul\":27841:27908   */\n      tag_308\n      jump\t// in\n    tag_614:\n        /* \"#utility.yul\":27834:27908   */\n      swap2\n      pop\n        /* \"#utility.yul\":27917:28010   */\n      tag_615\n        /* \"#utility.yul\":28006:28009   */\n      dup3\n        /* \"#utility.yul\":27917:28010   */\n      tag_373\n      jump\t// in\n    tag_615:\n        /* \"#utility.yul\":28035:28037   */\n      0x20\n        /* \"#utility.yul\":28030:28033   */\n      dup3\n        /* \"#utility.yul\":28026:28038   */\n      add\n        /* \"#utility.yul\":28019:28038   */\n      swap1\n      pop\n        /* \"#utility.yul\":27678:28044   */\n      swap2\n      swap1\n      pop\n      jump\t// out\n        /* \"#utility.yul\":28050:28469   */\n    tag_301:\n        /* \"#utility.yul\":28216:28220   */\n      0x00\n        /* \"#utility.yul\":28254:28256   */\n      0x20\n        /* \"#utility.yul\":28243:28252   */\n      dup3\n        /* \"#utility.yul\":28239:28257   */\n      add\n        /* \"#utility.yul\":28231:28257   */\n      swap1\n      pop\n        /* \"#utility.yul\":28303:28312   */\n      dup2\n        /* \"#utility.yul\":28297:28301   */\n      dup2\n        /* \"#utility.yul\":28293:28313   */\n      sub\n        /* \"#utility.yul\":28289:28290   */\n      0x00\n        /* \"#utility.yul\":28278:28287   */\n      dup4\n        /* \"#utility.yul\":28274:28291   */\n      add\n        /* \"#utility.yul\":28267:28314   */\n      mstore\n        /* \"#utility.yul\":28331:28462   */\n      tag_617\n        /* \"#utility.yul\":28457:28461   */\n      dup2\n        /* \"#utility.yul\":28331:28462   */\n      tag_374\n      jump\t// in\n    tag_617:\n        /* \"#utility.yul\":28323:28462   */\n      swap1\n      pop\n        /* \"#utility.yul\":28050:28469   */\n      swap2\n      swap1\n      pop\n      jump\t// out\n\n    auxdata: 0xa2646970667358221220bdde66dd867910ac22583384e8c577df771b4902d9a32b9aa369b8abbd4b460564736f6c63430008100033\n}\n",
				"bytecode": {
					"linkReferences": {},
					"object": "60806040523480156200001157600080fd5b50336000806101000a81548173ffffffffffffffffffffffffffffffffffffffff021916908373ffffffffffffffffffffffffffffffffffffffff1602179055506040518060400160405280600c81526020017f506f6e79204472696c616e640000000000000000000000000000000000000000815250600890816200009891906200038c565b506040518060400160405280600281526020017f504400000000000000000000000000000000000000000000000000000000000081525060099081620000df91906200038c565b506003600a60006101000a81548160ff021916908360ff1602179055506000600b819055506000600c8190555062000473565b600081519050919050565b7f4e487b7100000000000000000000000000000000000000000000000000000000600052604160045260246000fd5b7f4e487b7100000000000000000000000000000000000000000000000000000000600052602260045260246000fd5b600060028204905060018216806200019457607f821691505b602082108103620001aa57620001a96200014c565b5b50919050565b60008190508160005260206000209050919050565b60006020601f8301049050919050565b600082821b905092915050565b600060088302620002147fffffffffffffffffffffffffffffffffffffffffffffffffffffffffffffffff82620001d5565b620002208683620001d5565b95508019841693508086168417925050509392505050565b6000819050919050565b6000819050919050565b60006200026d62000267620002618462000238565b62000242565b62000238565b9050919050565b6000819050919050565b62000289836200024c565b620002a1620002988262000274565b848454620001e2565b825550505050565b600090565b620002b8620002a9565b620002c58184846200027e565b505050565b5b81811015620002ed57620002e1600082620002ae565b600181019050620002cb565b5050565b601f8211156200033c576200030681620001b0565b6200031184620001c5565b8101602085101562000321578190505b620003396200033085620001c5565b830182620002ca565b50505b505050565b600082821c905092915050565b6000620003616000198460080262000341565b1980831691505092915050565b60006200037c83836200034e565b9150826002028217905092915050565b620003978262000112565b67ffffffffffffffff811115620003b357620003b26200011d565b5b620003bf82546200017b565b620003cc828285620002f1565b600060209050601f831160018114620004045760008415620003ef578287015190505b620003fb85826200036e565b8655506200046b565b601f1984166200041486620001b0565b60005b828110156200043e5784890151825560018201915060208501945060208101905062000417565b868310156200045e57848901516200045a601f8916826200034e565b8355505b6001600288020188555050505b505050505050565b612edd80620004836000396000f3fe6080604052600436106101c25760003560e01c80638ba17f86116100f7578063a9059cbb11610095578063ed88c68e11610064578063ed88c68e1461072c578063edc84da01461074a578063f2fde38b14610787578063f41e7222146107b0576101c2565b8063a9059cbb14610638578063adeabba914610675578063b943cd16146106b2578063cc6cb19a146106ef576101c2565b80639a3d66c0116100d15780639a3d66c0146105685780639c6950a1146105a5578063a3907d71146105e2578063a843651e1461060d576101c2565b80638ba17f86146104d55780638da5cb5b1461051257806395d89b411461053d576101c2565b806340c10f1911610164578063481dcb7b1161013e578063481dcb7b146103f357806370734fb21461043057806370a082311461046d578063893d20e8146104aa576101c2565b806340c10f191461033c57806342966c68146103795780634559dcdc146103b6576101c2565b806318160ddd116101a057806318160ddd1461026c57806318835c2a1461029757806327e235e3146102d4578063313ce56714610311576101c2565b806306fdde03146101c757806308a6f252146101f25780630db179651461022f575b600080fd5b3480156101d357600080fd5b506101dc6107ed565b6040516101e9919061212f565b60405180910390f35b3480156101fe57600080fd5b50610219600480360381019061021491906121c3565b61087b565b6040516102269190612209565b60405180910390f35b34801561023b57600080fd5b5061025660048036038101906102519190612359565b610893565b6040516102639190612209565b60405180910390f35b34801561027857600080fd5b506102816108f9565b60405161028e9190612209565b60405180910390f35b3480156102a357600080fd5b506102be60048036038101906102b991906123e1565b6108ff565b6040516102cb919061246b565b60405180910390f35b3480156102e057600080fd5b506102fb60048036038101906102f691906121c3565b610b15565b6040516103089190612209565b60405180910390f35b34801561031d57600080fd5b50610326610b2d565b60405161033391906124a2565b60405180910390f35b34801561034857600080fd5b50610363600480360381019061035e91906124bd565b610b40565b604051610370919061246b565b60405180910390f35b34801561038557600080fd5b506103a0600480360381019061039b91906124fd565b610da2565b6040516103ad919061246b565b60405180910390f35b3480156103c257600080fd5b506103dd60048036038101906103d891906124fd565b610fff565b6040516103ea919061246b565b60405180910390f35b3480156103ff57600080fd5b5061041a6004803603810190610415919061252a565b611248565b604051610427919061246b565b60405180910390f35b34801561043c57600080fd5b5061045760048036038101906104529190612359565b6114ae565b6040516104649190612209565b60405180910390f35b34801561047957600080fd5b50610494600480360381019061048f91906121c3565b6114e9565b6040516104a19190612209565b60405180910390f35b3480156104b657600080fd5b506104bf611532565b6040516104cc9190612595565b60405180910390f35b3480156104e157600080fd5b506104fc60048036038101906104f791906121c3565b61155b565b6040516105099190612209565b60405180910390f35b34801561051e57600080fd5b506105276115a4565b60405161053491906125d1565b60405180910390f35b34801561054957600080fd5b506105526115c8565b60405161055f919061212f565b60405180910390f35b34801561057457600080fd5b5061058f600480360381019061058a91906124bd565b611656565b60405161059c9190612209565b60405180910390f35b3480156105b157600080fd5b506105cc60048036038101906105c791906124bd565b6116b1565b6040516105d99190612209565b60405180910390f35b3480156105ee57600080fd5b506105f76116d6565b604051610604919061246b565b60405180910390f35b34801561061957600080fd5b50610622611893565b60405161062f9190612209565b60405180910390f35b34801561064457600080fd5b5061065f600480360381019061065a91906124bd565b611899565b60405161066c919061246b565b60405180910390f35b34801561068157600080fd5b5061069c600480360381019061069791906121c3565b611b2a565b6040516106a99190612209565b60405180910390f35b3480156106be57600080fd5b506106d960048036038101906106d49190612359565b611b42565b6040516106e69190612209565b60405180910390f35b3480156106fb57600080fd5b50610716600480360381019061071191906121c3565b611b7d565b6040516107239190612209565b60405180910390f35b610734611b95565b604051610741919061246b565b60405180910390f35b34801561075657600080fd5b50610771600480360381019061076c91906125ec565b611c93565b60405161077e919061246b565b60405180910390f35b34801561079357600080fd5b506107ae60048036038101906107a991906121c3565b611eee565b005b3480156107bc57600080fd5b506107d760048036038101906107d29190612359565b612039565b6040516107e49190612209565b60405180910390f35b600880546107fa9061265b565b80601f01602080910402602001604051908101604052809291908181526020018280546108269061265b565b80156108735780601f1061084857610100808354040283529160200191610873565b820191906000526020600020905b81548152906001019060200180831161085657829003601f168201915b505050505081565b60036020528060005260406000206000915090505481565b6000600660008473ffffffffffffffffffffffffffffffffffffffff1673ffffffffffffffffffffffffffffffffffffffff168152602001908152602001600020826040516108e291906126c8565b908152602001604051809103902054905092915050565b600b5481565b60008060009054906101000a900473ffffffffffffffffffffffffffffffffffffffff1673ffffffffffffffffffffffffffffffffffffffff163373ffffffffffffffffffffffffffffffffffffffff1614610990576040517f08c379a00000000000000000000000000000000000000000000000000000000081526004016109879061272b565b60405180910390fd5b600073ffffffffffffffffffffffffffffffffffffffff168473ffffffffffffffffffffffffffffffffffffffff16036109ff576040517f08c379a00000000000000000000000000000000000000000000000000000000081526004016109f690612797565b60405180910390fd5b6000821015610a43576040517f08c379a0000000000000000000000000000000000000000000000000000000008152600401610a3a90612803565b60405180910390fd5b81600460008673ffffffffffffffffffffffffffffffffffffffff1673ffffffffffffffffffffffffffffffffffffffff16815260200190815260200160002084604051610a9191906126c8565b9081526020016040518091039020819055508373ffffffffffffffffffffffffffffffffffffffff163373ffffffffffffffffffffffffffffffffffffffff167fdd5e174b0234e3aa867220959585ed4060eab789cea697d562b60b0731f54af88585604051610b02929190612823565b60405180910390a3600190509392505050565b60016020528060005260406000206000915090505481565b600a60009054906101000a900460ff1681565b60006001600460003373ffffffffffffffffffffffffffffffffffffffff1673ffffffffffffffffffffffffffffffffffffffff168152602001908152602001600020604051610b8f9061289f565b90815260200160405180910390205414610bde576040517f08c379a0000000000000000000000000000000000000000000000000000000008152600401610bd59061272b565b60405180910390fd5b600073ffffffffffffffffffffffffffffffffffffffff168373ffffffffffffffffffffffffffffffffffffffff1603610c4d576040517f08c379a0000000000000000000000000000000000000000000000000000000008152600401610c4490612900565b60405180910390fd5b6000821015610c91576040517f08c379a0000000000000000000000000000000000000000000000000000000008152600401610c8890612803565b60405180910390fd5b81600160008573ffffffffffffffffffffffffffffffffffffffff1673ffffffffffffffffffffffffffffffffffffffff16815260200190815260200160002054610cdc919061294f565b600160008573ffffffffffffffffffffffffffffffffffffffff1673ffffffffffffffffffffffffffffffffffffffff1681526020019081526020016000208190555081600b54610d2d919061294f565b600b819055508273ffffffffffffffffffffffffffffffffffffffff163373ffffffffffffffffffffffffffffffffffffffff167fab8530f87dc9b59234c4623bf917212bb2536d647574c8e7e5da92c2ede0c9f884604051610d909190612209565b60405180910390a36001905092915050565b60006001600460003373ffffffffffffffffffffffffffffffffffffffff1673ffffffffffffffffffffffffffffffffffffffff168152602001908152602001600020604051610df19061289f565b90815260200160405180910390205414610e40576040517f08c379a0000000000000000000000000000000000000000000000000000000008152600401610e379061272b565b60405180910390fd5b600160003373ffffffffffffffffffffffffffffffffffffffff1673ffffffffffffffffffffffffffffffffffffffff16815260200190815260200160002054821115610ec2576040517f08c379a0000000000000000000000000000000000000000000000000000000008152600401610eb990612803565b60405180910390fd5b6000821015610f06576040517f08c379a0000000000000000000000000000000000000000000000000000000008152600401610efd90612803565b60405180910390fd5b81600160003373ffffffffffffffffffffffffffffffffffffffff1673ffffffffffffffffffffffffffffffffffffffff16815260200190815260200160002054610f519190612983565b600160003373ffffffffffffffffffffffffffffffffffffffff1673ffffffffffffffffffffffffffffffffffffffff1681526020019081526020016000208190555081600b54610fa29190612983565b600b819055503373ffffffffffffffffffffffffffffffffffffffff167fcc16f5dbb4873280815c1ee09dbd06736cffcc184412cf7a71a0fdb75d397ca583604051610fee9190612209565b60405180910390a260019050919050565b600060018060003373ffffffffffffffffffffffffffffffffffffffff1673ffffffffffffffffffffffffffffffffffffffff168152602001908152602001600020541015611083576040517f08c379a000000000000000000000000000000000000000000000000000000000815260040161107a90612a29565b60405180910390fd5b60008210156110c7576040517f08c379a00000000000000000000000000000000000000000000000000000000081526004016110be90612a95565b60405180910390fd5b606482111561110b576040517f08c379a000000000000000000000000000000000000000000000000000000000815260040161110290612a95565b60405180910390fd5b81600760003373ffffffffffffffffffffffffffffffffffffffff1673ffffffffffffffffffffffffffffffffffffffff168152602001908152602001600020819055506001600360003373ffffffffffffffffffffffffffffffffffffffff1673ffffffffffffffffffffffffffffffffffffffff1681526020019081526020016000205461119b919061294f565b600360003373ffffffffffffffffffffffffffffffffffffffff1673ffffffffffffffffffffffffffffffffffffffff168152602001908152602001600020819055506001600c546111ed919061294f565b600c819055503373ffffffffffffffffffffffffffffffffffffffff167f2e423c3d4c536be9c3307d7ba9d9797ce08e89334052f84c24f8eba20baa63a160405161123790612b01565b60405180910390a260019050919050565b600060018060003373ffffffffffffffffffffffffffffffffffffffff1673ffffffffffffffffffffffffffffffffffffffff1681526020019081526020016000205410156112cc576040517f08c379a00000000000000000000000000000000000000000000000000000000081526004016112c390612a29565b60405180910390fd5b6000821015611310576040517f08c379a000000000000000000000000000000000000000000000000000000000815260040161130790612b6d565b60405180910390fd5b6001821115611354576040517f08c379a000000000000000000000000000000000000000000000000000000000815260040161134b90612b6d565b60405180910390fd5b81600660003373ffffffffffffffffffffffffffffffffffffffff1673ffffffffffffffffffffffffffffffffffffffff168152602001908152602001600020846040516113a291906126c8565b9081526020016040518091039020819055506001600360003373ffffffffffffffffffffffffffffffffffffffff1673ffffffffffffffffffffffffffffffffffffffff16815260200190815260200160002054611400919061294f565b600360003373ffffffffffffffffffffffffffffffffffffffff1673ffffffffffffffffffffffffffffffffffffffff168152602001908152602001600020819055506001600c54611452919061294f565b600c819055503373ffffffffffffffffffffffffffffffffffffffff167f2e423c3d4c536be9c3307d7ba9d9797ce08e89334052f84c24f8eba20baa63a160405161149c90612bd9565b60405180910390a26001905092915050565b600460205281600052604060002081805160208101820180518482526020830160208501208183528095505050505050600091509150505481565b6000600160008373ffffffffffffffffffffffffffffffffffffffff1673ffffffffffffffffffffffffffffffffffffffff168152602001908152602001600020549050919050565b60008060009054906101000a900473ffffffffffffffffffffffffffffffffffffffff16905090565b6000600760008373ffffffffffffffffffffffffffffffffffffffff1673ffffffffffffffffffffffffffffffffffffffff168152602001908152602001600020549050919050565b60008054906101000a900473ffffffffffffffffffffffffffffffffffffffff1681565b600980546115d59061265b565b80601f01602080910402602001604051908101604052809291908181526020018280546116019061265b565b801561164e5780601f106116235761010080835404028352916020019161164e565b820191906000526020600020905b81548152906001019060200180831161163157829003601f168201915b505050505081565b6000600560008473ffffffffffffffffffffffffffffffffffffffff1673ffffffffffffffffffffffffffffffffffffffff168152602001908152602001600020600083815260200190815260200160002054905092915050565b6005602052816000526040600020602052806000526040600020600091509150505481565b600080600160003373ffffffffffffffffffffffffffffffffffffffff1673ffffffffffffffffffffffffffffffffffffffff16815260200190815260200160002054111561175a576040517f08c379a000000000000000000000000000000000000000000000000000000000815260040161175190612c6b565b60405180910390fd5b60018060003373ffffffffffffffffffffffffffffffffffffffff1673ffffffffffffffffffffffffffffffffffffffff168152602001908152602001600020546117a5919061294f565b600160003373ffffffffffffffffffffffffffffffffffffffff1673ffffffffffffffffffffffffffffffffffffffff168152602001908152602001600020819055506001600b546117f7919061294f565b600b819055503373ffffffffffffffffffffffffffffffffffffffff167fd4b303e8702428e1e0fe4a0c45cfd6f44c57f247681f0b21c46f339fa12ff1b360405160405180910390a23373ffffffffffffffffffffffffffffffffffffffff167f2e423c3d4c536be9c3307d7ba9d9797ce08e89334052f84c24f8eba20baa63a160405161188490612cd7565b60405180910390a26001905090565b600c5481565b6000600160003373ffffffffffffffffffffffffffffffffffffffff1673ffffffffffffffffffffffffffffffffffffffff1681526020019081526020016000205482111561191d576040517f08c379a000000000000000000000000000000000000000000000000000000000815260040161191490612803565b60405180910390fd5b60018060003373ffffffffffffffffffffffffffffffffffffffff1673ffffffffffffffffffffffffffffffffffffffff16815260200190815260200160002054101561199f576040517f08c379a000000000000000000000000000000000000000000000000000000000815260040161199690612d43565b60405180910390fd5b81600160008573ffffffffffffffffffffffffffffffffffffffff1673ffffffffffffffffffffffffffffffffffffffff168152602001908152602001600020546119ea919061294f565b600160008573ffffffffffffffffffffffffffffffffffffffff1673ffffffffffffffffffffffffffffffffffffffff1681526020019081526020016000208190555081600160003373ffffffffffffffffffffffffffffffffffffffff1673ffffffffffffffffffffffffffffffffffffffff16815260200190815260200160002054611a789190612983565b600160003373ffffffffffffffffffffffffffffffffffffffff1673ffffffffffffffffffffffffffffffffffffffff168152602001908152602001600020819055508273ffffffffffffffffffffffffffffffffffffffff163373ffffffffffffffffffffffffffffffffffffffff167fddf252ad1be2c89b69c2b068fc378daa952ba7f163c4a11628f55a4df523b3ef84604051611b189190612209565b60405180910390a36001905092915050565b60076020528060005260406000206000915090505481565b600660205281600052604060002081805160208101820180518482526020830160208501208183528095505050505050600091509150505481565b60026020528060005260406000206000915090505481565b600034600260003373ffffffffffffffffffffffffffffffffffffffff1673ffffffffffffffffffffffffffffffffffffffff16815260200190815260200160002054611be2919061294f565b600260003373ffffffffffffffffffffffffffffffffffffffff1673ffffffffffffffffffffffffffffffffffffffff1681526020019081526020016000208190555060008054906101000a900473ffffffffffffffffffffffffffffffffffffffff1673ffffffffffffffffffffffffffffffffffffffff166108fc349081150290604051600060405180830381858888f19350505050158015611c8b573d6000803e3d6000fd5b506001905090565b600060018060003373ffffffffffffffffffffffffffffffffffffffff1673ffffffffffffffffffffffffffffffffffffffff168152602001908152602001600020541015611d17576040517f08c379a0000000000000000000000000000000000000000000000000000000008152600401611d0e90612a29565b60405180910390fd5b6001831015611d5b576040517f08c379a0000000000000000000000000000000000000000000000000000000008152600401611d5290612daf565b60405180910390fd5b6000821015611d9f576040517f08c379a0000000000000000000000000000000000000000000000000000000008152600401611d9690612e1b565b60405180910390fd5b81600560003373ffffffffffffffffffffffffffffffffffffffff1673ffffffffffffffffffffffffffffffffffffffff1681526020019081526020016000206000858152602001908152602001600020819055506001600360003373ffffffffffffffffffffffffffffffffffffffff1673ffffffffffffffffffffffffffffffffffffffff16815260200190815260200160002054611e40919061294f565b600360003373ffffffffffffffffffffffffffffffffffffffff1673ffffffffffffffffffffffffffffffffffffffff168152602001908152602001600020819055506001600c54611e92919061294f565b600c819055503373ffffffffffffffffffffffffffffffffffffffff167f2e423c3d4c536be9c3307d7ba9d9797ce08e89334052f84c24f8eba20baa63a1604051611edc90612e87565b60405180910390a26001905092915050565b60008054906101000a900473ffffffffffffffffffffffffffffffffffffffff1673ffffffffffffffffffffffffffffffffffffffff163373ffffffffffffffffffffffffffffffffffffffff1614611f7c576040517f08c379a0000000000000000000000000000000000000000000000000000000008152600401611f739061272b565b60405180910390fd5b8073ffffffffffffffffffffffffffffffffffffffff1660008054906101000a900473ffffffffffffffffffffffffffffffffffffffff1673ffffffffffffffffffffffffffffffffffffffff167f8be0079c531659141344cd1fd0a4f28419497f9722a3daafe3b4186f6b6457e060405160405180910390a3806000806101000a81548173ffffffffffffffffffffffffffffffffffffffff021916908373ffffffffffffffffffffffffffffffffffffffff16021790555050565b6000600460008473ffffffffffffffffffffffffffffffffffffffff1673ffffffffffffffffffffffffffffffffffffffff1681526020019081526020016000208260405161208891906126c8565b908152602001604051809103902054905092915050565b600081519050919050565b600082825260208201905092915050565b60005b838110156120d95780820151818401526020810190506120be565b60008484015250505050565b6000601f19601f8301169050919050565b60006121018261209f565b61210b81856120aa565b935061211b8185602086016120bb565b612124816120e5565b840191505092915050565b6000602082019050818103600083015261214981846120f6565b905092915050565b6000604051905090565b600080fd5b600080fd5b600073ffffffffffffffffffffffffffffffffffffffff82169050919050565b600061219082612165565b9050919050565b6121a081612185565b81146121ab57600080fd5b50565b6000813590506121bd81612197565b92915050565b6000602082840312156121d9576121d861215b565b5b60006121e7848285016121ae565b91505092915050565b6000819050919050565b612203816121f0565b82525050565b600060208201905061221e60008301846121fa565b92915050565b600080fd5b600080fd5b7f4e487b7100000000000000000000000000000000000000000000000000000000600052604160045260246000fd5b612266826120e5565b810181811067ffffffffffffffff821117156122855761228461222e565b5b80604052505050565b6000612298612151565b90506122a4828261225d565b919050565b600067ffffffffffffffff8211156122c4576122c361222e565b5b6122cd826120e5565b9050602081019050919050565b82818337600083830152505050565b60006122fc6122f7846122a9565b61228e565b90508281526020810184848401111561231857612317612229565b5b6123238482856122da565b509392505050565b600082601f8301126123405761233f612224565b5b81356123508482602086016122e9565b91505092915050565b600080604083850312156123705761236f61215b565b5b600061237e858286016121ae565b925050602083013567ffffffffffffffff81111561239f5761239e612160565b5b6123ab8582860161232b565b9150509250929050565b6123be816121f0565b81146123c957600080fd5b50565b6000813590506123db816123b5565b92915050565b6000806000606084860312156123fa576123f961215b565b5b6000612408868287016121ae565b935050602084013567ffffffffffffffff81111561242957612428612160565b5b6124358682870161232b565b9250506040612446868287016123cc565b9150509250925092565b60008115159050919050565b61246581612450565b82525050565b6000602082019050612480600083018461245c565b92915050565b600060ff82169050919050565b61249c81612486565b82525050565b60006020820190506124b76000830184612493565b92915050565b600080604083850312156124d4576124d361215b565b5b60006124e2858286016121ae565b92505060206124f3858286016123cc565b9150509250929050565b6000602082840312156125135761251261215b565b5b6000612521848285016123cc565b91505092915050565b600080604083850312156125415761254061215b565b5b600083013567ffffffffffffffff81111561255f5761255e612160565b5b61256b8582860161232b565b925050602061257c858286016123cc565b9150509250929050565b61258f81612185565b82525050565b60006020820190506125aa6000830184612586565b92915050565b60006125bb82612165565b9050919050565b6125cb816125b0565b82525050565b60006020820190506125e660008301846125c2565b92915050565b600080604083850312156126035761260261215b565b5b6000612611858286016123cc565b9250506020612622858286016123cc565b9150509250929050565b7f4e487b7100000000000000000000000000000000000000000000000000000000600052602260045260246000fd5b6000600282049050600182168061267357607f821691505b6020821081036126865761268561262c565b5b50919050565b600081905092915050565b60006126a28261209f565b6126ac818561268c565b93506126bc8185602086016120bb565b80840191505092915050565b60006126d48284612697565b915081905092915050565b7f596f7520617265206e6f7420616c6c6f77656420746f20646f20746869732e00600082015250565b6000612715601f836120aa565b9150612720826126df565b602082019050919050565b6000602082019050818103600083015261274481612708565b9050919050565b7f5a65726f20616464726573732e00000000000000000000000000000000000000600082015250565b6000612781600d836120aa565b915061278c8261274b565b602082019050919050565b600060208201905081810360008301526127b081612774565b9050919050565b7f496e76616c696420616d6f756e74210000000000000000000000000000000000600082015250565b60006127ed600f836120aa565b91506127f8826127b7565b602082019050919050565b6000602082019050818103600083015261281c816127e0565b9050919050565b6000604082019050818103600083015261283d81856120f6565b905061284c60208301846121fa565b9392505050565b7f61646d696e000000000000000000000000000000000000000000000000000000600082015250565b600061288960058361268c565b915061289482612853565b600582019050919050565b60006128aa8261287c565b9150819050919050565b7f4d696e7420746f20746865207a65726f20616464726573732e00000000000000600082015250565b60006128ea6019836120aa565b91506128f5826128b4565b602082019050919050565b60006020820190508181036000830152612919816128dd565b9050919050565b7f4e487b7100000000000000000000000000000000000000000000000000000000600052601160045260246000fd5b600061295a826121f0565b9150612965836121f0565b925082820190508082111561297d5761297c612920565b5b92915050565b600061298e826121f0565b9150612999836121f0565b92508282039050818111156129b1576129b0612920565b5b92915050565b7f596f75206e65656420746f20616374697661746520796f7572206163636f756e60008201527f742e000000000000000000000000000000000000000000000000000000000000602082015250565b6000612a136022836120aa565b9150612a1e826129b7565b604082019050919050565b60006020820190508181036000830152612a4281612a06565b9050919050565b7f496e76616c696420566f6c756d652e2030202d20313030000000000000000000600082015250565b6000612a7f6017836120aa565b9150612a8a82612a49565b602082019050919050565b60006020820190508181036000830152612aae81612a72565b9050919050565b7f7365745f766f6c756d6500000000000000000000000000000000000000000000600082015250565b6000612aeb600a836120aa565b9150612af682612ab5565b602082019050919050565b60006020820190508181036000830152612b1a81612ade565b9050919050565b7f496e76616c69642056616c75652e20546869732069732031206f722030000000600082015250565b6000612b57601d836120aa565b9150612b6282612b21565b602082019050919050565b60006020820190508181036000830152612b8681612b4a565b9050919050565b7f6368616e67655f6e7366775f66696c7465720000000000000000000000000000600082015250565b6000612bc36012836120aa565b9150612bce82612b8d565b602082019050919050565b60006020820190508181036000830152612bf281612bb6565b9050919050565b7f54686973206163636f756e7420697320616c726561647920616374697661746560008201527f642e000000000000000000000000000000000000000000000000000000000000602082015250565b6000612c556022836120aa565b9150612c6082612bf9565b604082019050919050565b60006020820190508181036000830152612c8481612c48565b9050919050565b7f656e61626c650000000000000000000000000000000000000000000000000000600082015250565b6000612cc16006836120aa565b9150612ccc82612c8b565b602082019050919050565b60006020820190508181036000830152612cf081612cb4565b9050919050565b7f596f75206d7573742068617665206174206c65617374203120746f6b656e2e00600082015250565b6000612d2d601f836120aa565b9150612d3882612cf7565b602082019050919050565b60006020820190508181036000830152612d5c81612d20565b9050919050565b7f496e76616c696420436861707465722e00000000000000000000000000000000600082015250565b6000612d996010836120aa565b9150612da482612d63565b602082019050919050565b60006020820190508181036000830152612dc881612d8c565b9050919050565b7f496e76616c69642056616c75652e000000000000000000000000000000000000600082015250565b6000612e05600e836120aa565b9150612e1082612dcf565b602082019050919050565b60006020820190508181036000830152612e3481612df8565b9050919050565b7f696e736572745f626f6f6b6d61726b0000000000000000000000000000000000600082015250565b6000612e71600f836120aa565b9150612e7c82612e3b565b602082019050919050565b60006020820190508181036000830152612ea081612e64565b905091905056fea2646970667358221220bdde66dd867910ac22583384e8c577df771b4902d9a32b9aa369b8abbd4b460564736f6c63430008100033",
					"opcodes": "PUSH1 0x80 PUSH1 0x40 MSTORE CALLVALUE DUP1 ISZERO PUSH3 0x11 JUMPI PUSH1 0x0 DUP1 REVERT JUMPDEST POP CALLER PUSH1 0x0 DUP1 PUSH2 0x100 EXP DUP2 SLOAD DUP2 PUSH20 0xFFFFFFFFFFFFFFFFFFFFFFFFFFFFFFFFFFFFFFFF MUL NOT AND SWAP1 DUP4 PUSH20 0xFFFFFFFFFFFFFFFFFFFFFFFFFFFFFFFFFFFFFFFF AND MUL OR SWAP1 SSTORE POP PUSH1 0x40 MLOAD DUP1 PUSH1 0x40 ADD PUSH1 0x40 MSTORE DUP1 PUSH1 0xC DUP2 MSTORE PUSH1 0x20 ADD PUSH32 0x506F6E79204472696C616E640000000000000000000000000000000000000000 DUP2 MSTORE POP PUSH1 0x8 SWAP1 DUP2 PUSH3 0x98 SWAP2 SWAP1 PUSH3 0x38C JUMP JUMPDEST POP PUSH1 0x40 MLOAD DUP1 PUSH1 0x40 ADD PUSH1 0x40 MSTORE DUP1 PUSH1 0x2 DUP2 MSTORE PUSH1 0x20 ADD PUSH32 0x5044000000000000000000000000000000000000000000000000000000000000 DUP2 MSTORE POP PUSH1 0x9 SWAP1 DUP2 PUSH3 0xDF SWAP2 SWAP1 PUSH3 0x38C JUMP JUMPDEST POP PUSH1 0x3 PUSH1 0xA PUSH1 0x0 PUSH2 0x100 EXP DUP2 SLOAD DUP2 PUSH1 0xFF MUL NOT AND SWAP1 DUP4 PUSH1 0xFF AND MUL OR SWAP1 SSTORE POP PUSH1 0x0 PUSH1 0xB DUP2 SWAP1 SSTORE POP PUSH1 0x0 PUSH1 0xC DUP2 SWAP1 SSTORE POP PUSH3 0x473 JUMP JUMPDEST PUSH1 0x0 DUP2 MLOAD SWAP1 POP SWAP2 SWAP1 POP JUMP JUMPDEST PUSH32 0x4E487B7100000000000000000000000000000000000000000000000000000000 PUSH1 0x0 MSTORE PUSH1 0x41 PUSH1 0x4 MSTORE PUSH1 0x24 PUSH1 0x0 REVERT JUMPDEST PUSH32 0x4E487B7100000000000000000000000000000000000000000000000000000000 PUSH1 0x0 MSTORE PUSH1 0x22 PUSH1 0x4 MSTORE PUSH1 0x24 PUSH1 0x0 REVERT JUMPDEST PUSH1 0x0 PUSH1 0x2 DUP3 DIV SWAP1 POP PUSH1 0x1 DUP3 AND DUP1 PUSH3 0x194 JUMPI PUSH1 0x7F DUP3 AND SWAP2 POP JUMPDEST PUSH1 0x20 DUP3 LT DUP2 SUB PUSH3 0x1AA JUMPI PUSH3 0x1A9 PUSH3 0x14C JUMP JUMPDEST JUMPDEST POP SWAP2 SWAP1 POP JUMP JUMPDEST PUSH1 0x0 DUP2 SWAP1 POP DUP2 PUSH1 0x0 MSTORE PUSH1 0x20 PUSH1 0x0 KECCAK256 SWAP1 POP SWAP2 SWAP1 POP JUMP JUMPDEST PUSH1 0x0 PUSH1 0x20 PUSH1 0x1F DUP4 ADD DIV SWAP1 POP SWAP2 SWAP1 POP JUMP JUMPDEST PUSH1 0x0 DUP3 DUP3 SHL SWAP1 POP SWAP3 SWAP2 POP POP JUMP JUMPDEST PUSH1 0x0 PUSH1 0x8 DUP4 MUL PUSH3 0x214 PUSH32 0xFFFFFFFFFFFFFFFFFFFFFFFFFFFFFFFFFFFFFFFFFFFFFFFFFFFFFFFFFFFFFFFF DUP3 PUSH3 0x1D5 JUMP JUMPDEST PUSH3 0x220 DUP7 DUP4 PUSH3 0x1D5 JUMP JUMPDEST SWAP6 POP DUP1 NOT DUP5 AND SWAP4 POP DUP1 DUP7 AND DUP5 OR SWAP3 POP POP POP SWAP4 SWAP3 POP POP POP JUMP JUMPDEST PUSH1 0x0 DUP2 SWAP1 POP SWAP2 SWAP1 POP JUMP JUMPDEST PUSH1 0x0 DUP2 SWAP1 POP SWAP2 SWAP1 POP JUMP JUMPDEST PUSH1 0x0 PUSH3 0x26D PUSH3 0x267 PUSH3 0x261 DUP5 PUSH3 0x238 JUMP JUMPDEST PUSH3 0x242 JUMP JUMPDEST PUSH3 0x238 JUMP JUMPDEST SWAP1 POP SWAP2 SWAP1 POP JUMP JUMPDEST PUSH1 0x0 DUP2 SWAP1 POP SWAP2 SWAP1 POP JUMP JUMPDEST PUSH3 0x289 DUP4 PUSH3 0x24C JUMP JUMPDEST PUSH3 0x2A1 PUSH3 0x298 DUP3 PUSH3 0x274 JUMP JUMPDEST DUP5 DUP5 SLOAD PUSH3 0x1E2 JUMP JUMPDEST DUP3 SSTORE POP POP POP POP JUMP JUMPDEST PUSH1 0x0 SWAP1 JUMP JUMPDEST PUSH3 0x2B8 PUSH3 0x2A9 JUMP JUMPDEST PUSH3 0x2C5 DUP2 DUP5 DUP5 PUSH3 0x27E JUMP JUMPDEST POP POP POP JUMP JUMPDEST JUMPDEST DUP2 DUP2 LT ISZERO PUSH3 0x2ED JUMPI PUSH3 0x2E1 PUSH1 0x0 DUP3 PUSH3 0x2AE JUMP JUMPDEST PUSH1 0x1 DUP2 ADD SWAP1 POP PUSH3 0x2CB JUMP JUMPDEST POP POP JUMP JUMPDEST PUSH1 0x1F DUP3 GT ISZERO PUSH3 0x33C JUMPI PUSH3 0x306 DUP2 PUSH3 0x1B0 JUMP JUMPDEST PUSH3 0x311 DUP5 PUSH3 0x1C5 JUMP JUMPDEST DUP2 ADD PUSH1 0x20 DUP6 LT ISZERO PUSH3 0x321 JUMPI DUP2 SWAP1 POP JUMPDEST PUSH3 0x339 PUSH3 0x330 DUP6 PUSH3 0x1C5 JUMP JUMPDEST DUP4 ADD DUP3 PUSH3 0x2CA JUMP JUMPDEST POP POP JUMPDEST POP POP POP JUMP JUMPDEST PUSH1 0x0 DUP3 DUP3 SHR SWAP1 POP SWAP3 SWAP2 POP POP JUMP JUMPDEST PUSH1 0x0 PUSH3 0x361 PUSH1 0x0 NOT DUP5 PUSH1 0x8 MUL PUSH3 0x341 JUMP JUMPDEST NOT DUP1 DUP4 AND SWAP2 POP POP SWAP3 SWAP2 POP POP JUMP JUMPDEST PUSH1 0x0 PUSH3 0x37C DUP4 DUP4 PUSH3 0x34E JUMP JUMPDEST SWAP2 POP DUP3 PUSH1 0x2 MUL DUP3 OR SWAP1 POP SWAP3 SWAP2 POP POP JUMP JUMPDEST PUSH3 0x397 DUP3 PUSH3 0x112 JUMP JUMPDEST PUSH8 0xFFFFFFFFFFFFFFFF DUP2 GT ISZERO PUSH3 0x3B3 JUMPI PUSH3 0x3B2 PUSH3 0x11D JUMP JUMPDEST JUMPDEST PUSH3 0x3BF DUP3 SLOAD PUSH3 0x17B JUMP JUMPDEST PUSH3 0x3CC DUP3 DUP3 DUP6 PUSH3 0x2F1 JUMP JUMPDEST PUSH1 0x0 PUSH1 0x20 SWAP1 POP PUSH1 0x1F DUP4 GT PUSH1 0x1 DUP2 EQ PUSH3 0x404 JUMPI PUSH1 0x0 DUP5 ISZERO PUSH3 0x3EF JUMPI DUP3 DUP8 ADD MLOAD SWAP1 POP JUMPDEST PUSH3 0x3FB DUP6 DUP3 PUSH3 0x36E JUMP JUMPDEST DUP7 SSTORE POP PUSH3 0x46B JUMP JUMPDEST PUSH1 0x1F NOT DUP5 AND PUSH3 0x414 DUP7 PUSH3 0x1B0 JUMP JUMPDEST PUSH1 0x0 JUMPDEST DUP3 DUP2 LT ISZERO PUSH3 0x43E JUMPI DUP5 DUP10 ADD MLOAD DUP3 SSTORE PUSH1 0x1 DUP3 ADD SWAP2 POP PUSH1 0x20 DUP6 ADD SWAP5 POP PUSH1 0x20 DUP2 ADD SWAP1 POP PUSH3 0x417 JUMP JUMPDEST DUP7 DUP4 LT ISZERO PUSH3 0x45E JUMPI DUP5 DUP10 ADD MLOAD PUSH3 0x45A PUSH1 0x1F DUP10 AND DUP3 PUSH3 0x34E JUMP JUMPDEST DUP4 SSTORE POP JUMPDEST PUSH1 0x1 PUSH1 0x2 DUP9 MUL ADD DUP9 SSTORE POP POP POP JUMPDEST POP POP POP POP POP POP JUMP JUMPDEST PUSH2 0x2EDD DUP1 PUSH3 0x483 PUSH1 0x0 CODECOPY PUSH1 0x0 RETURN INVALID PUSH1 0x80 PUSH1 0x40 MSTORE PUSH1 0x4 CALLDATASIZE LT PUSH2 0x1C2 JUMPI PUSH1 0x0 CALLDATALOAD PUSH1 0xE0 SHR DUP1 PUSH4 0x8BA17F86 GT PUSH2 0xF7 JUMPI DUP1 PUSH4 0xA9059CBB GT PUSH2 0x95 JUMPI DUP1 PUSH4 0xED88C68E GT PUSH2 0x64 JUMPI DUP1 PUSH4 0xED88C68E EQ PUSH2 0x72C JUMPI DUP1 PUSH4 0xEDC84DA0 EQ PUSH2 0x74A JUMPI DUP1 PUSH4 0xF2FDE38B EQ PUSH2 0x787 JUMPI DUP1 PUSH4 0xF41E7222 EQ PUSH2 0x7B0 JUMPI PUSH2 0x1C2 JUMP JUMPDEST DUP1 PUSH4 0xA9059CBB EQ PUSH2 0x638 JUMPI DUP1 PUSH4 0xADEABBA9 EQ PUSH2 0x675 JUMPI DUP1 PUSH4 0xB943CD16 EQ PUSH2 0x6B2 JUMPI DUP1 PUSH4 0xCC6CB19A EQ PUSH2 0x6EF JUMPI PUSH2 0x1C2 JUMP JUMPDEST DUP1 PUSH4 0x9A3D66C0 GT PUSH2 0xD1 JUMPI DUP1 PUSH4 0x9A3D66C0 EQ PUSH2 0x568 JUMPI DUP1 PUSH4 0x9C6950A1 EQ PUSH2 0x5A5 JUMPI DUP1 PUSH4 0xA3907D71 EQ PUSH2 0x5E2 JUMPI DUP1 PUSH4 0xA843651E EQ PUSH2 0x60D JUMPI PUSH2 0x1C2 JUMP JUMPDEST DUP1 PUSH4 0x8BA17F86 EQ PUSH2 0x4D5 JUMPI DUP1 PUSH4 0x8DA5CB5B EQ PUSH2 0x512 JUMPI DUP1 PUSH4 0x95D89B41 EQ PUSH2 0x53D JUMPI PUSH2 0x1C2 JUMP JUMPDEST DUP1 PUSH4 0x40C10F19 GT PUSH2 0x164 JUMPI DUP1 PUSH4 0x481DCB7B GT PUSH2 0x13E JUMPI DUP1 PUSH4 0x481DCB7B EQ PUSH2 0x3F3 JUMPI DUP1 PUSH4 0x70734FB2 EQ PUSH2 0x430 JUMPI DUP1 PUSH4 0x70A08231 EQ PUSH2 0x46D JUMPI DUP1 PUSH4 0x893D20E8 EQ PUSH2 0x4AA JUMPI PUSH2 0x1C2 JUMP JUMPDEST DUP1 PUSH4 0x40C10F19 EQ PUSH2 0x33C JUMPI DUP1 PUSH4 0x42966C68 EQ PUSH2 0x379 JUMPI DUP1 PUSH4 0x4559DCDC EQ PUSH2 0x3B6 JUMPI PUSH2 0x1C2 JUMP JUMPDEST DUP1 PUSH4 0x18160DDD GT PUSH2 0x1A0 JUMPI DUP1 PUSH4 0x18160DDD EQ PUSH2 0x26C JUMPI DUP1 PUSH4 0x18835C2A EQ PUSH2 0x297 JUMPI DUP1 PUSH4 0x27E235E3 EQ PUSH2 0x2D4 JUMPI DUP1 PUSH4 0x313CE567 EQ PUSH2 0x311 JUMPI PUSH2 0x1C2 JUMP JUMPDEST DUP1 PUSH4 0x6FDDE03 EQ PUSH2 0x1C7 JUMPI DUP1 PUSH4 0x8A6F252 EQ PUSH2 0x1F2 JUMPI DUP1 PUSH4 0xDB17965 EQ PUSH2 0x22F JUMPI JUMPDEST PUSH1 0x0 DUP1 REVERT JUMPDEST CALLVALUE DUP1 ISZERO PUSH2 0x1D3 JUMPI PUSH1 0x0 DUP1 REVERT JUMPDEST POP PUSH2 0x1DC PUSH2 0x7ED JUMP JUMPDEST PUSH1 0x40 MLOAD PUSH2 0x1E9 SWAP2 SWAP1 PUSH2 0x212F JUMP JUMPDEST PUSH1 0x40 MLOAD DUP1 SWAP2 SUB SWAP1 RETURN JUMPDEST CALLVALUE DUP1 ISZERO PUSH2 0x1FE JUMPI PUSH1 0x0 DUP1 REVERT JUMPDEST POP PUSH2 0x219 PUSH1 0x4 DUP1 CALLDATASIZE SUB DUP2 ADD SWAP1 PUSH2 0x214 SWAP2 SWAP1 PUSH2 0x21C3 JUMP JUMPDEST PUSH2 0x87B JUMP JUMPDEST PUSH1 0x40 MLOAD PUSH2 0x226 SWAP2 SWAP1 PUSH2 0x2209 JUMP JUMPDEST PUSH1 0x40 MLOAD DUP1 SWAP2 SUB SWAP1 RETURN JUMPDEST CALLVALUE DUP1 ISZERO PUSH2 0x23B JUMPI PUSH1 0x0 DUP1 REVERT JUMPDEST POP PUSH2 0x256 PUSH1 0x4 DUP1 CALLDATASIZE SUB DUP2 ADD SWAP1 PUSH2 0x251 SWAP2 SWAP1 PUSH2 0x2359 JUMP JUMPDEST PUSH2 0x893 JUMP JUMPDEST PUSH1 0x40 MLOAD PUSH2 0x263 SWAP2 SWAP1 PUSH2 0x2209 JUMP JUMPDEST PUSH1 0x40 MLOAD DUP1 SWAP2 SUB SWAP1 RETURN JUMPDEST CALLVALUE DUP1 ISZERO PUSH2 0x278 JUMPI PUSH1 0x0 DUP1 REVERT JUMPDEST POP PUSH2 0x281 PUSH2 0x8F9 JUMP JUMPDEST PUSH1 0x40 MLOAD PUSH2 0x28E SWAP2 SWAP1 PUSH2 0x2209 JUMP JUMPDEST PUSH1 0x40 MLOAD DUP1 SWAP2 SUB SWAP1 RETURN JUMPDEST CALLVALUE DUP1 ISZERO PUSH2 0x2A3 JUMPI PUSH1 0x0 DUP1 REVERT JUMPDEST POP PUSH2 0x2BE PUSH1 0x4 DUP1 CALLDATASIZE SUB DUP2 ADD SWAP1 PUSH2 0x2B9 SWAP2 SWAP1 PUSH2 0x23E1 JUMP JUMPDEST PUSH2 0x8FF JUMP JUMPDEST PUSH1 0x40 MLOAD PUSH2 0x2CB SWAP2 SWAP1 PUSH2 0x246B JUMP JUMPDEST PUSH1 0x40 MLOAD DUP1 SWAP2 SUB SWAP1 RETURN JUMPDEST CALLVALUE DUP1 ISZERO PUSH2 0x2E0 JUMPI PUSH1 0x0 DUP1 REVERT JUMPDEST POP PUSH2 0x2FB PUSH1 0x4 DUP1 CALLDATASIZE SUB DUP2 ADD SWAP1 PUSH2 0x2F6 SWAP2 SWAP1 PUSH2 0x21C3 JUMP JUMPDEST PUSH2 0xB15 JUMP JUMPDEST PUSH1 0x40 MLOAD PUSH2 0x308 SWAP2 SWAP1 PUSH2 0x2209 JUMP JUMPDEST PUSH1 0x40 MLOAD DUP1 SWAP2 SUB SWAP1 RETURN JUMPDEST CALLVALUE DUP1 ISZERO PUSH2 0x31D JUMPI PUSH1 0x0 DUP1 REVERT JUMPDEST POP PUSH2 0x326 PUSH2 0xB2D JUMP JUMPDEST PUSH1 0x40 MLOAD PUSH2 0x333 SWAP2 SWAP1 PUSH2 0x24A2 JUMP JUMPDEST PUSH1 0x40 MLOAD DUP1 SWAP2 SUB SWAP1 RETURN JUMPDEST CALLVALUE DUP1 ISZERO PUSH2 0x348 JUMPI PUSH1 0x0 DUP1 REVERT JUMPDEST POP PUSH2 0x363 PUSH1 0x4 DUP1 CALLDATASIZE SUB DUP2 ADD SWAP1 PUSH2 0x35E SWAP2 SWAP1 PUSH2 0x24BD JUMP JUMPDEST PUSH2 0xB40 JUMP JUMPDEST PUSH1 0x40 MLOAD PUSH2 0x370 SWAP2 SWAP1 PUSH2 0x246B JUMP JUMPDEST PUSH1 0x40 MLOAD DUP1 SWAP2 SUB SWAP1 RETURN JUMPDEST CALLVALUE DUP1 ISZERO PUSH2 0x385 JUMPI PUSH1 0x0 DUP1 REVERT JUMPDEST POP PUSH2 0x3A0 PUSH1 0x4 DUP1 CALLDATASIZE SUB DUP2 ADD SWAP1 PUSH2 0x39B SWAP2 SWAP1 PUSH2 0x24FD JUMP JUMPDEST PUSH2 0xDA2 JUMP JUMPDEST PUSH1 0x40 MLOAD PUSH2 0x3AD SWAP2 SWAP1 PUSH2 0x246B JUMP JUMPDEST PUSH1 0x40 MLOAD DUP1 SWAP2 SUB SWAP1 RETURN JUMPDEST CALLVALUE DUP1 ISZERO PUSH2 0x3C2 JUMPI PUSH1 0x0 DUP1 REVERT JUMPDEST POP PUSH2 0x3DD PUSH1 0x4 DUP1 CALLDATASIZE SUB DUP2 ADD SWAP1 PUSH2 0x3D8 SWAP2 SWAP1 PUSH2 0x24FD JUMP JUMPDEST PUSH2 0xFFF JUMP JUMPDEST PUSH1 0x40 MLOAD PUSH2 0x3EA SWAP2 SWAP1 PUSH2 0x246B JUMP JUMPDEST PUSH1 0x40 MLOAD DUP1 SWAP2 SUB SWAP1 RETURN JUMPDEST CALLVALUE DUP1 ISZERO PUSH2 0x3FF JUMPI PUSH1 0x0 DUP1 REVERT JUMPDEST POP PUSH2 0x41A PUSH1 0x4 DUP1 CALLDATASIZE SUB DUP2 ADD SWAP1 PUSH2 0x415 SWAP2 SWAP1 PUSH2 0x252A JUMP JUMPDEST PUSH2 0x1248 JUMP JUMPDEST PUSH1 0x40 MLOAD PUSH2 0x427 SWAP2 SWAP1 PUSH2 0x246B JUMP JUMPDEST PUSH1 0x40 MLOAD DUP1 SWAP2 SUB SWAP1 RETURN JUMPDEST CALLVALUE DUP1 ISZERO PUSH2 0x43C JUMPI PUSH1 0x0 DUP1 REVERT JUMPDEST POP PUSH2 0x457 PUSH1 0x4 DUP1 CALLDATASIZE SUB DUP2 ADD SWAP1 PUSH2 0x452 SWAP2 SWAP1 PUSH2 0x2359 JUMP JUMPDEST PUSH2 0x14AE JUMP JUMPDEST PUSH1 0x40 MLOAD PUSH2 0x464 SWAP2 SWAP1 PUSH2 0x2209 JUMP JUMPDEST PUSH1 0x40 MLOAD DUP1 SWAP2 SUB SWAP1 RETURN JUMPDEST CALLVALUE DUP1 ISZERO PUSH2 0x479 JUMPI PUSH1 0x0 DUP1 REVERT JUMPDEST POP PUSH2 0x494 PUSH1 0x4 DUP1 CALLDATASIZE SUB DUP2 ADD SWAP1 PUSH2 0x48F SWAP2 SWAP1 PUSH2 0x21C3 JUMP JUMPDEST PUSH2 0x14E9 JUMP JUMPDEST PUSH1 0x40 MLOAD PUSH2 0x4A1 SWAP2 SWAP1 PUSH2 0x2209 JUMP JUMPDEST PUSH1 0x40 MLOAD DUP1 SWAP2 SUB SWAP1 RETURN JUMPDEST CALLVALUE DUP1 ISZERO PUSH2 0x4B6 JUMPI PUSH1 0x0 DUP1 REVERT JUMPDEST POP PUSH2 0x4BF PUSH2 0x1532 JUMP JUMPDEST PUSH1 0x40 MLOAD PUSH2 0x4CC SWAP2 SWAP1 PUSH2 0x2595 JUMP JUMPDEST PUSH1 0x40 MLOAD DUP1 SWAP2 SUB SWAP1 RETURN JUMPDEST CALLVALUE DUP1 ISZERO PUSH2 0x4E1 JUMPI PUSH1 0x0 DUP1 REVERT JUMPDEST POP PUSH2 0x4FC PUSH1 0x4 DUP1 CALLDATASIZE SUB DUP2 ADD SWAP1 PUSH2 0x4F7 SWAP2 SWAP1 PUSH2 0x21C3 JUMP JUMPDEST PUSH2 0x155B JUMP JUMPDEST PUSH1 0x40 MLOAD PUSH2 0x509 SWAP2 SWAP1 PUSH2 0x2209 JUMP JUMPDEST PUSH1 0x40 MLOAD DUP1 SWAP2 SUB SWAP1 RETURN JUMPDEST CALLVALUE DUP1 ISZERO PUSH2 0x51E JUMPI PUSH1 0x0 DUP1 REVERT JUMPDEST POP PUSH2 0x527 PUSH2 0x15A4 JUMP JUMPDEST PUSH1 0x40 MLOAD PUSH2 0x534 SWAP2 SWAP1 PUSH2 0x25D1 JUMP JUMPDEST PUSH1 0x40 MLOAD DUP1 SWAP2 SUB SWAP1 RETURN JUMPDEST CALLVALUE DUP1 ISZERO PUSH2 0x549 JUMPI PUSH1 0x0 DUP1 REVERT JUMPDEST POP PUSH2 0x552 PUSH2 0x15C8 JUMP JUMPDEST PUSH1 0x40 MLOAD PUSH2 0x55F SWAP2 SWAP1 PUSH2 0x212F JUMP JUMPDEST PUSH1 0x40 MLOAD DUP1 SWAP2 SUB SWAP1 RETURN JUMPDEST CALLVALUE DUP1 ISZERO PUSH2 0x574 JUMPI PUSH1 0x0 DUP1 REVERT JUMPDEST POP PUSH2 0x58F PUSH1 0x4 DUP1 CALLDATASIZE SUB DUP2 ADD SWAP1 PUSH2 0x58A SWAP2 SWAP1 PUSH2 0x24BD JUMP JUMPDEST PUSH2 0x1656 JUMP JUMPDEST PUSH1 0x40 MLOAD PUSH2 0x59C SWAP2 SWAP1 PUSH2 0x2209 JUMP JUMPDEST PUSH1 0x40 MLOAD DUP1 SWAP2 SUB SWAP1 RETURN JUMPDEST CALLVALUE DUP1 ISZERO PUSH2 0x5B1 JUMPI PUSH1 0x0 DUP1 REVERT JUMPDEST POP PUSH2 0x5CC PUSH1 0x4 DUP1 CALLDATASIZE SUB DUP2 ADD SWAP1 PUSH2 0x5C7 SWAP2 SWAP1 PUSH2 0x24BD JUMP JUMPDEST PUSH2 0x16B1 JUMP JUMPDEST PUSH1 0x40 MLOAD PUSH2 0x5D9 SWAP2 SWAP1 PUSH2 0x2209 JUMP JUMPDEST PUSH1 0x40 MLOAD DUP1 SWAP2 SUB SWAP1 RETURN JUMPDEST CALLVALUE DUP1 ISZERO PUSH2 0x5EE JUMPI PUSH1 0x0 DUP1 REVERT JUMPDEST POP PUSH2 0x5F7 PUSH2 0x16D6 JUMP JUMPDEST PUSH1 0x40 MLOAD PUSH2 0x604 SWAP2 SWAP1 PUSH2 0x246B JUMP JUMPDEST PUSH1 0x40 MLOAD DUP1 SWAP2 SUB SWAP1 RETURN JUMPDEST CALLVALUE DUP1 ISZERO PUSH2 0x619 JUMPI PUSH1 0x0 DUP1 REVERT JUMPDEST POP PUSH2 0x622 PUSH2 0x1893 JUMP JUMPDEST PUSH1 0x40 MLOAD PUSH2 0x62F SWAP2 SWAP1 PUSH2 0x2209 JUMP JUMPDEST PUSH1 0x40 MLOAD DUP1 SWAP2 SUB SWAP1 RETURN JUMPDEST CALLVALUE DUP1 ISZERO PUSH2 0x644 JUMPI PUSH1 0x0 DUP1 REVERT JUMPDEST POP PUSH2 0x65F PUSH1 0x4 DUP1 CALLDATASIZE SUB DUP2 ADD SWAP1 PUSH2 0x65A SWAP2 SWAP1 PUSH2 0x24BD JUMP JUMPDEST PUSH2 0x1899 JUMP JUMPDEST PUSH1 0x40 MLOAD PUSH2 0x66C SWAP2 SWAP1 PUSH2 0x246B JUMP JUMPDEST PUSH1 0x40 MLOAD DUP1 SWAP2 SUB SWAP1 RETURN JUMPDEST CALLVALUE DUP1 ISZERO PUSH2 0x681 JUMPI PUSH1 0x0 DUP1 REVERT JUMPDEST POP PUSH2 0x69C PUSH1 0x4 DUP1 CALLDATASIZE SUB DUP2 ADD SWAP1 PUSH2 0x697 SWAP2 SWAP1 PUSH2 0x21C3 JUMP JUMPDEST PUSH2 0x1B2A JUMP JUMPDEST PUSH1 0x40 MLOAD PUSH2 0x6A9 SWAP2 SWAP1 PUSH2 0x2209 JUMP JUMPDEST PUSH1 0x40 MLOAD DUP1 SWAP2 SUB SWAP1 RETURN JUMPDEST CALLVALUE DUP1 ISZERO PUSH2 0x6BE JUMPI PUSH1 0x0 DUP1 REVERT JUMPDEST POP PUSH2 0x6D9 PUSH1 0x4 DUP1 CALLDATASIZE SUB DUP2 ADD SWAP1 PUSH2 0x6D4 SWAP2 SWAP1 PUSH2 0x2359 JUMP JUMPDEST PUSH2 0x1B42 JUMP JUMPDEST PUSH1 0x40 MLOAD PUSH2 0x6E6 SWAP2 SWAP1 PUSH2 0x2209 JUMP JUMPDEST PUSH1 0x40 MLOAD DUP1 SWAP2 SUB SWAP1 RETURN JUMPDEST CALLVALUE DUP1 ISZERO PUSH2 0x6FB JUMPI PUSH1 0x0 DUP1 REVERT JUMPDEST POP PUSH2 0x716 PUSH1 0x4 DUP1 CALLDATASIZE SUB DUP2 ADD SWAP1 PUSH2 0x711 SWAP2 SWAP1 PUSH2 0x21C3 JUMP JUMPDEST PUSH2 0x1B7D JUMP JUMPDEST PUSH1 0x40 MLOAD PUSH2 0x723 SWAP2 SWAP1 PUSH2 0x2209 JUMP JUMPDEST PUSH1 0x40 MLOAD DUP1 SWAP2 SUB SWAP1 RETURN JUMPDEST PUSH2 0x734 PUSH2 0x1B95 JUMP JUMPDEST PUSH1 0x40 MLOAD PUSH2 0x741 SWAP2 SWAP1 PUSH2 0x246B JUMP JUMPDEST PUSH1 0x40 MLOAD DUP1 SWAP2 SUB SWAP1 RETURN JUMPDEST CALLVALUE DUP1 ISZERO PUSH2 0x756 JUMPI PUSH1 0x0 DUP1 REVERT JUMPDEST POP PUSH2 0x771 PUSH1 0x4 DUP1 CALLDATASIZE SUB DUP2 ADD SWAP1 PUSH2 0x76C SWAP2 SWAP1 PUSH2 0x25EC JUMP JUMPDEST PUSH2 0x1C93 JUMP JUMPDEST PUSH1 0x40 MLOAD PUSH2 0x77E SWAP2 SWAP1 PUSH2 0x246B JUMP JUMPDEST PUSH1 0x40 MLOAD DUP1 SWAP2 SUB SWAP1 RETURN JUMPDEST CALLVALUE DUP1 ISZERO PUSH2 0x793 JUMPI PUSH1 0x0 DUP1 REVERT JUMPDEST POP PUSH2 0x7AE PUSH1 0x4 DUP1 CALLDATASIZE SUB DUP2 ADD SWAP1 PUSH2 0x7A9 SWAP2 SWAP1 PUSH2 0x21C3 JUMP JUMPDEST PUSH2 0x1EEE JUMP JUMPDEST STOP JUMPDEST CALLVALUE DUP1 ISZERO PUSH2 0x7BC JUMPI PUSH1 0x0 DUP1 REVERT JUMPDEST POP PUSH2 0x7D7 PUSH1 0x4 DUP1 CALLDATASIZE SUB DUP2 ADD SWAP1 PUSH2 0x7D2 SWAP2 SWAP1 PUSH2 0x2359 JUMP JUMPDEST PUSH2 0x2039 JUMP JUMPDEST PUSH1 0x40 MLOAD PUSH2 0x7E4 SWAP2 SWAP1 PUSH2 0x2209 JUMP JUMPDEST PUSH1 0x40 MLOAD DUP1 SWAP2 SUB SWAP1 RETURN JUMPDEST PUSH1 0x8 DUP1 SLOAD PUSH2 0x7FA SWAP1 PUSH2 0x265B JUMP JUMPDEST DUP1 PUSH1 0x1F ADD PUSH1 0x20 DUP1 SWAP2 DIV MUL PUSH1 0x20 ADD PUSH1 0x40 MLOAD SWAP1 DUP2 ADD PUSH1 0x40 MSTORE DUP1 SWAP3 SWAP2 SWAP1 DUP2 DUP2 MSTORE PUSH1 0x20 ADD DUP3 DUP1 SLOAD PUSH2 0x826 SWAP1 PUSH2 0x265B JUMP JUMPDEST DUP1 ISZERO PUSH2 0x873 JUMPI DUP1 PUSH1 0x1F LT PUSH2 0x848 JUMPI PUSH2 0x100 DUP1 DUP4 SLOAD DIV MUL DUP4 MSTORE SWAP2 PUSH1 0x20 ADD SWAP2 PUSH2 0x873 JUMP JUMPDEST DUP3 ADD SWAP2 SWAP1 PUSH1 0x0 MSTORE PUSH1 0x20 PUSH1 0x0 KECCAK256 SWAP1 JUMPDEST DUP2 SLOAD DUP2 MSTORE SWAP1 PUSH1 0x1 ADD SWAP1 PUSH1 0x20 ADD DUP1 DUP4 GT PUSH2 0x856 JUMPI DUP3 SWAP1 SUB PUSH1 0x1F AND DUP3 ADD SWAP2 JUMPDEST POP POP POP POP POP DUP2 JUMP JUMPDEST PUSH1 0x3 PUSH1 0x20 MSTORE DUP1 PUSH1 0x0 MSTORE PUSH1 0x40 PUSH1 0x0 KECCAK256 PUSH1 0x0 SWAP2 POP SWAP1 POP SLOAD DUP2 JUMP JUMPDEST PUSH1 0x0 PUSH1 0x6 PUSH1 0x0 DUP5 PUSH20 0xFFFFFFFFFFFFFFFFFFFFFFFFFFFFFFFFFFFFFFFF AND PUSH20 0xFFFFFFFFFFFFFFFFFFFFFFFFFFFFFFFFFFFFFFFF AND DUP2 MSTORE PUSH1 0x20 ADD SWAP1 DUP2 MSTORE PUSH1 0x20 ADD PUSH1 0x0 KECCAK256 DUP3 PUSH1 0x40 MLOAD PUSH2 0x8E2 SWAP2 SWAP1 PUSH2 0x26C8 JUMP JUMPDEST SWAP1 DUP2 MSTORE PUSH1 0x20 ADD PUSH1 0x40 MLOAD DUP1 SWAP2 SUB SWAP1 KECCAK256 SLOAD SWAP1 POP SWAP3 SWAP2 POP POP JUMP JUMPDEST PUSH1 0xB SLOAD DUP2 JUMP JUMPDEST PUSH1 0x0 DUP1 PUSH1 0x0 SWAP1 SLOAD SWAP1 PUSH2 0x100 EXP SWAP1 DIV PUSH20 0xFFFFFFFFFFFFFFFFFFFFFFFFFFFFFFFFFFFFFFFF AND PUSH20 0xFFFFFFFFFFFFFFFFFFFFFFFFFFFFFFFFFFFFFFFF AND CALLER PUSH20 0xFFFFFFFFFFFFFFFFFFFFFFFFFFFFFFFFFFFFFFFF AND EQ PUSH2 0x990 JUMPI PUSH1 0x40 MLOAD PUSH32 0x8C379A000000000000000000000000000000000000000000000000000000000 DUP2 MSTORE PUSH1 0x4 ADD PUSH2 0x987 SWAP1 PUSH2 0x272B JUMP JUMPDEST PUSH1 0x40 MLOAD DUP1 SWAP2 SUB SWAP1 REVERT JUMPDEST PUSH1 0x0 PUSH20 0xFFFFFFFFFFFFFFFFFFFFFFFFFFFFFFFFFFFFFFFF AND DUP5 PUSH20 0xFFFFFFFFFFFFFFFFFFFFFFFFFFFFFFFFFFFFFFFF AND SUB PUSH2 0x9FF JUMPI PUSH1 0x40 MLOAD PUSH32 0x8C379A000000000000000000000000000000000000000000000000000000000 DUP2 MSTORE PUSH1 0x4 ADD PUSH2 0x9F6 SWAP1 PUSH2 0x2797 JUMP JUMPDEST PUSH1 0x40 MLOAD DUP1 SWAP2 SUB SWAP1 REVERT JUMPDEST PUSH1 0x0 DUP3 LT ISZERO PUSH2 0xA43 JUMPI PUSH1 0x40 MLOAD PUSH32 0x8C379A000000000000000000000000000000000000000000000000000000000 DUP2 MSTORE PUSH1 0x4 ADD PUSH2 0xA3A SWAP1 PUSH2 0x2803 JUMP JUMPDEST PUSH1 0x40 MLOAD DUP1 SWAP2 SUB SWAP1 REVERT JUMPDEST DUP2 PUSH1 0x4 PUSH1 0x0 DUP7 PUSH20 0xFFFFFFFFFFFFFFFFFFFFFFFFFFFFFFFFFFFFFFFF AND PUSH20 0xFFFFFFFFFFFFFFFFFFFFFFFFFFFFFFFFFFFFFFFF AND DUP2 MSTORE PUSH1 0x20 ADD SWAP1 DUP2 MSTORE PUSH1 0x20 ADD PUSH1 0x0 KECCAK256 DUP5 PUSH1 0x40 MLOAD PUSH2 0xA91 SWAP2 SWAP1 PUSH2 0x26C8 JUMP JUMPDEST SWAP1 DUP2 MSTORE PUSH1 0x20 ADD PUSH1 0x40 MLOAD DUP1 SWAP2 SUB SWAP1 KECCAK256 DUP2 SWAP1 SSTORE POP DUP4 PUSH20 0xFFFFFFFFFFFFFFFFFFFFFFFFFFFFFFFFFFFFFFFF AND CALLER PUSH20 0xFFFFFFFFFFFFFFFFFFFFFFFFFFFFFFFFFFFFFFFF AND PUSH32 0xDD5E174B0234E3AA867220959585ED4060EAB789CEA697D562B60B0731F54AF8 DUP6 DUP6 PUSH1 0x40 MLOAD PUSH2 0xB02 SWAP3 SWAP2 SWAP1 PUSH2 0x2823 JUMP JUMPDEST PUSH1 0x40 MLOAD DUP1 SWAP2 SUB SWAP1 LOG3 PUSH1 0x1 SWAP1 POP SWAP4 SWAP3 POP POP POP JUMP JUMPDEST PUSH1 0x1 PUSH1 0x20 MSTORE DUP1 PUSH1 0x0 MSTORE PUSH1 0x40 PUSH1 0x0 KECCAK256 PUSH1 0x0 SWAP2 POP SWAP1 POP SLOAD DUP2 JUMP JUMPDEST PUSH1 0xA PUSH1 0x0 SWAP1 SLOAD SWAP1 PUSH2 0x100 EXP SWAP1 DIV PUSH1 0xFF AND DUP2 JUMP JUMPDEST PUSH1 0x0 PUSH1 0x1 PUSH1 0x4 PUSH1 0x0 CALLER PUSH20 0xFFFFFFFFFFFFFFFFFFFFFFFFFFFFFFFFFFFFFFFF AND PUSH20 0xFFFFFFFFFFFFFFFFFFFFFFFFFFFFFFFFFFFFFFFF AND DUP2 MSTORE PUSH1 0x20 ADD SWAP1 DUP2 MSTORE PUSH1 0x20 ADD PUSH1 0x0 KECCAK256 PUSH1 0x40 MLOAD PUSH2 0xB8F SWAP1 PUSH2 0x289F JUMP JUMPDEST SWAP1 DUP2 MSTORE PUSH1 0x20 ADD PUSH1 0x40 MLOAD DUP1 SWAP2 SUB SWAP1 KECCAK256 SLOAD EQ PUSH2 0xBDE JUMPI PUSH1 0x40 MLOAD PUSH32 0x8C379A000000000000000000000000000000000000000000000000000000000 DUP2 MSTORE PUSH1 0x4 ADD PUSH2 0xBD5 SWAP1 PUSH2 0x272B JUMP JUMPDEST PUSH1 0x40 MLOAD DUP1 SWAP2 SUB SWAP1 REVERT JUMPDEST PUSH1 0x0 PUSH20 0xFFFFFFFFFFFFFFFFFFFFFFFFFFFFFFFFFFFFFFFF AND DUP4 PUSH20 0xFFFFFFFFFFFFFFFFFFFFFFFFFFFFFFFFFFFFFFFF AND SUB PUSH2 0xC4D JUMPI PUSH1 0x40 MLOAD PUSH32 0x8C379A000000000000000000000000000000000000000000000000000000000 DUP2 MSTORE PUSH1 0x4 ADD PUSH2 0xC44 SWAP1 PUSH2 0x2900 JUMP JUMPDEST PUSH1 0x40 MLOAD DUP1 SWAP2 SUB SWAP1 REVERT JUMPDEST PUSH1 0x0 DUP3 LT ISZERO PUSH2 0xC91 JUMPI PUSH1 0x40 MLOAD PUSH32 0x8C379A000000000000000000000000000000000000000000000000000000000 DUP2 MSTORE PUSH1 0x4 ADD PUSH2 0xC88 SWAP1 PUSH2 0x2803 JUMP JUMPDEST PUSH1 0x40 MLOAD DUP1 SWAP2 SUB SWAP1 REVERT JUMPDEST DUP2 PUSH1 0x1 PUSH1 0x0 DUP6 PUSH20 0xFFFFFFFFFFFFFFFFFFFFFFFFFFFFFFFFFFFFFFFF AND PUSH20 0xFFFFFFFFFFFFFFFFFFFFFFFFFFFFFFFFFFFFFFFF AND DUP2 MSTORE PUSH1 0x20 ADD SWAP1 DUP2 MSTORE PUSH1 0x20 ADD PUSH1 0x0 KECCAK256 SLOAD PUSH2 0xCDC SWAP2 SWAP1 PUSH2 0x294F JUMP JUMPDEST PUSH1 0x1 PUSH1 0x0 DUP6 PUSH20 0xFFFFFFFFFFFFFFFFFFFFFFFFFFFFFFFFFFFFFFFF AND PUSH20 0xFFFFFFFFFFFFFFFFFFFFFFFFFFFFFFFFFFFFFFFF AND DUP2 MSTORE PUSH1 0x20 ADD SWAP1 DUP2 MSTORE PUSH1 0x20 ADD PUSH1 0x0 KECCAK256 DUP2 SWAP1 SSTORE POP DUP2 PUSH1 0xB SLOAD PUSH2 0xD2D SWAP2 SWAP1 PUSH2 0x294F JUMP JUMPDEST PUSH1 0xB DUP2 SWAP1 SSTORE POP DUP3 PUSH20 0xFFFFFFFFFFFFFFFFFFFFFFFFFFFFFFFFFFFFFFFF AND CALLER PUSH20 0xFFFFFFFFFFFFFFFFFFFFFFFFFFFFFFFFFFFFFFFF AND PUSH32 0xAB8530F87DC9B59234C4623BF917212BB2536D647574C8E7E5DA92C2EDE0C9F8 DUP5 PUSH1 0x40 MLOAD PUSH2 0xD90 SWAP2 SWAP1 PUSH2 0x2209 JUMP JUMPDEST PUSH1 0x40 MLOAD DUP1 SWAP2 SUB SWAP1 LOG3 PUSH1 0x1 SWAP1 POP SWAP3 SWAP2 POP POP JUMP JUMPDEST PUSH1 0x0 PUSH1 0x1 PUSH1 0x4 PUSH1 0x0 CALLER PUSH20 0xFFFFFFFFFFFFFFFFFFFFFFFFFFFFFFFFFFFFFFFF AND PUSH20 0xFFFFFFFFFFFFFFFFFFFFFFFFFFFFFFFFFFFFFFFF AND DUP2 MSTORE PUSH1 0x20 ADD SWAP1 DUP2 MSTORE PUSH1 0x20 ADD PUSH1 0x0 KECCAK256 PUSH1 0x40 MLOAD PUSH2 0xDF1 SWAP1 PUSH2 0x289F JUMP JUMPDEST SWAP1 DUP2 MSTORE PUSH1 0x20 ADD PUSH1 0x40 MLOAD DUP1 SWAP2 SUB SWAP1 KECCAK256 SLOAD EQ PUSH2 0xE40 JUMPI PUSH1 0x40 MLOAD PUSH32 0x8C379A000000000000000000000000000000000000000000000000000000000 DUP2 MSTORE PUSH1 0x4 ADD PUSH2 0xE37 SWAP1 PUSH2 0x272B JUMP JUMPDEST PUSH1 0x40 MLOAD DUP1 SWAP2 SUB SWAP1 REVERT JUMPDEST PUSH1 0x1 PUSH1 0x0 CALLER PUSH20 0xFFFFFFFFFFFFFFFFFFFFFFFFFFFFFFFFFFFFFFFF AND PUSH20 0xFFFFFFFFFFFFFFFFFFFFFFFFFFFFFFFFFFFFFFFF AND DUP2 MSTORE PUSH1 0x20 ADD SWAP1 DUP2 MSTORE PUSH1 0x20 ADD PUSH1 0x0 KECCAK256 SLOAD DUP3 GT ISZERO PUSH2 0xEC2 JUMPI PUSH1 0x40 MLOAD PUSH32 0x8C379A000000000000000000000000000000000000000000000000000000000 DUP2 MSTORE PUSH1 0x4 ADD PUSH2 0xEB9 SWAP1 PUSH2 0x2803 JUMP JUMPDEST PUSH1 0x40 MLOAD DUP1 SWAP2 SUB SWAP1 REVERT JUMPDEST PUSH1 0x0 DUP3 LT ISZERO PUSH2 0xF06 JUMPI PUSH1 0x40 MLOAD PUSH32 0x8C379A000000000000000000000000000000000000000000000000000000000 DUP2 MSTORE PUSH1 0x4 ADD PUSH2 0xEFD SWAP1 PUSH2 0x2803 JUMP JUMPDEST PUSH1 0x40 MLOAD DUP1 SWAP2 SUB SWAP1 REVERT JUMPDEST DUP2 PUSH1 0x1 PUSH1 0x0 CALLER PUSH20 0xFFFFFFFFFFFFFFFFFFFFFFFFFFFFFFFFFFFFFFFF AND PUSH20 0xFFFFFFFFFFFFFFFFFFFFFFFFFFFFFFFFFFFFFFFF AND DUP2 MSTORE PUSH1 0x20 ADD SWAP1 DUP2 MSTORE PUSH1 0x20 ADD PUSH1 0x0 KECCAK256 SLOAD PUSH2 0xF51 SWAP2 SWAP1 PUSH2 0x2983 JUMP JUMPDEST PUSH1 0x1 PUSH1 0x0 CALLER PUSH20 0xFFFFFFFFFFFFFFFFFFFFFFFFFFFFFFFFFFFFFFFF AND PUSH20 0xFFFFFFFFFFFFFFFFFFFFFFFFFFFFFFFFFFFFFFFF AND DUP2 MSTORE PUSH1 0x20 ADD SWAP1 DUP2 MSTORE PUSH1 0x20 ADD PUSH1 0x0 KECCAK256 DUP2 SWAP1 SSTORE POP DUP2 PUSH1 0xB SLOAD PUSH2 0xFA2 SWAP2 SWAP1 PUSH2 0x2983 JUMP JUMPDEST PUSH1 0xB DUP2 SWAP1 SSTORE POP CALLER PUSH20 0xFFFFFFFFFFFFFFFFFFFFFFFFFFFFFFFFFFFFFFFF AND PUSH32 0xCC16F5DBB4873280815C1EE09DBD06736CFFCC184412CF7A71A0FDB75D397CA5 DUP4 PUSH1 0x40 MLOAD PUSH2 0xFEE SWAP2 SWAP1 PUSH2 0x2209 JUMP JUMPDEST PUSH1 0x40 MLOAD DUP1 SWAP2 SUB SWAP1 LOG2 PUSH1 0x1 SWAP1 POP SWAP2 SWAP1 POP JUMP JUMPDEST PUSH1 0x0 PUSH1 0x1 DUP1 PUSH1 0x0 CALLER PUSH20 0xFFFFFFFFFFFFFFFFFFFFFFFFFFFFFFFFFFFFFFFF AND PUSH20 0xFFFFFFFFFFFFFFFFFFFFFFFFFFFFFFFFFFFFFFFF AND DUP2 MSTORE PUSH1 0x20 ADD SWAP1 DUP2 MSTORE PUSH1 0x20 ADD PUSH1 0x0 KECCAK256 SLOAD LT ISZERO PUSH2 0x1083 JUMPI PUSH1 0x40 MLOAD PUSH32 0x8C379A000000000000000000000000000000000000000000000000000000000 DUP2 MSTORE PUSH1 0x4 ADD PUSH2 0x107A SWAP1 PUSH2 0x2A29 JUMP JUMPDEST PUSH1 0x40 MLOAD DUP1 SWAP2 SUB SWAP1 REVERT JUMPDEST PUSH1 0x0 DUP3 LT ISZERO PUSH2 0x10C7 JUMPI PUSH1 0x40 MLOAD PUSH32 0x8C379A000000000000000000000000000000000000000000000000000000000 DUP2 MSTORE PUSH1 0x4 ADD PUSH2 0x10BE SWAP1 PUSH2 0x2A95 JUMP JUMPDEST PUSH1 0x40 MLOAD DUP1 SWAP2 SUB SWAP1 REVERT JUMPDEST PUSH1 0x64 DUP3 GT ISZERO PUSH2 0x110B JUMPI PUSH1 0x40 MLOAD PUSH32 0x8C379A000000000000000000000000000000000000000000000000000000000 DUP2 MSTORE PUSH1 0x4 ADD PUSH2 0x1102 SWAP1 PUSH2 0x2A95 JUMP JUMPDEST PUSH1 0x40 MLOAD DUP1 SWAP2 SUB SWAP1 REVERT JUMPDEST DUP2 PUSH1 0x7 PUSH1 0x0 CALLER PUSH20 0xFFFFFFFFFFFFFFFFFFFFFFFFFFFFFFFFFFFFFFFF AND PUSH20 0xFFFFFFFFFFFFFFFFFFFFFFFFFFFFFFFFFFFFFFFF AND DUP2 MSTORE PUSH1 0x20 ADD SWAP1 DUP2 MSTORE PUSH1 0x20 ADD PUSH1 0x0 KECCAK256 DUP2 SWAP1 SSTORE POP PUSH1 0x1 PUSH1 0x3 PUSH1 0x0 CALLER PUSH20 0xFFFFFFFFFFFFFFFFFFFFFFFFFFFFFFFFFFFFFFFF AND PUSH20 0xFFFFFFFFFFFFFFFFFFFFFFFFFFFFFFFFFFFFFFFF AND DUP2 MSTORE PUSH1 0x20 ADD SWAP1 DUP2 MSTORE PUSH1 0x20 ADD PUSH1 0x0 KECCAK256 SLOAD PUSH2 0x119B SWAP2 SWAP1 PUSH2 0x294F JUMP JUMPDEST PUSH1 0x3 PUSH1 0x0 CALLER PUSH20 0xFFFFFFFFFFFFFFFFFFFFFFFFFFFFFFFFFFFFFFFF AND PUSH20 0xFFFFFFFFFFFFFFFFFFFFFFFFFFFFFFFFFFFFFFFF AND DUP2 MSTORE PUSH1 0x20 ADD SWAP1 DUP2 MSTORE PUSH1 0x20 ADD PUSH1 0x0 KECCAK256 DUP2 SWAP1 SSTORE POP PUSH1 0x1 PUSH1 0xC SLOAD PUSH2 0x11ED SWAP2 SWAP1 PUSH2 0x294F JUMP JUMPDEST PUSH1 0xC DUP2 SWAP1 SSTORE POP CALLER PUSH20 0xFFFFFFFFFFFFFFFFFFFFFFFFFFFFFFFFFFFFFFFF AND PUSH32 0x2E423C3D4C536BE9C3307D7BA9D9797CE08E89334052F84C24F8EBA20BAA63A1 PUSH1 0x40 MLOAD PUSH2 0x1237 SWAP1 PUSH2 0x2B01 JUMP JUMPDEST PUSH1 0x40 MLOAD DUP1 SWAP2 SUB SWAP1 LOG2 PUSH1 0x1 SWAP1 POP SWAP2 SWAP1 POP JUMP JUMPDEST PUSH1 0x0 PUSH1 0x1 DUP1 PUSH1 0x0 CALLER PUSH20 0xFFFFFFFFFFFFFFFFFFFFFFFFFFFFFFFFFFFFFFFF AND PUSH20 0xFFFFFFFFFFFFFFFFFFFFFFFFFFFFFFFFFFFFFFFF AND DUP2 MSTORE PUSH1 0x20 ADD SWAP1 DUP2 MSTORE PUSH1 0x20 ADD PUSH1 0x0 KECCAK256 SLOAD LT ISZERO PUSH2 0x12CC JUMPI PUSH1 0x40 MLOAD PUSH32 0x8C379A000000000000000000000000000000000000000000000000000000000 DUP2 MSTORE PUSH1 0x4 ADD PUSH2 0x12C3 SWAP1 PUSH2 0x2A29 JUMP JUMPDEST PUSH1 0x40 MLOAD DUP1 SWAP2 SUB SWAP1 REVERT JUMPDEST PUSH1 0x0 DUP3 LT ISZERO PUSH2 0x1310 JUMPI PUSH1 0x40 MLOAD PUSH32 0x8C379A000000000000000000000000000000000000000000000000000000000 DUP2 MSTORE PUSH1 0x4 ADD PUSH2 0x1307 SWAP1 PUSH2 0x2B6D JUMP JUMPDEST PUSH1 0x40 MLOAD DUP1 SWAP2 SUB SWAP1 REVERT JUMPDEST PUSH1 0x1 DUP3 GT ISZERO PUSH2 0x1354 JUMPI PUSH1 0x40 MLOAD PUSH32 0x8C379A000000000000000000000000000000000000000000000000000000000 DUP2 MSTORE PUSH1 0x4 ADD PUSH2 0x134B SWAP1 PUSH2 0x2B6D JUMP JUMPDEST PUSH1 0x40 MLOAD DUP1 SWAP2 SUB SWAP1 REVERT JUMPDEST DUP2 PUSH1 0x6 PUSH1 0x0 CALLER PUSH20 0xFFFFFFFFFFFFFFFFFFFFFFFFFFFFFFFFFFFFFFFF AND PUSH20 0xFFFFFFFFFFFFFFFFFFFFFFFFFFFFFFFFFFFFFFFF AND DUP2 MSTORE PUSH1 0x20 ADD SWAP1 DUP2 MSTORE PUSH1 0x20 ADD PUSH1 0x0 KECCAK256 DUP5 PUSH1 0x40 MLOAD PUSH2 0x13A2 SWAP2 SWAP1 PUSH2 0x26C8 JUMP JUMPDEST SWAP1 DUP2 MSTORE PUSH1 0x20 ADD PUSH1 0x40 MLOAD DUP1 SWAP2 SUB SWAP1 KECCAK256 DUP2 SWAP1 SSTORE POP PUSH1 0x1 PUSH1 0x3 PUSH1 0x0 CALLER PUSH20 0xFFFFFFFFFFFFFFFFFFFFFFFFFFFFFFFFFFFFFFFF AND PUSH20 0xFFFFFFFFFFFFFFFFFFFFFFFFFFFFFFFFFFFFFFFF AND DUP2 MSTORE PUSH1 0x20 ADD SWAP1 DUP2 MSTORE PUSH1 0x20 ADD PUSH1 0x0 KECCAK256 SLOAD PUSH2 0x1400 SWAP2 SWAP1 PUSH2 0x294F JUMP JUMPDEST PUSH1 0x3 PUSH1 0x0 CALLER PUSH20 0xFFFFFFFFFFFFFFFFFFFFFFFFFFFFFFFFFFFFFFFF AND PUSH20 0xFFFFFFFFFFFFFFFFFFFFFFFFFFFFFFFFFFFFFFFF AND DUP2 MSTORE PUSH1 0x20 ADD SWAP1 DUP2 MSTORE PUSH1 0x20 ADD PUSH1 0x0 KECCAK256 DUP2 SWAP1 SSTORE POP PUSH1 0x1 PUSH1 0xC SLOAD PUSH2 0x1452 SWAP2 SWAP1 PUSH2 0x294F JUMP JUMPDEST PUSH1 0xC DUP2 SWAP1 SSTORE POP CALLER PUSH20 0xFFFFFFFFFFFFFFFFFFFFFFFFFFFFFFFFFFFFFFFF AND PUSH32 0x2E423C3D4C536BE9C3307D7BA9D9797CE08E89334052F84C24F8EBA20BAA63A1 PUSH1 0x40 MLOAD PUSH2 0x149C SWAP1 PUSH2 0x2BD9 JUMP JUMPDEST PUSH1 0x40 MLOAD DUP1 SWAP2 SUB SWAP1 LOG2 PUSH1 0x1 SWAP1 POP SWAP3 SWAP2 POP POP JUMP JUMPDEST PUSH1 0x4 PUSH1 0x20 MSTORE DUP2 PUSH1 0x0 MSTORE PUSH1 0x40 PUSH1 0x0 KECCAK256 DUP2 DUP1 MLOAD PUSH1 0x20 DUP2 ADD DUP3 ADD DUP1 MLOAD DUP5 DUP3 MSTORE PUSH1 0x20 DUP4 ADD PUSH1 0x20 DUP6 ADD KECCAK256 DUP2 DUP4 MSTORE DUP1 SWAP6 POP POP POP POP POP POP PUSH1 0x0 SWAP2 POP SWAP2 POP POP SLOAD DUP2 JUMP JUMPDEST PUSH1 0x0 PUSH1 0x1 PUSH1 0x0 DUP4 PUSH20 0xFFFFFFFFFFFFFFFFFFFFFFFFFFFFFFFFFFFFFFFF AND PUSH20 0xFFFFFFFFFFFFFFFFFFFFFFFFFFFFFFFFFFFFFFFF AND DUP2 MSTORE PUSH1 0x20 ADD SWAP1 DUP2 MSTORE PUSH1 0x20 ADD PUSH1 0x0 KECCAK256 SLOAD SWAP1 POP SWAP2 SWAP1 POP JUMP JUMPDEST PUSH1 0x0 DUP1 PUSH1 0x0 SWAP1 SLOAD SWAP1 PUSH2 0x100 EXP SWAP1 DIV PUSH20 0xFFFFFFFFFFFFFFFFFFFFFFFFFFFFFFFFFFFFFFFF AND SWAP1 POP SWAP1 JUMP JUMPDEST PUSH1 0x0 PUSH1 0x7 PUSH1 0x0 DUP4 PUSH20 0xFFFFFFFFFFFFFFFFFFFFFFFFFFFFFFFFFFFFFFFF AND PUSH20 0xFFFFFFFFFFFFFFFFFFFFFFFFFFFFFFFFFFFFFFFF AND DUP2 MSTORE PUSH1 0x20 ADD SWAP1 DUP2 MSTORE PUSH1 0x20 ADD PUSH1 0x0 KECCAK256 SLOAD SWAP1 POP SWAP2 SWAP1 POP JUMP JUMPDEST PUSH1 0x0 DUP1 SLOAD SWAP1 PUSH2 0x100 EXP SWAP1 DIV PUSH20 0xFFFFFFFFFFFFFFFFFFFFFFFFFFFFFFFFFFFFFFFF AND DUP2 JUMP JUMPDEST PUSH1 0x9 DUP1 SLOAD PUSH2 0x15D5 SWAP1 PUSH2 0x265B JUMP JUMPDEST DUP1 PUSH1 0x1F ADD PUSH1 0x20 DUP1 SWAP2 DIV MUL PUSH1 0x20 ADD PUSH1 0x40 MLOAD SWAP1 DUP2 ADD PUSH1 0x40 MSTORE DUP1 SWAP3 SWAP2 SWAP1 DUP2 DUP2 MSTORE PUSH1 0x20 ADD DUP3 DUP1 SLOAD PUSH2 0x1601 SWAP1 PUSH2 0x265B JUMP JUMPDEST DUP1 ISZERO PUSH2 0x164E JUMPI DUP1 PUSH1 0x1F LT PUSH2 0x1623 JUMPI PUSH2 0x100 DUP1 DUP4 SLOAD DIV MUL DUP4 MSTORE SWAP2 PUSH1 0x20 ADD SWAP2 PUSH2 0x164E JUMP JUMPDEST DUP3 ADD SWAP2 SWAP1 PUSH1 0x0 MSTORE PUSH1 0x20 PUSH1 0x0 KECCAK256 SWAP1 JUMPDEST DUP2 SLOAD DUP2 MSTORE SWAP1 PUSH1 0x1 ADD SWAP1 PUSH1 0x20 ADD DUP1 DUP4 GT PUSH2 0x1631 JUMPI DUP3 SWAP1 SUB PUSH1 0x1F AND DUP3 ADD SWAP2 JUMPDEST POP POP POP POP POP DUP2 JUMP JUMPDEST PUSH1 0x0 PUSH1 0x5 PUSH1 0x0 DUP5 PUSH20 0xFFFFFFFFFFFFFFFFFFFFFFFFFFFFFFFFFFFFFFFF AND PUSH20 0xFFFFFFFFFFFFFFFFFFFFFFFFFFFFFFFFFFFFFFFF AND DUP2 MSTORE PUSH1 0x20 ADD SWAP1 DUP2 MSTORE PUSH1 0x20 ADD PUSH1 0x0 KECCAK256 PUSH1 0x0 DUP4 DUP2 MSTORE PUSH1 0x20 ADD SWAP1 DUP2 MSTORE PUSH1 0x20 ADD PUSH1 0x0 KECCAK256 SLOAD SWAP1 POP SWAP3 SWAP2 POP POP JUMP JUMPDEST PUSH1 0x5 PUSH1 0x20 MSTORE DUP2 PUSH1 0x0 MSTORE PUSH1 0x40 PUSH1 0x0 KECCAK256 PUSH1 0x20 MSTORE DUP1 PUSH1 0x0 MSTORE PUSH1 0x40 PUSH1 0x0 KECCAK256 PUSH1 0x0 SWAP2 POP SWAP2 POP POP SLOAD DUP2 JUMP JUMPDEST PUSH1 0x0 DUP1 PUSH1 0x1 PUSH1 0x0 CALLER PUSH20 0xFFFFFFFFFFFFFFFFFFFFFFFFFFFFFFFFFFFFFFFF AND PUSH20 0xFFFFFFFFFFFFFFFFFFFFFFFFFFFFFFFFFFFFFFFF AND DUP2 MSTORE PUSH1 0x20 ADD SWAP1 DUP2 MSTORE PUSH1 0x20 ADD PUSH1 0x0 KECCAK256 SLOAD GT ISZERO PUSH2 0x175A JUMPI PUSH1 0x40 MLOAD PUSH32 0x8C379A000000000000000000000000000000000000000000000000000000000 DUP2 MSTORE PUSH1 0x4 ADD PUSH2 0x1751 SWAP1 PUSH2 0x2C6B JUMP JUMPDEST PUSH1 0x40 MLOAD DUP1 SWAP2 SUB SWAP1 REVERT JUMPDEST PUSH1 0x1 DUP1 PUSH1 0x0 CALLER PUSH20 0xFFFFFFFFFFFFFFFFFFFFFFFFFFFFFFFFFFFFFFFF AND PUSH20 0xFFFFFFFFFFFFFFFFFFFFFFFFFFFFFFFFFFFFFFFF AND DUP2 MSTORE PUSH1 0x20 ADD SWAP1 DUP2 MSTORE PUSH1 0x20 ADD PUSH1 0x0 KECCAK256 SLOAD PUSH2 0x17A5 SWAP2 SWAP1 PUSH2 0x294F JUMP JUMPDEST PUSH1 0x1 PUSH1 0x0 CALLER PUSH20 0xFFFFFFFFFFFFFFFFFFFFFFFFFFFFFFFFFFFFFFFF AND PUSH20 0xFFFFFFFFFFFFFFFFFFFFFFFFFFFFFFFFFFFFFFFF AND DUP2 MSTORE PUSH1 0x20 ADD SWAP1 DUP2 MSTORE PUSH1 0x20 ADD PUSH1 0x0 KECCAK256 DUP2 SWAP1 SSTORE POP PUSH1 0x1 PUSH1 0xB SLOAD PUSH2 0x17F7 SWAP2 SWAP1 PUSH2 0x294F JUMP JUMPDEST PUSH1 0xB DUP2 SWAP1 SSTORE POP CALLER PUSH20 0xFFFFFFFFFFFFFFFFFFFFFFFFFFFFFFFFFFFFFFFF AND PUSH32 0xD4B303E8702428E1E0FE4A0C45CFD6F44C57F247681F0B21C46F339FA12FF1B3 PUSH1 0x40 MLOAD PUSH1 0x40 MLOAD DUP1 SWAP2 SUB SWAP1 LOG2 CALLER PUSH20 0xFFFFFFFFFFFFFFFFFFFFFFFFFFFFFFFFFFFFFFFF AND PUSH32 0x2E423C3D4C536BE9C3307D7BA9D9797CE08E89334052F84C24F8EBA20BAA63A1 PUSH1 0x40 MLOAD PUSH2 0x1884 SWAP1 PUSH2 0x2CD7 JUMP JUMPDEST PUSH1 0x40 MLOAD DUP1 SWAP2 SUB SWAP1 LOG2 PUSH1 0x1 SWAP1 POP SWAP1 JUMP JUMPDEST PUSH1 0xC SLOAD DUP2 JUMP JUMPDEST PUSH1 0x0 PUSH1 0x1 PUSH1 0x0 CALLER PUSH20 0xFFFFFFFFFFFFFFFFFFFFFFFFFFFFFFFFFFFFFFFF AND PUSH20 0xFFFFFFFFFFFFFFFFFFFFFFFFFFFFFFFFFFFFFFFF AND DUP2 MSTORE PUSH1 0x20 ADD SWAP1 DUP2 MSTORE PUSH1 0x20 ADD PUSH1 0x0 KECCAK256 SLOAD DUP3 GT ISZERO PUSH2 0x191D JUMPI PUSH1 0x40 MLOAD PUSH32 0x8C379A000000000000000000000000000000000000000000000000000000000 DUP2 MSTORE PUSH1 0x4 ADD PUSH2 0x1914 SWAP1 PUSH2 0x2803 JUMP JUMPDEST PUSH1 0x40 MLOAD DUP1 SWAP2 SUB SWAP1 REVERT JUMPDEST PUSH1 0x1 DUP1 PUSH1 0x0 CALLER PUSH20 0xFFFFFFFFFFFFFFFFFFFFFFFFFFFFFFFFFFFFFFFF AND PUSH20 0xFFFFFFFFFFFFFFFFFFFFFFFFFFFFFFFFFFFFFFFF AND DUP2 MSTORE PUSH1 0x20 ADD SWAP1 DUP2 MSTORE PUSH1 0x20 ADD PUSH1 0x0 KECCAK256 SLOAD LT ISZERO PUSH2 0x199F JUMPI PUSH1 0x40 MLOAD PUSH32 0x8C379A000000000000000000000000000000000000000000000000000000000 DUP2 MSTORE PUSH1 0x4 ADD PUSH2 0x1996 SWAP1 PUSH2 0x2D43 JUMP JUMPDEST PUSH1 0x40 MLOAD DUP1 SWAP2 SUB SWAP1 REVERT JUMPDEST DUP2 PUSH1 0x1 PUSH1 0x0 DUP6 PUSH20 0xFFFFFFFFFFFFFFFFFFFFFFFFFFFFFFFFFFFFFFFF AND PUSH20 0xFFFFFFFFFFFFFFFFFFFFFFFFFFFFFFFFFFFFFFFF AND DUP2 MSTORE PUSH1 0x20 ADD SWAP1 DUP2 MSTORE PUSH1 0x20 ADD PUSH1 0x0 KECCAK256 SLOAD PUSH2 0x19EA SWAP2 SWAP1 PUSH2 0x294F JUMP JUMPDEST PUSH1 0x1 PUSH1 0x0 DUP6 PUSH20 0xFFFFFFFFFFFFFFFFFFFFFFFFFFFFFFFFFFFFFFFF AND PUSH20 0xFFFFFFFFFFFFFFFFFFFFFFFFFFFFFFFFFFFFFFFF AND DUP2 MSTORE PUSH1 0x20 ADD SWAP1 DUP2 MSTORE PUSH1 0x20 ADD PUSH1 0x0 KECCAK256 DUP2 SWAP1 SSTORE POP DUP2 PUSH1 0x1 PUSH1 0x0 CALLER PUSH20 0xFFFFFFFFFFFFFFFFFFFFFFFFFFFFFFFFFFFFFFFF AND PUSH20 0xFFFFFFFFFFFFFFFFFFFFFFFFFFFFFFFFFFFFFFFF AND DUP2 MSTORE PUSH1 0x20 ADD SWAP1 DUP2 MSTORE PUSH1 0x20 ADD PUSH1 0x0 KECCAK256 SLOAD PUSH2 0x1A78 SWAP2 SWAP1 PUSH2 0x2983 JUMP JUMPDEST PUSH1 0x1 PUSH1 0x0 CALLER PUSH20 0xFFFFFFFFFFFFFFFFFFFFFFFFFFFFFFFFFFFFFFFF AND PUSH20 0xFFFFFFFFFFFFFFFFFFFFFFFFFFFFFFFFFFFFFFFF AND DUP2 MSTORE PUSH1 0x20 ADD SWAP1 DUP2 MSTORE PUSH1 0x20 ADD PUSH1 0x0 KECCAK256 DUP2 SWAP1 SSTORE POP DUP3 PUSH20 0xFFFFFFFFFFFFFFFFFFFFFFFFFFFFFFFFFFFFFFFF AND CALLER PUSH20 0xFFFFFFFFFFFFFFFFFFFFFFFFFFFFFFFFFFFFFFFF AND PUSH32 0xDDF252AD1BE2C89B69C2B068FC378DAA952BA7F163C4A11628F55A4DF523B3EF DUP5 PUSH1 0x40 MLOAD PUSH2 0x1B18 SWAP2 SWAP1 PUSH2 0x2209 JUMP JUMPDEST PUSH1 0x40 MLOAD DUP1 SWAP2 SUB SWAP1 LOG3 PUSH1 0x1 SWAP1 POP SWAP3 SWAP2 POP POP JUMP JUMPDEST PUSH1 0x7 PUSH1 0x20 MSTORE DUP1 PUSH1 0x0 MSTORE PUSH1 0x40 PUSH1 0x0 KECCAK256 PUSH1 0x0 SWAP2 POP SWAP1 POP SLOAD DUP2 JUMP JUMPDEST PUSH1 0x6 PUSH1 0x20 MSTORE DUP2 PUSH1 0x0 MSTORE PUSH1 0x40 PUSH1 0x0 KECCAK256 DUP2 DUP1 MLOAD PUSH1 0x20 DUP2 ADD DUP3 ADD DUP1 MLOAD DUP5 DUP3 MSTORE PUSH1 0x20 DUP4 ADD PUSH1 0x20 DUP6 ADD KECCAK256 DUP2 DUP4 MSTORE DUP1 SWAP6 POP POP POP POP POP POP PUSH1 0x0 SWAP2 POP SWAP2 POP POP SLOAD DUP2 JUMP JUMPDEST PUSH1 0x2 PUSH1 0x20 MSTORE DUP1 PUSH1 0x0 MSTORE PUSH1 0x40 PUSH1 0x0 KECCAK256 PUSH1 0x0 SWAP2 POP SWAP1 POP SLOAD DUP2 JUMP JUMPDEST PUSH1 0x0 CALLVALUE PUSH1 0x2 PUSH1 0x0 CALLER PUSH20 0xFFFFFFFFFFFFFFFFFFFFFFFFFFFFFFFFFFFFFFFF AND PUSH20 0xFFFFFFFFFFFFFFFFFFFFFFFFFFFFFFFFFFFFFFFF AND DUP2 MSTORE PUSH1 0x20 ADD SWAP1 DUP2 MSTORE PUSH1 0x20 ADD PUSH1 0x0 KECCAK256 SLOAD PUSH2 0x1BE2 SWAP2 SWAP1 PUSH2 0x294F JUMP JUMPDEST PUSH1 0x2 PUSH1 0x0 CALLER PUSH20 0xFFFFFFFFFFFFFFFFFFFFFFFFFFFFFFFFFFFFFFFF AND PUSH20 0xFFFFFFFFFFFFFFFFFFFFFFFFFFFFFFFFFFFFFFFF AND DUP2 MSTORE PUSH1 0x20 ADD SWAP1 DUP2 MSTORE PUSH1 0x20 ADD PUSH1 0x0 KECCAK256 DUP2 SWAP1 SSTORE POP PUSH1 0x0 DUP1 SLOAD SWAP1 PUSH2 0x100 EXP SWAP1 DIV PUSH20 0xFFFFFFFFFFFFFFFFFFFFFFFFFFFFFFFFFFFFFFFF AND PUSH20 0xFFFFFFFFFFFFFFFFFFFFFFFFFFFFFFFFFFFFFFFF AND PUSH2 0x8FC CALLVALUE SWAP1 DUP2 ISZERO MUL SWAP1 PUSH1 0x40 MLOAD PUSH1 0x0 PUSH1 0x40 MLOAD DUP1 DUP4 SUB DUP2 DUP6 DUP9 DUP9 CALL SWAP4 POP POP POP POP ISZERO DUP1 ISZERO PUSH2 0x1C8B JUMPI RETURNDATASIZE PUSH1 0x0 DUP1 RETURNDATACOPY RETURNDATASIZE PUSH1 0x0 REVERT JUMPDEST POP PUSH1 0x1 SWAP1 POP SWAP1 JUMP JUMPDEST PUSH1 0x0 PUSH1 0x1 DUP1 PUSH1 0x0 CALLER PUSH20 0xFFFFFFFFFFFFFFFFFFFFFFFFFFFFFFFFFFFFFFFF AND PUSH20 0xFFFFFFFFFFFFFFFFFFFFFFFFFFFFFFFFFFFFFFFF AND DUP2 MSTORE PUSH1 0x20 ADD SWAP1 DUP2 MSTORE PUSH1 0x20 ADD PUSH1 0x0 KECCAK256 SLOAD LT ISZERO PUSH2 0x1D17 JUMPI PUSH1 0x40 MLOAD PUSH32 0x8C379A000000000000000000000000000000000000000000000000000000000 DUP2 MSTORE PUSH1 0x4 ADD PUSH2 0x1D0E SWAP1 PUSH2 0x2A29 JUMP JUMPDEST PUSH1 0x40 MLOAD DUP1 SWAP2 SUB SWAP1 REVERT JUMPDEST PUSH1 0x1 DUP4 LT ISZERO PUSH2 0x1D5B JUMPI PUSH1 0x40 MLOAD PUSH32 0x8C379A000000000000000000000000000000000000000000000000000000000 DUP2 MSTORE PUSH1 0x4 ADD PUSH2 0x1D52 SWAP1 PUSH2 0x2DAF JUMP JUMPDEST PUSH1 0x40 MLOAD DUP1 SWAP2 SUB SWAP1 REVERT JUMPDEST PUSH1 0x0 DUP3 LT ISZERO PUSH2 0x1D9F JUMPI PUSH1 0x40 MLOAD PUSH32 0x8C379A000000000000000000000000000000000000000000000000000000000 DUP2 MSTORE PUSH1 0x4 ADD PUSH2 0x1D96 SWAP1 PUSH2 0x2E1B JUMP JUMPDEST PUSH1 0x40 MLOAD DUP1 SWAP2 SUB SWAP1 REVERT JUMPDEST DUP2 PUSH1 0x5 PUSH1 0x0 CALLER PUSH20 0xFFFFFFFFFFFFFFFFFFFFFFFFFFFFFFFFFFFFFFFF AND PUSH20 0xFFFFFFFFFFFFFFFFFFFFFFFFFFFFFFFFFFFFFFFF AND DUP2 MSTORE PUSH1 0x20 ADD SWAP1 DUP2 MSTORE PUSH1 0x20 ADD PUSH1 0x0 KECCAK256 PUSH1 0x0 DUP6 DUP2 MSTORE PUSH1 0x20 ADD SWAP1 DUP2 MSTORE PUSH1 0x20 ADD PUSH1 0x0 KECCAK256 DUP2 SWAP1 SSTORE POP PUSH1 0x1 PUSH1 0x3 PUSH1 0x0 CALLER PUSH20 0xFFFFFFFFFFFFFFFFFFFFFFFFFFFFFFFFFFFFFFFF AND PUSH20 0xFFFFFFFFFFFFFFFFFFFFFFFFFFFFFFFFFFFFFFFF AND DUP2 MSTORE PUSH1 0x20 ADD SWAP1 DUP2 MSTORE PUSH1 0x20 ADD PUSH1 0x0 KECCAK256 SLOAD PUSH2 0x1E40 SWAP2 SWAP1 PUSH2 0x294F JUMP JUMPDEST PUSH1 0x3 PUSH1 0x0 CALLER PUSH20 0xFFFFFFFFFFFFFFFFFFFFFFFFFFFFFFFFFFFFFFFF AND PUSH20 0xFFFFFFFFFFFFFFFFFFFFFFFFFFFFFFFFFFFFFFFF AND DUP2 MSTORE PUSH1 0x20 ADD SWAP1 DUP2 MSTORE PUSH1 0x20 ADD PUSH1 0x0 KECCAK256 DUP2 SWAP1 SSTORE POP PUSH1 0x1 PUSH1 0xC SLOAD PUSH2 0x1E92 SWAP2 SWAP1 PUSH2 0x294F JUMP JUMPDEST PUSH1 0xC DUP2 SWAP1 SSTORE POP CALLER PUSH20 0xFFFFFFFFFFFFFFFFFFFFFFFFFFFFFFFFFFFFFFFF AND PUSH32 0x2E423C3D4C536BE9C3307D7BA9D9797CE08E89334052F84C24F8EBA20BAA63A1 PUSH1 0x40 MLOAD PUSH2 0x1EDC SWAP1 PUSH2 0x2E87 JUMP JUMPDEST PUSH1 0x40 MLOAD DUP1 SWAP2 SUB SWAP1 LOG2 PUSH1 0x1 SWAP1 POP SWAP3 SWAP2 POP POP JUMP JUMPDEST PUSH1 0x0 DUP1 SLOAD SWAP1 PUSH2 0x100 EXP SWAP1 DIV PUSH20 0xFFFFFFFFFFFFFFFFFFFFFFFFFFFFFFFFFFFFFFFF AND PUSH20 0xFFFFFFFFFFFFFFFFFFFFFFFFFFFFFFFFFFFFFFFF AND CALLER PUSH20 0xFFFFFFFFFFFFFFFFFFFFFFFFFFFFFFFFFFFFFFFF AND EQ PUSH2 0x1F7C JUMPI PUSH1 0x40 MLOAD PUSH32 0x8C379A000000000000000000000000000000000000000000000000000000000 DUP2 MSTORE PUSH1 0x4 ADD PUSH2 0x1F73 SWAP1 PUSH2 0x272B JUMP JUMPDEST PUSH1 0x40 MLOAD DUP1 SWAP2 SUB SWAP1 REVERT JUMPDEST DUP1 PUSH20 0xFFFFFFFFFFFFFFFFFFFFFFFFFFFFFFFFFFFFFFFF AND PUSH1 0x0 DUP1 SLOAD SWAP1 PUSH2 0x100 EXP SWAP1 DIV PUSH20 0xFFFFFFFFFFFFFFFFFFFFFFFFFFFFFFFFFFFFFFFF AND PUSH20 0xFFFFFFFFFFFFFFFFFFFFFFFFFFFFFFFFFFFFFFFF AND PUSH32 0x8BE0079C531659141344CD1FD0A4F28419497F9722A3DAAFE3B4186F6B6457E0 PUSH1 0x40 MLOAD PUSH1 0x40 MLOAD DUP1 SWAP2 SUB SWAP1 LOG3 DUP1 PUSH1 0x0 DUP1 PUSH2 0x100 EXP DUP2 SLOAD DUP2 PUSH20 0xFFFFFFFFFFFFFFFFFFFFFFFFFFFFFFFFFFFFFFFF MUL NOT AND SWAP1 DUP4 PUSH20 0xFFFFFFFFFFFFFFFFFFFFFFFFFFFFFFFFFFFFFFFF AND MUL OR SWAP1 SSTORE POP POP JUMP JUMPDEST PUSH1 0x0 PUSH1 0x4 PUSH1 0x0 DUP5 PUSH20 0xFFFFFFFFFFFFFFFFFFFFFFFFFFFFFFFFFFFFFFFF AND PUSH20 0xFFFFFFFFFFFFFFFFFFFFFFFFFFFFFFFFFFFFFFFF AND DUP2 MSTORE PUSH1 0x20 ADD SWAP1 DUP2 MSTORE PUSH1 0x20 ADD PUSH1 0x0 KECCAK256 DUP3 PUSH1 0x40 MLOAD PUSH2 0x2088 SWAP2 SWAP1 PUSH2 0x26C8 JUMP JUMPDEST SWAP1 DUP2 MSTORE PUSH1 0x20 ADD PUSH1 0x40 MLOAD DUP1 SWAP2 SUB SWAP1 KECCAK256 SLOAD SWAP1 POP SWAP3 SWAP2 POP POP JUMP JUMPDEST PUSH1 0x0 DUP2 MLOAD SWAP1 POP SWAP2 SWAP1 POP JUMP JUMPDEST PUSH1 0x0 DUP3 DUP3 MSTORE PUSH1 0x20 DUP3 ADD SWAP1 POP SWAP3 SWAP2 POP POP JUMP JUMPDEST PUSH1 0x0 JUMPDEST DUP4 DUP2 LT ISZERO PUSH2 0x20D9 JUMPI DUP1 DUP3 ADD MLOAD DUP2 DUP5 ADD MSTORE PUSH1 0x20 DUP2 ADD SWAP1 POP PUSH2 0x20BE JUMP JUMPDEST PUSH1 0x0 DUP5 DUP5 ADD MSTORE POP POP POP POP JUMP JUMPDEST PUSH1 0x0 PUSH1 0x1F NOT PUSH1 0x1F DUP4 ADD AND SWAP1 POP SWAP2 SWAP1 POP JUMP JUMPDEST PUSH1 0x0 PUSH2 0x2101 DUP3 PUSH2 0x209F JUMP JUMPDEST PUSH2 0x210B DUP2 DUP6 PUSH2 0x20AA JUMP JUMPDEST SWAP4 POP PUSH2 0x211B DUP2 DUP6 PUSH1 0x20 DUP7 ADD PUSH2 0x20BB JUMP JUMPDEST PUSH2 0x2124 DUP2 PUSH2 0x20E5 JUMP JUMPDEST DUP5 ADD SWAP2 POP POP SWAP3 SWAP2 POP POP JUMP JUMPDEST PUSH1 0x0 PUSH1 0x20 DUP3 ADD SWAP1 POP DUP2 DUP2 SUB PUSH1 0x0 DUP4 ADD MSTORE PUSH2 0x2149 DUP2 DUP5 PUSH2 0x20F6 JUMP JUMPDEST SWAP1 POP SWAP3 SWAP2 POP POP JUMP JUMPDEST PUSH1 0x0 PUSH1 0x40 MLOAD SWAP1 POP SWAP1 JUMP JUMPDEST PUSH1 0x0 DUP1 REVERT JUMPDEST PUSH1 0x0 DUP1 REVERT JUMPDEST PUSH1 0x0 PUSH20 0xFFFFFFFFFFFFFFFFFFFFFFFFFFFFFFFFFFFFFFFF DUP3 AND SWAP1 POP SWAP2 SWAP1 POP JUMP JUMPDEST PUSH1 0x0 PUSH2 0x2190 DUP3 PUSH2 0x2165 JUMP JUMPDEST SWAP1 POP SWAP2 SWAP1 POP JUMP JUMPDEST PUSH2 0x21A0 DUP2 PUSH2 0x2185 JUMP JUMPDEST DUP2 EQ PUSH2 0x21AB JUMPI PUSH1 0x0 DUP1 REVERT JUMPDEST POP JUMP JUMPDEST PUSH1 0x0 DUP2 CALLDATALOAD SWAP1 POP PUSH2 0x21BD DUP2 PUSH2 0x2197 JUMP JUMPDEST SWAP3 SWAP2 POP POP JUMP JUMPDEST PUSH1 0x0 PUSH1 0x20 DUP3 DUP5 SUB SLT ISZERO PUSH2 0x21D9 JUMPI PUSH2 0x21D8 PUSH2 0x215B JUMP JUMPDEST JUMPDEST PUSH1 0x0 PUSH2 0x21E7 DUP5 DUP3 DUP6 ADD PUSH2 0x21AE JUMP JUMPDEST SWAP2 POP POP SWAP3 SWAP2 POP POP JUMP JUMPDEST PUSH1 0x0 DUP2 SWAP1 POP SWAP2 SWAP1 POP JUMP JUMPDEST PUSH2 0x2203 DUP2 PUSH2 0x21F0 JUMP JUMPDEST DUP3 MSTORE POP POP JUMP JUMPDEST PUSH1 0x0 PUSH1 0x20 DUP3 ADD SWAP1 POP PUSH2 0x221E PUSH1 0x0 DUP4 ADD DUP5 PUSH2 0x21FA JUMP JUMPDEST SWAP3 SWAP2 POP POP JUMP JUMPDEST PUSH1 0x0 DUP1 REVERT JUMPDEST PUSH1 0x0 DUP1 REVERT JUMPDEST PUSH32 0x4E487B7100000000000000000000000000000000000000000000000000000000 PUSH1 0x0 MSTORE PUSH1 0x41 PUSH1 0x4 MSTORE PUSH1 0x24 PUSH1 0x0 REVERT JUMPDEST PUSH2 0x2266 DUP3 PUSH2 0x20E5 JUMP JUMPDEST DUP2 ADD DUP2 DUP2 LT PUSH8 0xFFFFFFFFFFFFFFFF DUP3 GT OR ISZERO PUSH2 0x2285 JUMPI PUSH2 0x2284 PUSH2 0x222E JUMP JUMPDEST JUMPDEST DUP1 PUSH1 0x40 MSTORE POP POP POP JUMP JUMPDEST PUSH1 0x0 PUSH2 0x2298 PUSH2 0x2151 JUMP JUMPDEST SWAP1 POP PUSH2 0x22A4 DUP3 DUP3 PUSH2 0x225D JUMP JUMPDEST SWAP2 SWAP1 POP JUMP JUMPDEST PUSH1 0x0 PUSH8 0xFFFFFFFFFFFFFFFF DUP3 GT ISZERO PUSH2 0x22C4 JUMPI PUSH2 0x22C3 PUSH2 0x222E JUMP JUMPDEST JUMPDEST PUSH2 0x22CD DUP3 PUSH2 0x20E5 JUMP JUMPDEST SWAP1 POP PUSH1 0x20 DUP2 ADD SWAP1 POP SWAP2 SWAP1 POP JUMP JUMPDEST DUP3 DUP2 DUP4 CALLDATACOPY PUSH1 0x0 DUP4 DUP4 ADD MSTORE POP POP POP JUMP JUMPDEST PUSH1 0x0 PUSH2 0x22FC PUSH2 0x22F7 DUP5 PUSH2 0x22A9 JUMP JUMPDEST PUSH2 0x228E JUMP JUMPDEST SWAP1 POP DUP3 DUP2 MSTORE PUSH1 0x20 DUP2 ADD DUP5 DUP5 DUP5 ADD GT ISZERO PUSH2 0x2318 JUMPI PUSH2 0x2317 PUSH2 0x2229 JUMP JUMPDEST JUMPDEST PUSH2 0x2323 DUP5 DUP3 DUP6 PUSH2 0x22DA JUMP JUMPDEST POP SWAP4 SWAP3 POP POP POP JUMP JUMPDEST PUSH1 0x0 DUP3 PUSH1 0x1F DUP4 ADD SLT PUSH2 0x2340 JUMPI PUSH2 0x233F PUSH2 0x2224 JUMP JUMPDEST JUMPDEST DUP2 CALLDATALOAD PUSH2 0x2350 DUP5 DUP3 PUSH1 0x20 DUP7 ADD PUSH2 0x22E9 JUMP JUMPDEST SWAP2 POP POP SWAP3 SWAP2 POP POP JUMP JUMPDEST PUSH1 0x0 DUP1 PUSH1 0x40 DUP4 DUP6 SUB SLT ISZERO PUSH2 0x2370 JUMPI PUSH2 0x236F PUSH2 0x215B JUMP JUMPDEST JUMPDEST PUSH1 0x0 PUSH2 0x237E DUP6 DUP3 DUP7 ADD PUSH2 0x21AE JUMP JUMPDEST SWAP3 POP POP PUSH1 0x20 DUP4 ADD CALLDATALOAD PUSH8 0xFFFFFFFFFFFFFFFF DUP2 GT ISZERO PUSH2 0x239F JUMPI PUSH2 0x239E PUSH2 0x2160 JUMP JUMPDEST JUMPDEST PUSH2 0x23AB DUP6 DUP3 DUP7 ADD PUSH2 0x232B JUMP JUMPDEST SWAP2 POP POP SWAP3 POP SWAP3 SWAP1 POP JUMP JUMPDEST PUSH2 0x23BE DUP2 PUSH2 0x21F0 JUMP JUMPDEST DUP2 EQ PUSH2 0x23C9 JUMPI PUSH1 0x0 DUP1 REVERT JUMPDEST POP JUMP JUMPDEST PUSH1 0x0 DUP2 CALLDATALOAD SWAP1 POP PUSH2 0x23DB DUP2 PUSH2 0x23B5 JUMP JUMPDEST SWAP3 SWAP2 POP POP JUMP JUMPDEST PUSH1 0x0 DUP1 PUSH1 0x0 PUSH1 0x60 DUP5 DUP7 SUB SLT ISZERO PUSH2 0x23FA JUMPI PUSH2 0x23F9 PUSH2 0x215B JUMP JUMPDEST JUMPDEST PUSH1 0x0 PUSH2 0x2408 DUP7 DUP3 DUP8 ADD PUSH2 0x21AE JUMP JUMPDEST SWAP4 POP POP PUSH1 0x20 DUP5 ADD CALLDATALOAD PUSH8 0xFFFFFFFFFFFFFFFF DUP2 GT ISZERO PUSH2 0x2429 JUMPI PUSH2 0x2428 PUSH2 0x2160 JUMP JUMPDEST JUMPDEST PUSH2 0x2435 DUP7 DUP3 DUP8 ADD PUSH2 0x232B JUMP JUMPDEST SWAP3 POP POP PUSH1 0x40 PUSH2 0x2446 DUP7 DUP3 DUP8 ADD PUSH2 0x23CC JUMP JUMPDEST SWAP2 POP POP SWAP3 POP SWAP3 POP SWAP3 JUMP JUMPDEST PUSH1 0x0 DUP2 ISZERO ISZERO SWAP1 POP SWAP2 SWAP1 POP JUMP JUMPDEST PUSH2 0x2465 DUP2 PUSH2 0x2450 JUMP JUMPDEST DUP3 MSTORE POP POP JUMP JUMPDEST PUSH1 0x0 PUSH1 0x20 DUP3 ADD SWAP1 POP PUSH2 0x2480 PUSH1 0x0 DUP4 ADD DUP5 PUSH2 0x245C JUMP JUMPDEST SWAP3 SWAP2 POP POP JUMP JUMPDEST PUSH1 0x0 PUSH1 0xFF DUP3 AND SWAP1 POP SWAP2 SWAP1 POP JUMP JUMPDEST PUSH2 0x249C DUP2 PUSH2 0x2486 JUMP JUMPDEST DUP3 MSTORE POP POP JUMP JUMPDEST PUSH1 0x0 PUSH1 0x20 DUP3 ADD SWAP1 POP PUSH2 0x24B7 PUSH1 0x0 DUP4 ADD DUP5 PUSH2 0x2493 JUMP JUMPDEST SWAP3 SWAP2 POP POP JUMP JUMPDEST PUSH1 0x0 DUP1 PUSH1 0x40 DUP4 DUP6 SUB SLT ISZERO PUSH2 0x24D4 JUMPI PUSH2 0x24D3 PUSH2 0x215B JUMP JUMPDEST JUMPDEST PUSH1 0x0 PUSH2 0x24E2 DUP6 DUP3 DUP7 ADD PUSH2 0x21AE JUMP JUMPDEST SWAP3 POP POP PUSH1 0x20 PUSH2 0x24F3 DUP6 DUP3 DUP7 ADD PUSH2 0x23CC JUMP JUMPDEST SWAP2 POP POP SWAP3 POP SWAP3 SWAP1 POP JUMP JUMPDEST PUSH1 0x0 PUSH1 0x20 DUP3 DUP5 SUB SLT ISZERO PUSH2 0x2513 JUMPI PUSH2 0x2512 PUSH2 0x215B JUMP JUMPDEST JUMPDEST PUSH1 0x0 PUSH2 0x2521 DUP5 DUP3 DUP6 ADD PUSH2 0x23CC JUMP JUMPDEST SWAP2 POP POP SWAP3 SWAP2 POP POP JUMP JUMPDEST PUSH1 0x0 DUP1 PUSH1 0x40 DUP4 DUP6 SUB SLT ISZERO PUSH2 0x2541 JUMPI PUSH2 0x2540 PUSH2 0x215B JUMP JUMPDEST JUMPDEST PUSH1 0x0 DUP4 ADD CALLDATALOAD PUSH8 0xFFFFFFFFFFFFFFFF DUP2 GT ISZERO PUSH2 0x255F JUMPI PUSH2 0x255E PUSH2 0x2160 JUMP JUMPDEST JUMPDEST PUSH2 0x256B DUP6 DUP3 DUP7 ADD PUSH2 0x232B JUMP JUMPDEST SWAP3 POP POP PUSH1 0x20 PUSH2 0x257C DUP6 DUP3 DUP7 ADD PUSH2 0x23CC JUMP JUMPDEST SWAP2 POP POP SWAP3 POP SWAP3 SWAP1 POP JUMP JUMPDEST PUSH2 0x258F DUP2 PUSH2 0x2185 JUMP JUMPDEST DUP3 MSTORE POP POP JUMP JUMPDEST PUSH1 0x0 PUSH1 0x20 DUP3 ADD SWAP1 POP PUSH2 0x25AA PUSH1 0x0 DUP4 ADD DUP5 PUSH2 0x2586 JUMP JUMPDEST SWAP3 SWAP2 POP POP JUMP JUMPDEST PUSH1 0x0 PUSH2 0x25BB DUP3 PUSH2 0x2165 JUMP JUMPDEST SWAP1 POP SWAP2 SWAP1 POP JUMP JUMPDEST PUSH2 0x25CB DUP2 PUSH2 0x25B0 JUMP JUMPDEST DUP3 MSTORE POP POP JUMP JUMPDEST PUSH1 0x0 PUSH1 0x20 DUP3 ADD SWAP1 POP PUSH2 0x25E6 PUSH1 0x0 DUP4 ADD DUP5 PUSH2 0x25C2 JUMP JUMPDEST SWAP3 SWAP2 POP POP JUMP JUMPDEST PUSH1 0x0 DUP1 PUSH1 0x40 DUP4 DUP6 SUB SLT ISZERO PUSH2 0x2603 JUMPI PUSH2 0x2602 PUSH2 0x215B JUMP JUMPDEST JUMPDEST PUSH1 0x0 PUSH2 0x2611 DUP6 DUP3 DUP7 ADD PUSH2 0x23CC JUMP JUMPDEST SWAP3 POP POP PUSH1 0x20 PUSH2 0x2622 DUP6 DUP3 DUP7 ADD PUSH2 0x23CC JUMP JUMPDEST SWAP2 POP POP SWAP3 POP SWAP3 SWAP1 POP JUMP JUMPDEST PUSH32 0x4E487B7100000000000000000000000000000000000000000000000000000000 PUSH1 0x0 MSTORE PUSH1 0x22 PUSH1 0x4 MSTORE PUSH1 0x24 PUSH1 0x0 REVERT JUMPDEST PUSH1 0x0 PUSH1 0x2 DUP3 DIV SWAP1 POP PUSH1 0x1 DUP3 AND DUP1 PUSH2 0x2673 JUMPI PUSH1 0x7F DUP3 AND SWAP2 POP JUMPDEST PUSH1 0x20 DUP3 LT DUP2 SUB PUSH2 0x2686 JUMPI PUSH2 0x2685 PUSH2 0x262C JUMP JUMPDEST JUMPDEST POP SWAP2 SWAP1 POP JUMP JUMPDEST PUSH1 0x0 DUP2 SWAP1 POP SWAP3 SWAP2 POP POP JUMP JUMPDEST PUSH1 0x0 PUSH2 0x26A2 DUP3 PUSH2 0x209F JUMP JUMPDEST PUSH2 0x26AC DUP2 DUP6 PUSH2 0x268C JUMP JUMPDEST SWAP4 POP PUSH2 0x26BC DUP2 DUP6 PUSH1 0x20 DUP7 ADD PUSH2 0x20BB JUMP JUMPDEST DUP1 DUP5 ADD SWAP2 POP POP SWAP3 SWAP2 POP POP JUMP JUMPDEST PUSH1 0x0 PUSH2 0x26D4 DUP3 DUP5 PUSH2 0x2697 JUMP JUMPDEST SWAP2 POP DUP2 SWAP1 POP SWAP3 SWAP2 POP POP JUMP JUMPDEST PUSH32 0x596F7520617265206E6F7420616C6C6F77656420746F20646F20746869732E00 PUSH1 0x0 DUP3 ADD MSTORE POP JUMP JUMPDEST PUSH1 0x0 PUSH2 0x2715 PUSH1 0x1F DUP4 PUSH2 0x20AA JUMP JUMPDEST SWAP2 POP PUSH2 0x2720 DUP3 PUSH2 0x26DF JUMP JUMPDEST PUSH1 0x20 DUP3 ADD SWAP1 POP SWAP2 SWAP1 POP JUMP JUMPDEST PUSH1 0x0 PUSH1 0x20 DUP3 ADD SWAP1 POP DUP2 DUP2 SUB PUSH1 0x0 DUP4 ADD MSTORE PUSH2 0x2744 DUP2 PUSH2 0x2708 JUMP JUMPDEST SWAP1 POP SWAP2 SWAP1 POP JUMP JUMPDEST PUSH32 0x5A65726F20616464726573732E00000000000000000000000000000000000000 PUSH1 0x0 DUP3 ADD MSTORE POP JUMP JUMPDEST PUSH1 0x0 PUSH2 0x2781 PUSH1 0xD DUP4 PUSH2 0x20AA JUMP JUMPDEST SWAP2 POP PUSH2 0x278C DUP3 PUSH2 0x274B JUMP JUMPDEST PUSH1 0x20 DUP3 ADD SWAP1 POP SWAP2 SWAP1 POP JUMP JUMPDEST PUSH1 0x0 PUSH1 0x20 DUP3 ADD SWAP1 POP DUP2 DUP2 SUB PUSH1 0x0 DUP4 ADD MSTORE PUSH2 0x27B0 DUP2 PUSH2 0x2774 JUMP JUMPDEST SWAP1 POP SWAP2 SWAP1 POP JUMP JUMPDEST PUSH32 0x496E76616C696420616D6F756E74210000000000000000000000000000000000 PUSH1 0x0 DUP3 ADD MSTORE POP JUMP JUMPDEST PUSH1 0x0 PUSH2 0x27ED PUSH1 0xF DUP4 PUSH2 0x20AA JUMP JUMPDEST SWAP2 POP PUSH2 0x27F8 DUP3 PUSH2 0x27B7 JUMP JUMPDEST PUSH1 0x20 DUP3 ADD SWAP1 POP SWAP2 SWAP1 POP JUMP JUMPDEST PUSH1 0x0 PUSH1 0x20 DUP3 ADD SWAP1 POP DUP2 DUP2 SUB PUSH1 0x0 DUP4 ADD MSTORE PUSH2 0x281C DUP2 PUSH2 0x27E0 JUMP JUMPDEST SWAP1 POP SWAP2 SWAP1 POP JUMP JUMPDEST PUSH1 0x0 PUSH1 0x40 DUP3 ADD SWAP1 POP DUP2 DUP2 SUB PUSH1 0x0 DUP4 ADD MSTORE PUSH2 0x283D DUP2 DUP6 PUSH2 0x20F6 JUMP JUMPDEST SWAP1 POP PUSH2 0x284C PUSH1 0x20 DUP4 ADD DUP5 PUSH2 0x21FA JUMP JUMPDEST SWAP4 SWAP3 POP POP POP JUMP JUMPDEST PUSH32 0x61646D696E000000000000000000000000000000000000000000000000000000 PUSH1 0x0 DUP3 ADD MSTORE POP JUMP JUMPDEST PUSH1 0x0 PUSH2 0x2889 PUSH1 0x5 DUP4 PUSH2 0x268C JUMP JUMPDEST SWAP2 POP PUSH2 0x2894 DUP3 PUSH2 0x2853 JUMP JUMPDEST PUSH1 0x5 DUP3 ADD SWAP1 POP SWAP2 SWAP1 POP JUMP JUMPDEST PUSH1 0x0 PUSH2 0x28AA DUP3 PUSH2 0x287C JUMP JUMPDEST SWAP2 POP DUP2 SWAP1 POP SWAP2 SWAP1 POP JUMP JUMPDEST PUSH32 0x4D696E7420746F20746865207A65726F20616464726573732E00000000000000 PUSH1 0x0 DUP3 ADD MSTORE POP JUMP JUMPDEST PUSH1 0x0 PUSH2 0x28EA PUSH1 0x19 DUP4 PUSH2 0x20AA JUMP JUMPDEST SWAP2 POP PUSH2 0x28F5 DUP3 PUSH2 0x28B4 JUMP JUMPDEST PUSH1 0x20 DUP3 ADD SWAP1 POP SWAP2 SWAP1 POP JUMP JUMPDEST PUSH1 0x0 PUSH1 0x20 DUP3 ADD SWAP1 POP DUP2 DUP2 SUB PUSH1 0x0 DUP4 ADD MSTORE PUSH2 0x2919 DUP2 PUSH2 0x28DD JUMP JUMPDEST SWAP1 POP SWAP2 SWAP1 POP JUMP JUMPDEST PUSH32 0x4E487B7100000000000000000000000000000000000000000000000000000000 PUSH1 0x0 MSTORE PUSH1 0x11 PUSH1 0x4 MSTORE PUSH1 0x24 PUSH1 0x0 REVERT JUMPDEST PUSH1 0x0 PUSH2 0x295A DUP3 PUSH2 0x21F0 JUMP JUMPDEST SWAP2 POP PUSH2 0x2965 DUP4 PUSH2 0x21F0 JUMP JUMPDEST SWAP3 POP DUP3 DUP3 ADD SWAP1 POP DUP1 DUP3 GT ISZERO PUSH2 0x297D JUMPI PUSH2 0x297C PUSH2 0x2920 JUMP JUMPDEST JUMPDEST SWAP3 SWAP2 POP POP JUMP JUMPDEST PUSH1 0x0 PUSH2 0x298E DUP3 PUSH2 0x21F0 JUMP JUMPDEST SWAP2 POP PUSH2 0x2999 DUP4 PUSH2 0x21F0 JUMP JUMPDEST SWAP3 POP DUP3 DUP3 SUB SWAP1 POP DUP2 DUP2 GT ISZERO PUSH2 0x29B1 JUMPI PUSH2 0x29B0 PUSH2 0x2920 JUMP JUMPDEST JUMPDEST SWAP3 SWAP2 POP POP JUMP JUMPDEST PUSH32 0x596F75206E65656420746F20616374697661746520796F7572206163636F756E PUSH1 0x0 DUP3 ADD MSTORE PUSH32 0x742E000000000000000000000000000000000000000000000000000000000000 PUSH1 0x20 DUP3 ADD MSTORE POP JUMP JUMPDEST PUSH1 0x0 PUSH2 0x2A13 PUSH1 0x22 DUP4 PUSH2 0x20AA JUMP JUMPDEST SWAP2 POP PUSH2 0x2A1E DUP3 PUSH2 0x29B7 JUMP JUMPDEST PUSH1 0x40 DUP3 ADD SWAP1 POP SWAP2 SWAP1 POP JUMP JUMPDEST PUSH1 0x0 PUSH1 0x20 DUP3 ADD SWAP1 POP DUP2 DUP2 SUB PUSH1 0x0 DUP4 ADD MSTORE PUSH2 0x2A42 DUP2 PUSH2 0x2A06 JUMP JUMPDEST SWAP1 POP SWAP2 SWAP1 POP JUMP JUMPDEST PUSH32 0x496E76616C696420566F6C756D652E2030202D20313030000000000000000000 PUSH1 0x0 DUP3 ADD MSTORE POP JUMP JUMPDEST PUSH1 0x0 PUSH2 0x2A7F PUSH1 0x17 DUP4 PUSH2 0x20AA JUMP JUMPDEST SWAP2 POP PUSH2 0x2A8A DUP3 PUSH2 0x2A49 JUMP JUMPDEST PUSH1 0x20 DUP3 ADD SWAP1 POP SWAP2 SWAP1 POP JUMP JUMPDEST PUSH1 0x0 PUSH1 0x20 DUP3 ADD SWAP1 POP DUP2 DUP2 SUB PUSH1 0x0 DUP4 ADD MSTORE PUSH2 0x2AAE DUP2 PUSH2 0x2A72 JUMP JUMPDEST SWAP1 POP SWAP2 SWAP1 POP JUMP JUMPDEST PUSH32 0x7365745F766F6C756D6500000000000000000000000000000000000000000000 PUSH1 0x0 DUP3 ADD MSTORE POP JUMP JUMPDEST PUSH1 0x0 PUSH2 0x2AEB PUSH1 0xA DUP4 PUSH2 0x20AA JUMP JUMPDEST SWAP2 POP PUSH2 0x2AF6 DUP3 PUSH2 0x2AB5 JUMP JUMPDEST PUSH1 0x20 DUP3 ADD SWAP1 POP SWAP2 SWAP1 POP JUMP JUMPDEST PUSH1 0x0 PUSH1 0x20 DUP3 ADD SWAP1 POP DUP2 DUP2 SUB PUSH1 0x0 DUP4 ADD MSTORE PUSH2 0x2B1A DUP2 PUSH2 0x2ADE JUMP JUMPDEST SWAP1 POP SWAP2 SWAP1 POP JUMP JUMPDEST PUSH32 0x496E76616C69642056616C75652E20546869732069732031206F722030000000 PUSH1 0x0 DUP3 ADD MSTORE POP JUMP JUMPDEST PUSH1 0x0 PUSH2 0x2B57 PUSH1 0x1D DUP4 PUSH2 0x20AA JUMP JUMPDEST SWAP2 POP PUSH2 0x2B62 DUP3 PUSH2 0x2B21 JUMP JUMPDEST PUSH1 0x20 DUP3 ADD SWAP1 POP SWAP2 SWAP1 POP JUMP JUMPDEST PUSH1 0x0 PUSH1 0x20 DUP3 ADD SWAP1 POP DUP2 DUP2 SUB PUSH1 0x0 DUP4 ADD MSTORE PUSH2 0x2B86 DUP2 PUSH2 0x2B4A JUMP JUMPDEST SWAP1 POP SWAP2 SWAP1 POP JUMP JUMPDEST PUSH32 0x6368616E67655F6E7366775F66696C7465720000000000000000000000000000 PUSH1 0x0 DUP3 ADD MSTORE POP JUMP JUMPDEST PUSH1 0x0 PUSH2 0x2BC3 PUSH1 0x12 DUP4 PUSH2 0x20AA JUMP JUMPDEST SWAP2 POP PUSH2 0x2BCE DUP3 PUSH2 0x2B8D JUMP JUMPDEST PUSH1 0x20 DUP3 ADD SWAP1 POP SWAP2 SWAP1 POP JUMP JUMPDEST PUSH1 0x0 PUSH1 0x20 DUP3 ADD SWAP1 POP DUP2 DUP2 SUB PUSH1 0x0 DUP4 ADD MSTORE PUSH2 0x2BF2 DUP2 PUSH2 0x2BB6 JUMP JUMPDEST SWAP1 POP SWAP2 SWAP1 POP JUMP JUMPDEST PUSH32 0x54686973206163636F756E7420697320616C7265616479206163746976617465 PUSH1 0x0 DUP3 ADD MSTORE PUSH32 0x642E000000000000000000000000000000000000000000000000000000000000 PUSH1 0x20 DUP3 ADD MSTORE POP JUMP JUMPDEST PUSH1 0x0 PUSH2 0x2C55 PUSH1 0x22 DUP4 PUSH2 0x20AA JUMP JUMPDEST SWAP2 POP PUSH2 0x2C60 DUP3 PUSH2 0x2BF9 JUMP JUMPDEST PUSH1 0x40 DUP3 ADD SWAP1 POP SWAP2 SWAP1 POP JUMP JUMPDEST PUSH1 0x0 PUSH1 0x20 DUP3 ADD SWAP1 POP DUP2 DUP2 SUB PUSH1 0x0 DUP4 ADD MSTORE PUSH2 0x2C84 DUP2 PUSH2 0x2C48 JUMP JUMPDEST SWAP1 POP SWAP2 SWAP1 POP JUMP JUMPDEST PUSH32 0x656E61626C650000000000000000000000000000000000000000000000000000 PUSH1 0x0 DUP3 ADD MSTORE POP JUMP JUMPDEST PUSH1 0x0 PUSH2 0x2CC1 PUSH1 0x6 DUP4 PUSH2 0x20AA JUMP JUMPDEST SWAP2 POP PUSH2 0x2CCC DUP3 PUSH2 0x2C8B JUMP JUMPDEST PUSH1 0x20 DUP3 ADD SWAP1 POP SWAP2 SWAP1 POP JUMP JUMPDEST PUSH1 0x0 PUSH1 0x20 DUP3 ADD SWAP1 POP DUP2 DUP2 SUB PUSH1 0x0 DUP4 ADD MSTORE PUSH2 0x2CF0 DUP2 PUSH2 0x2CB4 JUMP JUMPDEST SWAP1 POP SWAP2 SWAP1 POP JUMP JUMPDEST PUSH32 0x596F75206D7573742068617665206174206C65617374203120746F6B656E2E00 PUSH1 0x0 DUP3 ADD MSTORE POP JUMP JUMPDEST PUSH1 0x0 PUSH2 0x2D2D PUSH1 0x1F DUP4 PUSH2 0x20AA JUMP JUMPDEST SWAP2 POP PUSH2 0x2D38 DUP3 PUSH2 0x2CF7 JUMP JUMPDEST PUSH1 0x20 DUP3 ADD SWAP1 POP SWAP2 SWAP1 POP JUMP JUMPDEST PUSH1 0x0 PUSH1 0x20 DUP3 ADD SWAP1 POP DUP2 DUP2 SUB PUSH1 0x0 DUP4 ADD MSTORE PUSH2 0x2D5C DUP2 PUSH2 0x2D20 JUMP JUMPDEST SWAP1 POP SWAP2 SWAP1 POP JUMP JUMPDEST PUSH32 0x496E76616C696420436861707465722E00000000000000000000000000000000 PUSH1 0x0 DUP3 ADD MSTORE POP JUMP JUMPDEST PUSH1 0x0 PUSH2 0x2D99 PUSH1 0x10 DUP4 PUSH2 0x20AA JUMP JUMPDEST SWAP2 POP PUSH2 0x2DA4 DUP3 PUSH2 0x2D63 JUMP JUMPDEST PUSH1 0x20 DUP3 ADD SWAP1 POP SWAP2 SWAP1 POP JUMP JUMPDEST PUSH1 0x0 PUSH1 0x20 DUP3 ADD SWAP1 POP DUP2 DUP2 SUB PUSH1 0x0 DUP4 ADD MSTORE PUSH2 0x2DC8 DUP2 PUSH2 0x2D8C JUMP JUMPDEST SWAP1 POP SWAP2 SWAP1 POP JUMP JUMPDEST PUSH32 0x496E76616C69642056616C75652E000000000000000000000000000000000000 PUSH1 0x0 DUP3 ADD MSTORE POP JUMP JUMPDEST PUSH1 0x0 PUSH2 0x2E05 PUSH1 0xE DUP4 PUSH2 0x20AA JUMP JUMPDEST SWAP2 POP PUSH2 0x2E10 DUP3 PUSH2 0x2DCF JUMP JUMPDEST PUSH1 0x20 DUP3 ADD SWAP1 POP SWAP2 SWAP1 POP JUMP JUMPDEST PUSH1 0x0 PUSH1 0x20 DUP3 ADD SWAP1 POP DUP2 DUP2 SUB PUSH1 0x0 DUP4 ADD MSTORE PUSH2 0x2E34 DUP2 PUSH2 0x2DF8 JUMP JUMPDEST SWAP1 POP SWAP2 SWAP1 POP JUMP JUMPDEST PUSH32 0x696E736572745F626F6F6B6D61726B0000000000000000000000000000000000 PUSH1 0x0 DUP3 ADD MSTORE POP JUMP JUMPDEST PUSH1 0x0 PUSH2 0x2E71 PUSH1 0xF DUP4 PUSH2 0x20AA JUMP JUMPDEST SWAP2 POP PUSH2 0x2E7C DUP3 PUSH2 0x2E3B JUMP JUMPDEST PUSH1 0x20 DUP3 ADD SWAP1 POP SWAP2 SWAP1 POP JUMP JUMPDEST PUSH1 0x0 PUSH1 0x20 DUP3 ADD SWAP1 POP DUP2 DUP2 SUB PUSH1 0x0 DUP4 ADD MSTORE PUSH2 0x2EA0 DUP2 PUSH2 0x2E64 JUMP JUMPDEST SWAP1 POP SWAP2 SWAP1 POP JUMP INVALID LOG2 PUSH5 0x6970667358 0x22 SLT KECCAK256 0xBD 0xDE PUSH7 0xDD867910AC2258 CALLER DUP5 0xE8 0xC5 PUSH24 0xDF771B4902D9A32B9AA369B8ABBD4B460564736F6C634300 ADDMOD LT STOP CALLER "
				},
				"gasEstimates": {
					"creation": {
						"codeDepositCost": "2399400",
						"executionCost": "infinite",
						"totalCost": "infinite"
					},
					"external": {
						"balanceOf(address)": "2930",
						"balances(address)": "2904",
						"bookmark(address,uint256)": "infinite",
						"burn(uint256)": "infinite",
						"changeNsfwFilter(string,uint256)": "infinite",
						"decimals()": "2583",
						"donate()": "infinite",
						"donations(address)": "2925",
						"enable()": "infinite",
						"getBookmark(address,uint256)": "infinite",
						"getNsfwFilter(address,string)": "infinite",
						"getOwner()": "2633",
						"getPerm(address,string)": "infinite",
						"getVolume(address)": "2887",
						"insertBookmark(uint256,uint256)": "infinite",
						"interactions(address)": "2883",
						"mint(address,uint256)": "infinite",
						"name()": "infinite",
						"nsfw_filter(address,string)": "infinite",
						"owner()": "2579",
						"perm(address,string)": "infinite",
						"setPerm(address,string,uint256)": "infinite",
						"setVolume(uint256)": "infinite",
						"symbol()": "infinite",
						"totalInteractions()": "2540",
						"totalSupply()": "2475",
						"transfer(address,uint256)": "infinite",
						"transferOwnership(address)": "30655",
						"volume(address)": "2881"
					}
				},
				"methodIdentifiers": {
					"balanceOf(address)": "70a08231",
					"balances(address)": "27e235e3",
					"bookmark(address,uint256)": "9c6950a1",
					"burn(uint256)": "42966c68",
					"changeNsfwFilter(string,uint256)": "481dcb7b",
					"decimals()": "313ce567",
					"donate()": "ed88c68e",
					"donations(address)": "cc6cb19a",
					"enable()": "a3907d71",
					"getBookmark(address,uint256)": "9a3d66c0",
					"getNsfwFilter(address,string)": "0db17965",
					"getOwner()": "893d20e8",
					"getPerm(address,string)": "f41e7222",
					"getVolume(address)": "8ba17f86",
					"insertBookmark(uint256,uint256)": "edc84da0",
					"interactions(address)": "08a6f252",
					"mint(address,uint256)": "40c10f19",
					"name()": "06fdde03",
					"nsfw_filter(address,string)": "b943cd16",
					"owner()": "8da5cb5b",
					"perm(address,string)": "70734fb2",
					"setPerm(address,string,uint256)": "18835c2a",
					"setVolume(uint256)": "4559dcdc",
					"symbol()": "95d89b41",
					"totalInteractions()": "a843651e",
					"totalSupply()": "18160ddd",
					"transfer(address,uint256)": "a9059cbb",
					"transferOwnership(address)": "f2fde38b",
					"volume(address)": "adeabba9"
				}
			},
			"storageLayout": {
				"storage": [
					{
						"astId": 3,
						"contract": "build/solidity/base.sol:PonyDrilandBase",
						"label": "owner",
						"offset": 0,
						"slot": "0",
						"type": "t_address_payable"
					},
					{
						"astId": 7,
						"contract": "build/solidity/base.sol:PonyDrilandBase",
						"label": "balances",
						"offset": 0,
						"slot": "1",
						"type": "t_mapping(t_address,t_uint256)"
					},
					{
						"astId": 11,
						"contract": "build/solidity/base.sol:PonyDrilandBase",
						"label": "donations",
						"offset": 0,
						"slot": "2",
						"type": "t_mapping(t_address,t_uint256)"
					},
					{
						"astId": 15,
						"contract": "build/solidity/base.sol:PonyDrilandBase",
						"label": "interactions",
						"offset": 0,
						"slot": "3",
						"type": "t_mapping(t_address,t_uint256)"
					},
					{
						"astId": 21,
						"contract": "build/solidity/base.sol:PonyDrilandBase",
						"label": "perm",
						"offset": 0,
						"slot": "4",
						"type": "t_mapping(t_address,t_mapping(t_string_memory_ptr,t_uint256))"
					},
					{
						"astId": 27,
						"contract": "build/solidity/base.sol:PonyDrilandBase",
						"label": "bookmark",
						"offset": 0,
						"slot": "5",
						"type": "t_mapping(t_address,t_mapping(t_uint256,t_uint256))"
					},
					{
						"astId": 33,
						"contract": "build/solidity/base.sol:PonyDrilandBase",
						"label": "nsfw_filter",
						"offset": 0,
						"slot": "6",
						"type": "t_mapping(t_address,t_mapping(t_string_memory_ptr,t_uint256))"
					},
					{
						"astId": 37,
						"contract": "build/solidity/base.sol:PonyDrilandBase",
						"label": "volume",
						"offset": 0,
						"slot": "7",
						"type": "t_mapping(t_address,t_uint256)"
					},
					{
						"astId": 39,
						"contract": "build/solidity/base.sol:PonyDrilandBase",
						"label": "name",
						"offset": 0,
						"slot": "8",
						"type": "t_string_storage"
					},
					{
						"astId": 41,
						"contract": "build/solidity/base.sol:PonyDrilandBase",
						"label": "symbol",
						"offset": 0,
						"slot": "9",
						"type": "t_string_storage"
					},
					{
						"astId": 43,
						"contract": "build/solidity/base.sol:PonyDrilandBase",
						"label": "decimals",
						"offset": 0,
						"slot": "10",
						"type": "t_uint8"
					},
					{
						"astId": 45,
						"contract": "build/solidity/base.sol:PonyDrilandBase",
						"label": "totalSupply",
						"offset": 0,
						"slot": "11",
						"type": "t_uint256"
					},
					{
						"astId": 47,
						"contract": "build/solidity/base.sol:PonyDrilandBase",
						"label": "totalInteractions",
						"offset": 0,
						"slot": "12",
						"type": "t_uint256"
					}
				],
				"types": {
					"t_address": {
						"encoding": "inplace",
						"label": "address",
						"numberOfBytes": "20"
					},
					"t_address_payable": {
						"encoding": "inplace",
						"label": "address payable",
						"numberOfBytes": "20"
					},
					"t_mapping(t_address,t_mapping(t_string_memory_ptr,t_uint256))": {
						"encoding": "mapping",
						"key": "t_address",
						"label": "mapping(address => mapping(string => uint256))",
						"numberOfBytes": "32",
						"value": "t_mapping(t_string_memory_ptr,t_uint256)"
					},
					"t_mapping(t_address,t_mapping(t_uint256,t_uint256))": {
						"encoding": "mapping",
						"key": "t_address",
						"label": "mapping(address => mapping(uint256 => uint256))",
						"numberOfBytes": "32",
						"value": "t_mapping(t_uint256,t_uint256)"
					},
					"t_mapping(t_address,t_uint256)": {
						"encoding": "mapping",
						"key": "t_address",
						"label": "mapping(address => uint256)",
						"numberOfBytes": "32",
						"value": "t_uint256"
					},
					"t_mapping(t_string_memory_ptr,t_uint256)": {
						"encoding": "mapping",
						"key": "t_string_memory_ptr",
						"label": "mapping(string => uint256)",
						"numberOfBytes": "32",
						"value": "t_uint256"
					},
					"t_mapping(t_uint256,t_uint256)": {
						"encoding": "mapping",
						"key": "t_uint256",
						"label": "mapping(uint256 => uint256)",
						"numberOfBytes": "32",
						"value": "t_uint256"
					},
					"t_string_memory_ptr": {
						"encoding": "bytes",
						"label": "string",
						"numberOfBytes": "32"
					},
					"t_string_storage": {
						"encoding": "bytes",
						"label": "string",
						"numberOfBytes": "32"
					},
					"t_uint256": {
						"encoding": "inplace",
						"label": "uint256",
						"numberOfBytes": "32"
					},
					"t_uint8": {
						"encoding": "inplace",
						"label": "uint8",
						"numberOfBytes": "1"
					}
				}
			},
			"userdoc": {
				"kind": "user",
				"methods": {},
				"version": 1
			}
		}
	}
}