{
	"build/solidity/base.sol": {
		"PonyDrilandBase": {
			"abi": [
				{
					"inputs": [],
					"stateMutability": "nonpayable",
					"type": "constructor"
				},
				{
					"anonymous": false,
					"inputs": [
						{
							"indexed": true,
							"internalType": "address",
							"name": "from",
							"type": "address"
						},
						{
							"indexed": false,
							"internalType": "uint256",
							"name": "chapter",
							"type": "uint256"
						},
						{
							"indexed": false,
							"internalType": "uint256",
							"name": "value",
							"type": "uint256"
						}
					],
					"name": "Bookmark",
					"type": "event"
				},
				{
					"anonymous": false,
					"inputs": [
						{
							"indexed": true,
							"internalType": "address",
							"name": "value",
							"type": "address"
						}
					],
					"name": "Enable",
					"type": "event"
				},
				{
					"anonymous": false,
					"inputs": [
						{
							"indexed": true,
							"internalType": "address",
							"name": "from",
							"type": "address"
						},
						{
							"indexed": false,
							"internalType": "string",
							"name": "value",
							"type": "string"
						}
					],
					"name": "Interaction",
					"type": "event"
				},
				{
					"anonymous": false,
					"inputs": [
						{
							"indexed": true,
							"internalType": "address",
							"name": "from",
							"type": "address"
						},
						{
							"indexed": false,
							"internalType": "string",
							"name": "filter",
							"type": "string"
						},
						{
							"indexed": false,
							"internalType": "uint256",
							"name": "value",
							"type": "uint256"
						}
					],
					"name": "NsfwFilter",
					"type": "event"
				},
				{
					"anonymous": false,
					"inputs": [
						{
							"indexed": true,
							"internalType": "address",
							"name": "previousOwner",
							"type": "address"
						},
						{
							"indexed": true,
							"internalType": "address",
							"name": "newOwner",
							"type": "address"
						}
					],
					"name": "OwnershipTransferred",
					"type": "event"
				},
				{
					"anonymous": false,
					"inputs": [
						{
							"indexed": true,
							"internalType": "address",
							"name": "from",
							"type": "address"
						},
						{
							"indexed": false,
							"internalType": "string",
							"name": "value",
							"type": "string"
						}
					],
					"name": "Volume",
					"type": "event"
				},
				{
					"inputs": [
						{
							"internalType": "address",
							"name": "",
							"type": "address"
						},
						{
							"internalType": "uint256",
							"name": "",
							"type": "uint256"
						}
					],
					"name": "bookmark",
					"outputs": [
						{
							"internalType": "uint256",
							"name": "",
							"type": "uint256"
						}
					],
					"stateMutability": "view",
					"type": "function"
				},
				{
					"inputs": [
						{
							"internalType": "string",
							"name": "_name",
							"type": "string"
						},
						{
							"internalType": "uint256",
							"name": "amount",
							"type": "uint256"
						}
					],
					"name": "changeNsfwFilter",
					"outputs": [
						{
							"internalType": "bool",
							"name": "success",
							"type": "bool"
						}
					],
					"stateMutability": "nonpayable",
					"type": "function"
				},
				{
					"inputs": [],
					"name": "enable",
					"outputs": [
						{
							"internalType": "bool",
							"name": "success",
							"type": "bool"
						}
					],
					"stateMutability": "nonpayable",
					"type": "function"
				},
				{
					"inputs": [
						{
							"internalType": "address",
							"name": "",
							"type": "address"
						}
					],
					"name": "enabled",
					"outputs": [
						{
							"internalType": "uint256",
							"name": "",
							"type": "uint256"
						}
					],
					"stateMutability": "view",
					"type": "function"
				},
				{
					"inputs": [
						{
							"internalType": "address",
							"name": "_account",
							"type": "address"
						},
						{
							"internalType": "uint256",
							"name": "_chapter",
							"type": "uint256"
						}
					],
					"name": "getBookmark",
					"outputs": [
						{
							"internalType": "uint256",
							"name": "",
							"type": "uint256"
						}
					],
					"stateMutability": "view",
					"type": "function"
				},
				{
					"inputs": [],
					"name": "getInteractions",
					"outputs": [
						{
							"internalType": "uint256",
							"name": "",
							"type": "uint256"
						}
					],
					"stateMutability": "view",
					"type": "function"
				},
				{
					"inputs": [
						{
							"internalType": "address",
							"name": "_account",
							"type": "address"
						},
						{
							"internalType": "string",
							"name": "_name",
							"type": "string"
						}
					],
					"name": "getNsfwFilter",
					"outputs": [
						{
							"internalType": "uint256",
							"name": "",
							"type": "uint256"
						}
					],
					"stateMutability": "view",
					"type": "function"
				},
				{
					"inputs": [],
					"name": "getOwner",
					"outputs": [
						{
							"internalType": "address",
							"name": "",
							"type": "address"
						}
					],
					"stateMutability": "view",
					"type": "function"
				},
				{
					"inputs": [
						{
							"internalType": "address",
							"name": "_account",
							"type": "address"
						}
					],
					"name": "getVolume",
					"outputs": [
						{
							"internalType": "uint256",
							"name": "",
							"type": "uint256"
						}
					],
					"stateMutability": "view",
					"type": "function"
				},
				{
					"inputs": [],
					"name": "getWallets",
					"outputs": [
						{
							"internalType": "uint256",
							"name": "",
							"type": "uint256"
						}
					],
					"stateMutability": "view",
					"type": "function"
				},
				{
					"inputs": [
						{
							"internalType": "uint256",
							"name": "_chapter",
							"type": "uint256"
						},
						{
							"internalType": "uint256",
							"name": "amount",
							"type": "uint256"
						}
					],
					"name": "insertBookmark",
					"outputs": [
						{
							"internalType": "bool",
							"name": "success",
							"type": "bool"
						}
					],
					"stateMutability": "nonpayable",
					"type": "function"
				},
				{
					"inputs": [
						{
							"internalType": "address",
							"name": "",
							"type": "address"
						}
					],
					"name": "interactions",
					"outputs": [
						{
							"internalType": "uint256",
							"name": "",
							"type": "uint256"
						}
					],
					"stateMutability": "view",
					"type": "function"
				},
				{
					"inputs": [],
					"name": "name",
					"outputs": [
						{
							"internalType": "string",
							"name": "",
							"type": "string"
						}
					],
					"stateMutability": "view",
					"type": "function"
				},
				{
					"inputs": [
						{
							"internalType": "address",
							"name": "",
							"type": "address"
						},
						{
							"internalType": "string",
							"name": "",
							"type": "string"
						}
					],
					"name": "nsfw_filter",
					"outputs": [
						{
							"internalType": "uint256",
							"name": "",
							"type": "uint256"
						}
					],
					"stateMutability": "view",
					"type": "function"
				},
				{
					"inputs": [],
					"name": "owner",
					"outputs": [
						{
							"internalType": "address payable",
							"name": "",
							"type": "address"
						}
					],
					"stateMutability": "view",
					"type": "function"
				},
				{
					"inputs": [
						{
							"internalType": "uint256",
							"name": "amount",
							"type": "uint256"
						}
					],
					"name": "setVolume",
					"outputs": [
						{
							"internalType": "bool",
							"name": "success",
							"type": "bool"
						}
					],
					"stateMutability": "nonpayable",
					"type": "function"
				},
				{
					"inputs": [],
					"name": "totalInteractions",
					"outputs": [
						{
							"internalType": "uint256",
							"name": "",
							"type": "uint256"
						}
					],
					"stateMutability": "view",
					"type": "function"
				},
				{
					"inputs": [
						{
							"internalType": "address",
							"name": "newOwner",
							"type": "address"
						}
					],
					"name": "transferOwnership",
					"outputs": [],
					"stateMutability": "nonpayable",
					"type": "function"
				},
				{
					"inputs": [
						{
							"internalType": "address",
							"name": "",
							"type": "address"
						}
					],
					"name": "volume",
					"outputs": [
						{
							"internalType": "uint256",
							"name": "",
							"type": "uint256"
						}
					],
					"stateMutability": "view",
					"type": "function"
				},
				{
					"inputs": [],
					"name": "wallets",
					"outputs": [
						{
							"internalType": "uint256",
							"name": "",
							"type": "uint256"
						}
					],
					"stateMutability": "view",
					"type": "function"
				}
			],
			"devdoc": {
				"kind": "dev",
				"methods": {},
				"version": 1
			},
			"evm": {
				"assembly": "    /* \"build/solidity/base.sol\":64:4525  contract PonyDrilandBase {... */\n  mstore(0x40, 0x80)\n    /* \"build/solidity/base.sol\":988:1148  constructor() {... */\n  callvalue\n  dup1\n  iszero\n  tag_1\n  jumpi\n  0x00\n  dup1\n  revert\ntag_1:\n  pop\n    /* \"build/solidity/base.sol\":1015:1020  owner */\n  0x00\n    /* \"build/solidity/base.sol\":1015:1042  owner = payable(msg.sender) */\n  dup1\n  sload\n  not(sub(shl(0xa0, 0x01), 0x01))\n  and\n    /* \"build/solidity/base.sol\":1031:1041  msg.sender */\n  caller\n    /* \"build/solidity/base.sol\":1015:1042  owner = payable(msg.sender) */\n  or\n  swap1\n  sstore\n    /* \"build/solidity/base.sol\":1061:1082  name = \"Pony Driland\" */\n  0x40\n  dup1\n  mload\n  dup1\n  dup3\n  add\n  swap1\n  swap2\n  mstore\n  0x0c\n  dup2\n  mstore\n  shl(0xa2, 0x141bdb9e48111c9a5b185b99)\n  0x20\n  dup3\n  add\n  mstore\n    /* \"build/solidity/base.sol\":1061:1065  name */\n  0x06\n  swap1\n    /* \"build/solidity/base.sol\":1061:1082  name = \"Pony Driland\" */\n  tag_4\n  swap1\n    /* \"build/solidity/base.sol\":1061:1065  name */\n  dup3\n    /* \"build/solidity/base.sol\":1061:1082  name = \"Pony Driland\" */\n  tag_5\n  jump\t// in\ntag_4:\n  pop\n    /* \"build/solidity/base.sol\":1105:1106  0 */\n  0x00\n    /* \"build/solidity/base.sol\":1095:1102  wallets */\n  0x07\n    /* \"build/solidity/base.sol\":1095:1106  wallets = 0 */\n  dup2\n  swap1\n  sstore\n    /* \"build/solidity/base.sol\":1117:1134  totalInteractions */\n  0x08\n    /* \"build/solidity/base.sol\":1117:1138  totalInteractions = 0 */\n  sstore\n    /* \"build/solidity/base.sol\":64:4525  contract PonyDrilandBase {... */\n  jump(tag_12)\n    /* \"#utility.yul\":14:141   */\ntag_7:\n    /* \"#utility.yul\":75:85   */\n  0x4e487b71\n    /* \"#utility.yul\":70:73   */\n  0xe0\n    /* \"#utility.yul\":66:86   */\n  shl\n    /* \"#utility.yul\":63:64   */\n  0x00\n    /* \"#utility.yul\":56:87   */\n  mstore\n    /* \"#utility.yul\":106:110   */\n  0x41\n    /* \"#utility.yul\":103:104   */\n  0x04\n    /* \"#utility.yul\":96:111   */\n  mstore\n    /* \"#utility.yul\":130:134   */\n  0x24\n    /* \"#utility.yul\":127:128   */\n  0x00\n    /* \"#utility.yul\":120:135   */\n  revert\n    /* \"#utility.yul\":146:526   */\ntag_8:\n    /* \"#utility.yul\":225:226   */\n  0x01\n    /* \"#utility.yul\":221:233   */\n  dup2\n  dup2\n  shr\n  swap1\n    /* \"#utility.yul\":268:280   */\n  dup3\n  and\n  dup1\n    /* \"#utility.yul\":289:350   */\n  tag_15\n  jumpi\n    /* \"#utility.yul\":343:347   */\n  0x7f\n    /* \"#utility.yul\":335:341   */\n  dup3\n    /* \"#utility.yul\":331:348   */\n  and\n    /* \"#utility.yul\":321:348   */\n  swap2\n  pop\n    /* \"#utility.yul\":289:350   */\ntag_15:\n    /* \"#utility.yul\":396:398   */\n  0x20\n    /* \"#utility.yul\":388:394   */\n  dup3\n    /* \"#utility.yul\":385:399   */\n  lt\n    /* \"#utility.yul\":365:383   */\n  dup2\n    /* \"#utility.yul\":362:400   */\n  sub\n    /* \"#utility.yul\":359:520   */\n  tag_16\n  jumpi\n    /* \"#utility.yul\":442:452   */\n  0x4e487b71\n    /* \"#utility.yul\":437:440   */\n  0xe0\n    /* \"#utility.yul\":433:453   */\n  shl\n    /* \"#utility.yul\":430:431   */\n  0x00\n    /* \"#utility.yul\":423:454   */\n  mstore\n    /* \"#utility.yul\":477:481   */\n  0x22\n    /* \"#utility.yul\":474:475   */\n  0x04\n    /* \"#utility.yul\":467:482   */\n  mstore\n    /* \"#utility.yul\":505:509   */\n  0x24\n    /* \"#utility.yul\":502:503   */\n  0x00\n    /* \"#utility.yul\":495:510   */\n  revert\n    /* \"#utility.yul\":359:520   */\ntag_16:\n  pop\n    /* \"#utility.yul\":146:526   */\n  swap2\n  swap1\n  pop\n  jump\t// out\n    /* \"#utility.yul\":657:1202   */\ntag_10:\n    /* \"#utility.yul\":759:761   */\n  0x1f\n    /* \"#utility.yul\":754:757   */\n  dup3\n    /* \"#utility.yul\":751:762   */\n  gt\n    /* \"#utility.yul\":748:1196   */\n  iszero\n  tag_19\n  jumpi\n    /* \"#utility.yul\":795:796   */\n  0x00\n    /* \"#utility.yul\":820:825   */\n  dup2\n    /* \"#utility.yul\":816:818   */\n  dup2\n    /* \"#utility.yul\":809:826   */\n  mstore\n    /* \"#utility.yul\":865:869   */\n  0x20\n    /* \"#utility.yul\":861:863   */\n  dup2\n    /* \"#utility.yul\":851:870   */\n  keccak256\n    /* \"#utility.yul\":935:937   */\n  0x1f\n    /* \"#utility.yul\":923:933   */\n  dup6\n    /* \"#utility.yul\":919:938   */\n  add\n    /* \"#utility.yul\":916:917   */\n  0x05\n    /* \"#utility.yul\":912:939   */\n  shr\n    /* \"#utility.yul\":906:910   */\n  dup2\n    /* \"#utility.yul\":902:940   */\n  add\n    /* \"#utility.yul\":971:975   */\n  0x20\n    /* \"#utility.yul\":959:969   */\n  dup7\n    /* \"#utility.yul\":956:976   */\n  lt\n    /* \"#utility.yul\":953:1000   */\n  iszero\n  tag_20\n  jumpi\n  pop\n    /* \"#utility.yul\":994:998   */\n  dup1\n    /* \"#utility.yul\":953:1000   */\ntag_20:\n    /* \"#utility.yul\":1049:1051   */\n  0x1f\n    /* \"#utility.yul\":1044:1047   */\n  dup6\n    /* \"#utility.yul\":1040:1052   */\n  add\n    /* \"#utility.yul\":1037:1038   */\n  0x05\n    /* \"#utility.yul\":1033:1053   */\n  shr\n    /* \"#utility.yul\":1027:1031   */\n  dup3\n    /* \"#utility.yul\":1023:1054   */\n  add\n    /* \"#utility.yul\":1013:1054   */\n  swap2\n  pop\n    /* \"#utility.yul\":1104:1186   */\ntag_21:\n    /* \"#utility.yul\":1122:1124   */\n  dup2\n    /* \"#utility.yul\":1115:1120   */\n  dup2\n    /* \"#utility.yul\":1112:1125   */\n  lt\n    /* \"#utility.yul\":1104:1186   */\n  iszero\n  tag_23\n  jumpi\n    /* \"#utility.yul\":1167:1184   */\n  dup3\n  dup2\n  sstore\n    /* \"#utility.yul\":1148:1149   */\n  0x01\n    /* \"#utility.yul\":1137:1150   */\n  add\n    /* \"#utility.yul\":1104:1186   */\n  jump(tag_21)\ntag_23:\n    /* \"#utility.yul\":1108:1111   */\n  pop\n  pop\n  pop\n    /* \"#utility.yul\":748:1196   */\ntag_19:\n    /* \"#utility.yul\":657:1202   */\n  pop\n  pop\n  pop\n  jump\t// out\n    /* \"#utility.yul\":1378:2730   */\ntag_5:\n    /* \"#utility.yul\":1498:1508   */\n  dup2\n  mload\n  sub(shl(0x40, 0x01), 0x01)\n    /* \"#utility.yul\":1520:1550   */\n  dup2\n  gt\n    /* \"#utility.yul\":1517:1573   */\n  iszero\n  tag_27\n  jumpi\n    /* \"#utility.yul\":1553:1571   */\n  tag_27\n  tag_7\n  jump\t// in\ntag_27:\n    /* \"#utility.yul\":1582:1679   */\n  tag_28\n    /* \"#utility.yul\":1672:1678   */\n  dup2\n    /* \"#utility.yul\":1632:1670   */\n  tag_29\n    /* \"#utility.yul\":1664:1668   */\n  dup5\n    /* \"#utility.yul\":1658:1669   */\n  sload\n    /* \"#utility.yul\":1632:1670   */\n  tag_8\n  jump\t// in\ntag_29:\n    /* \"#utility.yul\":1626:1630   */\n  dup5\n    /* \"#utility.yul\":1582:1679   */\n  tag_10\n  jump\t// in\ntag_28:\n    /* \"#utility.yul\":1734:1738   */\n  0x20\n  dup1\n    /* \"#utility.yul\":1798:1800   */\n  0x1f\n    /* \"#utility.yul\":1787:1801   */\n  dup4\n  gt\n    /* \"#utility.yul\":1815:1816   */\n  0x01\n    /* \"#utility.yul\":1810:2473   */\n  dup2\n  eq\n  tag_31\n  jumpi\n    /* \"#utility.yul\":2517:2518   */\n  0x00\n    /* \"#utility.yul\":2534:2540   */\n  dup5\n    /* \"#utility.yul\":2531:2620   */\n  iszero\n  tag_32\n  jumpi\n  pop\n    /* \"#utility.yul\":2586:2605   */\n  dup6\n  dup4\n  add\n    /* \"#utility.yul\":2580:2606   */\n  mload\n    /* \"#utility.yul\":2531:2620   */\ntag_32:\n  not(0x00)\n    /* \"#utility.yul\":1335:1336   */\n  0x03\n    /* \"#utility.yul\":1331:1342   */\n  dup7\n  swap1\n  shl\n    /* \"#utility.yul\":1327:1351   */\n  shr\n    /* \"#utility.yul\":1323:1352   */\n  not\n    /* \"#utility.yul\":1313:1353   */\n  and\n    /* \"#utility.yul\":1359:1360   */\n  0x01\n    /* \"#utility.yul\":1355:1366   */\n  dup6\n  swap1\n  shl\n    /* \"#utility.yul\":1310:1367   */\n  or\n    /* \"#utility.yul\":2633:2714   */\n  dup6\n  sstore\n    /* \"#utility.yul\":1780:2724   */\n  jump(tag_23)\n    /* \"#utility.yul\":1810:2473   */\ntag_31:\n    /* \"#utility.yul\":604:605   */\n  0x00\n    /* \"#utility.yul\":597:611   */\n  dup6\n  dup2\n  mstore\n    /* \"#utility.yul\":641:645   */\n  0x20\n    /* \"#utility.yul\":628:646   */\n  dup2\n  keccak256\n  not(0x1f)\n    /* \"#utility.yul\":1846:1866   */\n  dup7\n  and\n  swap2\n    /* \"#utility.yul\":1964:2200   */\ntag_35:\n    /* \"#utility.yul\":1978:1985   */\n  dup3\n    /* \"#utility.yul\":1975:1976   */\n  dup2\n    /* \"#utility.yul\":1972:1986   */\n  lt\n    /* \"#utility.yul\":1964:2200   */\n  iszero\n  tag_37\n  jumpi\n    /* \"#utility.yul\":2067:2086   */\n  dup9\n  dup7\n  add\n    /* \"#utility.yul\":2061:2087   */\n  mload\n    /* \"#utility.yul\":2046:2088   */\n  dup3\n  sstore\n    /* \"#utility.yul\":2159:2186   */\n  swap5\n  dup5\n  add\n  swap5\n    /* \"#utility.yul\":2127:2128   */\n  0x01\n    /* \"#utility.yul\":2115:2129   */\n  swap1\n  swap2\n  add\n  swap1\n    /* \"#utility.yul\":1994:2013   */\n  dup5\n  add\n    /* \"#utility.yul\":1964:2200   */\n  jump(tag_35)\ntag_37:\n    /* \"#utility.yul\":1968:1971   */\n  pop\n    /* \"#utility.yul\":2228:2234   */\n  dup6\n    /* \"#utility.yul\":2219:2226   */\n  dup3\n    /* \"#utility.yul\":2216:2235   */\n  lt\n    /* \"#utility.yul\":2213:2414   */\n  iszero\n  tag_38\n  jumpi\n    /* \"#utility.yul\":2289:2308   */\n  dup8\n  dup6\n  add\n    /* \"#utility.yul\":2283:2309   */\n  mload\n  not(0x00)\n    /* \"#utility.yul\":2372:2373   */\n  0x03\n    /* \"#utility.yul\":2368:2382   */\n  dup9\n  swap1\n  shl\n    /* \"#utility.yul\":2384:2387   */\n  0xf8\n    /* \"#utility.yul\":2364:2388   */\n  and\n    /* \"#utility.yul\":2360:2397   */\n  shr\n    /* \"#utility.yul\":2356:2398   */\n  not\n    /* \"#utility.yul\":2341:2399   */\n  and\n    /* \"#utility.yul\":2326:2400   */\n  dup2\n  sstore\n    /* \"#utility.yul\":2213:2414   */\ntag_38:\n  pop\n  pop\n  pop\n  pop\n  pop\n    /* \"#utility.yul\":2460:2461   */\n  0x01\n    /* \"#utility.yul\":2444:2458   */\n  swap1\n  dup2\n  shl\n    /* \"#utility.yul\":2440:2462   */\n  add\n    /* \"#utility.yul\":2427:2463   */\n  swap1\n  sstore\n  pop\n    /* \"#utility.yul\":1378:2730   */\n  jump\t// out\ntag_12:\n    /* \"build/solidity/base.sol\":64:4525  contract PonyDrilandBase {... */\n  dataSize(sub_0)\n  dup1\n  dataOffset(sub_0)\n  0x00\n  codecopy\n  0x00\n  return\nstop\n\nsub_0: assembly {\n        /* \"build/solidity/base.sol\":64:4525  contract PonyDrilandBase {... */\n      mstore(0x40, 0x80)\n      callvalue\n      dup1\n      iszero\n      tag_1\n      jumpi\n      0x00\n      dup1\n      revert\n    tag_1:\n      pop\n      jumpi(tag_2, lt(calldatasize, 0x04))\n      shr(0xe0, calldataload(0x00))\n      dup1\n      0x9c6950a1\n      gt\n      tag_23\n      jumpi\n      dup1\n      0xd2f4a50a\n      gt\n      tag_24\n      jumpi\n      dup1\n      0xd2f4a50a\n      eq\n      tag_18\n      jumpi\n      dup1\n      0xdb7a4605\n      eq\n      tag_19\n      jumpi\n      dup1\n      0xdbe8c6db\n      eq\n      tag_20\n      jumpi\n      dup1\n      0xedc84da0\n      eq\n      tag_21\n      jumpi\n      dup1\n      0xf2fde38b\n      eq\n      tag_22\n      jumpi\n      0x00\n      dup1\n      revert\n    tag_24:\n      dup1\n      0x9c6950a1\n      eq\n      tag_13\n      jumpi\n      dup1\n      0xa3907d71\n      eq\n      tag_14\n      jumpi\n      dup1\n      0xa843651e\n      eq\n      tag_15\n      jumpi\n      dup1\n      0xadeabba9\n      eq\n      tag_16\n      jumpi\n      dup1\n      0xb943cd16\n      eq\n      tag_17\n      jumpi\n      0x00\n      dup1\n      revert\n    tag_23:\n      dup1\n      0x893d20e8\n      gt\n      tag_25\n      jumpi\n      dup1\n      0x893d20e8\n      eq\n      tag_8\n      jumpi\n      dup1\n      0x8ba17f86\n      eq\n      tag_9\n      jumpi\n      dup1\n      0x8da5cb5b\n      eq\n      tag_10\n      jumpi\n      dup1\n      0x98afdfe3\n      eq\n      tag_11\n      jumpi\n      dup1\n      0x9a3d66c0\n      eq\n      tag_12\n      jumpi\n      0x00\n      dup1\n      revert\n    tag_25:\n      dup1\n      0x06fdde03\n      eq\n      tag_3\n      jumpi\n      dup1\n      0x08a6f252\n      eq\n      tag_4\n      jumpi\n      dup1\n      0x0db17965\n      eq\n      tag_5\n      jumpi\n      dup1\n      0x4559dcdc\n      eq\n      tag_6\n      jumpi\n      dup1\n      0x481dcb7b\n      eq\n      tag_7\n      jumpi\n    tag_2:\n      0x00\n      dup1\n      revert\n        /* \"build/solidity/base.sol\":452:470  string public name */\n    tag_3:\n      tag_26\n      tag_27\n      jump\t// in\n    tag_26:\n      mload(0x40)\n      tag_28\n      swap2\n      swap1\n      tag_29\n      jump\t// in\n    tag_28:\n      mload(0x40)\n      dup1\n      swap2\n      sub\n      swap1\n      return\n        /* \"build/solidity/base.sol\":148:196  mapping (address => uint256) public interactions */\n    tag_4:\n      tag_30\n      tag_31\n      calldatasize\n      0x04\n      tag_32\n      jump\t// in\n    tag_31:\n      mstore(0x20, 0x01)\n      0x00\n      swap1\n      dup2\n      mstore\n      0x40\n      swap1\n      keccak256\n      sload\n      dup2\n      jump\n    tag_30:\n      mload(0x40)\n        /* \"#utility.yul\":1185:1210   */\n      swap1\n      dup2\n      mstore\n        /* \"#utility.yul\":1173:1175   */\n      0x20\n        /* \"#utility.yul\":1158:1176   */\n      add\n        /* \"build/solidity/base.sol\":148:196  mapping (address => uint256) public interactions */\n      tag_28\n        /* \"#utility.yul\":1039:1216   */\n      jump\n        /* \"build/solidity/base.sol\":3006:3154  function getNsfwFilter(address _account, string memory _name) external view returns (uint256) {... */\n    tag_5:\n      tag_30\n      tag_37\n      calldatasize\n      0x04\n      tag_38\n      jump\t// in\n    tag_37:\n      tag_39\n      jump\t// in\n        /* \"build/solidity/base.sol\":3939:4516  function setVolume(uint256 amount) public returns (bool success) {... */\n    tag_6:\n      tag_41\n      tag_42\n      calldatasize\n      0x04\n      tag_43\n      jump\t// in\n    tag_42:\n      tag_44\n      jump\t// in\n    tag_41:\n      mload(0x40)\n        /* \"#utility.yul\":2828:2842   */\n      swap1\n      iszero\n        /* \"#utility.yul\":2821:2843   */\n      iszero\n        /* \"#utility.yul\":2803:2844   */\n      dup2\n      mstore\n        /* \"#utility.yul\":2791:2793   */\n      0x20\n        /* \"#utility.yul\":2776:2794   */\n      add\n        /* \"build/solidity/base.sol\":3939:4516  function setVolume(uint256 amount) public returns (bool success) {... */\n      tag_28\n        /* \"#utility.yul\":2663:2850   */\n      jump\n        /* \"build/solidity/base.sol\":3162:3797  function changeNsfwFilter(string memory _name, uint256 amount) public returns (bool success) {... */\n    tag_7:\n      tag_41\n      tag_48\n      calldatasize\n      0x04\n      tag_49\n      jump\t// in\n    tag_48:\n      tag_50\n      jump\t// in\n        /* \"build/solidity/base.sol\":1445:1526  function getOwner() public view returns (address) {... */\n    tag_8:\n        /* \"build/solidity/base.sol\":1486:1493  address */\n      0x00\n        /* \"build/solidity/base.sol\":1513:1518  owner */\n      sload\n      sub(shl(0xa0, 0x01), 0x01)\n      and\n        /* \"build/solidity/base.sol\":1445:1526  function getOwner() public view returns (address) {... */\n    tag_52:\n      mload(0x40)\n      sub(shl(0xa0, 0x01), 0x01)\n        /* \"#utility.yul\":3414:3446   */\n      swap1\n      swap2\n      and\n        /* \"#utility.yul\":3396:3447   */\n      dup2\n      mstore\n        /* \"#utility.yul\":3384:3386   */\n      0x20\n        /* \"#utility.yul\":3369:3387   */\n      add\n        /* \"build/solidity/base.sol\":1445:1526  function getOwner() public view returns (address) {... */\n      tag_28\n        /* \"#utility.yul\":3250:3453   */\n      jump\n        /* \"build/solidity/base.sol\":3820:3931  function getVolume(address _account) external view returns (uint256) {... */\n    tag_9:\n      tag_30\n      tag_57\n      calldatasize\n      0x04\n      tag_32\n      jump\t// in\n    tag_57:\n      sub(shl(0xa0, 0x01), 0x01)\n        /* \"build/solidity/base.sol\":3907:3923  volume[_account] */\n      and\n        /* \"build/solidity/base.sol\":3880:3887  uint256 */\n      0x00\n        /* \"build/solidity/base.sol\":3907:3923  volume[_account] */\n      swap1\n      dup2\n      mstore\n        /* \"build/solidity/base.sol\":3907:3913  volume */\n      0x04\n        /* \"build/solidity/base.sol\":3907:3923  volume[_account] */\n      0x20\n      mstore\n      0x40\n      swap1\n      keccak256\n      sload\n      swap1\n        /* \"build/solidity/base.sol\":3820:3931  function getVolume(address _account) external view returns (uint256) {... */\n      jump\n        /* \"build/solidity/base.sol\":111:139  address payable public owner */\n    tag_10:\n      sload(0x00)\n      tag_52\n      swap1\n      sub(shl(0xa0, 0x01), 0x01)\n      and\n      dup2\n      jump\n        /* \"build/solidity/base.sol\":400:443  mapping (address => uint256) public enabled */\n    tag_11:\n      tag_30\n      tag_65\n      calldatasize\n      0x04\n      tag_32\n      jump\t// in\n    tag_65:\n      mstore(0x20, 0x05)\n      0x00\n      swap1\n      dup2\n      mstore\n      0x40\n      swap1\n      keccak256\n      sload\n      dup2\n      jump\n        /* \"build/solidity/base.sol\":2218:2361  function getBookmark(address _account, uint256 _chapter) external view returns (uint256) {... */\n    tag_12:\n      tag_30\n      tag_69\n      calldatasize\n      0x04\n      tag_70\n      jump\t// in\n    tag_69:\n      sub(shl(0xa0, 0x01), 0x01)\n        /* \"build/solidity/base.sol\":2325:2343  bookmark[_account] */\n      swap2\n      swap1\n      swap2\n      and\n        /* \"build/solidity/base.sol\":2298:2305  uint256 */\n      0x00\n        /* \"build/solidity/base.sol\":2325:2343  bookmark[_account] */\n      swap1\n      dup2\n      mstore\n        /* \"build/solidity/base.sol\":2325:2333  bookmark */\n      0x02\n        /* \"build/solidity/base.sol\":2325:2343  bookmark[_account] */\n      0x20\n      swap1\n      dup2\n      mstore\n      0x40\n      dup1\n      dup4\n      keccak256\n        /* \"build/solidity/base.sol\":2325:2353  bookmark[_account][_chapter] */\n      swap4\n      dup4\n      mstore\n      swap3\n      swap1\n      mstore\n      keccak256\n      sload\n      swap1\n        /* \"build/solidity/base.sol\":2218:2361  function getBookmark(address _account, uint256 _chapter) external view returns (uint256) {... */\n      jump\n        /* \"build/solidity/base.sol\":205:270  mapping (address => mapping (uint256 => uint256)) public bookmark */\n    tag_13:\n      tag_30\n      tag_74\n      calldatasize\n      0x04\n      tag_70\n      jump\t// in\n    tag_74:\n      0x02\n      0x20\n      swap1\n      dup2\n      mstore\n      0x00\n      swap3\n      dup4\n      mstore\n      0x40\n      dup1\n      dup5\n      keccak256\n      swap1\n      swap2\n      mstore\n      swap1\n      dup3\n      mstore\n      swap1\n      keccak256\n      sload\n      dup2\n      jump\n        /* \"build/solidity/base.sol\":1555:1987  function enable() public returns (bool success) {... */\n    tag_14:\n      tag_41\n      tag_78\n      jump\t// in\n        /* \"build/solidity/base.sol\":506:538  uint256 public totalInteractions */\n    tag_15:\n      tag_30\n      sload(0x08)\n      dup2\n      jump\n        /* \"build/solidity/base.sol\":351:393  mapping (address => uint256) public volume */\n    tag_16:\n      tag_30\n      tag_84\n      calldatasize\n      0x04\n      tag_32\n      jump\t// in\n    tag_84:\n      mstore(0x20, 0x04)\n      0x00\n      swap1\n      dup2\n      mstore\n      0x40\n      swap1\n      keccak256\n      sload\n      dup2\n      jump\n        /* \"build/solidity/base.sol\":277:344  mapping (address => mapping (string => uint256)) public nsfw_filter */\n    tag_17:\n      tag_30\n      tag_88\n      calldatasize\n      0x04\n      tag_38\n      jump\t// in\n    tag_88:\n      0x03\n      0x20\n      swap1\n      dup2\n      mstore\n      0x00\n      swap3\n      dup4\n      mstore\n      0x40\n      swap1\n      swap3\n      keccak256\n      dup2\n      mload\n      dup1\n      dup4\n      add\n      dup5\n      add\n      dup1\n      mload\n      swap3\n      dup2\n      mstore\n      swap1\n      dup5\n      add\n      swap3\n      swap1\n      swap4\n      add\n      swap2\n      swap1\n      swap2\n      keccak256\n      swap2\n      mstore\n      sload\n      dup2\n      jump\n        /* \"build/solidity/base.sol\":477:499  uint256 public wallets */\n    tag_18:\n      tag_30\n      sload(0x07)\n      dup2\n      jump\n        /* \"build/solidity/base.sol\":1995:2082  function getWallets() external view returns (uint256) {... */\n    tag_19:\n        /* \"build/solidity/base.sol\":2067:2074  wallets */\n      sload(0x07)\n        /* \"build/solidity/base.sol\":1995:2082  function getWallets() external view returns (uint256) {... */\n      jump(tag_30)\n        /* \"build/solidity/base.sol\":2090:2192  function getInteractions() external view returns (uint256) {... */\n    tag_20:\n        /* \"build/solidity/base.sol\":2167:2184  totalInteractions */\n      sload(0x08)\n        /* \"build/solidity/base.sol\":2090:2192  function getInteractions() external view returns (uint256) {... */\n      jump(tag_30)\n        /* \"build/solidity/base.sol\":2369:2978  function insertBookmark(uint256 _chapter, uint256 amount) public returns (bool success) {... */\n    tag_21:\n      tag_41\n      tag_101\n      calldatasize\n      0x04\n      tag_102\n      jump\t// in\n    tag_101:\n      tag_103\n      jump\t// in\n        /* \"build/solidity/base.sol\":1182:1423  function transferOwnership(address newOwner) public {... */\n    tag_22:\n      tag_105\n      tag_106\n      calldatasize\n      0x04\n      tag_32\n      jump\t// in\n    tag_106:\n      tag_107\n      jump\t// in\n    tag_105:\n      stop\n        /* \"build/solidity/base.sol\":452:470  string public name */\n    tag_27:\n      0x06\n      dup1\n      sload\n      tag_108\n      swap1\n      tag_109\n      jump\t// in\n    tag_108:\n      dup1\n      0x1f\n      add\n      0x20\n      dup1\n      swap2\n      div\n      mul\n      0x20\n      add\n      mload(0x40)\n      swap1\n      dup2\n      add\n      0x40\n      mstore\n      dup1\n      swap3\n      swap2\n      swap1\n      dup2\n      dup2\n      mstore\n      0x20\n      add\n      dup3\n      dup1\n      sload\n      tag_110\n      swap1\n      tag_109\n      jump\t// in\n    tag_110:\n      dup1\n      iszero\n      tag_111\n      jumpi\n      dup1\n      0x1f\n      lt\n      tag_112\n      jumpi\n      0x0100\n      dup1\n      dup4\n      sload\n      div\n      mul\n      dup4\n      mstore\n      swap2\n      0x20\n      add\n      swap2\n      jump(tag_111)\n    tag_112:\n      dup3\n      add\n      swap2\n      swap1\n      0x00\n      mstore\n      keccak256(0x00, 0x20)\n      swap1\n    tag_113:\n      dup2\n      sload\n      dup2\n      mstore\n      swap1\n      0x01\n      add\n      swap1\n      0x20\n      add\n      dup1\n      dup4\n      gt\n      tag_113\n      jumpi\n      dup3\n      swap1\n      sub\n      0x1f\n      and\n      dup3\n      add\n      swap2\n    tag_111:\n      pop\n      pop\n      pop\n      pop\n      pop\n      dup2\n      jump\t// out\n        /* \"build/solidity/base.sol\":3006:3154  function getNsfwFilter(address _account, string memory _name) external view returns (uint256) {... */\n    tag_39:\n      sub(shl(0xa0, 0x01), 0x01)\n        /* \"build/solidity/base.sol\":3118:3139  nsfw_filter[_account] */\n      dup3\n      and\n        /* \"build/solidity/base.sol\":3091:3098  uint256 */\n      0x00\n        /* \"build/solidity/base.sol\":3118:3139  nsfw_filter[_account] */\n      swap1\n      dup2\n      mstore\n        /* \"build/solidity/base.sol\":3118:3129  nsfw_filter */\n      0x03\n        /* \"build/solidity/base.sol\":3118:3139  nsfw_filter[_account] */\n      0x20\n      mstore\n      0x40\n      dup1\n      dup3\n      keccak256\n        /* \"build/solidity/base.sol\":3118:3146  nsfw_filter[_account][_name] */\n      swap1\n      mload\n      tag_115\n      swap1\n        /* \"build/solidity/base.sol\":3140:3145  _name */\n      dup5\n      swap1\n        /* \"build/solidity/base.sol\":3118:3146  nsfw_filter[_account][_name] */\n      tag_116\n      jump\t// in\n    tag_115:\n      swap1\n      dup2\n      mstore\n      0x20\n      add\n      mload(0x40)\n      dup1\n      swap2\n      sub\n      swap1\n      keccak256\n      sload\n        /* \"build/solidity/base.sol\":3111:3146  return nsfw_filter[_account][_name] */\n      swap1\n      pop\n        /* \"build/solidity/base.sol\":3006:3154  function getNsfwFilter(address _account, string memory _name) external view returns (uint256) {... */\n    tag_114:\n      swap3\n      swap2\n      pop\n      pop\n      jump\t// out\n        /* \"build/solidity/base.sol\":3939:4516  function setVolume(uint256 amount) public returns (bool success) {... */\n    tag_44:\n        /* \"build/solidity/base.sol\":4070:4080  msg.sender */\n      caller\n        /* \"build/solidity/base.sol\":3990:4002  bool success */\n      0x00\n        /* \"build/solidity/base.sol\":4054:4082  enabled[address(msg.sender)] */\n      swap1\n      dup2\n      mstore\n        /* \"build/solidity/base.sol\":4054:4061  enabled */\n      0x05\n        /* \"build/solidity/base.sol\":4054:4082  enabled[address(msg.sender)] */\n      0x20\n      mstore\n      0x40\n      dup2\n      keccak256\n      sload\n        /* \"build/solidity/base.sol\":4086:4087  1 */\n      0x01\n        /* \"build/solidity/base.sol\":4054:4087  enabled[address(msg.sender)] == 1 */\n      eq\n        /* \"build/solidity/base.sol\":4046:4126  require(enabled[address(msg.sender)] == 1, \"You need to activate your account.\") */\n      tag_118\n      jumpi\n      mload(0x40)\n      shl(0xe5, 0x461bcd)\n      dup2\n      mstore\n      0x04\n      add\n      tag_119\n      swap1\n      tag_120\n      jump\t// in\n    tag_119:\n      mload(0x40)\n      dup1\n      swap2\n      sub\n      swap1\n      revert\n    tag_118:\n        /* \"build/solidity/base.sol\":4213:4216  100 */\n      0x64\n        /* \"build/solidity/base.sol\":4203:4209  amount */\n      dup3\n        /* \"build/solidity/base.sol\":4203:4216  amount <= 100 */\n      gt\n      iszero\n        /* \"build/solidity/base.sol\":4195:4244  require(amount <= 100, \"Invalid Volume. 0 - 100\") */\n      tag_124\n      jumpi\n      mload(0x40)\n      shl(0xe5, 0x461bcd)\n      dup2\n      mstore\n        /* \"#utility.yul\":5478:5480   */\n      0x20\n        /* \"build/solidity/base.sol\":4195:4244  require(amount <= 100, \"Invalid Volume. 0 - 100\") */\n      0x04\n      dup3\n      add\n        /* \"#utility.yul\":5460:5481   */\n      mstore\n        /* \"#utility.yul\":5517:5519   */\n      0x17\n        /* \"#utility.yul\":5497:5515   */\n      0x24\n      dup3\n      add\n        /* \"#utility.yul\":5490:5520   */\n      mstore\n        /* \"#utility.yul\":5556:5581   */\n      0x496e76616c696420566f6c756d652e2030202d20313030000000000000000000\n        /* \"#utility.yul\":5536:5554   */\n      0x44\n      dup3\n      add\n        /* \"#utility.yul\":5529:5582   */\n      mstore\n        /* \"#utility.yul\":5599:5617   */\n      0x64\n      add\n        /* \"build/solidity/base.sol\":4195:4244  require(amount <= 100, \"Invalid Volume. 0 - 100\") */\n      tag_119\n        /* \"#utility.yul\":5276:5623   */\n      jump\n        /* \"build/solidity/base.sol\":4195:4244  require(amount <= 100, \"Invalid Volume. 0 - 100\") */\n    tag_124:\n        /* \"build/solidity/base.sol\":4272:4282  msg.sender */\n      caller\n        /* \"build/solidity/base.sol\":4257:4284  volume[address(msg.sender)] */\n      0x00\n      swap1\n      dup2\n      mstore\n        /* \"build/solidity/base.sol\":4257:4263  volume */\n      0x04\n        /* \"build/solidity/base.sol\":4257:4284  volume[address(msg.sender)] */\n      0x20\n      swap1\n      dup2\n      mstore\n      0x40\n      dup1\n      dup4\n      keccak256\n        /* \"build/solidity/base.sol\":4257:4293  volume[address(msg.sender)] = amount */\n      dup6\n      swap1\n      sstore\n        /* \"build/solidity/base.sol\":4340:4352  interactions */\n      0x01\n        /* \"build/solidity/base.sol\":4340:4373  interactions[address(msg.sender)] */\n      swap2\n      dup3\n      swap1\n      mstore\n      swap1\n      swap2\n      keccak256\n      sload\n        /* \"build/solidity/base.sol\":4340:4377  interactions[address(msg.sender)] + 1 */\n      tag_126\n      swap2\n      tag_127\n      jump\t// in\n    tag_126:\n        /* \"build/solidity/base.sol\":4325:4335  msg.sender */\n      caller\n        /* \"build/solidity/base.sol\":4304:4337  interactions[address(msg.sender)] */\n      0x00\n      swap1\n      dup2\n      mstore\n        /* \"build/solidity/base.sol\":4304:4316  interactions */\n      0x01\n        /* \"build/solidity/base.sol\":4304:4337  interactions[address(msg.sender)] */\n      0x20\n      dup2\n      swap1\n      mstore\n      0x40\n      swap1\n      swap2\n      keccak256\n        /* \"build/solidity/base.sol\":4304:4377  interactions[address(msg.sender)] = interactions[address(msg.sender)] + 1 */\n      swap2\n      swap1\n      swap2\n      sstore\n        /* \"build/solidity/base.sol\":4408:4425  totalInteractions */\n      sload(0x08)\n        /* \"build/solidity/base.sol\":4408:4429  totalInteractions + 1 */\n      tag_128\n      swap2\n      tag_127\n      jump\t// in\n    tag_128:\n        /* \"build/solidity/base.sol\":4388:4405  totalInteractions */\n      0x08\n        /* \"build/solidity/base.sol\":4388:4429  totalInteractions = totalInteractions + 1 */\n      sstore\n        /* \"build/solidity/base.sol\":4447:4484  Interaction(msg.sender, \"set_volume\") */\n      mload(0x40)\n        /* \"build/solidity/base.sol\":4459:4469  msg.sender */\n      caller\n      swap1\n      0x00\n      dup1\n      mload\n      0x20\n      data_a7007f75d42d6a2ca519bf82dd348c96ebf7f6f80697bd7c434740b203d49ed2\n      dup4\n      codecopy\n      dup2\n      mload\n      swap2\n      mstore\n        /* \"build/solidity/base.sol\":4447:4484  Interaction(msg.sender, \"set_volume\") */\n      swap1\n      tag_129\n      swap1\n        /* \"#utility.yul\":6057:6059   */\n      0x20\n        /* \"#utility.yul\":6039:6060   */\n      dup1\n      dup3\n      mstore\n        /* \"#utility.yul\":6096:6098   */\n      0x0a\n        /* \"#utility.yul\":6076:6094   */\n      swap1\n      dup3\n      add\n        /* \"#utility.yul\":6069:6099   */\n      mstore\n      shl(0xb0, 0x7365745f766f6c756d65)\n        /* \"#utility.yul\":6130:6132   */\n      0x40\n        /* \"#utility.yul\":6115:6133   */\n      dup3\n      add\n        /* \"#utility.yul\":6108:6148   */\n      mstore\n        /* \"#utility.yul\":6180:6182   */\n      0x60\n        /* \"#utility.yul\":6165:6183   */\n      add\n      swap1\n        /* \"#utility.yul\":5855:6189   */\n      jump\n        /* \"build/solidity/base.sol\":4447:4484  Interaction(msg.sender, \"set_volume\") */\n    tag_129:\n      mload(0x40)\n      dup1\n      swap2\n      sub\n      swap1\n      log2\n      pop\n        /* \"build/solidity/base.sol\":4502:4506  true */\n      0x01\n      swap2\n        /* \"build/solidity/base.sol\":3939:4516  function setVolume(uint256 amount) public returns (bool success) {... */\n      swap1\n      pop\n      jump\t// out\n        /* \"build/solidity/base.sol\":3162:3797  function changeNsfwFilter(string memory _name, uint256 amount) public returns (bool success) {... */\n    tag_50:\n        /* \"build/solidity/base.sol\":3321:3331  msg.sender */\n      caller\n        /* \"build/solidity/base.sol\":3241:3253  bool success */\n      0x00\n        /* \"build/solidity/base.sol\":3305:3333  enabled[address(msg.sender)] */\n      swap1\n      dup2\n      mstore\n        /* \"build/solidity/base.sol\":3305:3312  enabled */\n      0x05\n        /* \"build/solidity/base.sol\":3305:3333  enabled[address(msg.sender)] */\n      0x20\n      mstore\n      0x40\n      dup2\n      keccak256\n      sload\n        /* \"build/solidity/base.sol\":3337:3338  1 */\n      0x01\n        /* \"build/solidity/base.sol\":3305:3338  enabled[address(msg.sender)] == 1 */\n      eq\n        /* \"build/solidity/base.sol\":3297:3377  require(enabled[address(msg.sender)] == 1, \"You need to activate your account.\") */\n      tag_132\n      jumpi\n      mload(0x40)\n      shl(0xe5, 0x461bcd)\n      dup2\n      mstore\n      0x04\n      add\n      tag_119\n      swap1\n      tag_120\n      jump\t// in\n    tag_132:\n        /* \"build/solidity/base.sol\":3470:3471  1 */\n      0x01\n        /* \"build/solidity/base.sol\":3460:3466  amount */\n      dup3\n        /* \"build/solidity/base.sol\":3460:3471  amount <= 1 */\n      gt\n      iszero\n        /* \"build/solidity/base.sol\":3452:3505  require(amount <= 1, \"Invalid Value. This is 1 or 0\") */\n      tag_137\n      jumpi\n      mload(0x40)\n      shl(0xe5, 0x461bcd)\n      dup2\n      mstore\n        /* \"#utility.yul\":6396:6398   */\n      0x20\n        /* \"build/solidity/base.sol\":3452:3505  require(amount <= 1, \"Invalid Value. This is 1 or 0\") */\n      0x04\n      dup3\n      add\n        /* \"#utility.yul\":6378:6399   */\n      mstore\n        /* \"#utility.yul\":6435:6437   */\n      0x1d\n        /* \"#utility.yul\":6415:6433   */\n      0x24\n      dup3\n      add\n        /* \"#utility.yul\":6408:6438   */\n      mstore\n        /* \"#utility.yul\":6474:6505   */\n      0x496e76616c69642056616c75652e20546869732069732031206f722030000000\n        /* \"#utility.yul\":6454:6472   */\n      0x44\n      dup3\n      add\n        /* \"#utility.yul\":6447:6506   */\n      mstore\n        /* \"#utility.yul\":6523:6541   */\n      0x64\n      add\n        /* \"build/solidity/base.sol\":3452:3505  require(amount <= 1, \"Invalid Value. This is 1 or 0\") */\n      tag_119\n        /* \"#utility.yul\":6194:6547   */\n      jump\n        /* \"build/solidity/base.sol\":3452:3505  require(amount <= 1, \"Invalid Value. This is 1 or 0\") */\n    tag_137:\n        /* \"build/solidity/base.sol\":3538:3548  msg.sender */\n      caller\n        /* \"build/solidity/base.sol\":3518:3550  nsfw_filter[address(msg.sender)] */\n      0x00\n      swap1\n      dup2\n      mstore\n        /* \"build/solidity/base.sol\":3518:3529  nsfw_filter */\n      0x03\n        /* \"build/solidity/base.sol\":3518:3550  nsfw_filter[address(msg.sender)] */\n      0x20\n      mstore\n      0x40\n      swap1\n      dup2\n      swap1\n      keccak256\n        /* \"build/solidity/base.sol\":3518:3557  nsfw_filter[address(msg.sender)][_name] */\n      swap1\n      mload\n        /* \"build/solidity/base.sol\":3560:3566  amount */\n      dup4\n      swap2\n        /* \"build/solidity/base.sol\":3518:3550  nsfw_filter[address(msg.sender)] */\n      swap1\n        /* \"build/solidity/base.sol\":3518:3557  nsfw_filter[address(msg.sender)][_name] */\n      tag_139\n      swap1\n        /* \"build/solidity/base.sol\":3551:3556  _name */\n      dup7\n      swap1\n        /* \"build/solidity/base.sol\":3518:3557  nsfw_filter[address(msg.sender)][_name] */\n      tag_116\n      jump\t// in\n    tag_139:\n      swap1\n      dup2\n      mstore\n      0x40\n      dup1\n      mload\n      0x20\n      swap3\n      dup2\n      swap1\n      sub\n      dup4\n      add\n      swap1\n      keccak256\n        /* \"build/solidity/base.sol\":3518:3566  nsfw_filter[address(msg.sender)][_name] = amount */\n      swap3\n      swap1\n      swap3\n      sstore\n        /* \"build/solidity/base.sol\":3634:3644  msg.sender */\n      caller\n        /* \"build/solidity/base.sol\":3613:3646  interactions[address(msg.sender)] */\n      0x00\n      swap1\n      dup2\n      mstore\n        /* \"build/solidity/base.sol\":3613:3625  interactions */\n      0x01\n        /* \"build/solidity/base.sol\":3613:3646  interactions[address(msg.sender)] */\n      swap2\n      dup3\n      swap1\n      mstore\n      swap2\n      swap1\n      swap2\n      keccak256\n      sload\n        /* \"build/solidity/base.sol\":3613:3650  interactions[address(msg.sender)] + 1 */\n      tag_140\n      swap2\n      tag_127\n      jump\t// in\n    tag_140:\n        /* \"build/solidity/base.sol\":3598:3608  msg.sender */\n      caller\n        /* \"build/solidity/base.sol\":3577:3610  interactions[address(msg.sender)] */\n      0x00\n      swap1\n      dup2\n      mstore\n        /* \"build/solidity/base.sol\":3577:3589  interactions */\n      0x01\n        /* \"build/solidity/base.sol\":3577:3610  interactions[address(msg.sender)] */\n      0x20\n      dup2\n      swap1\n      mstore\n      0x40\n      swap1\n      swap2\n      keccak256\n        /* \"build/solidity/base.sol\":3577:3650  interactions[address(msg.sender)] = interactions[address(msg.sender)] + 1 */\n      swap2\n      swap1\n      swap2\n      sstore\n        /* \"build/solidity/base.sol\":3681:3698  totalInteractions */\n      sload(0x08)\n        /* \"build/solidity/base.sol\":3681:3702  totalInteractions + 1 */\n      tag_141\n      swap2\n      tag_127\n      jump\t// in\n    tag_141:\n        /* \"build/solidity/base.sol\":3661:3678  totalInteractions */\n      0x08\n        /* \"build/solidity/base.sol\":3661:3702  totalInteractions = totalInteractions + 1 */\n      sstore\n        /* \"build/solidity/base.sol\":3720:3765  Interaction(msg.sender, \"change_nsfw_filter\") */\n      mload(0x40)\n        /* \"build/solidity/base.sol\":3732:3742  msg.sender */\n      caller\n      swap1\n      0x00\n      dup1\n      mload\n      0x20\n      data_a7007f75d42d6a2ca519bf82dd348c96ebf7f6f80697bd7c434740b203d49ed2\n      dup4\n      codecopy\n      dup2\n      mload\n      swap2\n      mstore\n        /* \"build/solidity/base.sol\":3720:3765  Interaction(msg.sender, \"change_nsfw_filter\") */\n      swap1\n      tag_142\n      swap1\n        /* \"#utility.yul\":6754:6756   */\n      0x20\n        /* \"#utility.yul\":6736:6757   */\n      dup1\n      dup3\n      mstore\n        /* \"#utility.yul\":6793:6795   */\n      0x12\n        /* \"#utility.yul\":6773:6791   */\n      swap1\n      dup3\n      add\n        /* \"#utility.yul\":6766:6796   */\n      mstore\n      shl(0x71, 0x31b430b733b2afb739b33bafb334b63a32b9)\n        /* \"#utility.yul\":6827:6829   */\n      0x40\n        /* \"#utility.yul\":6812:6830   */\n      dup3\n      add\n        /* \"#utility.yul\":6805:6853   */\n      mstore\n        /* \"#utility.yul\":6885:6887   */\n      0x60\n        /* \"#utility.yul\":6870:6888   */\n      add\n      swap1\n        /* \"#utility.yul\":6552:6894   */\n      jump\n        /* \"build/solidity/base.sol\":3720:3765  Interaction(msg.sender, \"change_nsfw_filter\") */\n    tag_142:\n      mload(0x40)\n      dup1\n      swap2\n      sub\n      swap1\n      log2\n      pop\n        /* \"build/solidity/base.sol\":3783:3787  true */\n      0x01\n        /* \"build/solidity/base.sol\":3162:3797  function changeNsfwFilter(string memory _name, uint256 amount) public returns (bool success) {... */\n      swap3\n      swap2\n      pop\n      pop\n      jump\t// out\n        /* \"build/solidity/base.sol\":1555:1987  function enable() public returns (bool success) {... */\n    tag_78:\n        /* \"build/solidity/base.sol\":1666:1676  msg.sender */\n      caller\n        /* \"build/solidity/base.sol\":1589:1601  bool success */\n      0x00\n        /* \"build/solidity/base.sol\":1650:1678  enabled[address(msg.sender)] */\n      swap1\n      dup2\n      mstore\n        /* \"build/solidity/base.sol\":1650:1657  enabled */\n      0x05\n        /* \"build/solidity/base.sol\":1650:1678  enabled[address(msg.sender)] */\n      0x20\n      mstore\n      0x40\n      dup2\n      keccak256\n      sload\n        /* \"build/solidity/base.sol\":1650:1683  enabled[address(msg.sender)] <= 0 */\n      iszero\n        /* \"build/solidity/base.sol\":1642:1722  require(enabled[address(msg.sender)] <= 0, \"This account is already activated.\") */\n      tag_148\n      jumpi\n      mload(0x40)\n      shl(0xe5, 0x461bcd)\n      dup2\n      mstore\n        /* \"#utility.yul\":7101:7103   */\n      0x20\n        /* \"build/solidity/base.sol\":1642:1722  require(enabled[address(msg.sender)] <= 0, \"This account is already activated.\") */\n      0x04\n      dup3\n      add\n        /* \"#utility.yul\":7083:7104   */\n      mstore\n        /* \"#utility.yul\":7140:7142   */\n      0x22\n        /* \"#utility.yul\":7120:7138   */\n      0x24\n      dup3\n      add\n        /* \"#utility.yul\":7113:7143   */\n      mstore\n        /* \"#utility.yul\":7179:7213   */\n      0x54686973206163636f756e7420697320616c7265616479206163746976617465\n        /* \"#utility.yul\":7159:7177   */\n      0x44\n      dup3\n      add\n        /* \"#utility.yul\":7152:7214   */\n      mstore\n      shl(0xf1, 0x3217)\n        /* \"#utility.yul\":7230:7248   */\n      0x64\n      dup3\n      add\n        /* \"#utility.yul\":7223:7255   */\n      mstore\n        /* \"#utility.yul\":7272:7291   */\n      0x84\n      add\n        /* \"build/solidity/base.sol\":1642:1722  require(enabled[address(msg.sender)] <= 0, \"This account is already activated.\") */\n      tag_119\n        /* \"#utility.yul\":6899:7297   */\n      jump\n        /* \"build/solidity/base.sol\":1642:1722  require(enabled[address(msg.sender)] <= 0, \"This account is already activated.\") */\n    tag_148:\n        /* \"build/solidity/base.sol\":1749:1759  msg.sender */\n      caller\n        /* \"build/solidity/base.sol\":1733:1761  enabled[address(msg.sender)] */\n      0x00\n      swap1\n      dup2\n      mstore\n        /* \"build/solidity/base.sol\":1733:1740  enabled */\n      0x05\n        /* \"build/solidity/base.sol\":1733:1761  enabled[address(msg.sender)] */\n      0x20\n      mstore\n      0x40\n      swap1\n      keccak256\n        /* \"build/solidity/base.sol\":1764:1765  1 */\n      0x01\n        /* \"build/solidity/base.sol\":1733:1765  enabled[address(msg.sender)] = 1 */\n      swap1\n      dup2\n      swap1\n      sstore\n        /* \"build/solidity/base.sol\":1796:1813  totalInteractions */\n      sload(0x08)\n        /* \"build/solidity/base.sol\":1796:1817  totalInteractions + 1 */\n      tag_151\n      swap2\n      tag_127\n      jump\t// in\n    tag_151:\n        /* \"build/solidity/base.sol\":1776:1793  totalInteractions */\n      0x08\n        /* \"build/solidity/base.sol\":1776:1817  totalInteractions = totalInteractions + 1 */\n      sstore\n        /* \"build/solidity/base.sol\":1838:1845  wallets */\n      sload(0x07)\n        /* \"build/solidity/base.sol\":1838:1849  wallets + 1 */\n      tag_152\n      swap1\n        /* \"build/solidity/base.sol\":1848:1849  1 */\n      0x01\n        /* \"build/solidity/base.sol\":1838:1849  wallets + 1 */\n      tag_127\n      jump\t// in\n    tag_152:\n        /* \"build/solidity/base.sol\":1828:1835  wallets */\n      0x07\n        /* \"build/solidity/base.sol\":1828:1849  wallets = wallets + 1 */\n      sstore\n        /* \"build/solidity/base.sol\":1888:1906  Enable(msg.sender) */\n      mload(0x40)\n        /* \"build/solidity/base.sol\":1895:1905  msg.sender */\n      caller\n      swap1\n        /* \"build/solidity/base.sol\":1888:1906  Enable(msg.sender) */\n      0xd4b303e8702428e1e0fe4a0c45cfd6f44c57f247681f0b21c46f339fa12ff1b3\n      swap1\n      0x00\n      swap1\n      log2\n        /* \"build/solidity/base.sol\":1934:1944  msg.sender */\n      caller\n      sub(shl(0xa0, 0x01), 0x01)\n        /* \"build/solidity/base.sol\":1922:1955  Interaction(msg.sender, \"enable\") */\n      and\n      0x00\n      dup1\n      mload\n      0x20\n      data_a7007f75d42d6a2ca519bf82dd348c96ebf7f6f80697bd7c434740b203d49ed2\n      dup4\n      codecopy\n      dup2\n      mload\n      swap2\n      mstore\n      mload(0x40)\n      tag_153\n      swap1\n        /* \"#utility.yul\":7504:7506   */\n      0x20\n        /* \"#utility.yul\":7486:7507   */\n      dup1\n      dup3\n      mstore\n        /* \"#utility.yul\":7543:7544   */\n      0x06\n        /* \"#utility.yul\":7523:7541   */\n      swap1\n      dup3\n      add\n        /* \"#utility.yul\":7516:7545   */\n      mstore\n      shl(0xd0, 0x656e61626c65)\n        /* \"#utility.yul\":7576:7578   */\n      0x40\n        /* \"#utility.yul\":7561:7579   */\n      dup3\n      add\n        /* \"#utility.yul\":7554:7590   */\n      mstore\n        /* \"#utility.yul\":7622:7624   */\n      0x60\n        /* \"#utility.yul\":7607:7625   */\n      add\n      swap1\n        /* \"#utility.yul\":7302:7631   */\n      jump\n        /* \"build/solidity/base.sol\":1922:1955  Interaction(msg.sender, \"enable\") */\n    tag_153:\n      mload(0x40)\n      dup1\n      swap2\n      sub\n      swap1\n      log2\n      pop\n        /* \"build/solidity/base.sol\":1973:1977  true */\n      0x01\n      swap1\n        /* \"build/solidity/base.sol\":1555:1987  function enable() public returns (bool success) {... */\n      jump\t// out\n        /* \"build/solidity/base.sol\":2369:2978  function insertBookmark(uint256 _chapter, uint256 amount) public returns (bool success) {... */\n    tag_103:\n        /* \"build/solidity/base.sol\":2523:2533  msg.sender */\n      caller\n        /* \"build/solidity/base.sol\":2443:2455  bool success */\n      0x00\n        /* \"build/solidity/base.sol\":2507:2535  enabled[address(msg.sender)] */\n      swap1\n      dup2\n      mstore\n        /* \"build/solidity/base.sol\":2507:2514  enabled */\n      0x05\n        /* \"build/solidity/base.sol\":2507:2535  enabled[address(msg.sender)] */\n      0x20\n      mstore\n      0x40\n      dup2\n      keccak256\n      sload\n        /* \"build/solidity/base.sol\":2539:2540  1 */\n      0x01\n        /* \"build/solidity/base.sol\":2507:2540  enabled[address(msg.sender)] == 1 */\n      eq\n        /* \"build/solidity/base.sol\":2499:2579  require(enabled[address(msg.sender)] == 1, \"You need to activate your account.\") */\n      tag_158\n      jumpi\n      mload(0x40)\n      shl(0xe5, 0x461bcd)\n      dup2\n      mstore\n      0x04\n      add\n      tag_119\n      swap1\n      tag_120\n      jump\t// in\n    tag_158:\n        /* \"build/solidity/base.sol\":2610:2611  1 */\n      0x01\n        /* \"build/solidity/base.sol\":2598:2606  _chapter */\n      dup4\n        /* \"build/solidity/base.sol\":2598:2611  _chapter >= 1 */\n      lt\n      iszero\n        /* \"build/solidity/base.sol\":2590:2632  require(_chapter >= 1, \"Invalid Chapter.\") */\n      tag_160\n      jumpi\n      mload(0x40)\n      shl(0xe5, 0x461bcd)\n      dup2\n      mstore\n        /* \"#utility.yul\":7838:7840   */\n      0x20\n        /* \"build/solidity/base.sol\":2590:2632  require(_chapter >= 1, \"Invalid Chapter.\") */\n      0x04\n      dup3\n      add\n        /* \"#utility.yul\":7820:7841   */\n      mstore\n        /* \"#utility.yul\":7877:7879   */\n      0x10\n        /* \"#utility.yul\":7857:7875   */\n      0x24\n      dup3\n      add\n        /* \"#utility.yul\":7850:7880   */\n      mstore\n      shl(0x81, 0x24b73b30b634b21021b430b83a32b917)\n        /* \"#utility.yul\":7896:7914   */\n      0x44\n      dup3\n      add\n        /* \"#utility.yul\":7889:7935   */\n      mstore\n        /* \"#utility.yul\":7952:7970   */\n      0x64\n      add\n        /* \"build/solidity/base.sol\":2590:2632  require(_chapter >= 1, \"Invalid Chapter.\") */\n      tag_119\n        /* \"#utility.yul\":7636:7976   */\n      jump\n        /* \"build/solidity/base.sol\":2590:2632  require(_chapter >= 1, \"Invalid Chapter.\") */\n    tag_160:\n        /* \"build/solidity/base.sol\":2719:2729  msg.sender */\n      caller\n        /* \"build/solidity/base.sol\":2702:2731  bookmark[address(msg.sender)] */\n      0x00\n      dup2\n      dup2\n      mstore\n        /* \"build/solidity/base.sol\":2702:2710  bookmark */\n      0x02\n        /* \"build/solidity/base.sol\":2702:2731  bookmark[address(msg.sender)] */\n      0x20\n      swap1\n      dup2\n      mstore\n      0x40\n      dup1\n      dup4\n      keccak256\n        /* \"build/solidity/base.sol\":2702:2741  bookmark[address(msg.sender)][_chapter] */\n      dup8\n      dup5\n      mstore\n      dup3\n      mstore\n      dup1\n      dup4\n      keccak256\n        /* \"build/solidity/base.sol\":2702:2750  bookmark[address(msg.sender)][_chapter] = amount */\n      dup7\n      swap1\n      sstore\n        /* \"build/solidity/base.sol\":2797:2830  interactions[address(msg.sender)] */\n      swap3\n      dup3\n      mstore\n        /* \"build/solidity/base.sol\":2797:2809  interactions */\n      0x01\n        /* \"build/solidity/base.sol\":2797:2830  interactions[address(msg.sender)] */\n      swap1\n      dup2\n      swap1\n      mstore\n      swap2\n      swap1\n      keccak256\n      sload\n        /* \"build/solidity/base.sol\":2797:2834  interactions[address(msg.sender)] + 1 */\n      tag_166\n      swap2\n      tag_127\n      jump\t// in\n    tag_166:\n        /* \"build/solidity/base.sol\":2782:2792  msg.sender */\n      caller\n        /* \"build/solidity/base.sol\":2761:2794  interactions[address(msg.sender)] */\n      0x00\n      swap1\n      dup2\n      mstore\n        /* \"build/solidity/base.sol\":2761:2773  interactions */\n      0x01\n        /* \"build/solidity/base.sol\":2761:2794  interactions[address(msg.sender)] */\n      0x20\n      dup2\n      swap1\n      mstore\n      0x40\n      swap1\n      swap2\n      keccak256\n        /* \"build/solidity/base.sol\":2761:2834  interactions[address(msg.sender)] = interactions[address(msg.sender)] + 1 */\n      swap2\n      swap1\n      swap2\n      sstore\n        /* \"build/solidity/base.sol\":2865:2882  totalInteractions */\n      sload(0x08)\n        /* \"build/solidity/base.sol\":2865:2886  totalInteractions + 1 */\n      tag_167\n      swap2\n      tag_127\n      jump\t// in\n    tag_167:\n        /* \"build/solidity/base.sol\":2845:2862  totalInteractions */\n      0x08\n        /* \"build/solidity/base.sol\":2845:2886  totalInteractions = totalInteractions + 1 */\n      sstore\n        /* \"build/solidity/base.sol\":2904:2946  Interaction(msg.sender, \"insert_bookmark\") */\n      mload(0x40)\n        /* \"build/solidity/base.sol\":2916:2926  msg.sender */\n      caller\n      swap1\n      0x00\n      dup1\n      mload\n      0x20\n      data_a7007f75d42d6a2ca519bf82dd348c96ebf7f6f80697bd7c434740b203d49ed2\n      dup4\n      codecopy\n      dup2\n      mload\n      swap2\n      mstore\n        /* \"build/solidity/base.sol\":2904:2946  Interaction(msg.sender, \"insert_bookmark\") */\n      swap1\n      tag_142\n      swap1\n        /* \"#utility.yul\":8526:8528   */\n      0x20\n        /* \"#utility.yul\":8508:8529   */\n      dup1\n      dup3\n      mstore\n        /* \"#utility.yul\":8565:8567   */\n      0x0f\n        /* \"#utility.yul\":8545:8563   */\n      swap1\n      dup3\n      add\n        /* \"#utility.yul\":8538:8568   */\n      mstore\n      shl(0x88, 0x696e736572745f626f6f6b6d61726b)\n        /* \"#utility.yul\":8599:8601   */\n      0x40\n        /* \"#utility.yul\":8584:8602   */\n      dup3\n      add\n        /* \"#utility.yul\":8577:8622   */\n      mstore\n        /* \"#utility.yul\":8654:8656   */\n      0x60\n        /* \"#utility.yul\":8639:8657   */\n      add\n      swap1\n        /* \"#utility.yul\":8324:8663   */\n      jump\n        /* \"build/solidity/base.sol\":1182:1423  function transferOwnership(address newOwner) public {... */\n    tag_107:\n        /* \"build/solidity/base.sol\":1284:1289  owner */\n      and(sub(shl(0xa0, 0x01), 0x01), sload(0x00))\n        /* \"build/solidity/base.sol\":1261:1271  msg.sender */\n      caller\n        /* \"build/solidity/base.sol\":1253:1290  address(msg.sender) == address(owner) */\n      eq\n        /* \"build/solidity/base.sol\":1245:1326  require(address(msg.sender) == address(owner), \"You are not allowed to do this.\") */\n      tag_171\n      jumpi\n      mload(0x40)\n      shl(0xe5, 0x461bcd)\n      dup2\n      mstore\n        /* \"#utility.yul\":8870:8872   */\n      0x20\n        /* \"build/solidity/base.sol\":1245:1326  require(address(msg.sender) == address(owner), \"You are not allowed to do this.\") */\n      0x04\n      dup3\n      add\n        /* \"#utility.yul\":8852:8873   */\n      mstore\n        /* \"#utility.yul\":8909:8911   */\n      0x1f\n        /* \"#utility.yul\":8889:8907   */\n      0x24\n      dup3\n      add\n        /* \"#utility.yul\":8882:8912   */\n      mstore\n        /* \"#utility.yul\":8948:8981   */\n      0x596f7520617265206e6f7420616c6c6f77656420746f20646f20746869732e00\n        /* \"#utility.yul\":8928:8946   */\n      0x44\n      dup3\n      add\n        /* \"#utility.yul\":8921:8982   */\n      mstore\n        /* \"#utility.yul\":8999:9017   */\n      0x64\n      add\n        /* \"build/solidity/base.sol\":1245:1326  require(address(msg.sender) == address(owner), \"You are not allowed to do this.\") */\n      tag_119\n        /* \"#utility.yul\":8668:9023   */\n      jump\n        /* \"build/solidity/base.sol\":1245:1326  require(address(msg.sender) == address(owner), \"You are not allowed to do this.\") */\n    tag_171:\n        /* \"build/solidity/base.sol\":1363:1368  owner */\n      0x00\n      dup1\n      sload\n        /* \"build/solidity/base.sol\":1342:1379  OwnershipTransferred(owner, newOwner) */\n      mload(0x40)\n      sub(shl(0xa0, 0x01), 0x01)\n      dup1\n      dup6\n      and\n      swap4\n        /* \"build/solidity/base.sol\":1363:1368  owner */\n      swap3\n      and\n      swap2\n        /* \"build/solidity/base.sol\":1342:1379  OwnershipTransferred(owner, newOwner) */\n      0x8be0079c531659141344cd1fd0a4f28419497f9722a3daafe3b4186f6b6457e0\n      swap2\n      log3\n        /* \"build/solidity/base.sol\":1390:1395  owner */\n      0x00\n        /* \"build/solidity/base.sol\":1390:1415  owner = payable(newOwner) */\n      dup1\n      sload\n      not(sub(shl(0xa0, 0x01), 0x01))\n      and\n      sub(shl(0xa0, 0x01), 0x01)\n      swap3\n      swap1\n      swap3\n      and\n      swap2\n      swap1\n      swap2\n      or\n      swap1\n      sstore\n        /* \"build/solidity/base.sol\":1182:1423  function transferOwnership(address newOwner) public {... */\n      jump\t// out\n        /* \"#utility.yul\":14:264   */\n    tag_174:\n        /* \"#utility.yul\":99:100   */\n      0x00\n        /* \"#utility.yul\":109:222   */\n    tag_180:\n        /* \"#utility.yul\":123:129   */\n      dup4\n        /* \"#utility.yul\":120:121   */\n      dup2\n        /* \"#utility.yul\":117:130   */\n      lt\n        /* \"#utility.yul\":109:222   */\n      iszero\n      tag_182\n      jumpi\n        /* \"#utility.yul\":199:210   */\n      dup2\n      dup2\n      add\n        /* \"#utility.yul\":193:211   */\n      mload\n        /* \"#utility.yul\":180:191   */\n      dup4\n      dup3\n      add\n        /* \"#utility.yul\":173:212   */\n      mstore\n        /* \"#utility.yul\":145:147   */\n      0x20\n        /* \"#utility.yul\":138:148   */\n      add\n        /* \"#utility.yul\":109:222   */\n      jump(tag_180)\n    tag_182:\n      pop\n      pop\n        /* \"#utility.yul\":256:257   */\n      0x00\n        /* \"#utility.yul\":238:254   */\n      swap2\n      add\n        /* \"#utility.yul\":231:258   */\n      mstore\n        /* \"#utility.yul\":14:264   */\n      jump\t// out\n        /* \"#utility.yul\":269:665   */\n    tag_29:\n        /* \"#utility.yul\":418:420   */\n      0x20\n        /* \"#utility.yul\":407:416   */\n      dup2\n        /* \"#utility.yul\":400:421   */\n      mstore\n        /* \"#utility.yul\":381:385   */\n      0x00\n        /* \"#utility.yul\":450:456   */\n      dup3\n        /* \"#utility.yul\":444:457   */\n      mload\n        /* \"#utility.yul\":493:499   */\n      dup1\n        /* \"#utility.yul\":488:490   */\n      0x20\n        /* \"#utility.yul\":477:486   */\n      dup5\n        /* \"#utility.yul\":473:491   */\n      add\n        /* \"#utility.yul\":466:500   */\n      mstore\n        /* \"#utility.yul\":509:588   */\n      tag_184\n        /* \"#utility.yul\":581:587   */\n      dup2\n        /* \"#utility.yul\":576:578   */\n      0x40\n        /* \"#utility.yul\":565:574   */\n      dup6\n        /* \"#utility.yul\":561:579   */\n      add\n        /* \"#utility.yul\":556:558   */\n      0x20\n        /* \"#utility.yul\":548:554   */\n      dup8\n        /* \"#utility.yul\":544:559   */\n      add\n        /* \"#utility.yul\":509:588   */\n      tag_174\n      jump\t// in\n    tag_184:\n        /* \"#utility.yul\":649:651   */\n      0x1f\n        /* \"#utility.yul\":628:643   */\n      add\n      not(0x1f)\n        /* \"#utility.yul\":624:653   */\n      and\n        /* \"#utility.yul\":609:654   */\n      swap2\n      swap1\n      swap2\n      add\n        /* \"#utility.yul\":656:658   */\n      0x40\n        /* \"#utility.yul\":605:659   */\n      add\n      swap3\n        /* \"#utility.yul\":269:665   */\n      swap2\n      pop\n      pop\n      jump\t// out\n        /* \"#utility.yul\":670:843   */\n    tag_175:\n        /* \"#utility.yul\":738:758   */\n      dup1\n      calldataload\n      sub(shl(0xa0, 0x01), 0x01)\n        /* \"#utility.yul\":787:818   */\n      dup2\n      and\n        /* \"#utility.yul\":777:819   */\n      dup2\n      eq\n        /* \"#utility.yul\":767:837   */\n      tag_186\n      jumpi\n        /* \"#utility.yul\":833:834   */\n      0x00\n        /* \"#utility.yul\":830:831   */\n      dup1\n        /* \"#utility.yul\":823:835   */\n      revert\n        /* \"#utility.yul\":767:837   */\n    tag_186:\n        /* \"#utility.yul\":670:843   */\n      swap2\n      swap1\n      pop\n      jump\t// out\n        /* \"#utility.yul\":848:1034   */\n    tag_32:\n        /* \"#utility.yul\":907:913   */\n      0x00\n        /* \"#utility.yul\":960:962   */\n      0x20\n        /* \"#utility.yul\":948:957   */\n      dup3\n        /* \"#utility.yul\":939:946   */\n      dup5\n        /* \"#utility.yul\":935:958   */\n      sub\n        /* \"#utility.yul\":931:963   */\n      slt\n        /* \"#utility.yul\":928:980   */\n      iszero\n      tag_188\n      jumpi\n        /* \"#utility.yul\":976:977   */\n      0x00\n        /* \"#utility.yul\":973:974   */\n      dup1\n        /* \"#utility.yul\":966:978   */\n      revert\n        /* \"#utility.yul\":928:980   */\n    tag_188:\n        /* \"#utility.yul\":999:1028   */\n      tag_189\n        /* \"#utility.yul\":1018:1027   */\n      dup3\n        /* \"#utility.yul\":999:1028   */\n      tag_175\n      jump\t// in\n    tag_189:\n        /* \"#utility.yul\":989:1028   */\n      swap4\n        /* \"#utility.yul\":848:1034   */\n      swap3\n      pop\n      pop\n      pop\n      jump\t// out\n        /* \"#utility.yul\":1221:1348   */\n    tag_176:\n        /* \"#utility.yul\":1282:1292   */\n      0x4e487b71\n        /* \"#utility.yul\":1277:1280   */\n      0xe0\n        /* \"#utility.yul\":1273:1293   */\n      shl\n        /* \"#utility.yul\":1270:1271   */\n      0x00\n        /* \"#utility.yul\":1263:1294   */\n      mstore\n        /* \"#utility.yul\":1313:1317   */\n      0x41\n        /* \"#utility.yul\":1310:1311   */\n      0x04\n        /* \"#utility.yul\":1303:1318   */\n      mstore\n        /* \"#utility.yul\":1337:1341   */\n      0x24\n        /* \"#utility.yul\":1334:1335   */\n      0x00\n        /* \"#utility.yul\":1327:1342   */\n      revert\n        /* \"#utility.yul\":1353:2072   */\n    tag_177:\n        /* \"#utility.yul\":1396:1401   */\n      0x00\n        /* \"#utility.yul\":1449:1452   */\n      dup3\n        /* \"#utility.yul\":1442:1446   */\n      0x1f\n        /* \"#utility.yul\":1434:1440   */\n      dup4\n        /* \"#utility.yul\":1430:1447   */\n      add\n        /* \"#utility.yul\":1426:1453   */\n      slt\n        /* \"#utility.yul\":1416:1471   */\n      tag_193\n      jumpi\n        /* \"#utility.yul\":1467:1468   */\n      0x00\n        /* \"#utility.yul\":1464:1465   */\n      dup1\n        /* \"#utility.yul\":1457:1469   */\n      revert\n        /* \"#utility.yul\":1416:1471   */\n    tag_193:\n        /* \"#utility.yul\":1503:1509   */\n      dup2\n        /* \"#utility.yul\":1490:1510   */\n      calldataload\n        /* \"#utility.yul\":1529:1547   */\n      0xffffffffffffffff\n        /* \"#utility.yul\":1566:1568   */\n      dup1\n        /* \"#utility.yul\":1562:1564   */\n      dup3\n        /* \"#utility.yul\":1559:1569   */\n      gt\n        /* \"#utility.yul\":1556:1592   */\n      iszero\n      tag_195\n      jumpi\n        /* \"#utility.yul\":1572:1590   */\n      tag_195\n      tag_176\n      jump\t// in\n    tag_195:\n        /* \"#utility.yul\":1647:1649   */\n      0x40\n        /* \"#utility.yul\":1641:1650   */\n      mload\n        /* \"#utility.yul\":1615:1617   */\n      0x1f\n        /* \"#utility.yul\":1701:1714   */\n      dup4\n      add\n      not(0x1f)\n        /* \"#utility.yul\":1697:1719   */\n      swap1\n      dup2\n      and\n        /* \"#utility.yul\":1721:1723   */\n      0x3f\n        /* \"#utility.yul\":1693:1724   */\n      add\n        /* \"#utility.yul\":1689:1729   */\n      and\n        /* \"#utility.yul\":1677:1730   */\n      dup2\n      add\n      swap1\n        /* \"#utility.yul\":1745:1763   */\n      dup3\n      dup3\n      gt\n        /* \"#utility.yul\":1765:1787   */\n      dup2\n      dup4\n      lt\n        /* \"#utility.yul\":1742:1788   */\n      or\n        /* \"#utility.yul\":1739:1811   */\n      iszero\n      tag_197\n      jumpi\n        /* \"#utility.yul\":1791:1809   */\n      tag_197\n      tag_176\n      jump\t// in\n    tag_197:\n        /* \"#utility.yul\":1831:1841   */\n      dup2\n        /* \"#utility.yul\":1827:1829   */\n      0x40\n        /* \"#utility.yul\":1820:1842   */\n      mstore\n        /* \"#utility.yul\":1866:1868   */\n      dup4\n        /* \"#utility.yul\":1858:1864   */\n      dup2\n        /* \"#utility.yul\":1851:1869   */\n      mstore\n        /* \"#utility.yul\":1912:1915   */\n      dup7\n        /* \"#utility.yul\":1905:1909   */\n      0x20\n        /* \"#utility.yul\":1900:1902   */\n      dup6\n        /* \"#utility.yul\":1892:1898   */\n      dup9\n        /* \"#utility.yul\":1888:1903   */\n      add\n        /* \"#utility.yul\":1884:1910   */\n      add\n        /* \"#utility.yul\":1881:1916   */\n      gt\n        /* \"#utility.yul\":1878:1933   */\n      iszero\n      tag_198\n      jumpi\n        /* \"#utility.yul\":1929:1930   */\n      0x00\n        /* \"#utility.yul\":1926:1927   */\n      dup1\n        /* \"#utility.yul\":1919:1931   */\n      revert\n        /* \"#utility.yul\":1878:1933   */\n    tag_198:\n        /* \"#utility.yul\":1993:1995   */\n      dup4\n        /* \"#utility.yul\":1986:1990   */\n      0x20\n        /* \"#utility.yul\":1978:1984   */\n      dup8\n        /* \"#utility.yul\":1974:1991   */\n      add\n        /* \"#utility.yul\":1967:1971   */\n      0x20\n        /* \"#utility.yul\":1959:1965   */\n      dup4\n        /* \"#utility.yul\":1955:1972   */\n      add\n        /* \"#utility.yul\":1942:1996   */\n      calldatacopy\n        /* \"#utility.yul\":2040:2041   */\n      0x00\n        /* \"#utility.yul\":2033:2037   */\n      0x20\n        /* \"#utility.yul\":2028:2030   */\n      dup6\n        /* \"#utility.yul\":2020:2026   */\n      dup4\n        /* \"#utility.yul\":2016:2031   */\n      add\n        /* \"#utility.yul\":2012:2038   */\n      add\n        /* \"#utility.yul\":2005:2042   */\n      mstore\n        /* \"#utility.yul\":2060:2066   */\n      dup1\n        /* \"#utility.yul\":2051:2066   */\n      swap5\n      pop\n      pop\n      pop\n      pop\n      pop\n        /* \"#utility.yul\":1353:2072   */\n      swap3\n      swap2\n      pop\n      pop\n      jump\t// out\n        /* \"#utility.yul\":2077:2473   */\n    tag_38:\n        /* \"#utility.yul\":2155:2161   */\n      0x00\n        /* \"#utility.yul\":2163:2169   */\n      dup1\n        /* \"#utility.yul\":2216:2218   */\n      0x40\n        /* \"#utility.yul\":2204:2213   */\n      dup4\n        /* \"#utility.yul\":2195:2202   */\n      dup6\n        /* \"#utility.yul\":2191:2214   */\n      sub\n        /* \"#utility.yul\":2187:2219   */\n      slt\n        /* \"#utility.yul\":2184:2236   */\n      iszero\n      tag_200\n      jumpi\n        /* \"#utility.yul\":2232:2233   */\n      0x00\n        /* \"#utility.yul\":2229:2230   */\n      dup1\n        /* \"#utility.yul\":2222:2234   */\n      revert\n        /* \"#utility.yul\":2184:2236   */\n    tag_200:\n        /* \"#utility.yul\":2255:2284   */\n      tag_201\n        /* \"#utility.yul\":2274:2283   */\n      dup4\n        /* \"#utility.yul\":2255:2284   */\n      tag_175\n      jump\t// in\n    tag_201:\n        /* \"#utility.yul\":2245:2284   */\n      swap2\n      pop\n        /* \"#utility.yul\":2335:2337   */\n      0x20\n        /* \"#utility.yul\":2324:2333   */\n      dup4\n        /* \"#utility.yul\":2320:2338   */\n      add\n        /* \"#utility.yul\":2307:2339   */\n      calldataload\n        /* \"#utility.yul\":2362:2380   */\n      0xffffffffffffffff\n        /* \"#utility.yul\":2354:2360   */\n      dup2\n        /* \"#utility.yul\":2351:2381   */\n      gt\n        /* \"#utility.yul\":2348:2398   */\n      iszero\n      tag_202\n      jumpi\n        /* \"#utility.yul\":2394:2395   */\n      0x00\n        /* \"#utility.yul\":2391:2392   */\n      dup1\n        /* \"#utility.yul\":2384:2396   */\n      revert\n        /* \"#utility.yul\":2348:2398   */\n    tag_202:\n        /* \"#utility.yul\":2417:2467   */\n      tag_203\n        /* \"#utility.yul\":2459:2466   */\n      dup6\n        /* \"#utility.yul\":2450:2456   */\n      dup3\n        /* \"#utility.yul\":2439:2448   */\n      dup7\n        /* \"#utility.yul\":2435:2457   */\n      add\n        /* \"#utility.yul\":2417:2467   */\n      tag_177\n      jump\t// in\n    tag_203:\n        /* \"#utility.yul\":2407:2467   */\n      swap2\n      pop\n      pop\n        /* \"#utility.yul\":2077:2473   */\n      swap3\n      pop\n      swap3\n      swap1\n      pop\n      jump\t// out\n        /* \"#utility.yul\":2478:2658   */\n    tag_43:\n        /* \"#utility.yul\":2537:2543   */\n      0x00\n        /* \"#utility.yul\":2590:2592   */\n      0x20\n        /* \"#utility.yul\":2578:2587   */\n      dup3\n        /* \"#utility.yul\":2569:2576   */\n      dup5\n        /* \"#utility.yul\":2565:2588   */\n      sub\n        /* \"#utility.yul\":2561:2593   */\n      slt\n        /* \"#utility.yul\":2558:2610   */\n      iszero\n      tag_205\n      jumpi\n        /* \"#utility.yul\":2606:2607   */\n      0x00\n        /* \"#utility.yul\":2603:2604   */\n      dup1\n        /* \"#utility.yul\":2596:2608   */\n      revert\n        /* \"#utility.yul\":2558:2610   */\n    tag_205:\n      pop\n        /* \"#utility.yul\":2629:2652   */\n      calldataload\n      swap2\n        /* \"#utility.yul\":2478:2658   */\n      swap1\n      pop\n      jump\t// out\n        /* \"#utility.yul\":2855:3245   */\n    tag_49:\n        /* \"#utility.yul\":2933:2939   */\n      0x00\n        /* \"#utility.yul\":2941:2947   */\n      dup1\n        /* \"#utility.yul\":2994:2996   */\n      0x40\n        /* \"#utility.yul\":2982:2991   */\n      dup4\n        /* \"#utility.yul\":2973:2980   */\n      dup6\n        /* \"#utility.yul\":2969:2992   */\n      sub\n        /* \"#utility.yul\":2965:2997   */\n      slt\n        /* \"#utility.yul\":2962:3014   */\n      iszero\n      tag_208\n      jumpi\n        /* \"#utility.yul\":3010:3011   */\n      0x00\n        /* \"#utility.yul\":3007:3008   */\n      dup1\n        /* \"#utility.yul\":3000:3012   */\n      revert\n        /* \"#utility.yul\":2962:3014   */\n    tag_208:\n        /* \"#utility.yul\":3050:3059   */\n      dup3\n        /* \"#utility.yul\":3037:3060   */\n      calldataload\n        /* \"#utility.yul\":3083:3101   */\n      0xffffffffffffffff\n        /* \"#utility.yul\":3075:3081   */\n      dup2\n        /* \"#utility.yul\":3072:3102   */\n      gt\n        /* \"#utility.yul\":3069:3119   */\n      iszero\n      tag_209\n      jumpi\n        /* \"#utility.yul\":3115:3116   */\n      0x00\n        /* \"#utility.yul\":3112:3113   */\n      dup1\n        /* \"#utility.yul\":3105:3117   */\n      revert\n        /* \"#utility.yul\":3069:3119   */\n    tag_209:\n        /* \"#utility.yul\":3138:3188   */\n      tag_210\n        /* \"#utility.yul\":3180:3187   */\n      dup6\n        /* \"#utility.yul\":3171:3177   */\n      dup3\n        /* \"#utility.yul\":3160:3169   */\n      dup7\n        /* \"#utility.yul\":3156:3178   */\n      add\n        /* \"#utility.yul\":3138:3188   */\n      tag_177\n      jump\t// in\n    tag_210:\n        /* \"#utility.yul\":3128:3188   */\n      swap6\n        /* \"#utility.yul\":3235:3237   */\n      0x20\n        /* \"#utility.yul\":3220:3238   */\n      swap5\n      swap1\n      swap5\n      add\n        /* \"#utility.yul\":3207:3239   */\n      calldataload\n      swap5\n      pop\n      pop\n      pop\n      pop\n        /* \"#utility.yul\":2855:3245   */\n      jump\t// out\n        /* \"#utility.yul\":3682:3936   */\n    tag_70:\n        /* \"#utility.yul\":3750:3756   */\n      0x00\n        /* \"#utility.yul\":3758:3764   */\n      dup1\n        /* \"#utility.yul\":3811:3813   */\n      0x40\n        /* \"#utility.yul\":3799:3808   */\n      dup4\n        /* \"#utility.yul\":3790:3797   */\n      dup6\n        /* \"#utility.yul\":3786:3809   */\n      sub\n        /* \"#utility.yul\":3782:3814   */\n      slt\n        /* \"#utility.yul\":3779:3831   */\n      iszero\n      tag_214\n      jumpi\n        /* \"#utility.yul\":3827:3828   */\n      0x00\n        /* \"#utility.yul\":3824:3825   */\n      dup1\n        /* \"#utility.yul\":3817:3829   */\n      revert\n        /* \"#utility.yul\":3779:3831   */\n    tag_214:\n        /* \"#utility.yul\":3850:3879   */\n      tag_215\n        /* \"#utility.yul\":3869:3878   */\n      dup4\n        /* \"#utility.yul\":3850:3879   */\n      tag_175\n      jump\t// in\n    tag_215:\n        /* \"#utility.yul\":3840:3879   */\n      swap5\n        /* \"#utility.yul\":3926:3928   */\n      0x20\n        /* \"#utility.yul\":3911:3929   */\n      swap4\n      swap1\n      swap4\n      add\n        /* \"#utility.yul\":3898:3930   */\n      calldataload\n      swap4\n      pop\n      pop\n      pop\n        /* \"#utility.yul\":3682:3936   */\n      jump\t// out\n        /* \"#utility.yul\":3941:4189   */\n    tag_102:\n        /* \"#utility.yul\":4009:4015   */\n      0x00\n        /* \"#utility.yul\":4017:4023   */\n      dup1\n        /* \"#utility.yul\":4070:4072   */\n      0x40\n        /* \"#utility.yul\":4058:4067   */\n      dup4\n        /* \"#utility.yul\":4049:4056   */\n      dup6\n        /* \"#utility.yul\":4045:4068   */\n      sub\n        /* \"#utility.yul\":4041:4073   */\n      slt\n        /* \"#utility.yul\":4038:4090   */\n      iszero\n      tag_217\n      jumpi\n        /* \"#utility.yul\":4086:4087   */\n      0x00\n        /* \"#utility.yul\":4083:4084   */\n      dup1\n        /* \"#utility.yul\":4076:4088   */\n      revert\n        /* \"#utility.yul\":4038:4090   */\n    tag_217:\n      pop\n      pop\n        /* \"#utility.yul\":4109:4132   */\n      dup1\n      calldataload\n      swap3\n        /* \"#utility.yul\":4179:4181   */\n      0x20\n        /* \"#utility.yul\":4164:4182   */\n      swap1\n      swap2\n      add\n        /* \"#utility.yul\":4151:4183   */\n      calldataload\n      swap2\n      pop\n        /* \"#utility.yul\":3941:4189   */\n      jump\t// out\n        /* \"#utility.yul\":4194:4574   */\n    tag_109:\n        /* \"#utility.yul\":4273:4274   */\n      0x01\n        /* \"#utility.yul\":4269:4281   */\n      dup2\n      dup2\n      shr\n      swap1\n        /* \"#utility.yul\":4316:4328   */\n      dup3\n      and\n      dup1\n        /* \"#utility.yul\":4337:4398   */\n      tag_219\n      jumpi\n        /* \"#utility.yul\":4391:4395   */\n      0x7f\n        /* \"#utility.yul\":4383:4389   */\n      dup3\n        /* \"#utility.yul\":4379:4396   */\n      and\n        /* \"#utility.yul\":4369:4396   */\n      swap2\n      pop\n        /* \"#utility.yul\":4337:4398   */\n    tag_219:\n        /* \"#utility.yul\":4444:4446   */\n      0x20\n        /* \"#utility.yul\":4436:4442   */\n      dup3\n        /* \"#utility.yul\":4433:4447   */\n      lt\n        /* \"#utility.yul\":4413:4431   */\n      dup2\n        /* \"#utility.yul\":4410:4448   */\n      sub\n        /* \"#utility.yul\":4407:4568   */\n      tag_220\n      jumpi\n        /* \"#utility.yul\":4490:4500   */\n      0x4e487b71\n        /* \"#utility.yul\":4485:4488   */\n      0xe0\n        /* \"#utility.yul\":4481:4501   */\n      shl\n        /* \"#utility.yul\":4478:4479   */\n      0x00\n        /* \"#utility.yul\":4471:4502   */\n      mstore\n        /* \"#utility.yul\":4525:4529   */\n      0x22\n        /* \"#utility.yul\":4522:4523   */\n      0x04\n        /* \"#utility.yul\":4515:4530   */\n      mstore\n        /* \"#utility.yul\":4553:4557   */\n      0x24\n        /* \"#utility.yul\":4550:4551   */\n      0x00\n        /* \"#utility.yul\":4543:4558   */\n      revert\n        /* \"#utility.yul\":4407:4568   */\n    tag_220:\n      pop\n        /* \"#utility.yul\":4194:4574   */\n      swap2\n      swap1\n      pop\n      jump\t// out\n        /* \"#utility.yul\":4579:4868   */\n    tag_116:\n        /* \"#utility.yul\":4710:4713   */\n      0x00\n        /* \"#utility.yul\":4748:4754   */\n      dup3\n        /* \"#utility.yul\":4742:4755   */\n      mload\n        /* \"#utility.yul\":4764:4830   */\n      tag_222\n        /* \"#utility.yul\":4823:4829   */\n      dup2\n        /* \"#utility.yul\":4818:4821   */\n      dup5\n        /* \"#utility.yul\":4811:4815   */\n      0x20\n        /* \"#utility.yul\":4803:4809   */\n      dup8\n        /* \"#utility.yul\":4799:4816   */\n      add\n        /* \"#utility.yul\":4764:4830   */\n      tag_174\n      jump\t// in\n    tag_222:\n        /* \"#utility.yul\":4846:4862   */\n      swap2\n      swap1\n      swap2\n      add\n      swap3\n        /* \"#utility.yul\":4579:4868   */\n      swap2\n      pop\n      pop\n      jump\t// out\n        /* \"#utility.yul\":4873:5271   */\n    tag_120:\n        /* \"#utility.yul\":5075:5077   */\n      0x20\n        /* \"#utility.yul\":5057:5078   */\n      dup1\n      dup3\n      mstore\n        /* \"#utility.yul\":5114:5116   */\n      0x22\n        /* \"#utility.yul\":5094:5112   */\n      swap1\n      dup3\n      add\n        /* \"#utility.yul\":5087:5117   */\n      mstore\n        /* \"#utility.yul\":5153:5187   */\n      0x596f75206e65656420746f20616374697661746520796f7572206163636f756e\n        /* \"#utility.yul\":5148:5150   */\n      0x40\n        /* \"#utility.yul\":5133:5151   */\n      dup3\n      add\n        /* \"#utility.yul\":5126:5188   */\n      mstore\n      shl(0xf1, 0x3a17)\n        /* \"#utility.yul\":5219:5221   */\n      0x60\n        /* \"#utility.yul\":5204:5222   */\n      dup3\n      add\n        /* \"#utility.yul\":5197:5229   */\n      mstore\n        /* \"#utility.yul\":5261:5264   */\n      0x80\n        /* \"#utility.yul\":5246:5265   */\n      add\n      swap1\n        /* \"#utility.yul\":4873:5271   */\n      jump\t// out\n        /* \"#utility.yul\":5628:5850   */\n    tag_127:\n        /* \"#utility.yul\":5693:5702   */\n      dup1\n      dup3\n      add\n        /* \"#utility.yul\":5714:5724   */\n      dup1\n      dup3\n      gt\n        /* \"#utility.yul\":5711:5844   */\n      iszero\n      tag_114\n      jumpi\n        /* \"#utility.yul\":5766:5776   */\n      0x4e487b71\n        /* \"#utility.yul\":5761:5764   */\n      0xe0\n        /* \"#utility.yul\":5757:5777   */\n      shl\n        /* \"#utility.yul\":5754:5755   */\n      0x00\n        /* \"#utility.yul\":5747:5778   */\n      mstore\n        /* \"#utility.yul\":5801:5805   */\n      0x11\n        /* \"#utility.yul\":5798:5799   */\n      0x04\n        /* \"#utility.yul\":5791:5806   */\n      mstore\n        /* \"#utility.yul\":5829:5833   */\n      0x24\n        /* \"#utility.yul\":5826:5827   */\n      0x00\n        /* \"#utility.yul\":5819:5834   */\n      revert\n    stop\n    data_a7007f75d42d6a2ca519bf82dd348c96ebf7f6f80697bd7c434740b203d49ed2 2e423c3d4c536be9c3307d7ba9d9797ce08e89334052f84c24f8eba20baa63a1\n\n    auxdata: 0xa2646970667358221220ff403435674ca39405cfeea851432c9926c1c536842d47f3e499e17b64c8667b64736f6c63430008100033\n}\n",
				"bytecode": {
					"linkReferences": {},
					"object": "60806040523480156200001157600080fd5b50600080546001600160a01b0319163317905560408051808201909152600c81526b141bdb9e48111c9a5b185b9960a21b60208201526006906200005690826200010c565b5060006007819055600855620001d8565b634e487b7160e01b600052604160045260246000fd5b600181811c908216806200009257607f821691505b602082108103620000b357634e487b7160e01b600052602260045260246000fd5b50919050565b601f8211156200010757600081815260208120601f850160051c81016020861015620000e25750805b601f850160051c820191505b818110156200010357828155600101620000ee565b5050505b505050565b81516001600160401b0381111562000128576200012862000067565b62000140816200013984546200007d565b84620000b9565b602080601f8311600181146200017857600084156200015f5750858301515b600019600386901b1c1916600185901b17855562000103565b600085815260208120601f198616915b82811015620001a95788860151825594840194600190910190840162000188565b5085821015620001c85787850151600019600388901b60f8161c191681555b5050505050600190811b01905550565b610ca780620001e86000396000f3fe608060405234801561001057600080fd5b506004361061012c5760003560e01c80639c6950a1116100ad578063d2f4a50a11610071578063d2f4a50a14610315578063db7a46051461031e578063dbe8c6db14610326578063edc84da01461032e578063f2fde38b1461034157600080fd5b80639c6950a11461027d578063a3907d71146102a8578063a843651e146102b0578063adeabba9146102b9578063b943cd16146102d957600080fd5b8063893d20e8116100f4578063893d20e8146101c65780638ba17f86146101eb5780638da5cb5b1461021457806398afdfe3146102275780639a3d66c01461024757600080fd5b806306fdde031461013157806308a6f2521461014f5780630db179651461017d5780634559dcdc14610190578063481dcb7b146101b3575b600080fd5b610139610356565b604051610146919061098c565b60405180910390f35b61016f61015d3660046109db565b60016020526000908152604090205481565b604051908152602001610146565b61016f61018b366004610aa0565b6103e4565b6101a361019e366004610aee565b610422565b6040519015158152602001610146565b6101a36101c1366004610b07565b610545565b6000546001600160a01b03165b6040516001600160a01b039091168152602001610146565b61016f6101f93660046109db565b6001600160a01b031660009081526004602052604090205490565b6000546101d3906001600160a01b031681565b61016f6102353660046109db565b60056020526000908152604090205481565b61016f610255366004610b4c565b6001600160a01b03919091166000908152600260209081526040808320938352929052205490565b61016f61028b366004610b4c565b600260209081526000928352604080842090915290825290205481565b6101a3610690565b61016f60085481565b61016f6102c73660046109db565b60046020526000908152604090205481565b61016f6102e7366004610aa0565b6003602090815260009283526040909220815180830184018051928152908401929093019190912091525481565b61016f60075481565b60075461016f565b60085461016f565b6101a361033c366004610b76565b6107a6565b61035461034f3660046109db565b6108b3565b005b6006805461036390610b98565b80601f016020809104026020016040519081016040528092919081815260200182805461038f90610b98565b80156103dc5780601f106103b1576101008083540402835291602001916103dc565b820191906000526020600020905b8154815290600101906020018083116103bf57829003601f168201915b505050505081565b6001600160a01b038216600090815260036020526040808220905161040a908490610bd2565b90815260200160405180910390205490505b92915050565b3360009081526005602052604081205460011461045a5760405162461bcd60e51b815260040161045190610bee565b60405180910390fd5b60648211156104ab5760405162461bcd60e51b815260206004820152601760248201527f496e76616c696420566f6c756d652e2030202d203130300000000000000000006044820152606401610451565b336000908152600460209081526040808320859055600191829052909120546104d391610c30565b336000908152600160208190526040909120919091556008546104f591610c30565b6008556040513390600080516020610c5283398151915290610535906020808252600a90820152697365745f766f6c756d6560b01b604082015260600190565b60405180910390a2506001919050565b336000908152600560205260408120546001146105745760405162461bcd60e51b815260040161045190610bee565b60018211156105c55760405162461bcd60e51b815260206004820152601d60248201527f496e76616c69642056616c75652e20546869732069732031206f7220300000006044820152606401610451565b336000908152600360205260409081902090518391906105e6908690610bd2565b908152604080516020928190038301902092909255336000908152600191829052919091205461061591610c30565b3360009081526001602081905260409091209190915560085461063791610c30565b6008556040513390600080516020610c528339815191529061067f9060208082526012908201527131b430b733b2afb739b33bafb334b63a32b960711b604082015260600190565b60405180910390a250600192915050565b33600090815260056020526040812054156106f85760405162461bcd60e51b815260206004820152602260248201527f54686973206163636f756e7420697320616c7265616479206163746976617465604482015261321760f11b6064820152608401610451565b33600090815260056020526040902060019081905560085461071991610c30565b60085560075461072a906001610c30565b60075560405133907fd4b303e8702428e1e0fe4a0c45cfd6f44c57f247681f0b21c46f339fa12ff1b390600090a2336001600160a01b0316600080516020610c5283398151915260405161079890602080825260069082015265656e61626c6560d01b604082015260600190565b60405180910390a250600190565b336000908152600560205260408120546001146107d55760405162461bcd60e51b815260040161045190610bee565b60018310156108195760405162461bcd60e51b815260206004820152601060248201526f24b73b30b634b21021b430b83a32b91760811b6044820152606401610451565b33600081815260026020908152604080832087845282528083208690559282526001908190529190205461084c91610c30565b3360009081526001602081905260409091209190915560085461086e91610c30565b6008556040513390600080516020610c528339815191529061067f906020808252600f908201526e696e736572745f626f6f6b6d61726b60881b604082015260600190565b6000546001600160a01b0316331461090d5760405162461bcd60e51b815260206004820152601f60248201527f596f7520617265206e6f7420616c6c6f77656420746f20646f20746869732e006044820152606401610451565b600080546040516001600160a01b03808516939216917f8be0079c531659141344cd1fd0a4f28419497f9722a3daafe3b4186f6b6457e091a3600080546001600160a01b0319166001600160a01b0392909216919091179055565b60005b8381101561098357818101518382015260200161096b565b50506000910152565b60208152600082518060208401526109ab816040850160208701610968565b601f01601f19169190910160400192915050565b80356001600160a01b03811681146109d657600080fd5b919050565b6000602082840312156109ed57600080fd5b6109f6826109bf565b9392505050565b634e487b7160e01b600052604160045260246000fd5b600082601f830112610a2457600080fd5b813567ffffffffffffffff80821115610a3f57610a3f6109fd565b604051601f8301601f19908116603f01168101908282118183101715610a6757610a676109fd565b81604052838152866020858801011115610a8057600080fd5b836020870160208301376000602085830101528094505050505092915050565b60008060408385031215610ab357600080fd5b610abc836109bf565b9150602083013567ffffffffffffffff811115610ad857600080fd5b610ae485828601610a13565b9150509250929050565b600060208284031215610b0057600080fd5b5035919050565b60008060408385031215610b1a57600080fd5b823567ffffffffffffffff811115610b3157600080fd5b610b3d85828601610a13565b95602094909401359450505050565b60008060408385031215610b5f57600080fd5b610b68836109bf565b946020939093013593505050565b60008060408385031215610b8957600080fd5b50508035926020909101359150565b600181811c90821680610bac57607f821691505b602082108103610bcc57634e487b7160e01b600052602260045260246000fd5b50919050565b60008251610be4818460208701610968565b9190910192915050565b60208082526022908201527f596f75206e65656420746f20616374697661746520796f7572206163636f756e6040820152613a1760f11b606082015260800190565b8082018082111561041c57634e487b7160e01b600052601160045260246000fdfe2e423c3d4c536be9c3307d7ba9d9797ce08e89334052f84c24f8eba20baa63a1a2646970667358221220ff403435674ca39405cfeea851432c9926c1c536842d47f3e499e17b64c8667b64736f6c63430008100033",
					"opcodes": "PUSH1 0x80 PUSH1 0x40 MSTORE CALLVALUE DUP1 ISZERO PUSH3 0x11 JUMPI PUSH1 0x0 DUP1 REVERT JUMPDEST POP PUSH1 0x0 DUP1 SLOAD PUSH1 0x1 PUSH1 0x1 PUSH1 0xA0 SHL SUB NOT AND CALLER OR SWAP1 SSTORE PUSH1 0x40 DUP1 MLOAD DUP1 DUP3 ADD SWAP1 SWAP2 MSTORE PUSH1 0xC DUP2 MSTORE PUSH12 0x141BDB9E48111C9A5B185B99 PUSH1 0xA2 SHL PUSH1 0x20 DUP3 ADD MSTORE PUSH1 0x6 SWAP1 PUSH3 0x56 SWAP1 DUP3 PUSH3 0x10C JUMP JUMPDEST POP PUSH1 0x0 PUSH1 0x7 DUP2 SWAP1 SSTORE PUSH1 0x8 SSTORE PUSH3 0x1D8 JUMP JUMPDEST PUSH4 0x4E487B71 PUSH1 0xE0 SHL PUSH1 0x0 MSTORE PUSH1 0x41 PUSH1 0x4 MSTORE PUSH1 0x24 PUSH1 0x0 REVERT JUMPDEST PUSH1 0x1 DUP2 DUP2 SHR SWAP1 DUP3 AND DUP1 PUSH3 0x92 JUMPI PUSH1 0x7F DUP3 AND SWAP2 POP JUMPDEST PUSH1 0x20 DUP3 LT DUP2 SUB PUSH3 0xB3 JUMPI PUSH4 0x4E487B71 PUSH1 0xE0 SHL PUSH1 0x0 MSTORE PUSH1 0x22 PUSH1 0x4 MSTORE PUSH1 0x24 PUSH1 0x0 REVERT JUMPDEST POP SWAP2 SWAP1 POP JUMP JUMPDEST PUSH1 0x1F DUP3 GT ISZERO PUSH3 0x107 JUMPI PUSH1 0x0 DUP2 DUP2 MSTORE PUSH1 0x20 DUP2 KECCAK256 PUSH1 0x1F DUP6 ADD PUSH1 0x5 SHR DUP2 ADD PUSH1 0x20 DUP7 LT ISZERO PUSH3 0xE2 JUMPI POP DUP1 JUMPDEST PUSH1 0x1F DUP6 ADD PUSH1 0x5 SHR DUP3 ADD SWAP2 POP JUMPDEST DUP2 DUP2 LT ISZERO PUSH3 0x103 JUMPI DUP3 DUP2 SSTORE PUSH1 0x1 ADD PUSH3 0xEE JUMP JUMPDEST POP POP POP JUMPDEST POP POP POP JUMP JUMPDEST DUP2 MLOAD PUSH1 0x1 PUSH1 0x1 PUSH1 0x40 SHL SUB DUP2 GT ISZERO PUSH3 0x128 JUMPI PUSH3 0x128 PUSH3 0x67 JUMP JUMPDEST PUSH3 0x140 DUP2 PUSH3 0x139 DUP5 SLOAD PUSH3 0x7D JUMP JUMPDEST DUP5 PUSH3 0xB9 JUMP JUMPDEST PUSH1 0x20 DUP1 PUSH1 0x1F DUP4 GT PUSH1 0x1 DUP2 EQ PUSH3 0x178 JUMPI PUSH1 0x0 DUP5 ISZERO PUSH3 0x15F JUMPI POP DUP6 DUP4 ADD MLOAD JUMPDEST PUSH1 0x0 NOT PUSH1 0x3 DUP7 SWAP1 SHL SHR NOT AND PUSH1 0x1 DUP6 SWAP1 SHL OR DUP6 SSTORE PUSH3 0x103 JUMP JUMPDEST PUSH1 0x0 DUP6 DUP2 MSTORE PUSH1 0x20 DUP2 KECCAK256 PUSH1 0x1F NOT DUP7 AND SWAP2 JUMPDEST DUP3 DUP2 LT ISZERO PUSH3 0x1A9 JUMPI DUP9 DUP7 ADD MLOAD DUP3 SSTORE SWAP5 DUP5 ADD SWAP5 PUSH1 0x1 SWAP1 SWAP2 ADD SWAP1 DUP5 ADD PUSH3 0x188 JUMP JUMPDEST POP DUP6 DUP3 LT ISZERO PUSH3 0x1C8 JUMPI DUP8 DUP6 ADD MLOAD PUSH1 0x0 NOT PUSH1 0x3 DUP9 SWAP1 SHL PUSH1 0xF8 AND SHR NOT AND DUP2 SSTORE JUMPDEST POP POP POP POP POP PUSH1 0x1 SWAP1 DUP2 SHL ADD SWAP1 SSTORE POP JUMP JUMPDEST PUSH2 0xCA7 DUP1 PUSH3 0x1E8 PUSH1 0x0 CODECOPY PUSH1 0x0 RETURN INVALID PUSH1 0x80 PUSH1 0x40 MSTORE CALLVALUE DUP1 ISZERO PUSH2 0x10 JUMPI PUSH1 0x0 DUP1 REVERT JUMPDEST POP PUSH1 0x4 CALLDATASIZE LT PUSH2 0x12C JUMPI PUSH1 0x0 CALLDATALOAD PUSH1 0xE0 SHR DUP1 PUSH4 0x9C6950A1 GT PUSH2 0xAD JUMPI DUP1 PUSH4 0xD2F4A50A GT PUSH2 0x71 JUMPI DUP1 PUSH4 0xD2F4A50A EQ PUSH2 0x315 JUMPI DUP1 PUSH4 0xDB7A4605 EQ PUSH2 0x31E JUMPI DUP1 PUSH4 0xDBE8C6DB EQ PUSH2 0x326 JUMPI DUP1 PUSH4 0xEDC84DA0 EQ PUSH2 0x32E JUMPI DUP1 PUSH4 0xF2FDE38B EQ PUSH2 0x341 JUMPI PUSH1 0x0 DUP1 REVERT JUMPDEST DUP1 PUSH4 0x9C6950A1 EQ PUSH2 0x27D JUMPI DUP1 PUSH4 0xA3907D71 EQ PUSH2 0x2A8 JUMPI DUP1 PUSH4 0xA843651E EQ PUSH2 0x2B0 JUMPI DUP1 PUSH4 0xADEABBA9 EQ PUSH2 0x2B9 JUMPI DUP1 PUSH4 0xB943CD16 EQ PUSH2 0x2D9 JUMPI PUSH1 0x0 DUP1 REVERT JUMPDEST DUP1 PUSH4 0x893D20E8 GT PUSH2 0xF4 JUMPI DUP1 PUSH4 0x893D20E8 EQ PUSH2 0x1C6 JUMPI DUP1 PUSH4 0x8BA17F86 EQ PUSH2 0x1EB JUMPI DUP1 PUSH4 0x8DA5CB5B EQ PUSH2 0x214 JUMPI DUP1 PUSH4 0x98AFDFE3 EQ PUSH2 0x227 JUMPI DUP1 PUSH4 0x9A3D66C0 EQ PUSH2 0x247 JUMPI PUSH1 0x0 DUP1 REVERT JUMPDEST DUP1 PUSH4 0x6FDDE03 EQ PUSH2 0x131 JUMPI DUP1 PUSH4 0x8A6F252 EQ PUSH2 0x14F JUMPI DUP1 PUSH4 0xDB17965 EQ PUSH2 0x17D JUMPI DUP1 PUSH4 0x4559DCDC EQ PUSH2 0x190 JUMPI DUP1 PUSH4 0x481DCB7B EQ PUSH2 0x1B3 JUMPI JUMPDEST PUSH1 0x0 DUP1 REVERT JUMPDEST PUSH2 0x139 PUSH2 0x356 JUMP JUMPDEST PUSH1 0x40 MLOAD PUSH2 0x146 SWAP2 SWAP1 PUSH2 0x98C JUMP JUMPDEST PUSH1 0x40 MLOAD DUP1 SWAP2 SUB SWAP1 RETURN JUMPDEST PUSH2 0x16F PUSH2 0x15D CALLDATASIZE PUSH1 0x4 PUSH2 0x9DB JUMP JUMPDEST PUSH1 0x1 PUSH1 0x20 MSTORE PUSH1 0x0 SWAP1 DUP2 MSTORE PUSH1 0x40 SWAP1 KECCAK256 SLOAD DUP2 JUMP JUMPDEST PUSH1 0x40 MLOAD SWAP1 DUP2 MSTORE PUSH1 0x20 ADD PUSH2 0x146 JUMP JUMPDEST PUSH2 0x16F PUSH2 0x18B CALLDATASIZE PUSH1 0x4 PUSH2 0xAA0 JUMP JUMPDEST PUSH2 0x3E4 JUMP JUMPDEST PUSH2 0x1A3 PUSH2 0x19E CALLDATASIZE PUSH1 0x4 PUSH2 0xAEE JUMP JUMPDEST PUSH2 0x422 JUMP JUMPDEST PUSH1 0x40 MLOAD SWAP1 ISZERO ISZERO DUP2 MSTORE PUSH1 0x20 ADD PUSH2 0x146 JUMP JUMPDEST PUSH2 0x1A3 PUSH2 0x1C1 CALLDATASIZE PUSH1 0x4 PUSH2 0xB07 JUMP JUMPDEST PUSH2 0x545 JUMP JUMPDEST PUSH1 0x0 SLOAD PUSH1 0x1 PUSH1 0x1 PUSH1 0xA0 SHL SUB AND JUMPDEST PUSH1 0x40 MLOAD PUSH1 0x1 PUSH1 0x1 PUSH1 0xA0 SHL SUB SWAP1 SWAP2 AND DUP2 MSTORE PUSH1 0x20 ADD PUSH2 0x146 JUMP JUMPDEST PUSH2 0x16F PUSH2 0x1F9 CALLDATASIZE PUSH1 0x4 PUSH2 0x9DB JUMP JUMPDEST PUSH1 0x1 PUSH1 0x1 PUSH1 0xA0 SHL SUB AND PUSH1 0x0 SWAP1 DUP2 MSTORE PUSH1 0x4 PUSH1 0x20 MSTORE PUSH1 0x40 SWAP1 KECCAK256 SLOAD SWAP1 JUMP JUMPDEST PUSH1 0x0 SLOAD PUSH2 0x1D3 SWAP1 PUSH1 0x1 PUSH1 0x1 PUSH1 0xA0 SHL SUB AND DUP2 JUMP JUMPDEST PUSH2 0x16F PUSH2 0x235 CALLDATASIZE PUSH1 0x4 PUSH2 0x9DB JUMP JUMPDEST PUSH1 0x5 PUSH1 0x20 MSTORE PUSH1 0x0 SWAP1 DUP2 MSTORE PUSH1 0x40 SWAP1 KECCAK256 SLOAD DUP2 JUMP JUMPDEST PUSH2 0x16F PUSH2 0x255 CALLDATASIZE PUSH1 0x4 PUSH2 0xB4C JUMP JUMPDEST PUSH1 0x1 PUSH1 0x1 PUSH1 0xA0 SHL SUB SWAP2 SWAP1 SWAP2 AND PUSH1 0x0 SWAP1 DUP2 MSTORE PUSH1 0x2 PUSH1 0x20 SWAP1 DUP2 MSTORE PUSH1 0x40 DUP1 DUP4 KECCAK256 SWAP4 DUP4 MSTORE SWAP3 SWAP1 MSTORE KECCAK256 SLOAD SWAP1 JUMP JUMPDEST PUSH2 0x16F PUSH2 0x28B CALLDATASIZE PUSH1 0x4 PUSH2 0xB4C JUMP JUMPDEST PUSH1 0x2 PUSH1 0x20 SWAP1 DUP2 MSTORE PUSH1 0x0 SWAP3 DUP4 MSTORE PUSH1 0x40 DUP1 DUP5 KECCAK256 SWAP1 SWAP2 MSTORE SWAP1 DUP3 MSTORE SWAP1 KECCAK256 SLOAD DUP2 JUMP JUMPDEST PUSH2 0x1A3 PUSH2 0x690 JUMP JUMPDEST PUSH2 0x16F PUSH1 0x8 SLOAD DUP2 JUMP JUMPDEST PUSH2 0x16F PUSH2 0x2C7 CALLDATASIZE PUSH1 0x4 PUSH2 0x9DB JUMP JUMPDEST PUSH1 0x4 PUSH1 0x20 MSTORE PUSH1 0x0 SWAP1 DUP2 MSTORE PUSH1 0x40 SWAP1 KECCAK256 SLOAD DUP2 JUMP JUMPDEST PUSH2 0x16F PUSH2 0x2E7 CALLDATASIZE PUSH1 0x4 PUSH2 0xAA0 JUMP JUMPDEST PUSH1 0x3 PUSH1 0x20 SWAP1 DUP2 MSTORE PUSH1 0x0 SWAP3 DUP4 MSTORE PUSH1 0x40 SWAP1 SWAP3 KECCAK256 DUP2 MLOAD DUP1 DUP4 ADD DUP5 ADD DUP1 MLOAD SWAP3 DUP2 MSTORE SWAP1 DUP5 ADD SWAP3 SWAP1 SWAP4 ADD SWAP2 SWAP1 SWAP2 KECCAK256 SWAP2 MSTORE SLOAD DUP2 JUMP JUMPDEST PUSH2 0x16F PUSH1 0x7 SLOAD DUP2 JUMP JUMPDEST PUSH1 0x7 SLOAD PUSH2 0x16F JUMP JUMPDEST PUSH1 0x8 SLOAD PUSH2 0x16F JUMP JUMPDEST PUSH2 0x1A3 PUSH2 0x33C CALLDATASIZE PUSH1 0x4 PUSH2 0xB76 JUMP JUMPDEST PUSH2 0x7A6 JUMP JUMPDEST PUSH2 0x354 PUSH2 0x34F CALLDATASIZE PUSH1 0x4 PUSH2 0x9DB JUMP JUMPDEST PUSH2 0x8B3 JUMP JUMPDEST STOP JUMPDEST PUSH1 0x6 DUP1 SLOAD PUSH2 0x363 SWAP1 PUSH2 0xB98 JUMP JUMPDEST DUP1 PUSH1 0x1F ADD PUSH1 0x20 DUP1 SWAP2 DIV MUL PUSH1 0x20 ADD PUSH1 0x40 MLOAD SWAP1 DUP2 ADD PUSH1 0x40 MSTORE DUP1 SWAP3 SWAP2 SWAP1 DUP2 DUP2 MSTORE PUSH1 0x20 ADD DUP3 DUP1 SLOAD PUSH2 0x38F SWAP1 PUSH2 0xB98 JUMP JUMPDEST DUP1 ISZERO PUSH2 0x3DC JUMPI DUP1 PUSH1 0x1F LT PUSH2 0x3B1 JUMPI PUSH2 0x100 DUP1 DUP4 SLOAD DIV MUL DUP4 MSTORE SWAP2 PUSH1 0x20 ADD SWAP2 PUSH2 0x3DC JUMP JUMPDEST DUP3 ADD SWAP2 SWAP1 PUSH1 0x0 MSTORE PUSH1 0x20 PUSH1 0x0 KECCAK256 SWAP1 JUMPDEST DUP2 SLOAD DUP2 MSTORE SWAP1 PUSH1 0x1 ADD SWAP1 PUSH1 0x20 ADD DUP1 DUP4 GT PUSH2 0x3BF JUMPI DUP3 SWAP1 SUB PUSH1 0x1F AND DUP3 ADD SWAP2 JUMPDEST POP POP POP POP POP DUP2 JUMP JUMPDEST PUSH1 0x1 PUSH1 0x1 PUSH1 0xA0 SHL SUB DUP3 AND PUSH1 0x0 SWAP1 DUP2 MSTORE PUSH1 0x3 PUSH1 0x20 MSTORE PUSH1 0x40 DUP1 DUP3 KECCAK256 SWAP1 MLOAD PUSH2 0x40A SWAP1 DUP5 SWAP1 PUSH2 0xBD2 JUMP JUMPDEST SWAP1 DUP2 MSTORE PUSH1 0x20 ADD PUSH1 0x40 MLOAD DUP1 SWAP2 SUB SWAP1 KECCAK256 SLOAD SWAP1 POP JUMPDEST SWAP3 SWAP2 POP POP JUMP JUMPDEST CALLER PUSH1 0x0 SWAP1 DUP2 MSTORE PUSH1 0x5 PUSH1 0x20 MSTORE PUSH1 0x40 DUP2 KECCAK256 SLOAD PUSH1 0x1 EQ PUSH2 0x45A JUMPI PUSH1 0x40 MLOAD PUSH3 0x461BCD PUSH1 0xE5 SHL DUP2 MSTORE PUSH1 0x4 ADD PUSH2 0x451 SWAP1 PUSH2 0xBEE JUMP JUMPDEST PUSH1 0x40 MLOAD DUP1 SWAP2 SUB SWAP1 REVERT JUMPDEST PUSH1 0x64 DUP3 GT ISZERO PUSH2 0x4AB JUMPI PUSH1 0x40 MLOAD PUSH3 0x461BCD PUSH1 0xE5 SHL DUP2 MSTORE PUSH1 0x20 PUSH1 0x4 DUP3 ADD MSTORE PUSH1 0x17 PUSH1 0x24 DUP3 ADD MSTORE PUSH32 0x496E76616C696420566F6C756D652E2030202D20313030000000000000000000 PUSH1 0x44 DUP3 ADD MSTORE PUSH1 0x64 ADD PUSH2 0x451 JUMP JUMPDEST CALLER PUSH1 0x0 SWAP1 DUP2 MSTORE PUSH1 0x4 PUSH1 0x20 SWAP1 DUP2 MSTORE PUSH1 0x40 DUP1 DUP4 KECCAK256 DUP6 SWAP1 SSTORE PUSH1 0x1 SWAP2 DUP3 SWAP1 MSTORE SWAP1 SWAP2 KECCAK256 SLOAD PUSH2 0x4D3 SWAP2 PUSH2 0xC30 JUMP JUMPDEST CALLER PUSH1 0x0 SWAP1 DUP2 MSTORE PUSH1 0x1 PUSH1 0x20 DUP2 SWAP1 MSTORE PUSH1 0x40 SWAP1 SWAP2 KECCAK256 SWAP2 SWAP1 SWAP2 SSTORE PUSH1 0x8 SLOAD PUSH2 0x4F5 SWAP2 PUSH2 0xC30 JUMP JUMPDEST PUSH1 0x8 SSTORE PUSH1 0x40 MLOAD CALLER SWAP1 PUSH1 0x0 DUP1 MLOAD PUSH1 0x20 PUSH2 0xC52 DUP4 CODECOPY DUP2 MLOAD SWAP2 MSTORE SWAP1 PUSH2 0x535 SWAP1 PUSH1 0x20 DUP1 DUP3 MSTORE PUSH1 0xA SWAP1 DUP3 ADD MSTORE PUSH10 0x7365745F766F6C756D65 PUSH1 0xB0 SHL PUSH1 0x40 DUP3 ADD MSTORE PUSH1 0x60 ADD SWAP1 JUMP JUMPDEST PUSH1 0x40 MLOAD DUP1 SWAP2 SUB SWAP1 LOG2 POP PUSH1 0x1 SWAP2 SWAP1 POP JUMP JUMPDEST CALLER PUSH1 0x0 SWAP1 DUP2 MSTORE PUSH1 0x5 PUSH1 0x20 MSTORE PUSH1 0x40 DUP2 KECCAK256 SLOAD PUSH1 0x1 EQ PUSH2 0x574 JUMPI PUSH1 0x40 MLOAD PUSH3 0x461BCD PUSH1 0xE5 SHL DUP2 MSTORE PUSH1 0x4 ADD PUSH2 0x451 SWAP1 PUSH2 0xBEE JUMP JUMPDEST PUSH1 0x1 DUP3 GT ISZERO PUSH2 0x5C5 JUMPI PUSH1 0x40 MLOAD PUSH3 0x461BCD PUSH1 0xE5 SHL DUP2 MSTORE PUSH1 0x20 PUSH1 0x4 DUP3 ADD MSTORE PUSH1 0x1D PUSH1 0x24 DUP3 ADD MSTORE PUSH32 0x496E76616C69642056616C75652E20546869732069732031206F722030000000 PUSH1 0x44 DUP3 ADD MSTORE PUSH1 0x64 ADD PUSH2 0x451 JUMP JUMPDEST CALLER PUSH1 0x0 SWAP1 DUP2 MSTORE PUSH1 0x3 PUSH1 0x20 MSTORE PUSH1 0x40 SWAP1 DUP2 SWAP1 KECCAK256 SWAP1 MLOAD DUP4 SWAP2 SWAP1 PUSH2 0x5E6 SWAP1 DUP7 SWAP1 PUSH2 0xBD2 JUMP JUMPDEST SWAP1 DUP2 MSTORE PUSH1 0x40 DUP1 MLOAD PUSH1 0x20 SWAP3 DUP2 SWAP1 SUB DUP4 ADD SWAP1 KECCAK256 SWAP3 SWAP1 SWAP3 SSTORE CALLER PUSH1 0x0 SWAP1 DUP2 MSTORE PUSH1 0x1 SWAP2 DUP3 SWAP1 MSTORE SWAP2 SWAP1 SWAP2 KECCAK256 SLOAD PUSH2 0x615 SWAP2 PUSH2 0xC30 JUMP JUMPDEST CALLER PUSH1 0x0 SWAP1 DUP2 MSTORE PUSH1 0x1 PUSH1 0x20 DUP2 SWAP1 MSTORE PUSH1 0x40 SWAP1 SWAP2 KECCAK256 SWAP2 SWAP1 SWAP2 SSTORE PUSH1 0x8 SLOAD PUSH2 0x637 SWAP2 PUSH2 0xC30 JUMP JUMPDEST PUSH1 0x8 SSTORE PUSH1 0x40 MLOAD CALLER SWAP1 PUSH1 0x0 DUP1 MLOAD PUSH1 0x20 PUSH2 0xC52 DUP4 CODECOPY DUP2 MLOAD SWAP2 MSTORE SWAP1 PUSH2 0x67F SWAP1 PUSH1 0x20 DUP1 DUP3 MSTORE PUSH1 0x12 SWAP1 DUP3 ADD MSTORE PUSH18 0x31B430B733B2AFB739B33BAFB334B63A32B9 PUSH1 0x71 SHL PUSH1 0x40 DUP3 ADD MSTORE PUSH1 0x60 ADD SWAP1 JUMP JUMPDEST PUSH1 0x40 MLOAD DUP1 SWAP2 SUB SWAP1 LOG2 POP PUSH1 0x1 SWAP3 SWAP2 POP POP JUMP JUMPDEST CALLER PUSH1 0x0 SWAP1 DUP2 MSTORE PUSH1 0x5 PUSH1 0x20 MSTORE PUSH1 0x40 DUP2 KECCAK256 SLOAD ISZERO PUSH2 0x6F8 JUMPI PUSH1 0x40 MLOAD PUSH3 0x461BCD PUSH1 0xE5 SHL DUP2 MSTORE PUSH1 0x20 PUSH1 0x4 DUP3 ADD MSTORE PUSH1 0x22 PUSH1 0x24 DUP3 ADD MSTORE PUSH32 0x54686973206163636F756E7420697320616C7265616479206163746976617465 PUSH1 0x44 DUP3 ADD MSTORE PUSH2 0x3217 PUSH1 0xF1 SHL PUSH1 0x64 DUP3 ADD MSTORE PUSH1 0x84 ADD PUSH2 0x451 JUMP JUMPDEST CALLER PUSH1 0x0 SWAP1 DUP2 MSTORE PUSH1 0x5 PUSH1 0x20 MSTORE PUSH1 0x40 SWAP1 KECCAK256 PUSH1 0x1 SWAP1 DUP2 SWAP1 SSTORE PUSH1 0x8 SLOAD PUSH2 0x719 SWAP2 PUSH2 0xC30 JUMP JUMPDEST PUSH1 0x8 SSTORE PUSH1 0x7 SLOAD PUSH2 0x72A SWAP1 PUSH1 0x1 PUSH2 0xC30 JUMP JUMPDEST PUSH1 0x7 SSTORE PUSH1 0x40 MLOAD CALLER SWAP1 PUSH32 0xD4B303E8702428E1E0FE4A0C45CFD6F44C57F247681F0B21C46F339FA12FF1B3 SWAP1 PUSH1 0x0 SWAP1 LOG2 CALLER PUSH1 0x1 PUSH1 0x1 PUSH1 0xA0 SHL SUB AND PUSH1 0x0 DUP1 MLOAD PUSH1 0x20 PUSH2 0xC52 DUP4 CODECOPY DUP2 MLOAD SWAP2 MSTORE PUSH1 0x40 MLOAD PUSH2 0x798 SWAP1 PUSH1 0x20 DUP1 DUP3 MSTORE PUSH1 0x6 SWAP1 DUP3 ADD MSTORE PUSH6 0x656E61626C65 PUSH1 0xD0 SHL PUSH1 0x40 DUP3 ADD MSTORE PUSH1 0x60 ADD SWAP1 JUMP JUMPDEST PUSH1 0x40 MLOAD DUP1 SWAP2 SUB SWAP1 LOG2 POP PUSH1 0x1 SWAP1 JUMP JUMPDEST CALLER PUSH1 0x0 SWAP1 DUP2 MSTORE PUSH1 0x5 PUSH1 0x20 MSTORE PUSH1 0x40 DUP2 KECCAK256 SLOAD PUSH1 0x1 EQ PUSH2 0x7D5 JUMPI PUSH1 0x40 MLOAD PUSH3 0x461BCD PUSH1 0xE5 SHL DUP2 MSTORE PUSH1 0x4 ADD PUSH2 0x451 SWAP1 PUSH2 0xBEE JUMP JUMPDEST PUSH1 0x1 DUP4 LT ISZERO PUSH2 0x819 JUMPI PUSH1 0x40 MLOAD PUSH3 0x461BCD PUSH1 0xE5 SHL DUP2 MSTORE PUSH1 0x20 PUSH1 0x4 DUP3 ADD MSTORE PUSH1 0x10 PUSH1 0x24 DUP3 ADD MSTORE PUSH16 0x24B73B30B634B21021B430B83A32B917 PUSH1 0x81 SHL PUSH1 0x44 DUP3 ADD MSTORE PUSH1 0x64 ADD PUSH2 0x451 JUMP JUMPDEST CALLER PUSH1 0x0 DUP2 DUP2 MSTORE PUSH1 0x2 PUSH1 0x20 SWAP1 DUP2 MSTORE PUSH1 0x40 DUP1 DUP4 KECCAK256 DUP8 DUP5 MSTORE DUP3 MSTORE DUP1 DUP4 KECCAK256 DUP7 SWAP1 SSTORE SWAP3 DUP3 MSTORE PUSH1 0x1 SWAP1 DUP2 SWAP1 MSTORE SWAP2 SWAP1 KECCAK256 SLOAD PUSH2 0x84C SWAP2 PUSH2 0xC30 JUMP JUMPDEST CALLER PUSH1 0x0 SWAP1 DUP2 MSTORE PUSH1 0x1 PUSH1 0x20 DUP2 SWAP1 MSTORE PUSH1 0x40 SWAP1 SWAP2 KECCAK256 SWAP2 SWAP1 SWAP2 SSTORE PUSH1 0x8 SLOAD PUSH2 0x86E SWAP2 PUSH2 0xC30 JUMP JUMPDEST PUSH1 0x8 SSTORE PUSH1 0x40 MLOAD CALLER SWAP1 PUSH1 0x0 DUP1 MLOAD PUSH1 0x20 PUSH2 0xC52 DUP4 CODECOPY DUP2 MLOAD SWAP2 MSTORE SWAP1 PUSH2 0x67F SWAP1 PUSH1 0x20 DUP1 DUP3 MSTORE PUSH1 0xF SWAP1 DUP3 ADD MSTORE PUSH15 0x696E736572745F626F6F6B6D61726B PUSH1 0x88 SHL PUSH1 0x40 DUP3 ADD MSTORE PUSH1 0x60 ADD SWAP1 JUMP JUMPDEST PUSH1 0x0 SLOAD PUSH1 0x1 PUSH1 0x1 PUSH1 0xA0 SHL SUB AND CALLER EQ PUSH2 0x90D JUMPI PUSH1 0x40 MLOAD PUSH3 0x461BCD PUSH1 0xE5 SHL DUP2 MSTORE PUSH1 0x20 PUSH1 0x4 DUP3 ADD MSTORE PUSH1 0x1F PUSH1 0x24 DUP3 ADD MSTORE PUSH32 0x596F7520617265206E6F7420616C6C6F77656420746F20646F20746869732E00 PUSH1 0x44 DUP3 ADD MSTORE PUSH1 0x64 ADD PUSH2 0x451 JUMP JUMPDEST PUSH1 0x0 DUP1 SLOAD PUSH1 0x40 MLOAD PUSH1 0x1 PUSH1 0x1 PUSH1 0xA0 SHL SUB DUP1 DUP6 AND SWAP4 SWAP3 AND SWAP2 PUSH32 0x8BE0079C531659141344CD1FD0A4F28419497F9722A3DAAFE3B4186F6B6457E0 SWAP2 LOG3 PUSH1 0x0 DUP1 SLOAD PUSH1 0x1 PUSH1 0x1 PUSH1 0xA0 SHL SUB NOT AND PUSH1 0x1 PUSH1 0x1 PUSH1 0xA0 SHL SUB SWAP3 SWAP1 SWAP3 AND SWAP2 SWAP1 SWAP2 OR SWAP1 SSTORE JUMP JUMPDEST PUSH1 0x0 JUMPDEST DUP4 DUP2 LT ISZERO PUSH2 0x983 JUMPI DUP2 DUP2 ADD MLOAD DUP4 DUP3 ADD MSTORE PUSH1 0x20 ADD PUSH2 0x96B JUMP JUMPDEST POP POP PUSH1 0x0 SWAP2 ADD MSTORE JUMP JUMPDEST PUSH1 0x20 DUP2 MSTORE PUSH1 0x0 DUP3 MLOAD DUP1 PUSH1 0x20 DUP5 ADD MSTORE PUSH2 0x9AB DUP2 PUSH1 0x40 DUP6 ADD PUSH1 0x20 DUP8 ADD PUSH2 0x968 JUMP JUMPDEST PUSH1 0x1F ADD PUSH1 0x1F NOT AND SWAP2 SWAP1 SWAP2 ADD PUSH1 0x40 ADD SWAP3 SWAP2 POP POP JUMP JUMPDEST DUP1 CALLDATALOAD PUSH1 0x1 PUSH1 0x1 PUSH1 0xA0 SHL SUB DUP2 AND DUP2 EQ PUSH2 0x9D6 JUMPI PUSH1 0x0 DUP1 REVERT JUMPDEST SWAP2 SWAP1 POP JUMP JUMPDEST PUSH1 0x0 PUSH1 0x20 DUP3 DUP5 SUB SLT ISZERO PUSH2 0x9ED JUMPI PUSH1 0x0 DUP1 REVERT JUMPDEST PUSH2 0x9F6 DUP3 PUSH2 0x9BF JUMP JUMPDEST SWAP4 SWAP3 POP POP POP JUMP JUMPDEST PUSH4 0x4E487B71 PUSH1 0xE0 SHL PUSH1 0x0 MSTORE PUSH1 0x41 PUSH1 0x4 MSTORE PUSH1 0x24 PUSH1 0x0 REVERT JUMPDEST PUSH1 0x0 DUP3 PUSH1 0x1F DUP4 ADD SLT PUSH2 0xA24 JUMPI PUSH1 0x0 DUP1 REVERT JUMPDEST DUP2 CALLDATALOAD PUSH8 0xFFFFFFFFFFFFFFFF DUP1 DUP3 GT ISZERO PUSH2 0xA3F JUMPI PUSH2 0xA3F PUSH2 0x9FD JUMP JUMPDEST PUSH1 0x40 MLOAD PUSH1 0x1F DUP4 ADD PUSH1 0x1F NOT SWAP1 DUP2 AND PUSH1 0x3F ADD AND DUP2 ADD SWAP1 DUP3 DUP3 GT DUP2 DUP4 LT OR ISZERO PUSH2 0xA67 JUMPI PUSH2 0xA67 PUSH2 0x9FD JUMP JUMPDEST DUP2 PUSH1 0x40 MSTORE DUP4 DUP2 MSTORE DUP7 PUSH1 0x20 DUP6 DUP9 ADD ADD GT ISZERO PUSH2 0xA80 JUMPI PUSH1 0x0 DUP1 REVERT JUMPDEST DUP4 PUSH1 0x20 DUP8 ADD PUSH1 0x20 DUP4 ADD CALLDATACOPY PUSH1 0x0 PUSH1 0x20 DUP6 DUP4 ADD ADD MSTORE DUP1 SWAP5 POP POP POP POP POP SWAP3 SWAP2 POP POP JUMP JUMPDEST PUSH1 0x0 DUP1 PUSH1 0x40 DUP4 DUP6 SUB SLT ISZERO PUSH2 0xAB3 JUMPI PUSH1 0x0 DUP1 REVERT JUMPDEST PUSH2 0xABC DUP4 PUSH2 0x9BF JUMP JUMPDEST SWAP2 POP PUSH1 0x20 DUP4 ADD CALLDATALOAD PUSH8 0xFFFFFFFFFFFFFFFF DUP2 GT ISZERO PUSH2 0xAD8 JUMPI PUSH1 0x0 DUP1 REVERT JUMPDEST PUSH2 0xAE4 DUP6 DUP3 DUP7 ADD PUSH2 0xA13 JUMP JUMPDEST SWAP2 POP POP SWAP3 POP SWAP3 SWAP1 POP JUMP JUMPDEST PUSH1 0x0 PUSH1 0x20 DUP3 DUP5 SUB SLT ISZERO PUSH2 0xB00 JUMPI PUSH1 0x0 DUP1 REVERT JUMPDEST POP CALLDATALOAD SWAP2 SWAP1 POP JUMP JUMPDEST PUSH1 0x0 DUP1 PUSH1 0x40 DUP4 DUP6 SUB SLT ISZERO PUSH2 0xB1A JUMPI PUSH1 0x0 DUP1 REVERT JUMPDEST DUP3 CALLDATALOAD PUSH8 0xFFFFFFFFFFFFFFFF DUP2 GT ISZERO PUSH2 0xB31 JUMPI PUSH1 0x0 DUP1 REVERT JUMPDEST PUSH2 0xB3D DUP6 DUP3 DUP7 ADD PUSH2 0xA13 JUMP JUMPDEST SWAP6 PUSH1 0x20 SWAP5 SWAP1 SWAP5 ADD CALLDATALOAD SWAP5 POP POP POP POP JUMP JUMPDEST PUSH1 0x0 DUP1 PUSH1 0x40 DUP4 DUP6 SUB SLT ISZERO PUSH2 0xB5F JUMPI PUSH1 0x0 DUP1 REVERT JUMPDEST PUSH2 0xB68 DUP4 PUSH2 0x9BF JUMP JUMPDEST SWAP5 PUSH1 0x20 SWAP4 SWAP1 SWAP4 ADD CALLDATALOAD SWAP4 POP POP POP JUMP JUMPDEST PUSH1 0x0 DUP1 PUSH1 0x40 DUP4 DUP6 SUB SLT ISZERO PUSH2 0xB89 JUMPI PUSH1 0x0 DUP1 REVERT JUMPDEST POP POP DUP1 CALLDATALOAD SWAP3 PUSH1 0x20 SWAP1 SWAP2 ADD CALLDATALOAD SWAP2 POP JUMP JUMPDEST PUSH1 0x1 DUP2 DUP2 SHR SWAP1 DUP3 AND DUP1 PUSH2 0xBAC JUMPI PUSH1 0x7F DUP3 AND SWAP2 POP JUMPDEST PUSH1 0x20 DUP3 LT DUP2 SUB PUSH2 0xBCC JUMPI PUSH4 0x4E487B71 PUSH1 0xE0 SHL PUSH1 0x0 MSTORE PUSH1 0x22 PUSH1 0x4 MSTORE PUSH1 0x24 PUSH1 0x0 REVERT JUMPDEST POP SWAP2 SWAP1 POP JUMP JUMPDEST PUSH1 0x0 DUP3 MLOAD PUSH2 0xBE4 DUP2 DUP5 PUSH1 0x20 DUP8 ADD PUSH2 0x968 JUMP JUMPDEST SWAP2 SWAP1 SWAP2 ADD SWAP3 SWAP2 POP POP JUMP JUMPDEST PUSH1 0x20 DUP1 DUP3 MSTORE PUSH1 0x22 SWAP1 DUP3 ADD MSTORE PUSH32 0x596F75206E65656420746F20616374697661746520796F7572206163636F756E PUSH1 0x40 DUP3 ADD MSTORE PUSH2 0x3A17 PUSH1 0xF1 SHL PUSH1 0x60 DUP3 ADD MSTORE PUSH1 0x80 ADD SWAP1 JUMP JUMPDEST DUP1 DUP3 ADD DUP1 DUP3 GT ISZERO PUSH2 0x41C JUMPI PUSH4 0x4E487B71 PUSH1 0xE0 SHL PUSH1 0x0 MSTORE PUSH1 0x11 PUSH1 0x4 MSTORE PUSH1 0x24 PUSH1 0x0 REVERT INVALID 0x2E TIMESTAMP EXTCODECOPY RETURNDATASIZE 0x4C MSTORE8 PUSH12 0xE9C3307D7BA9D9797CE08E89 CALLER BLOCKHASH MSTORE 0xF8 0x4C 0x24 0xF8 0xEB LOG2 SIGNEXTEND 0xAA PUSH4 0xA1A26469 PUSH17 0x667358221220FF403435674CA39405CFEE 0xA8 MLOAD NUMBER 0x2C SWAP10 0x26 0xC1 0xC5 CALLDATASIZE DUP5 0x2D SELFBALANCE RETURN 0xE4 SWAP10 0xE1 PUSH28 0x64C8667B64736F6C6343000810003300000000000000000000000000 "
				},
				"gasEstimates": {
					"creation": {
						"codeDepositCost": "647800",
						"executionCost": "infinite",
						"totalCost": "infinite"
					},
					"external": {
						"bookmark(address,uint256)": "2635",
						"changeNsfwFilter(string,uint256)": "infinite",
						"enable()": "infinite",
						"enabled(address)": "2608",
						"getBookmark(address,uint256)": "2747",
						"getInteractions()": "2358",
						"getNsfwFilter(address,string)": "infinite",
						"getOwner()": "2343",
						"getVolume(address)": "2582",
						"getWallets()": "2336",
						"insertBookmark(uint256,uint256)": "infinite",
						"interactions(address)": "2565",
						"name()": "infinite",
						"nsfw_filter(address,string)": "infinite",
						"owner()": "2404",
						"setVolume(uint256)": "infinite",
						"totalInteractions()": "2362",
						"transferOwnership(address)": "30475",
						"volume(address)": "2608",
						"wallets()": "2317"
					}
				},
				"methodIdentifiers": {
					"bookmark(address,uint256)": "9c6950a1",
					"changeNsfwFilter(string,uint256)": "481dcb7b",
					"enable()": "a3907d71",
					"enabled(address)": "98afdfe3",
					"getBookmark(address,uint256)": "9a3d66c0",
					"getInteractions()": "dbe8c6db",
					"getNsfwFilter(address,string)": "0db17965",
					"getOwner()": "893d20e8",
					"getVolume(address)": "8ba17f86",
					"getWallets()": "db7a4605",
					"insertBookmark(uint256,uint256)": "edc84da0",
					"interactions(address)": "08a6f252",
					"name()": "06fdde03",
					"nsfw_filter(address,string)": "b943cd16",
					"owner()": "8da5cb5b",
					"setVolume(uint256)": "4559dcdc",
					"totalInteractions()": "a843651e",
					"transferOwnership(address)": "f2fde38b",
					"volume(address)": "adeabba9",
					"wallets()": "d2f4a50a"
				}
			},
			"storageLayout": {
				"storage": [
					{
						"astId": 3,
						"contract": "build/solidity/base.sol:PonyDrilandBase",
						"label": "owner",
						"offset": 0,
						"slot": "0",
						"type": "t_address_payable"
					},
					{
						"astId": 7,
						"contract": "build/solidity/base.sol:PonyDrilandBase",
						"label": "interactions",
						"offset": 0,
						"slot": "1",
						"type": "t_mapping(t_address,t_uint256)"
					},
					{
						"astId": 13,
						"contract": "build/solidity/base.sol:PonyDrilandBase",
						"label": "bookmark",
						"offset": 0,
						"slot": "2",
						"type": "t_mapping(t_address,t_mapping(t_uint256,t_uint256))"
					},
					{
						"astId": 19,
						"contract": "build/solidity/base.sol:PonyDrilandBase",
						"label": "nsfw_filter",
						"offset": 0,
						"slot": "3",
						"type": "t_mapping(t_address,t_mapping(t_string_memory_ptr,t_uint256))"
					},
					{
						"astId": 23,
						"contract": "build/solidity/base.sol:PonyDrilandBase",
						"label": "volume",
						"offset": 0,
						"slot": "4",
						"type": "t_mapping(t_address,t_uint256)"
					},
					{
						"astId": 27,
						"contract": "build/solidity/base.sol:PonyDrilandBase",
						"label": "enabled",
						"offset": 0,
						"slot": "5",
						"type": "t_mapping(t_address,t_uint256)"
					},
					{
						"astId": 29,
						"contract": "build/solidity/base.sol:PonyDrilandBase",
						"label": "name",
						"offset": 0,
						"slot": "6",
						"type": "t_string_storage"
					},
					{
						"astId": 31,
						"contract": "build/solidity/base.sol:PonyDrilandBase",
						"label": "wallets",
						"offset": 0,
						"slot": "7",
						"type": "t_uint256"
					},
					{
						"astId": 33,
						"contract": "build/solidity/base.sol:PonyDrilandBase",
						"label": "totalInteractions",
						"offset": 0,
						"slot": "8",
						"type": "t_uint256"
					}
				],
				"types": {
					"t_address": {
						"encoding": "inplace",
						"label": "address",
						"numberOfBytes": "20"
					},
					"t_address_payable": {
						"encoding": "inplace",
						"label": "address payable",
						"numberOfBytes": "20"
					},
					"t_mapping(t_address,t_mapping(t_string_memory_ptr,t_uint256))": {
						"encoding": "mapping",
						"key": "t_address",
						"label": "mapping(address => mapping(string => uint256))",
						"numberOfBytes": "32",
						"value": "t_mapping(t_string_memory_ptr,t_uint256)"
					},
					"t_mapping(t_address,t_mapping(t_uint256,t_uint256))": {
						"encoding": "mapping",
						"key": "t_address",
						"label": "mapping(address => mapping(uint256 => uint256))",
						"numberOfBytes": "32",
						"value": "t_mapping(t_uint256,t_uint256)"
					},
					"t_mapping(t_address,t_uint256)": {
						"encoding": "mapping",
						"key": "t_address",
						"label": "mapping(address => uint256)",
						"numberOfBytes": "32",
						"value": "t_uint256"
					},
					"t_mapping(t_string_memory_ptr,t_uint256)": {
						"encoding": "mapping",
						"key": "t_string_memory_ptr",
						"label": "mapping(string => uint256)",
						"numberOfBytes": "32",
						"value": "t_uint256"
					},
					"t_mapping(t_uint256,t_uint256)": {
						"encoding": "mapping",
						"key": "t_uint256",
						"label": "mapping(uint256 => uint256)",
						"numberOfBytes": "32",
						"value": "t_uint256"
					},
					"t_string_memory_ptr": {
						"encoding": "bytes",
						"label": "string",
						"numberOfBytes": "32"
					},
					"t_string_storage": {
						"encoding": "bytes",
						"label": "string",
						"numberOfBytes": "32"
					},
					"t_uint256": {
						"encoding": "inplace",
						"label": "uint256",
						"numberOfBytes": "32"
					}
				}
			},
			"userdoc": {
				"kind": "user",
				"methods": {},
				"version": 1
			}
		}
	}
}