{
	"build/solidity/reader.sol": {
		"PonyDrilandReader1": {
			"abi": [
				{
					"inputs": [],
					"stateMutability": "nonpayable",
					"type": "constructor"
				},
				{
					"inputs": [
						{
							"internalType": "address",
							"name": "",
							"type": "address"
						},
						{
							"internalType": "uint256",
							"name": "",
							"type": "uint256"
						}
					],
					"name": "bookmark",
					"outputs": [
						{
							"internalType": "uint256",
							"name": "",
							"type": "uint256"
						}
					],
					"stateMutability": "view",
					"type": "function"
				},
				{
					"inputs": [
						{
							"internalType": "address",
							"name": "account",
							"type": "address"
						},
						{
							"internalType": "uint256",
							"name": "chapter",
							"type": "uint256"
						}
					],
					"name": "getBookmark",
					"outputs": [
						{
							"internalType": "uint256",
							"name": "",
							"type": "uint256"
						}
					],
					"stateMutability": "view",
					"type": "function"
				},
				{
					"inputs": [
						{
							"internalType": "address",
							"name": "account",
							"type": "address"
						},
						{
							"internalType": "string",
							"name": "name",
							"type": "string"
						}
					],
					"name": "getNsfwFilter",
					"outputs": [
						{
							"internalType": "uint256",
							"name": "",
							"type": "uint256"
						}
					],
					"stateMutability": "view",
					"type": "function"
				},
				{
					"inputs": [],
					"name": "getOwner",
					"outputs": [
						{
							"internalType": "address",
							"name": "",
							"type": "address"
						}
					],
					"stateMutability": "view",
					"type": "function"
				},
				{
					"inputs": [
						{
							"internalType": "uint256",
							"name": "chapter",
							"type": "uint256"
						},
						{
							"internalType": "uint256",
							"name": "value",
							"type": "uint256"
						}
					],
					"name": "insertBookmark",
					"outputs": [
						{
							"internalType": "bool",
							"name": "success",
							"type": "bool"
						}
					],
					"stateMutability": "nonpayable",
					"type": "function"
				},
				{
					"inputs": [
						{
							"internalType": "string",
							"name": "name",
							"type": "string"
						},
						{
							"internalType": "uint256",
							"name": "value",
							"type": "uint256"
						}
					],
					"name": "insertNsfwFilter",
					"outputs": [
						{
							"internalType": "bool",
							"name": "success",
							"type": "bool"
						}
					],
					"stateMutability": "nonpayable",
					"type": "function"
				},
				{
					"inputs": [
						{
							"internalType": "address",
							"name": "",
							"type": "address"
						},
						{
							"internalType": "string",
							"name": "",
							"type": "string"
						}
					],
					"name": "nsfw_filter",
					"outputs": [
						{
							"internalType": "uint256",
							"name": "",
							"type": "uint256"
						}
					],
					"stateMutability": "view",
					"type": "function"
				},
				{
					"inputs": [],
					"name": "owner",
					"outputs": [
						{
							"internalType": "address payable",
							"name": "",
							"type": "address"
						}
					],
					"stateMutability": "view",
					"type": "function"
				}
			],
			"devdoc": {
				"kind": "dev",
				"methods": {},
				"version": 1
			},
			"evm": {
				"assembly": "    /* \"build/solidity/reader.sol\":64:1467  contract PonyDrilandReader1 {... */\n  mstore(0x40, 0x80)\n    /* \"build/solidity/reader.sol\":304:364  constructor() {... */\n  callvalue\n  dup1\n  iszero\n  tag_1\n  jumpi\n  0x00\n  dup1\n  revert\ntag_1:\n  pop\n    /* \"build/solidity/reader.sol\":345:355  msg.sender */\n  caller\n    /* \"build/solidity/reader.sol\":329:334  owner */\n  0x00\n  dup1\n    /* \"build/solidity/reader.sol\":329:356  owner = payable(msg.sender) */\n  0x0100\n  exp\n  dup2\n  sload\n  dup2\n  0xffffffffffffffffffffffffffffffffffffffff\n  mul\n  not\n  and\n  swap1\n  dup4\n  0xffffffffffffffffffffffffffffffffffffffff\n  and\n  mul\n  or\n  swap1\n  sstore\n  pop\n    /* \"build/solidity/reader.sol\":64:1467  contract PonyDrilandReader1 {... */\n  dataSize(sub_0)\n  dup1\n  dataOffset(sub_0)\n  0x00\n  codecopy\n  0x00\n  return\nstop\n\nsub_0: assembly {\n        /* \"build/solidity/reader.sol\":64:1467  contract PonyDrilandReader1 {... */\n      mstore(0x40, 0x80)\n      callvalue\n      dup1\n      iszero\n      tag_1\n      jumpi\n      0x00\n      dup1\n      revert\n    tag_1:\n      pop\n      jumpi(tag_2, lt(calldatasize, 0x04))\n      shr(0xe0, calldataload(0x00))\n      dup1\n      0x9a3d66c0\n      gt\n      tag_11\n      jumpi\n      dup1\n      0x9a3d66c0\n      eq\n      tag_7\n      jumpi\n      dup1\n      0x9c6950a1\n      eq\n      tag_8\n      jumpi\n      dup1\n      0xb943cd16\n      eq\n      tag_9\n      jumpi\n      dup1\n      0xedc84da0\n      eq\n      tag_10\n      jumpi\n      jump(tag_2)\n    tag_11:\n      dup1\n      0x0db17965\n      eq\n      tag_3\n      jumpi\n      dup1\n      0x13f79d8b\n      eq\n      tag_4\n      jumpi\n      dup1\n      0x893d20e8\n      eq\n      tag_5\n      jumpi\n      dup1\n      0x8da5cb5b\n      eq\n      tag_6\n      jumpi\n    tag_2:\n      0x00\n      dup1\n      revert\n        /* \"build/solidity/reader.sol\":621:765  function getNsfwFilter(address account, string memory name) external view returns (uint256) {... */\n    tag_3:\n      tag_12\n      0x04\n      dup1\n      calldatasize\n      sub\n      dup2\n      add\n      swap1\n      tag_13\n      swap2\n      swap1\n      tag_14\n      jump\t// in\n    tag_13:\n      tag_15\n      jump\t// in\n    tag_12:\n      mload(0x40)\n      tag_16\n      swap2\n      swap1\n      tag_17\n      jump\t// in\n    tag_16:\n      mload(0x40)\n      dup1\n      swap2\n      sub\n      swap1\n      return\n        /* \"build/solidity/reader.sol\":795:1134  function insertNsfwFilter(string memory name, uint256 value) public returns (bool success) {... */\n    tag_4:\n      tag_18\n      0x04\n      dup1\n      calldatasize\n      sub\n      dup2\n      add\n      swap1\n      tag_19\n      swap2\n      swap1\n      tag_20\n      jump\t// in\n    tag_19:\n      tag_21\n      jump\t// in\n    tag_18:\n      mload(0x40)\n      tag_22\n      swap2\n      swap1\n      tag_23\n      jump\t// in\n    tag_22:\n      mload(0x40)\n      dup1\n      swap2\n      sub\n      swap1\n      return\n        /* \"build/solidity/reader.sol\":385:466  function getOwner() public view returns (address) {... */\n    tag_5:\n      tag_24\n      tag_25\n      jump\t// in\n    tag_24:\n      mload(0x40)\n      tag_26\n      swap2\n      swap1\n      tag_27\n      jump\t// in\n    tag_26:\n      mload(0x40)\n      dup1\n      swap2\n      sub\n      swap1\n      return\n        /* \"build/solidity/reader.sol\":101:129  address payable public owner */\n    tag_6:\n      tag_28\n      tag_29\n      jump\t// in\n    tag_28:\n      mload(0x40)\n      tag_30\n      swap2\n      swap1\n      tag_31\n      jump\t// in\n    tag_30:\n      mload(0x40)\n      dup1\n      swap2\n      sub\n      swap1\n      return\n        /* \"build/solidity/reader.sol\":474:613  function getBookmark(address account, uint256 chapter) external view returns (uint256) {... */\n    tag_7:\n      tag_32\n      0x04\n      dup1\n      calldatasize\n      sub\n      dup2\n      add\n      swap1\n      tag_33\n      swap2\n      swap1\n      tag_34\n      jump\t// in\n    tag_33:\n      tag_35\n      jump\t// in\n    tag_32:\n      mload(0x40)\n      tag_36\n      swap2\n      swap1\n      tag_17\n      jump\t// in\n    tag_36:\n      mload(0x40)\n      dup1\n      swap2\n      sub\n      swap1\n      return\n        /* \"build/solidity/reader.sol\":136:201  mapping (address => mapping (uint256 => uint256)) public bookmark */\n    tag_8:\n      tag_37\n      0x04\n      dup1\n      calldatasize\n      sub\n      dup2\n      add\n      swap1\n      tag_38\n      swap2\n      swap1\n      tag_34\n      jump\t// in\n    tag_38:\n      tag_39\n      jump\t// in\n    tag_37:\n      mload(0x40)\n      tag_40\n      swap2\n      swap1\n      tag_17\n      jump\t// in\n    tag_40:\n      mload(0x40)\n      dup1\n      swap2\n      sub\n      swap1\n      return\n        /* \"build/solidity/reader.sol\":208:275  mapping (address => mapping (string => uint256)) public nsfw_filter */\n    tag_9:\n      tag_41\n      0x04\n      dup1\n      calldatasize\n      sub\n      dup2\n      add\n      swap1\n      tag_42\n      swap2\n      swap1\n      tag_14\n      jump\t// in\n    tag_42:\n      tag_43\n      jump\t// in\n    tag_41:\n      mload(0x40)\n      tag_44\n      swap2\n      swap1\n      tag_17\n      jump\t// in\n    tag_44:\n      mload(0x40)\n      dup1\n      swap2\n      sub\n      swap1\n      return\n        /* \"build/solidity/reader.sol\":1142:1458  function insertBookmark(uint256 chapter, uint256 value) public returns (bool success) {... */\n    tag_10:\n      tag_45\n      0x04\n      dup1\n      calldatasize\n      sub\n      dup2\n      add\n      swap1\n      tag_46\n      swap2\n      swap1\n      tag_47\n      jump\t// in\n    tag_46:\n      tag_48\n      jump\t// in\n    tag_45:\n      mload(0x40)\n      tag_49\n      swap2\n      swap1\n      tag_23\n      jump\t// in\n    tag_49:\n      mload(0x40)\n      dup1\n      swap2\n      sub\n      swap1\n      return\n        /* \"build/solidity/reader.sol\":621:765  function getNsfwFilter(address account, string memory name) external view returns (uint256) {... */\n    tag_15:\n        /* \"build/solidity/reader.sol\":704:711  uint256 */\n      0x00\n        /* \"build/solidity/reader.sol\":731:742  nsfw_filter */\n      0x02\n        /* \"build/solidity/reader.sol\":731:751  nsfw_filter[account] */\n      0x00\n        /* \"build/solidity/reader.sol\":743:750  account */\n      dup5\n        /* \"build/solidity/reader.sol\":731:751  nsfw_filter[account] */\n      0xffffffffffffffffffffffffffffffffffffffff\n      and\n      0xffffffffffffffffffffffffffffffffffffffff\n      and\n      dup2\n      mstore\n      0x20\n      add\n      swap1\n      dup2\n      mstore\n      0x20\n      add\n      0x00\n      keccak256\n        /* \"build/solidity/reader.sol\":752:756  name */\n      dup3\n        /* \"build/solidity/reader.sol\":731:757  nsfw_filter[account][name] */\n      mload(0x40)\n      tag_51\n      swap2\n      swap1\n      tag_52\n      jump\t// in\n    tag_51:\n      swap1\n      dup2\n      mstore\n      0x20\n      add\n      mload(0x40)\n      dup1\n      swap2\n      sub\n      swap1\n      keccak256\n      sload\n        /* \"build/solidity/reader.sol\":724:757  return nsfw_filter[account][name] */\n      swap1\n      pop\n        /* \"build/solidity/reader.sol\":621:765  function getNsfwFilter(address account, string memory name) external view returns (uint256) {... */\n      swap3\n      swap2\n      pop\n      pop\n      jump\t// out\n        /* \"build/solidity/reader.sol\":795:1134  function insertNsfwFilter(string memory name, uint256 value) public returns (bool success) {... */\n    tag_21:\n        /* \"build/solidity/reader.sol\":872:884  bool success */\n      0x00\n        /* \"build/solidity/reader.sol\":945:946  0 */\n      dup1\n        /* \"build/solidity/reader.sol\":936:941  value */\n      dup3\n        /* \"build/solidity/reader.sol\":936:946  value >= 0 */\n      lt\n      iszero\n        /* \"build/solidity/reader.sol\":928:980  require(value >= 0, \"Invalid Value. This is 1 or 0\") */\n      tag_54\n      jumpi\n      mload(0x40)\n      0x08c379a000000000000000000000000000000000000000000000000000000000\n      dup2\n      mstore\n      0x04\n      add\n      tag_55\n      swap1\n      tag_56\n      jump\t// in\n    tag_55:\n      mload(0x40)\n      dup1\n      swap2\n      sub\n      swap1\n      revert\n    tag_54:\n        /* \"build/solidity/reader.sol\":1008:1009  1 */\n      0x01\n        /* \"build/solidity/reader.sol\":999:1004  value */\n      dup3\n        /* \"build/solidity/reader.sol\":999:1009  value <= 1 */\n      gt\n      iszero\n        /* \"build/solidity/reader.sol\":991:1043  require(value <= 1, \"Invalid Value. This is 1 or 0\") */\n      tag_57\n      jumpi\n      mload(0x40)\n      0x08c379a000000000000000000000000000000000000000000000000000000000\n      dup2\n      mstore\n      0x04\n      add\n      tag_58\n      swap1\n      tag_56\n      jump\t// in\n    tag_58:\n      mload(0x40)\n      dup1\n      swap2\n      sub\n      swap1\n      revert\n    tag_57:\n        /* \"build/solidity/reader.sol\":1097:1102  value */\n      dup2\n        /* \"build/solidity/reader.sol\":1056:1067  nsfw_filter */\n      0x02\n        /* \"build/solidity/reader.sol\":1056:1088  nsfw_filter[address(msg.sender)] */\n      0x00\n        /* \"build/solidity/reader.sol\":1076:1086  msg.sender */\n      caller\n        /* \"build/solidity/reader.sol\":1056:1088  nsfw_filter[address(msg.sender)] */\n      0xffffffffffffffffffffffffffffffffffffffff\n      and\n      0xffffffffffffffffffffffffffffffffffffffff\n      and\n      dup2\n      mstore\n      0x20\n      add\n      swap1\n      dup2\n      mstore\n      0x20\n      add\n      0x00\n      keccak256\n        /* \"build/solidity/reader.sol\":1089:1093  name */\n      dup5\n        /* \"build/solidity/reader.sol\":1056:1094  nsfw_filter[address(msg.sender)][name] */\n      mload(0x40)\n      tag_59\n      swap2\n      swap1\n      tag_52\n      jump\t// in\n    tag_59:\n      swap1\n      dup2\n      mstore\n      0x20\n      add\n      mload(0x40)\n      dup1\n      swap2\n      sub\n      swap1\n      keccak256\n        /* \"build/solidity/reader.sol\":1056:1102  nsfw_filter[address(msg.sender)][name] = value */\n      dup2\n      swap1\n      sstore\n      pop\n        /* \"build/solidity/reader.sol\":1120:1124  true */\n      0x01\n        /* \"build/solidity/reader.sol\":1113:1124  return true */\n      swap1\n      pop\n        /* \"build/solidity/reader.sol\":795:1134  function insertNsfwFilter(string memory name, uint256 value) public returns (bool success) {... */\n      swap3\n      swap2\n      pop\n      pop\n      jump\t// out\n        /* \"build/solidity/reader.sol\":385:466  function getOwner() public view returns (address) {... */\n    tag_25:\n        /* \"build/solidity/reader.sol\":426:433  address */\n      0x00\n        /* \"build/solidity/reader.sol\":453:458  owner */\n      dup1\n      0x00\n      swap1\n      sload\n      swap1\n      0x0100\n      exp\n      swap1\n      div\n      0xffffffffffffffffffffffffffffffffffffffff\n      and\n        /* \"build/solidity/reader.sol\":446:458  return owner */\n      swap1\n      pop\n        /* \"build/solidity/reader.sol\":385:466  function getOwner() public view returns (address) {... */\n      swap1\n      jump\t// out\n        /* \"build/solidity/reader.sol\":101:129  address payable public owner */\n    tag_29:\n      0x00\n      dup1\n      sload\n      swap1\n      0x0100\n      exp\n      swap1\n      div\n      0xffffffffffffffffffffffffffffffffffffffff\n      and\n      dup2\n      jump\t// out\n        /* \"build/solidity/reader.sol\":474:613  function getBookmark(address account, uint256 chapter) external view returns (uint256) {... */\n    tag_35:\n        /* \"build/solidity/reader.sol\":552:559  uint256 */\n      0x00\n        /* \"build/solidity/reader.sol\":579:587  bookmark */\n      0x01\n        /* \"build/solidity/reader.sol\":579:596  bookmark[account] */\n      0x00\n        /* \"build/solidity/reader.sol\":588:595  account */\n      dup5\n        /* \"build/solidity/reader.sol\":579:596  bookmark[account] */\n      0xffffffffffffffffffffffffffffffffffffffff\n      and\n      0xffffffffffffffffffffffffffffffffffffffff\n      and\n      dup2\n      mstore\n      0x20\n      add\n      swap1\n      dup2\n      mstore\n      0x20\n      add\n      0x00\n      keccak256\n        /* \"build/solidity/reader.sol\":579:605  bookmark[account][chapter] */\n      0x00\n        /* \"build/solidity/reader.sol\":597:604  chapter */\n      dup4\n        /* \"build/solidity/reader.sol\":579:605  bookmark[account][chapter] */\n      dup2\n      mstore\n      0x20\n      add\n      swap1\n      dup2\n      mstore\n      0x20\n      add\n      0x00\n      keccak256\n      sload\n        /* \"build/solidity/reader.sol\":572:605  return bookmark[account][chapter] */\n      swap1\n      pop\n        /* \"build/solidity/reader.sol\":474:613  function getBookmark(address account, uint256 chapter) external view returns (uint256) {... */\n      swap3\n      swap2\n      pop\n      pop\n      jump\t// out\n        /* \"build/solidity/reader.sol\":136:201  mapping (address => mapping (uint256 => uint256)) public bookmark */\n    tag_39:\n      mstore(0x20, 0x01)\n      dup2\n      0x00\n      mstore\n      mstore(0x20, keccak256(0x00, 0x40))\n      dup1\n      0x00\n      mstore\n      keccak256(0x00, 0x40)\n      0x00\n      swap2\n      pop\n      swap2\n      pop\n      pop\n      sload\n      dup2\n      jump\t// out\n        /* \"build/solidity/reader.sol\":208:275  mapping (address => mapping (string => uint256)) public nsfw_filter */\n    tag_43:\n      mstore(0x20, 0x02)\n      dup2\n      0x00\n      mstore\n      keccak256(0x00, 0x40)\n      dup2\n      dup1\n      mload\n      0x20\n      dup2\n      add\n      dup3\n      add\n      dup1\n      mload\n      dup5\n      dup3\n      mstore\n      0x20\n      dup4\n      add\n      0x20\n      dup6\n      add\n      keccak256\n      dup2\n      dup4\n      mstore\n      dup1\n      swap6\n      pop\n      pop\n      pop\n      pop\n      pop\n      pop\n      0x00\n      swap2\n      pop\n      swap2\n      pop\n      pop\n      sload\n      dup2\n      jump\t// out\n        /* \"build/solidity/reader.sol\":1142:1458  function insertBookmark(uint256 chapter, uint256 value) public returns (bool success) {... */\n    tag_48:\n        /* \"build/solidity/reader.sol\":1214:1226  bool success */\n      0x00\n        /* \"build/solidity/reader.sol\":1289:1290  1 */\n      0x01\n        /* \"build/solidity/reader.sol\":1278:1285  chapter */\n      dup4\n        /* \"build/solidity/reader.sol\":1278:1290  chapter >= 1 */\n      lt\n      iszero\n        /* \"build/solidity/reader.sol\":1270:1311  require(chapter >= 1, \"Invalid Chapter.\") */\n      tag_63\n      jumpi\n      mload(0x40)\n      0x08c379a000000000000000000000000000000000000000000000000000000000\n      dup2\n      mstore\n      0x04\n      add\n      tag_64\n      swap1\n      tag_65\n      jump\t// in\n    tag_64:\n      mload(0x40)\n      dup1\n      swap2\n      sub\n      swap1\n      revert\n    tag_63:\n        /* \"build/solidity/reader.sol\":1339:1340  0 */\n      0x00\n        /* \"build/solidity/reader.sol\":1330:1335  value */\n      dup3\n        /* \"build/solidity/reader.sol\":1330:1340  value >= 0 */\n      lt\n      iszero\n        /* \"build/solidity/reader.sol\":1322:1359  require(value >= 0, \"Invalid Value.\") */\n      tag_66\n      jumpi\n      mload(0x40)\n      0x08c379a000000000000000000000000000000000000000000000000000000000\n      dup2\n      mstore\n      0x04\n      add\n      tag_67\n      swap1\n      tag_68\n      jump\t// in\n    tag_67:\n      mload(0x40)\n      dup1\n      swap2\n      sub\n      swap1\n      revert\n    tag_66:\n        /* \"build/solidity/reader.sol\":1421:1426  value */\n      dup2\n        /* \"build/solidity/reader.sol\":1380:1388  bookmark */\n      0x01\n        /* \"build/solidity/reader.sol\":1380:1409  bookmark[address(msg.sender)] */\n      0x00\n        /* \"build/solidity/reader.sol\":1397:1407  msg.sender */\n      caller\n        /* \"build/solidity/reader.sol\":1380:1409  bookmark[address(msg.sender)] */\n      0xffffffffffffffffffffffffffffffffffffffff\n      and\n      0xffffffffffffffffffffffffffffffffffffffff\n      and\n      dup2\n      mstore\n      0x20\n      add\n      swap1\n      dup2\n      mstore\n      0x20\n      add\n      0x00\n      keccak256\n        /* \"build/solidity/reader.sol\":1380:1418  bookmark[address(msg.sender)][chapter] */\n      0x00\n        /* \"build/solidity/reader.sol\":1410:1417  chapter */\n      dup6\n        /* \"build/solidity/reader.sol\":1380:1418  bookmark[address(msg.sender)][chapter] */\n      dup2\n      mstore\n      0x20\n      add\n      swap1\n      dup2\n      mstore\n      0x20\n      add\n      0x00\n      keccak256\n        /* \"build/solidity/reader.sol\":1380:1426  bookmark[address(msg.sender)][chapter] = value */\n      dup2\n      swap1\n      sstore\n      pop\n        /* \"build/solidity/reader.sol\":1444:1448  true */\n      0x01\n        /* \"build/solidity/reader.sol\":1437:1448  return true */\n      swap1\n      pop\n        /* \"build/solidity/reader.sol\":1142:1458  function insertBookmark(uint256 chapter, uint256 value) public returns (bool success) {... */\n      swap3\n      swap2\n      pop\n      pop\n      jump\t// out\n        /* \"#utility.yul\":7:82   */\n    tag_69:\n        /* \"#utility.yul\":40:46   */\n      0x00\n        /* \"#utility.yul\":73:75   */\n      0x40\n        /* \"#utility.yul\":67:76   */\n      mload\n        /* \"#utility.yul\":57:76   */\n      swap1\n      pop\n        /* \"#utility.yul\":7:82   */\n      swap1\n      jump\t// out\n        /* \"#utility.yul\":88:205   */\n    tag_70:\n        /* \"#utility.yul\":197:198   */\n      0x00\n        /* \"#utility.yul\":194:195   */\n      dup1\n        /* \"#utility.yul\":187:199   */\n      revert\n        /* \"#utility.yul\":211:328   */\n    tag_71:\n        /* \"#utility.yul\":320:321   */\n      0x00\n        /* \"#utility.yul\":317:318   */\n      dup1\n        /* \"#utility.yul\":310:322   */\n      revert\n        /* \"#utility.yul\":334:460   */\n    tag_72:\n        /* \"#utility.yul\":371:378   */\n      0x00\n        /* \"#utility.yul\":411:453   */\n      0xffffffffffffffffffffffffffffffffffffffff\n        /* \"#utility.yul\":404:409   */\n      dup3\n        /* \"#utility.yul\":400:454   */\n      and\n        /* \"#utility.yul\":389:454   */\n      swap1\n      pop\n        /* \"#utility.yul\":334:460   */\n      swap2\n      swap1\n      pop\n      jump\t// out\n        /* \"#utility.yul\":466:562   */\n    tag_73:\n        /* \"#utility.yul\":503:510   */\n      0x00\n        /* \"#utility.yul\":532:556   */\n      tag_112\n        /* \"#utility.yul\":550:555   */\n      dup3\n        /* \"#utility.yul\":532:556   */\n      tag_72\n      jump\t// in\n    tag_112:\n        /* \"#utility.yul\":521:556   */\n      swap1\n      pop\n        /* \"#utility.yul\":466:562   */\n      swap2\n      swap1\n      pop\n      jump\t// out\n        /* \"#utility.yul\":568:690   */\n    tag_74:\n        /* \"#utility.yul\":641:665   */\n      tag_114\n        /* \"#utility.yul\":659:664   */\n      dup2\n        /* \"#utility.yul\":641:665   */\n      tag_73\n      jump\t// in\n    tag_114:\n        /* \"#utility.yul\":634:639   */\n      dup2\n        /* \"#utility.yul\":631:666   */\n      eq\n        /* \"#utility.yul\":621:684   */\n      tag_115\n      jumpi\n        /* \"#utility.yul\":680:681   */\n      0x00\n        /* \"#utility.yul\":677:678   */\n      dup1\n        /* \"#utility.yul\":670:682   */\n      revert\n        /* \"#utility.yul\":621:684   */\n    tag_115:\n        /* \"#utility.yul\":568:690   */\n      pop\n      jump\t// out\n        /* \"#utility.yul\":696:835   */\n    tag_75:\n        /* \"#utility.yul\":742:747   */\n      0x00\n        /* \"#utility.yul\":780:786   */\n      dup2\n        /* \"#utility.yul\":767:787   */\n      calldataload\n        /* \"#utility.yul\":758:787   */\n      swap1\n      pop\n        /* \"#utility.yul\":796:829   */\n      tag_117\n        /* \"#utility.yul\":823:828   */\n      dup2\n        /* \"#utility.yul\":796:829   */\n      tag_74\n      jump\t// in\n    tag_117:\n        /* \"#utility.yul\":696:835   */\n      swap3\n      swap2\n      pop\n      pop\n      jump\t// out\n        /* \"#utility.yul\":841:958   */\n    tag_76:\n        /* \"#utility.yul\":950:951   */\n      0x00\n        /* \"#utility.yul\":947:948   */\n      dup1\n        /* \"#utility.yul\":940:952   */\n      revert\n        /* \"#utility.yul\":964:1081   */\n    tag_77:\n        /* \"#utility.yul\":1073:1074   */\n      0x00\n        /* \"#utility.yul\":1070:1071   */\n      dup1\n        /* \"#utility.yul\":1063:1075   */\n      revert\n        /* \"#utility.yul\":1087:1189   */\n    tag_78:\n        /* \"#utility.yul\":1128:1134   */\n      0x00\n        /* \"#utility.yul\":1179:1181   */\n      0x1f\n        /* \"#utility.yul\":1175:1182   */\n      not\n        /* \"#utility.yul\":1170:1172   */\n      0x1f\n        /* \"#utility.yul\":1163:1168   */\n      dup4\n        /* \"#utility.yul\":1159:1173   */\n      add\n        /* \"#utility.yul\":1155:1183   */\n      and\n        /* \"#utility.yul\":1145:1183   */\n      swap1\n      pop\n        /* \"#utility.yul\":1087:1189   */\n      swap2\n      swap1\n      pop\n      jump\t// out\n        /* \"#utility.yul\":1195:1375   */\n    tag_79:\n        /* \"#utility.yul\":1243:1320   */\n      0x4e487b7100000000000000000000000000000000000000000000000000000000\n        /* \"#utility.yul\":1240:1241   */\n      0x00\n        /* \"#utility.yul\":1233:1321   */\n      mstore\n        /* \"#utility.yul\":1340:1344   */\n      0x41\n        /* \"#utility.yul\":1337:1338   */\n      0x04\n        /* \"#utility.yul\":1330:1345   */\n      mstore\n        /* \"#utility.yul\":1364:1368   */\n      0x24\n        /* \"#utility.yul\":1361:1362   */\n      0x00\n        /* \"#utility.yul\":1354:1369   */\n      revert\n        /* \"#utility.yul\":1381:1662   */\n    tag_80:\n        /* \"#utility.yul\":1464:1491   */\n      tag_123\n        /* \"#utility.yul\":1486:1490   */\n      dup3\n        /* \"#utility.yul\":1464:1491   */\n      tag_78\n      jump\t// in\n    tag_123:\n        /* \"#utility.yul\":1456:1462   */\n      dup2\n        /* \"#utility.yul\":1452:1492   */\n      add\n        /* \"#utility.yul\":1594:1600   */\n      dup2\n        /* \"#utility.yul\":1582:1592   */\n      dup2\n        /* \"#utility.yul\":1579:1601   */\n      lt\n        /* \"#utility.yul\":1558:1576   */\n      0xffffffffffffffff\n        /* \"#utility.yul\":1546:1556   */\n      dup3\n        /* \"#utility.yul\":1543:1577   */\n      gt\n        /* \"#utility.yul\":1540:1602   */\n      or\n        /* \"#utility.yul\":1537:1625   */\n      iszero\n      tag_124\n      jumpi\n        /* \"#utility.yul\":1605:1623   */\n      tag_125\n      tag_79\n      jump\t// in\n    tag_125:\n        /* \"#utility.yul\":1537:1625   */\n    tag_124:\n        /* \"#utility.yul\":1645:1655   */\n      dup1\n        /* \"#utility.yul\":1641:1643   */\n      0x40\n        /* \"#utility.yul\":1634:1656   */\n      mstore\n        /* \"#utility.yul\":1424:1662   */\n      pop\n        /* \"#utility.yul\":1381:1662   */\n      pop\n      pop\n      jump\t// out\n        /* \"#utility.yul\":1668:1797   */\n    tag_81:\n        /* \"#utility.yul\":1702:1708   */\n      0x00\n        /* \"#utility.yul\":1729:1749   */\n      tag_127\n      tag_69\n      jump\t// in\n    tag_127:\n        /* \"#utility.yul\":1719:1749   */\n      swap1\n      pop\n        /* \"#utility.yul\":1758:1791   */\n      tag_128\n        /* \"#utility.yul\":1786:1790   */\n      dup3\n        /* \"#utility.yul\":1778:1784   */\n      dup3\n        /* \"#utility.yul\":1758:1791   */\n      tag_80\n      jump\t// in\n    tag_128:\n        /* \"#utility.yul\":1668:1797   */\n      swap2\n      swap1\n      pop\n      jump\t// out\n        /* \"#utility.yul\":1803:2111   */\n    tag_82:\n        /* \"#utility.yul\":1865:1869   */\n      0x00\n        /* \"#utility.yul\":1955:1973   */\n      0xffffffffffffffff\n        /* \"#utility.yul\":1947:1953   */\n      dup3\n        /* \"#utility.yul\":1944:1974   */\n      gt\n        /* \"#utility.yul\":1941:1997   */\n      iszero\n      tag_130\n      jumpi\n        /* \"#utility.yul\":1977:1995   */\n      tag_131\n      tag_79\n      jump\t// in\n    tag_131:\n        /* \"#utility.yul\":1941:1997   */\n    tag_130:\n        /* \"#utility.yul\":2015:2044   */\n      tag_132\n        /* \"#utility.yul\":2037:2043   */\n      dup3\n        /* \"#utility.yul\":2015:2044   */\n      tag_78\n      jump\t// in\n    tag_132:\n        /* \"#utility.yul\":2007:2044   */\n      swap1\n      pop\n        /* \"#utility.yul\":2099:2103   */\n      0x20\n        /* \"#utility.yul\":2093:2097   */\n      dup2\n        /* \"#utility.yul\":2089:2104   */\n      add\n        /* \"#utility.yul\":2081:2104   */\n      swap1\n      pop\n        /* \"#utility.yul\":1803:2111   */\n      swap2\n      swap1\n      pop\n      jump\t// out\n        /* \"#utility.yul\":2117:2263   */\n    tag_83:\n        /* \"#utility.yul\":2214:2220   */\n      dup3\n        /* \"#utility.yul\":2209:2212   */\n      dup2\n        /* \"#utility.yul\":2204:2207   */\n      dup4\n        /* \"#utility.yul\":2191:2221   */\n      calldatacopy\n        /* \"#utility.yul\":2255:2256   */\n      0x00\n        /* \"#utility.yul\":2246:2252   */\n      dup4\n        /* \"#utility.yul\":2241:2244   */\n      dup4\n        /* \"#utility.yul\":2237:2253   */\n      add\n        /* \"#utility.yul\":2230:2257   */\n      mstore\n        /* \"#utility.yul\":2117:2263   */\n      pop\n      pop\n      pop\n      jump\t// out\n        /* \"#utility.yul\":2269:2694   */\n    tag_84:\n        /* \"#utility.yul\":2347:2352   */\n      0x00\n        /* \"#utility.yul\":2372:2438   */\n      tag_135\n        /* \"#utility.yul\":2388:2437   */\n      tag_136\n        /* \"#utility.yul\":2430:2436   */\n      dup5\n        /* \"#utility.yul\":2388:2437   */\n      tag_82\n      jump\t// in\n    tag_136:\n        /* \"#utility.yul\":2372:2438   */\n      tag_81\n      jump\t// in\n    tag_135:\n        /* \"#utility.yul\":2363:2438   */\n      swap1\n      pop\n        /* \"#utility.yul\":2461:2467   */\n      dup3\n        /* \"#utility.yul\":2454:2459   */\n      dup2\n        /* \"#utility.yul\":2447:2468   */\n      mstore\n        /* \"#utility.yul\":2499:2503   */\n      0x20\n        /* \"#utility.yul\":2492:2497   */\n      dup2\n        /* \"#utility.yul\":2488:2504   */\n      add\n        /* \"#utility.yul\":2537:2540   */\n      dup5\n        /* \"#utility.yul\":2528:2534   */\n      dup5\n        /* \"#utility.yul\":2523:2526   */\n      dup5\n        /* \"#utility.yul\":2519:2535   */\n      add\n        /* \"#utility.yul\":2516:2541   */\n      gt\n        /* \"#utility.yul\":2513:2625   */\n      iszero\n      tag_137\n      jumpi\n        /* \"#utility.yul\":2544:2623   */\n      tag_138\n      tag_77\n      jump\t// in\n    tag_138:\n        /* \"#utility.yul\":2513:2625   */\n    tag_137:\n        /* \"#utility.yul\":2634:2688   */\n      tag_139\n        /* \"#utility.yul\":2681:2687   */\n      dup5\n        /* \"#utility.yul\":2676:2679   */\n      dup3\n        /* \"#utility.yul\":2671:2674   */\n      dup6\n        /* \"#utility.yul\":2634:2688   */\n      tag_83\n      jump\t// in\n    tag_139:\n        /* \"#utility.yul\":2353:2694   */\n      pop\n        /* \"#utility.yul\":2269:2694   */\n      swap4\n      swap3\n      pop\n      pop\n      pop\n      jump\t// out\n        /* \"#utility.yul\":2714:3054   */\n    tag_85:\n        /* \"#utility.yul\":2770:2775   */\n      0x00\n        /* \"#utility.yul\":2819:2822   */\n      dup3\n        /* \"#utility.yul\":2812:2816   */\n      0x1f\n        /* \"#utility.yul\":2804:2810   */\n      dup4\n        /* \"#utility.yul\":2800:2817   */\n      add\n        /* \"#utility.yul\":2796:2823   */\n      slt\n        /* \"#utility.yul\":2786:2908   */\n      tag_141\n      jumpi\n        /* \"#utility.yul\":2827:2906   */\n      tag_142\n      tag_76\n      jump\t// in\n    tag_142:\n        /* \"#utility.yul\":2786:2908   */\n    tag_141:\n        /* \"#utility.yul\":2944:2950   */\n      dup2\n        /* \"#utility.yul\":2931:2951   */\n      calldataload\n        /* \"#utility.yul\":2969:3048   */\n      tag_143\n        /* \"#utility.yul\":3044:3047   */\n      dup5\n        /* \"#utility.yul\":3036:3042   */\n      dup3\n        /* \"#utility.yul\":3029:3033   */\n      0x20\n        /* \"#utility.yul\":3021:3027   */\n      dup7\n        /* \"#utility.yul\":3017:3034   */\n      add\n        /* \"#utility.yul\":2969:3048   */\n      tag_84\n      jump\t// in\n    tag_143:\n        /* \"#utility.yul\":2960:3048   */\n      swap2\n      pop\n        /* \"#utility.yul\":2776:3054   */\n      pop\n        /* \"#utility.yul\":2714:3054   */\n      swap3\n      swap2\n      pop\n      pop\n      jump\t// out\n        /* \"#utility.yul\":3060:3714   */\n    tag_14:\n        /* \"#utility.yul\":3138:3144   */\n      0x00\n        /* \"#utility.yul\":3146:3152   */\n      dup1\n        /* \"#utility.yul\":3195:3197   */\n      0x40\n        /* \"#utility.yul\":3183:3192   */\n      dup4\n        /* \"#utility.yul\":3174:3181   */\n      dup6\n        /* \"#utility.yul\":3170:3193   */\n      sub\n        /* \"#utility.yul\":3166:3198   */\n      slt\n        /* \"#utility.yul\":3163:3282   */\n      iszero\n      tag_145\n      jumpi\n        /* \"#utility.yul\":3201:3280   */\n      tag_146\n      tag_70\n      jump\t// in\n    tag_146:\n        /* \"#utility.yul\":3163:3282   */\n    tag_145:\n        /* \"#utility.yul\":3321:3322   */\n      0x00\n        /* \"#utility.yul\":3346:3399   */\n      tag_147\n        /* \"#utility.yul\":3391:3398   */\n      dup6\n        /* \"#utility.yul\":3382:3388   */\n      dup3\n        /* \"#utility.yul\":3371:3380   */\n      dup7\n        /* \"#utility.yul\":3367:3389   */\n      add\n        /* \"#utility.yul\":3346:3399   */\n      tag_75\n      jump\t// in\n    tag_147:\n        /* \"#utility.yul\":3336:3399   */\n      swap3\n      pop\n        /* \"#utility.yul\":3292:3409   */\n      pop\n        /* \"#utility.yul\":3476:3478   */\n      0x20\n        /* \"#utility.yul\":3465:3474   */\n      dup4\n        /* \"#utility.yul\":3461:3479   */\n      add\n        /* \"#utility.yul\":3448:3480   */\n      calldataload\n        /* \"#utility.yul\":3507:3525   */\n      0xffffffffffffffff\n        /* \"#utility.yul\":3499:3505   */\n      dup2\n        /* \"#utility.yul\":3496:3526   */\n      gt\n        /* \"#utility.yul\":3493:3610   */\n      iszero\n      tag_148\n      jumpi\n        /* \"#utility.yul\":3529:3608   */\n      tag_149\n      tag_71\n      jump\t// in\n    tag_149:\n        /* \"#utility.yul\":3493:3610   */\n    tag_148:\n        /* \"#utility.yul\":3634:3697   */\n      tag_150\n        /* \"#utility.yul\":3689:3696   */\n      dup6\n        /* \"#utility.yul\":3680:3686   */\n      dup3\n        /* \"#utility.yul\":3669:3678   */\n      dup7\n        /* \"#utility.yul\":3665:3687   */\n      add\n        /* \"#utility.yul\":3634:3697   */\n      tag_85\n      jump\t// in\n    tag_150:\n        /* \"#utility.yul\":3624:3697   */\n      swap2\n      pop\n        /* \"#utility.yul\":3419:3707   */\n      pop\n        /* \"#utility.yul\":3060:3714   */\n      swap3\n      pop\n      swap3\n      swap1\n      pop\n      jump\t// out\n        /* \"#utility.yul\":3720:3797   */\n    tag_86:\n        /* \"#utility.yul\":3757:3764   */\n      0x00\n        /* \"#utility.yul\":3786:3791   */\n      dup2\n        /* \"#utility.yul\":3775:3791   */\n      swap1\n      pop\n        /* \"#utility.yul\":3720:3797   */\n      swap2\n      swap1\n      pop\n      jump\t// out\n        /* \"#utility.yul\":3803:3921   */\n    tag_87:\n        /* \"#utility.yul\":3890:3914   */\n      tag_153\n        /* \"#utility.yul\":3908:3913   */\n      dup2\n        /* \"#utility.yul\":3890:3914   */\n      tag_86\n      jump\t// in\n    tag_153:\n        /* \"#utility.yul\":3885:3888   */\n      dup3\n        /* \"#utility.yul\":3878:3915   */\n      mstore\n        /* \"#utility.yul\":3803:3921   */\n      pop\n      pop\n      jump\t// out\n        /* \"#utility.yul\":3927:4149   */\n    tag_17:\n        /* \"#utility.yul\":4020:4024   */\n      0x00\n        /* \"#utility.yul\":4058:4060   */\n      0x20\n        /* \"#utility.yul\":4047:4056   */\n      dup3\n        /* \"#utility.yul\":4043:4061   */\n      add\n        /* \"#utility.yul\":4035:4061   */\n      swap1\n      pop\n        /* \"#utility.yul\":4071:4142   */\n      tag_155\n        /* \"#utility.yul\":4139:4140   */\n      0x00\n        /* \"#utility.yul\":4128:4137   */\n      dup4\n        /* \"#utility.yul\":4124:4141   */\n      add\n        /* \"#utility.yul\":4115:4121   */\n      dup5\n        /* \"#utility.yul\":4071:4142   */\n      tag_87\n      jump\t// in\n    tag_155:\n        /* \"#utility.yul\":3927:4149   */\n      swap3\n      swap2\n      pop\n      pop\n      jump\t// out\n        /* \"#utility.yul\":4155:4277   */\n    tag_88:\n        /* \"#utility.yul\":4228:4252   */\n      tag_157\n        /* \"#utility.yul\":4246:4251   */\n      dup2\n        /* \"#utility.yul\":4228:4252   */\n      tag_86\n      jump\t// in\n    tag_157:\n        /* \"#utility.yul\":4221:4226   */\n      dup2\n        /* \"#utility.yul\":4218:4253   */\n      eq\n        /* \"#utility.yul\":4208:4271   */\n      tag_158\n      jumpi\n        /* \"#utility.yul\":4267:4268   */\n      0x00\n        /* \"#utility.yul\":4264:4265   */\n      dup1\n        /* \"#utility.yul\":4257:4269   */\n      revert\n        /* \"#utility.yul\":4208:4271   */\n    tag_158:\n        /* \"#utility.yul\":4155:4277   */\n      pop\n      jump\t// out\n        /* \"#utility.yul\":4283:4422   */\n    tag_89:\n        /* \"#utility.yul\":4329:4334   */\n      0x00\n        /* \"#utility.yul\":4367:4373   */\n      dup2\n        /* \"#utility.yul\":4354:4374   */\n      calldataload\n        /* \"#utility.yul\":4345:4374   */\n      swap1\n      pop\n        /* \"#utility.yul\":4383:4416   */\n      tag_160\n        /* \"#utility.yul\":4410:4415   */\n      dup2\n        /* \"#utility.yul\":4383:4416   */\n      tag_88\n      jump\t// in\n    tag_160:\n        /* \"#utility.yul\":4283:4422   */\n      swap3\n      swap2\n      pop\n      pop\n      jump\t// out\n        /* \"#utility.yul\":4428:5082   */\n    tag_20:\n        /* \"#utility.yul\":4506:4512   */\n      0x00\n        /* \"#utility.yul\":4514:4520   */\n      dup1\n        /* \"#utility.yul\":4563:4565   */\n      0x40\n        /* \"#utility.yul\":4551:4560   */\n      dup4\n        /* \"#utility.yul\":4542:4549   */\n      dup6\n        /* \"#utility.yul\":4538:4561   */\n      sub\n        /* \"#utility.yul\":4534:4566   */\n      slt\n        /* \"#utility.yul\":4531:4650   */\n      iszero\n      tag_162\n      jumpi\n        /* \"#utility.yul\":4569:4648   */\n      tag_163\n      tag_70\n      jump\t// in\n    tag_163:\n        /* \"#utility.yul\":4531:4650   */\n    tag_162:\n        /* \"#utility.yul\":4717:4718   */\n      0x00\n        /* \"#utility.yul\":4706:4715   */\n      dup4\n        /* \"#utility.yul\":4702:4719   */\n      add\n        /* \"#utility.yul\":4689:4720   */\n      calldataload\n        /* \"#utility.yul\":4747:4765   */\n      0xffffffffffffffff\n        /* \"#utility.yul\":4739:4745   */\n      dup2\n        /* \"#utility.yul\":4736:4766   */\n      gt\n        /* \"#utility.yul\":4733:4850   */\n      iszero\n      tag_164\n      jumpi\n        /* \"#utility.yul\":4769:4848   */\n      tag_165\n      tag_71\n      jump\t// in\n    tag_165:\n        /* \"#utility.yul\":4733:4850   */\n    tag_164:\n        /* \"#utility.yul\":4874:4937   */\n      tag_166\n        /* \"#utility.yul\":4929:4936   */\n      dup6\n        /* \"#utility.yul\":4920:4926   */\n      dup3\n        /* \"#utility.yul\":4909:4918   */\n      dup7\n        /* \"#utility.yul\":4905:4927   */\n      add\n        /* \"#utility.yul\":4874:4937   */\n      tag_85\n      jump\t// in\n    tag_166:\n        /* \"#utility.yul\":4864:4937   */\n      swap3\n      pop\n        /* \"#utility.yul\":4660:4947   */\n      pop\n        /* \"#utility.yul\":4986:4988   */\n      0x20\n        /* \"#utility.yul\":5012:5065   */\n      tag_167\n        /* \"#utility.yul\":5057:5064   */\n      dup6\n        /* \"#utility.yul\":5048:5054   */\n      dup3\n        /* \"#utility.yul\":5037:5046   */\n      dup7\n        /* \"#utility.yul\":5033:5055   */\n      add\n        /* \"#utility.yul\":5012:5065   */\n      tag_89\n      jump\t// in\n    tag_167:\n        /* \"#utility.yul\":5002:5065   */\n      swap2\n      pop\n        /* \"#utility.yul\":4957:5075   */\n      pop\n        /* \"#utility.yul\":4428:5082   */\n      swap3\n      pop\n      swap3\n      swap1\n      pop\n      jump\t// out\n        /* \"#utility.yul\":5088:5178   */\n    tag_90:\n        /* \"#utility.yul\":5122:5129   */\n      0x00\n        /* \"#utility.yul\":5165:5170   */\n      dup2\n        /* \"#utility.yul\":5158:5171   */\n      iszero\n        /* \"#utility.yul\":5151:5172   */\n      iszero\n        /* \"#utility.yul\":5140:5172   */\n      swap1\n      pop\n        /* \"#utility.yul\":5088:5178   */\n      swap2\n      swap1\n      pop\n      jump\t// out\n        /* \"#utility.yul\":5184:5293   */\n    tag_91:\n        /* \"#utility.yul\":5265:5286   */\n      tag_170\n        /* \"#utility.yul\":5280:5285   */\n      dup2\n        /* \"#utility.yul\":5265:5286   */\n      tag_90\n      jump\t// in\n    tag_170:\n        /* \"#utility.yul\":5260:5263   */\n      dup3\n        /* \"#utility.yul\":5253:5287   */\n      mstore\n        /* \"#utility.yul\":5184:5293   */\n      pop\n      pop\n      jump\t// out\n        /* \"#utility.yul\":5299:5509   */\n    tag_23:\n        /* \"#utility.yul\":5386:5390   */\n      0x00\n        /* \"#utility.yul\":5424:5426   */\n      0x20\n        /* \"#utility.yul\":5413:5422   */\n      dup3\n        /* \"#utility.yul\":5409:5427   */\n      add\n        /* \"#utility.yul\":5401:5427   */\n      swap1\n      pop\n        /* \"#utility.yul\":5437:5502   */\n      tag_172\n        /* \"#utility.yul\":5499:5500   */\n      0x00\n        /* \"#utility.yul\":5488:5497   */\n      dup4\n        /* \"#utility.yul\":5484:5501   */\n      add\n        /* \"#utility.yul\":5475:5481   */\n      dup5\n        /* \"#utility.yul\":5437:5502   */\n      tag_91\n      jump\t// in\n    tag_172:\n        /* \"#utility.yul\":5299:5509   */\n      swap3\n      swap2\n      pop\n      pop\n      jump\t// out\n        /* \"#utility.yul\":5515:5633   */\n    tag_92:\n        /* \"#utility.yul\":5602:5626   */\n      tag_174\n        /* \"#utility.yul\":5620:5625   */\n      dup2\n        /* \"#utility.yul\":5602:5626   */\n      tag_73\n      jump\t// in\n    tag_174:\n        /* \"#utility.yul\":5597:5600   */\n      dup3\n        /* \"#utility.yul\":5590:5627   */\n      mstore\n        /* \"#utility.yul\":5515:5633   */\n      pop\n      pop\n      jump\t// out\n        /* \"#utility.yul\":5639:5861   */\n    tag_27:\n        /* \"#utility.yul\":5732:5736   */\n      0x00\n        /* \"#utility.yul\":5770:5772   */\n      0x20\n        /* \"#utility.yul\":5759:5768   */\n      dup3\n        /* \"#utility.yul\":5755:5773   */\n      add\n        /* \"#utility.yul\":5747:5773   */\n      swap1\n      pop\n        /* \"#utility.yul\":5783:5854   */\n      tag_176\n        /* \"#utility.yul\":5851:5852   */\n      0x00\n        /* \"#utility.yul\":5840:5849   */\n      dup4\n        /* \"#utility.yul\":5836:5853   */\n      add\n        /* \"#utility.yul\":5827:5833   */\n      dup5\n        /* \"#utility.yul\":5783:5854   */\n      tag_92\n      jump\t// in\n    tag_176:\n        /* \"#utility.yul\":5639:5861   */\n      swap3\n      swap2\n      pop\n      pop\n      jump\t// out\n        /* \"#utility.yul\":5867:5971   */\n    tag_93:\n        /* \"#utility.yul\":5912:5919   */\n      0x00\n        /* \"#utility.yul\":5941:5965   */\n      tag_178\n        /* \"#utility.yul\":5959:5964   */\n      dup3\n        /* \"#utility.yul\":5941:5965   */\n      tag_72\n      jump\t// in\n    tag_178:\n        /* \"#utility.yul\":5930:5965   */\n      swap1\n      pop\n        /* \"#utility.yul\":5867:5971   */\n      swap2\n      swap1\n      pop\n      jump\t// out\n        /* \"#utility.yul\":5977:6119   */\n    tag_94:\n        /* \"#utility.yul\":6080:6112   */\n      tag_180\n        /* \"#utility.yul\":6106:6111   */\n      dup2\n        /* \"#utility.yul\":6080:6112   */\n      tag_93\n      jump\t// in\n    tag_180:\n        /* \"#utility.yul\":6075:6078   */\n      dup3\n        /* \"#utility.yul\":6068:6113   */\n      mstore\n        /* \"#utility.yul\":5977:6119   */\n      pop\n      pop\n      jump\t// out\n        /* \"#utility.yul\":6125:6379   */\n    tag_31:\n        /* \"#utility.yul\":6234:6238   */\n      0x00\n        /* \"#utility.yul\":6272:6274   */\n      0x20\n        /* \"#utility.yul\":6261:6270   */\n      dup3\n        /* \"#utility.yul\":6257:6275   */\n      add\n        /* \"#utility.yul\":6249:6275   */\n      swap1\n      pop\n        /* \"#utility.yul\":6285:6372   */\n      tag_182\n        /* \"#utility.yul\":6369:6370   */\n      0x00\n        /* \"#utility.yul\":6358:6367   */\n      dup4\n        /* \"#utility.yul\":6354:6371   */\n      add\n        /* \"#utility.yul\":6345:6351   */\n      dup5\n        /* \"#utility.yul\":6285:6372   */\n      tag_94\n      jump\t// in\n    tag_182:\n        /* \"#utility.yul\":6125:6379   */\n      swap3\n      swap2\n      pop\n      pop\n      jump\t// out\n        /* \"#utility.yul\":6385:6859   */\n    tag_34:\n        /* \"#utility.yul\":6453:6459   */\n      0x00\n        /* \"#utility.yul\":6461:6467   */\n      dup1\n        /* \"#utility.yul\":6510:6512   */\n      0x40\n        /* \"#utility.yul\":6498:6507   */\n      dup4\n        /* \"#utility.yul\":6489:6496   */\n      dup6\n        /* \"#utility.yul\":6485:6508   */\n      sub\n        /* \"#utility.yul\":6481:6513   */\n      slt\n        /* \"#utility.yul\":6478:6597   */\n      iszero\n      tag_184\n      jumpi\n        /* \"#utility.yul\":6516:6595   */\n      tag_185\n      tag_70\n      jump\t// in\n    tag_185:\n        /* \"#utility.yul\":6478:6597   */\n    tag_184:\n        /* \"#utility.yul\":6636:6637   */\n      0x00\n        /* \"#utility.yul\":6661:6714   */\n      tag_186\n        /* \"#utility.yul\":6706:6713   */\n      dup6\n        /* \"#utility.yul\":6697:6703   */\n      dup3\n        /* \"#utility.yul\":6686:6695   */\n      dup7\n        /* \"#utility.yul\":6682:6704   */\n      add\n        /* \"#utility.yul\":6661:6714   */\n      tag_75\n      jump\t// in\n    tag_186:\n        /* \"#utility.yul\":6651:6714   */\n      swap3\n      pop\n        /* \"#utility.yul\":6607:6724   */\n      pop\n        /* \"#utility.yul\":6763:6765   */\n      0x20\n        /* \"#utility.yul\":6789:6842   */\n      tag_187\n        /* \"#utility.yul\":6834:6841   */\n      dup6\n        /* \"#utility.yul\":6825:6831   */\n      dup3\n        /* \"#utility.yul\":6814:6823   */\n      dup7\n        /* \"#utility.yul\":6810:6832   */\n      add\n        /* \"#utility.yul\":6789:6842   */\n      tag_89\n      jump\t// in\n    tag_187:\n        /* \"#utility.yul\":6779:6842   */\n      swap2\n      pop\n        /* \"#utility.yul\":6734:6852   */\n      pop\n        /* \"#utility.yul\":6385:6859   */\n      swap3\n      pop\n      swap3\n      swap1\n      pop\n      jump\t// out\n        /* \"#utility.yul\":6865:7339   */\n    tag_47:\n        /* \"#utility.yul\":6933:6939   */\n      0x00\n        /* \"#utility.yul\":6941:6947   */\n      dup1\n        /* \"#utility.yul\":6990:6992   */\n      0x40\n        /* \"#utility.yul\":6978:6987   */\n      dup4\n        /* \"#utility.yul\":6969:6976   */\n      dup6\n        /* \"#utility.yul\":6965:6988   */\n      sub\n        /* \"#utility.yul\":6961:6993   */\n      slt\n        /* \"#utility.yul\":6958:7077   */\n      iszero\n      tag_189\n      jumpi\n        /* \"#utility.yul\":6996:7075   */\n      tag_190\n      tag_70\n      jump\t// in\n    tag_190:\n        /* \"#utility.yul\":6958:7077   */\n    tag_189:\n        /* \"#utility.yul\":7116:7117   */\n      0x00\n        /* \"#utility.yul\":7141:7194   */\n      tag_191\n        /* \"#utility.yul\":7186:7193   */\n      dup6\n        /* \"#utility.yul\":7177:7183   */\n      dup3\n        /* \"#utility.yul\":7166:7175   */\n      dup7\n        /* \"#utility.yul\":7162:7184   */\n      add\n        /* \"#utility.yul\":7141:7194   */\n      tag_89\n      jump\t// in\n    tag_191:\n        /* \"#utility.yul\":7131:7194   */\n      swap3\n      pop\n        /* \"#utility.yul\":7087:7204   */\n      pop\n        /* \"#utility.yul\":7243:7245   */\n      0x20\n        /* \"#utility.yul\":7269:7322   */\n      tag_192\n        /* \"#utility.yul\":7314:7321   */\n      dup6\n        /* \"#utility.yul\":7305:7311   */\n      dup3\n        /* \"#utility.yul\":7294:7303   */\n      dup7\n        /* \"#utility.yul\":7290:7312   */\n      add\n        /* \"#utility.yul\":7269:7322   */\n      tag_89\n      jump\t// in\n    tag_192:\n        /* \"#utility.yul\":7259:7322   */\n      swap2\n      pop\n        /* \"#utility.yul\":7214:7332   */\n      pop\n        /* \"#utility.yul\":6865:7339   */\n      swap3\n      pop\n      swap3\n      swap1\n      pop\n      jump\t// out\n        /* \"#utility.yul\":7345:7444   */\n    tag_95:\n        /* \"#utility.yul\":7397:7403   */\n      0x00\n        /* \"#utility.yul\":7431:7436   */\n      dup2\n        /* \"#utility.yul\":7425:7437   */\n      mload\n        /* \"#utility.yul\":7415:7437   */\n      swap1\n      pop\n        /* \"#utility.yul\":7345:7444   */\n      swap2\n      swap1\n      pop\n      jump\t// out\n        /* \"#utility.yul\":7450:7598   */\n    tag_96:\n        /* \"#utility.yul\":7552:7563   */\n      0x00\n        /* \"#utility.yul\":7589:7592   */\n      dup2\n        /* \"#utility.yul\":7574:7592   */\n      swap1\n      pop\n        /* \"#utility.yul\":7450:7598   */\n      swap3\n      swap2\n      pop\n      pop\n      jump\t// out\n        /* \"#utility.yul\":7604:7850   */\n    tag_97:\n        /* \"#utility.yul\":7685:7686   */\n      0x00\n        /* \"#utility.yul\":7695:7808   */\n    tag_196:\n        /* \"#utility.yul\":7709:7715   */\n      dup4\n        /* \"#utility.yul\":7706:7707   */\n      dup2\n        /* \"#utility.yul\":7703:7716   */\n      lt\n        /* \"#utility.yul\":7695:7808   */\n      iszero\n      tag_198\n      jumpi\n        /* \"#utility.yul\":7794:7795   */\n      dup1\n        /* \"#utility.yul\":7789:7792   */\n      dup3\n        /* \"#utility.yul\":7785:7796   */\n      add\n        /* \"#utility.yul\":7779:7797   */\n      mload\n        /* \"#utility.yul\":7775:7776   */\n      dup2\n        /* \"#utility.yul\":7770:7773   */\n      dup5\n        /* \"#utility.yul\":7766:7777   */\n      add\n        /* \"#utility.yul\":7759:7798   */\n      mstore\n        /* \"#utility.yul\":7731:7733   */\n      0x20\n        /* \"#utility.yul\":7728:7729   */\n      dup2\n        /* \"#utility.yul\":7724:7734   */\n      add\n        /* \"#utility.yul\":7719:7734   */\n      swap1\n      pop\n        /* \"#utility.yul\":7695:7808   */\n      jump(tag_196)\n    tag_198:\n        /* \"#utility.yul\":7842:7843   */\n      0x00\n        /* \"#utility.yul\":7833:7839   */\n      dup5\n        /* \"#utility.yul\":7828:7831   */\n      dup5\n        /* \"#utility.yul\":7824:7840   */\n      add\n        /* \"#utility.yul\":7817:7844   */\n      mstore\n        /* \"#utility.yul\":7666:7850   */\n      pop\n        /* \"#utility.yul\":7604:7850   */\n      pop\n      pop\n      pop\n      jump\t// out\n        /* \"#utility.yul\":7856:8246   */\n    tag_98:\n        /* \"#utility.yul\":7962:7965   */\n      0x00\n        /* \"#utility.yul\":7990:8029   */\n      tag_200\n        /* \"#utility.yul\":8023:8028   */\n      dup3\n        /* \"#utility.yul\":7990:8029   */\n      tag_95\n      jump\t// in\n    tag_200:\n        /* \"#utility.yul\":8045:8134   */\n      tag_201\n        /* \"#utility.yul\":8127:8133   */\n      dup2\n        /* \"#utility.yul\":8122:8125   */\n      dup6\n        /* \"#utility.yul\":8045:8134   */\n      tag_96\n      jump\t// in\n    tag_201:\n        /* \"#utility.yul\":8038:8134   */\n      swap4\n      pop\n        /* \"#utility.yul\":8143:8208   */\n      tag_202\n        /* \"#utility.yul\":8201:8207   */\n      dup2\n        /* \"#utility.yul\":8196:8199   */\n      dup6\n        /* \"#utility.yul\":8189:8193   */\n      0x20\n        /* \"#utility.yul\":8182:8187   */\n      dup7\n        /* \"#utility.yul\":8178:8194   */\n      add\n        /* \"#utility.yul\":8143:8208   */\n      tag_97\n      jump\t// in\n    tag_202:\n        /* \"#utility.yul\":8233:8239   */\n      dup1\n        /* \"#utility.yul\":8228:8231   */\n      dup5\n        /* \"#utility.yul\":8224:8240   */\n      add\n        /* \"#utility.yul\":8217:8240   */\n      swap2\n      pop\n        /* \"#utility.yul\":7966:8246   */\n      pop\n        /* \"#utility.yul\":7856:8246   */\n      swap3\n      swap2\n      pop\n      pop\n      jump\t// out\n        /* \"#utility.yul\":8252:8527   */\n    tag_52:\n        /* \"#utility.yul\":8384:8387   */\n      0x00\n        /* \"#utility.yul\":8406:8501   */\n      tag_204\n        /* \"#utility.yul\":8497:8500   */\n      dup3\n        /* \"#utility.yul\":8488:8494   */\n      dup5\n        /* \"#utility.yul\":8406:8501   */\n      tag_98\n      jump\t// in\n    tag_204:\n        /* \"#utility.yul\":8399:8501   */\n      swap2\n      pop\n        /* \"#utility.yul\":8518:8521   */\n      dup2\n        /* \"#utility.yul\":8511:8521   */\n      swap1\n      pop\n        /* \"#utility.yul\":8252:8527   */\n      swap3\n      swap2\n      pop\n      pop\n      jump\t// out\n        /* \"#utility.yul\":8533:8702   */\n    tag_99:\n        /* \"#utility.yul\":8617:8628   */\n      0x00\n        /* \"#utility.yul\":8651:8657   */\n      dup3\n        /* \"#utility.yul\":8646:8649   */\n      dup3\n        /* \"#utility.yul\":8639:8658   */\n      mstore\n        /* \"#utility.yul\":8691:8695   */\n      0x20\n        /* \"#utility.yul\":8686:8689   */\n      dup3\n        /* \"#utility.yul\":8682:8696   */\n      add\n        /* \"#utility.yul\":8667:8696   */\n      swap1\n      pop\n        /* \"#utility.yul\":8533:8702   */\n      swap3\n      swap2\n      pop\n      pop\n      jump\t// out\n        /* \"#utility.yul\":8708:8887   */\n    tag_100:\n        /* \"#utility.yul\":8848:8879   */\n      0x496e76616c69642056616c75652e20546869732069732031206f722030000000\n        /* \"#utility.yul\":8844:8845   */\n      0x00\n        /* \"#utility.yul\":8836:8842   */\n      dup3\n        /* \"#utility.yul\":8832:8846   */\n      add\n        /* \"#utility.yul\":8825:8880   */\n      mstore\n        /* \"#utility.yul\":8708:8887   */\n      pop\n      jump\t// out\n        /* \"#utility.yul\":8893:9259   */\n    tag_101:\n        /* \"#utility.yul\":9035:9038   */\n      0x00\n        /* \"#utility.yul\":9056:9123   */\n      tag_208\n        /* \"#utility.yul\":9120:9122   */\n      0x1d\n        /* \"#utility.yul\":9115:9118   */\n      dup4\n        /* \"#utility.yul\":9056:9123   */\n      tag_99\n      jump\t// in\n    tag_208:\n        /* \"#utility.yul\":9049:9123   */\n      swap2\n      pop\n        /* \"#utility.yul\":9132:9225   */\n      tag_209\n        /* \"#utility.yul\":9221:9224   */\n      dup3\n        /* \"#utility.yul\":9132:9225   */\n      tag_100\n      jump\t// in\n    tag_209:\n        /* \"#utility.yul\":9250:9252   */\n      0x20\n        /* \"#utility.yul\":9245:9248   */\n      dup3\n        /* \"#utility.yul\":9241:9253   */\n      add\n        /* \"#utility.yul\":9234:9253   */\n      swap1\n      pop\n        /* \"#utility.yul\":8893:9259   */\n      swap2\n      swap1\n      pop\n      jump\t// out\n        /* \"#utility.yul\":9265:9684   */\n    tag_56:\n        /* \"#utility.yul\":9431:9435   */\n      0x00\n        /* \"#utility.yul\":9469:9471   */\n      0x20\n        /* \"#utility.yul\":9458:9467   */\n      dup3\n        /* \"#utility.yul\":9454:9472   */\n      add\n        /* \"#utility.yul\":9446:9472   */\n      swap1\n      pop\n        /* \"#utility.yul\":9518:9527   */\n      dup2\n        /* \"#utility.yul\":9512:9516   */\n      dup2\n        /* \"#utility.yul\":9508:9528   */\n      sub\n        /* \"#utility.yul\":9504:9505   */\n      0x00\n        /* \"#utility.yul\":9493:9502   */\n      dup4\n        /* \"#utility.yul\":9489:9506   */\n      add\n        /* \"#utility.yul\":9482:9529   */\n      mstore\n        /* \"#utility.yul\":9546:9677   */\n      tag_211\n        /* \"#utility.yul\":9672:9676   */\n      dup2\n        /* \"#utility.yul\":9546:9677   */\n      tag_101\n      jump\t// in\n    tag_211:\n        /* \"#utility.yul\":9538:9677   */\n      swap1\n      pop\n        /* \"#utility.yul\":9265:9684   */\n      swap2\n      swap1\n      pop\n      jump\t// out\n        /* \"#utility.yul\":9690:9856   */\n    tag_102:\n        /* \"#utility.yul\":9830:9848   */\n      0x496e76616c696420436861707465722e00000000000000000000000000000000\n        /* \"#utility.yul\":9826:9827   */\n      0x00\n        /* \"#utility.yul\":9818:9824   */\n      dup3\n        /* \"#utility.yul\":9814:9828   */\n      add\n        /* \"#utility.yul\":9807:9849   */\n      mstore\n        /* \"#utility.yul\":9690:9856   */\n      pop\n      jump\t// out\n        /* \"#utility.yul\":9862:10228   */\n    tag_103:\n        /* \"#utility.yul\":10004:10007   */\n      0x00\n        /* \"#utility.yul\":10025:10092   */\n      tag_214\n        /* \"#utility.yul\":10089:10091   */\n      0x10\n        /* \"#utility.yul\":10084:10087   */\n      dup4\n        /* \"#utility.yul\":10025:10092   */\n      tag_99\n      jump\t// in\n    tag_214:\n        /* \"#utility.yul\":10018:10092   */\n      swap2\n      pop\n        /* \"#utility.yul\":10101:10194   */\n      tag_215\n        /* \"#utility.yul\":10190:10193   */\n      dup3\n        /* \"#utility.yul\":10101:10194   */\n      tag_102\n      jump\t// in\n    tag_215:\n        /* \"#utility.yul\":10219:10221   */\n      0x20\n        /* \"#utility.yul\":10214:10217   */\n      dup3\n        /* \"#utility.yul\":10210:10222   */\n      add\n        /* \"#utility.yul\":10203:10222   */\n      swap1\n      pop\n        /* \"#utility.yul\":9862:10228   */\n      swap2\n      swap1\n      pop\n      jump\t// out\n        /* \"#utility.yul\":10234:10653   */\n    tag_65:\n        /* \"#utility.yul\":10400:10404   */\n      0x00\n        /* \"#utility.yul\":10438:10440   */\n      0x20\n        /* \"#utility.yul\":10427:10436   */\n      dup3\n        /* \"#utility.yul\":10423:10441   */\n      add\n        /* \"#utility.yul\":10415:10441   */\n      swap1\n      pop\n        /* \"#utility.yul\":10487:10496   */\n      dup2\n        /* \"#utility.yul\":10481:10485   */\n      dup2\n        /* \"#utility.yul\":10477:10497   */\n      sub\n        /* \"#utility.yul\":10473:10474   */\n      0x00\n        /* \"#utility.yul\":10462:10471   */\n      dup4\n        /* \"#utility.yul\":10458:10475   */\n      add\n        /* \"#utility.yul\":10451:10498   */\n      mstore\n        /* \"#utility.yul\":10515:10646   */\n      tag_217\n        /* \"#utility.yul\":10641:10645   */\n      dup2\n        /* \"#utility.yul\":10515:10646   */\n      tag_103\n      jump\t// in\n    tag_217:\n        /* \"#utility.yul\":10507:10646   */\n      swap1\n      pop\n        /* \"#utility.yul\":10234:10653   */\n      swap2\n      swap1\n      pop\n      jump\t// out\n        /* \"#utility.yul\":10659:10823   */\n    tag_104:\n        /* \"#utility.yul\":10799:10815   */\n      0x496e76616c69642056616c75652e000000000000000000000000000000000000\n        /* \"#utility.yul\":10795:10796   */\n      0x00\n        /* \"#utility.yul\":10787:10793   */\n      dup3\n        /* \"#utility.yul\":10783:10797   */\n      add\n        /* \"#utility.yul\":10776:10816   */\n      mstore\n        /* \"#utility.yul\":10659:10823   */\n      pop\n      jump\t// out\n        /* \"#utility.yul\":10829:11195   */\n    tag_105:\n        /* \"#utility.yul\":10971:10974   */\n      0x00\n        /* \"#utility.yul\":10992:11059   */\n      tag_220\n        /* \"#utility.yul\":11056:11058   */\n      0x0e\n        /* \"#utility.yul\":11051:11054   */\n      dup4\n        /* \"#utility.yul\":10992:11059   */\n      tag_99\n      jump\t// in\n    tag_220:\n        /* \"#utility.yul\":10985:11059   */\n      swap2\n      pop\n        /* \"#utility.yul\":11068:11161   */\n      tag_221\n        /* \"#utility.yul\":11157:11160   */\n      dup3\n        /* \"#utility.yul\":11068:11161   */\n      tag_104\n      jump\t// in\n    tag_221:\n        /* \"#utility.yul\":11186:11188   */\n      0x20\n        /* \"#utility.yul\":11181:11184   */\n      dup3\n        /* \"#utility.yul\":11177:11189   */\n      add\n        /* \"#utility.yul\":11170:11189   */\n      swap1\n      pop\n        /* \"#utility.yul\":10829:11195   */\n      swap2\n      swap1\n      pop\n      jump\t// out\n        /* \"#utility.yul\":11201:11620   */\n    tag_68:\n        /* \"#utility.yul\":11367:11371   */\n      0x00\n        /* \"#utility.yul\":11405:11407   */\n      0x20\n        /* \"#utility.yul\":11394:11403   */\n      dup3\n        /* \"#utility.yul\":11390:11408   */\n      add\n        /* \"#utility.yul\":11382:11408   */\n      swap1\n      pop\n        /* \"#utility.yul\":11454:11463   */\n      dup2\n        /* \"#utility.yul\":11448:11452   */\n      dup2\n        /* \"#utility.yul\":11444:11464   */\n      sub\n        /* \"#utility.yul\":11440:11441   */\n      0x00\n        /* \"#utility.yul\":11429:11438   */\n      dup4\n        /* \"#utility.yul\":11425:11442   */\n      add\n        /* \"#utility.yul\":11418:11465   */\n      mstore\n        /* \"#utility.yul\":11482:11613   */\n      tag_223\n        /* \"#utility.yul\":11608:11612   */\n      dup2\n        /* \"#utility.yul\":11482:11613   */\n      tag_105\n      jump\t// in\n    tag_223:\n        /* \"#utility.yul\":11474:11613   */\n      swap1\n      pop\n        /* \"#utility.yul\":11201:11620   */\n      swap2\n      swap1\n      pop\n      jump\t// out\n\n    auxdata: 0xa2646970667358221220a6ae763a59a98b1bd71571f9e3f1d4053caeb6874e6b61892cf2fabc52e9ca6b64736f6c63430008100033\n}\n",
				"bytecode": {
					"linkReferences": {},
					"object": "608060405234801561001057600080fd5b50336000806101000a81548173ffffffffffffffffffffffffffffffffffffffff021916908373ffffffffffffffffffffffffffffffffffffffff160217905550610b32806100606000396000f3fe608060405234801561001057600080fd5b50600436106100885760003560e01c80639a3d66c01161005b5780639a3d66c0146101295780639c6950a114610159578063b943cd1614610189578063edc84da0146101b957610088565b80630db179651461008d57806313f79d8b146100bd578063893d20e8146100ed5780638da5cb5b1461010b575b600080fd5b6100a760048036038101906100a291906106eb565b6101e9565b6040516100b49190610760565b60405180910390f35b6100d760048036038101906100d291906107a7565b61024f565b6040516100e4919061081e565b60405180910390f35b6100f5610342565b6040516101029190610848565b60405180910390f35b61011361036b565b6040516101209190610884565b60405180910390f35b610143600480360381019061013e919061089f565b61038f565b6040516101509190610760565b60405180910390f35b610173600480360381019061016e919061089f565b6103ea565b6040516101809190610760565b60405180910390f35b6101a3600480360381019061019e91906106eb565b61040f565b6040516101b09190610760565b60405180910390f35b6101d360048036038101906101ce91906108df565b61044a565b6040516101e0919061081e565b60405180910390f35b6000600260008473ffffffffffffffffffffffffffffffffffffffff1673ffffffffffffffffffffffffffffffffffffffff168152602001908152602001600020826040516102389190610990565b908152602001604051809103902054905092915050565b600080821015610294576040517f08c379a000000000000000000000000000000000000000000000000000000000815260040161028b90610a04565b60405180910390fd5b60018211156102d8576040517f08c379a00000000000000000000000000000000000000000000000000000000081526004016102cf90610a04565b60405180910390fd5b81600260003373ffffffffffffffffffffffffffffffffffffffff1673ffffffffffffffffffffffffffffffffffffffff168152602001908152602001600020846040516103269190610990565b9081526020016040518091039020819055506001905092915050565b60008060009054906101000a900473ffffffffffffffffffffffffffffffffffffffff16905090565b60008054906101000a900473ffffffffffffffffffffffffffffffffffffffff1681565b6000600160008473ffffffffffffffffffffffffffffffffffffffff1673ffffffffffffffffffffffffffffffffffffffff168152602001908152602001600020600083815260200190815260200160002054905092915050565b6001602052816000526040600020602052806000526040600020600091509150505481565b600260205281600052604060002081805160208101820180518482526020830160208501208183528095505050505050600091509150505481565b60006001831015610490576040517f08c379a000000000000000000000000000000000000000000000000000000000815260040161048790610a70565b60405180910390fd5b60008210156104d4576040517f08c379a00000000000000000000000000000000000000000000000000000000081526004016104cb90610adc565b60405180910390fd5b81600160003373ffffffffffffffffffffffffffffffffffffffff1673ffffffffffffffffffffffffffffffffffffffff1681526020019081526020016000206000858152602001908152602001600020819055506001905092915050565b6000604051905090565b600080fd5b600080fd5b600073ffffffffffffffffffffffffffffffffffffffff82169050919050565b600061057282610547565b9050919050565b61058281610567565b811461058d57600080fd5b50565b60008135905061059f81610579565b92915050565b600080fd5b600080fd5b6000601f19601f8301169050919050565b7f4e487b7100000000000000000000000000000000000000000000000000000000600052604160045260246000fd5b6105f8826105af565b810181811067ffffffffffffffff82111715610617576106166105c0565b5b80604052505050565b600061062a610533565b905061063682826105ef565b919050565b600067ffffffffffffffff821115610656576106556105c0565b5b61065f826105af565b9050602081019050919050565b82818337600083830152505050565b600061068e6106898461063b565b610620565b9050828152602081018484840111156106aa576106a96105aa565b5b6106b584828561066c565b509392505050565b600082601f8301126106d2576106d16105a5565b5b81356106e284826020860161067b565b91505092915050565b600080604083850312156107025761070161053d565b5b600061071085828601610590565b925050602083013567ffffffffffffffff81111561073157610730610542565b5b61073d858286016106bd565b9150509250929050565b6000819050919050565b61075a81610747565b82525050565b60006020820190506107756000830184610751565b92915050565b61078481610747565b811461078f57600080fd5b50565b6000813590506107a18161077b565b92915050565b600080604083850312156107be576107bd61053d565b5b600083013567ffffffffffffffff8111156107dc576107db610542565b5b6107e8858286016106bd565b92505060206107f985828601610792565b9150509250929050565b60008115159050919050565b61081881610803565b82525050565b6000602082019050610833600083018461080f565b92915050565b61084281610567565b82525050565b600060208201905061085d6000830184610839565b92915050565b600061086e82610547565b9050919050565b61087e81610863565b82525050565b60006020820190506108996000830184610875565b92915050565b600080604083850312156108b6576108b561053d565b5b60006108c485828601610590565b92505060206108d585828601610792565b9150509250929050565b600080604083850312156108f6576108f561053d565b5b600061090485828601610792565b925050602061091585828601610792565b9150509250929050565b600081519050919050565b600081905092915050565b60005b83811015610953578082015181840152602081019050610938565b60008484015250505050565b600061096a8261091f565b610974818561092a565b9350610984818560208601610935565b80840191505092915050565b600061099c828461095f565b915081905092915050565b600082825260208201905092915050565b7f496e76616c69642056616c75652e20546869732069732031206f722030000000600082015250565b60006109ee601d836109a7565b91506109f9826109b8565b602082019050919050565b60006020820190508181036000830152610a1d816109e1565b9050919050565b7f496e76616c696420436861707465722e00000000000000000000000000000000600082015250565b6000610a5a6010836109a7565b9150610a6582610a24565b602082019050919050565b60006020820190508181036000830152610a8981610a4d565b9050919050565b7f496e76616c69642056616c75652e000000000000000000000000000000000000600082015250565b6000610ac6600e836109a7565b9150610ad182610a90565b602082019050919050565b60006020820190508181036000830152610af581610ab9565b905091905056fea2646970667358221220a6ae763a59a98b1bd71571f9e3f1d4053caeb6874e6b61892cf2fabc52e9ca6b64736f6c63430008100033",
					"opcodes": "PUSH1 0x80 PUSH1 0x40 MSTORE CALLVALUE DUP1 ISZERO PUSH2 0x10 JUMPI PUSH1 0x0 DUP1 REVERT JUMPDEST POP CALLER PUSH1 0x0 DUP1 PUSH2 0x100 EXP DUP2 SLOAD DUP2 PUSH20 0xFFFFFFFFFFFFFFFFFFFFFFFFFFFFFFFFFFFFFFFF MUL NOT AND SWAP1 DUP4 PUSH20 0xFFFFFFFFFFFFFFFFFFFFFFFFFFFFFFFFFFFFFFFF AND MUL OR SWAP1 SSTORE POP PUSH2 0xB32 DUP1 PUSH2 0x60 PUSH1 0x0 CODECOPY PUSH1 0x0 RETURN INVALID PUSH1 0x80 PUSH1 0x40 MSTORE CALLVALUE DUP1 ISZERO PUSH2 0x10 JUMPI PUSH1 0x0 DUP1 REVERT JUMPDEST POP PUSH1 0x4 CALLDATASIZE LT PUSH2 0x88 JUMPI PUSH1 0x0 CALLDATALOAD PUSH1 0xE0 SHR DUP1 PUSH4 0x9A3D66C0 GT PUSH2 0x5B JUMPI DUP1 PUSH4 0x9A3D66C0 EQ PUSH2 0x129 JUMPI DUP1 PUSH4 0x9C6950A1 EQ PUSH2 0x159 JUMPI DUP1 PUSH4 0xB943CD16 EQ PUSH2 0x189 JUMPI DUP1 PUSH4 0xEDC84DA0 EQ PUSH2 0x1B9 JUMPI PUSH2 0x88 JUMP JUMPDEST DUP1 PUSH4 0xDB17965 EQ PUSH2 0x8D JUMPI DUP1 PUSH4 0x13F79D8B EQ PUSH2 0xBD JUMPI DUP1 PUSH4 0x893D20E8 EQ PUSH2 0xED JUMPI DUP1 PUSH4 0x8DA5CB5B EQ PUSH2 0x10B JUMPI JUMPDEST PUSH1 0x0 DUP1 REVERT JUMPDEST PUSH2 0xA7 PUSH1 0x4 DUP1 CALLDATASIZE SUB DUP2 ADD SWAP1 PUSH2 0xA2 SWAP2 SWAP1 PUSH2 0x6EB JUMP JUMPDEST PUSH2 0x1E9 JUMP JUMPDEST PUSH1 0x40 MLOAD PUSH2 0xB4 SWAP2 SWAP1 PUSH2 0x760 JUMP JUMPDEST PUSH1 0x40 MLOAD DUP1 SWAP2 SUB SWAP1 RETURN JUMPDEST PUSH2 0xD7 PUSH1 0x4 DUP1 CALLDATASIZE SUB DUP2 ADD SWAP1 PUSH2 0xD2 SWAP2 SWAP1 PUSH2 0x7A7 JUMP JUMPDEST PUSH2 0x24F JUMP JUMPDEST PUSH1 0x40 MLOAD PUSH2 0xE4 SWAP2 SWAP1 PUSH2 0x81E JUMP JUMPDEST PUSH1 0x40 MLOAD DUP1 SWAP2 SUB SWAP1 RETURN JUMPDEST PUSH2 0xF5 PUSH2 0x342 JUMP JUMPDEST PUSH1 0x40 MLOAD PUSH2 0x102 SWAP2 SWAP1 PUSH2 0x848 JUMP JUMPDEST PUSH1 0x40 MLOAD DUP1 SWAP2 SUB SWAP1 RETURN JUMPDEST PUSH2 0x113 PUSH2 0x36B JUMP JUMPDEST PUSH1 0x40 MLOAD PUSH2 0x120 SWAP2 SWAP1 PUSH2 0x884 JUMP JUMPDEST PUSH1 0x40 MLOAD DUP1 SWAP2 SUB SWAP1 RETURN JUMPDEST PUSH2 0x143 PUSH1 0x4 DUP1 CALLDATASIZE SUB DUP2 ADD SWAP1 PUSH2 0x13E SWAP2 SWAP1 PUSH2 0x89F JUMP JUMPDEST PUSH2 0x38F JUMP JUMPDEST PUSH1 0x40 MLOAD PUSH2 0x150 SWAP2 SWAP1 PUSH2 0x760 JUMP JUMPDEST PUSH1 0x40 MLOAD DUP1 SWAP2 SUB SWAP1 RETURN JUMPDEST PUSH2 0x173 PUSH1 0x4 DUP1 CALLDATASIZE SUB DUP2 ADD SWAP1 PUSH2 0x16E SWAP2 SWAP1 PUSH2 0x89F JUMP JUMPDEST PUSH2 0x3EA JUMP JUMPDEST PUSH1 0x40 MLOAD PUSH2 0x180 SWAP2 SWAP1 PUSH2 0x760 JUMP JUMPDEST PUSH1 0x40 MLOAD DUP1 SWAP2 SUB SWAP1 RETURN JUMPDEST PUSH2 0x1A3 PUSH1 0x4 DUP1 CALLDATASIZE SUB DUP2 ADD SWAP1 PUSH2 0x19E SWAP2 SWAP1 PUSH2 0x6EB JUMP JUMPDEST PUSH2 0x40F JUMP JUMPDEST PUSH1 0x40 MLOAD PUSH2 0x1B0 SWAP2 SWAP1 PUSH2 0x760 JUMP JUMPDEST PUSH1 0x40 MLOAD DUP1 SWAP2 SUB SWAP1 RETURN JUMPDEST PUSH2 0x1D3 PUSH1 0x4 DUP1 CALLDATASIZE SUB DUP2 ADD SWAP1 PUSH2 0x1CE SWAP2 SWAP1 PUSH2 0x8DF JUMP JUMPDEST PUSH2 0x44A JUMP JUMPDEST PUSH1 0x40 MLOAD PUSH2 0x1E0 SWAP2 SWAP1 PUSH2 0x81E JUMP JUMPDEST PUSH1 0x40 MLOAD DUP1 SWAP2 SUB SWAP1 RETURN JUMPDEST PUSH1 0x0 PUSH1 0x2 PUSH1 0x0 DUP5 PUSH20 0xFFFFFFFFFFFFFFFFFFFFFFFFFFFFFFFFFFFFFFFF AND PUSH20 0xFFFFFFFFFFFFFFFFFFFFFFFFFFFFFFFFFFFFFFFF AND DUP2 MSTORE PUSH1 0x20 ADD SWAP1 DUP2 MSTORE PUSH1 0x20 ADD PUSH1 0x0 KECCAK256 DUP3 PUSH1 0x40 MLOAD PUSH2 0x238 SWAP2 SWAP1 PUSH2 0x990 JUMP JUMPDEST SWAP1 DUP2 MSTORE PUSH1 0x20 ADD PUSH1 0x40 MLOAD DUP1 SWAP2 SUB SWAP1 KECCAK256 SLOAD SWAP1 POP SWAP3 SWAP2 POP POP JUMP JUMPDEST PUSH1 0x0 DUP1 DUP3 LT ISZERO PUSH2 0x294 JUMPI PUSH1 0x40 MLOAD PUSH32 0x8C379A000000000000000000000000000000000000000000000000000000000 DUP2 MSTORE PUSH1 0x4 ADD PUSH2 0x28B SWAP1 PUSH2 0xA04 JUMP JUMPDEST PUSH1 0x40 MLOAD DUP1 SWAP2 SUB SWAP1 REVERT JUMPDEST PUSH1 0x1 DUP3 GT ISZERO PUSH2 0x2D8 JUMPI PUSH1 0x40 MLOAD PUSH32 0x8C379A000000000000000000000000000000000000000000000000000000000 DUP2 MSTORE PUSH1 0x4 ADD PUSH2 0x2CF SWAP1 PUSH2 0xA04 JUMP JUMPDEST PUSH1 0x40 MLOAD DUP1 SWAP2 SUB SWAP1 REVERT JUMPDEST DUP2 PUSH1 0x2 PUSH1 0x0 CALLER PUSH20 0xFFFFFFFFFFFFFFFFFFFFFFFFFFFFFFFFFFFFFFFF AND PUSH20 0xFFFFFFFFFFFFFFFFFFFFFFFFFFFFFFFFFFFFFFFF AND DUP2 MSTORE PUSH1 0x20 ADD SWAP1 DUP2 MSTORE PUSH1 0x20 ADD PUSH1 0x0 KECCAK256 DUP5 PUSH1 0x40 MLOAD PUSH2 0x326 SWAP2 SWAP1 PUSH2 0x990 JUMP JUMPDEST SWAP1 DUP2 MSTORE PUSH1 0x20 ADD PUSH1 0x40 MLOAD DUP1 SWAP2 SUB SWAP1 KECCAK256 DUP2 SWAP1 SSTORE POP PUSH1 0x1 SWAP1 POP SWAP3 SWAP2 POP POP JUMP JUMPDEST PUSH1 0x0 DUP1 PUSH1 0x0 SWAP1 SLOAD SWAP1 PUSH2 0x100 EXP SWAP1 DIV PUSH20 0xFFFFFFFFFFFFFFFFFFFFFFFFFFFFFFFFFFFFFFFF AND SWAP1 POP SWAP1 JUMP JUMPDEST PUSH1 0x0 DUP1 SLOAD SWAP1 PUSH2 0x100 EXP SWAP1 DIV PUSH20 0xFFFFFFFFFFFFFFFFFFFFFFFFFFFFFFFFFFFFFFFF AND DUP2 JUMP JUMPDEST PUSH1 0x0 PUSH1 0x1 PUSH1 0x0 DUP5 PUSH20 0xFFFFFFFFFFFFFFFFFFFFFFFFFFFFFFFFFFFFFFFF AND PUSH20 0xFFFFFFFFFFFFFFFFFFFFFFFFFFFFFFFFFFFFFFFF AND DUP2 MSTORE PUSH1 0x20 ADD SWAP1 DUP2 MSTORE PUSH1 0x20 ADD PUSH1 0x0 KECCAK256 PUSH1 0x0 DUP4 DUP2 MSTORE PUSH1 0x20 ADD SWAP1 DUP2 MSTORE PUSH1 0x20 ADD PUSH1 0x0 KECCAK256 SLOAD SWAP1 POP SWAP3 SWAP2 POP POP JUMP JUMPDEST PUSH1 0x1 PUSH1 0x20 MSTORE DUP2 PUSH1 0x0 MSTORE PUSH1 0x40 PUSH1 0x0 KECCAK256 PUSH1 0x20 MSTORE DUP1 PUSH1 0x0 MSTORE PUSH1 0x40 PUSH1 0x0 KECCAK256 PUSH1 0x0 SWAP2 POP SWAP2 POP POP SLOAD DUP2 JUMP JUMPDEST PUSH1 0x2 PUSH1 0x20 MSTORE DUP2 PUSH1 0x0 MSTORE PUSH1 0x40 PUSH1 0x0 KECCAK256 DUP2 DUP1 MLOAD PUSH1 0x20 DUP2 ADD DUP3 ADD DUP1 MLOAD DUP5 DUP3 MSTORE PUSH1 0x20 DUP4 ADD PUSH1 0x20 DUP6 ADD KECCAK256 DUP2 DUP4 MSTORE DUP1 SWAP6 POP POP POP POP POP POP PUSH1 0x0 SWAP2 POP SWAP2 POP POP SLOAD DUP2 JUMP JUMPDEST PUSH1 0x0 PUSH1 0x1 DUP4 LT ISZERO PUSH2 0x490 JUMPI PUSH1 0x40 MLOAD PUSH32 0x8C379A000000000000000000000000000000000000000000000000000000000 DUP2 MSTORE PUSH1 0x4 ADD PUSH2 0x487 SWAP1 PUSH2 0xA70 JUMP JUMPDEST PUSH1 0x40 MLOAD DUP1 SWAP2 SUB SWAP1 REVERT JUMPDEST PUSH1 0x0 DUP3 LT ISZERO PUSH2 0x4D4 JUMPI PUSH1 0x40 MLOAD PUSH32 0x8C379A000000000000000000000000000000000000000000000000000000000 DUP2 MSTORE PUSH1 0x4 ADD PUSH2 0x4CB SWAP1 PUSH2 0xADC JUMP JUMPDEST PUSH1 0x40 MLOAD DUP1 SWAP2 SUB SWAP1 REVERT JUMPDEST DUP2 PUSH1 0x1 PUSH1 0x0 CALLER PUSH20 0xFFFFFFFFFFFFFFFFFFFFFFFFFFFFFFFFFFFFFFFF AND PUSH20 0xFFFFFFFFFFFFFFFFFFFFFFFFFFFFFFFFFFFFFFFF AND DUP2 MSTORE PUSH1 0x20 ADD SWAP1 DUP2 MSTORE PUSH1 0x20 ADD PUSH1 0x0 KECCAK256 PUSH1 0x0 DUP6 DUP2 MSTORE PUSH1 0x20 ADD SWAP1 DUP2 MSTORE PUSH1 0x20 ADD PUSH1 0x0 KECCAK256 DUP2 SWAP1 SSTORE POP PUSH1 0x1 SWAP1 POP SWAP3 SWAP2 POP POP JUMP JUMPDEST PUSH1 0x0 PUSH1 0x40 MLOAD SWAP1 POP SWAP1 JUMP JUMPDEST PUSH1 0x0 DUP1 REVERT JUMPDEST PUSH1 0x0 DUP1 REVERT JUMPDEST PUSH1 0x0 PUSH20 0xFFFFFFFFFFFFFFFFFFFFFFFFFFFFFFFFFFFFFFFF DUP3 AND SWAP1 POP SWAP2 SWAP1 POP JUMP JUMPDEST PUSH1 0x0 PUSH2 0x572 DUP3 PUSH2 0x547 JUMP JUMPDEST SWAP1 POP SWAP2 SWAP1 POP JUMP JUMPDEST PUSH2 0x582 DUP2 PUSH2 0x567 JUMP JUMPDEST DUP2 EQ PUSH2 0x58D JUMPI PUSH1 0x0 DUP1 REVERT JUMPDEST POP JUMP JUMPDEST PUSH1 0x0 DUP2 CALLDATALOAD SWAP1 POP PUSH2 0x59F DUP2 PUSH2 0x579 JUMP JUMPDEST SWAP3 SWAP2 POP POP JUMP JUMPDEST PUSH1 0x0 DUP1 REVERT JUMPDEST PUSH1 0x0 DUP1 REVERT JUMPDEST PUSH1 0x0 PUSH1 0x1F NOT PUSH1 0x1F DUP4 ADD AND SWAP1 POP SWAP2 SWAP1 POP JUMP JUMPDEST PUSH32 0x4E487B7100000000000000000000000000000000000000000000000000000000 PUSH1 0x0 MSTORE PUSH1 0x41 PUSH1 0x4 MSTORE PUSH1 0x24 PUSH1 0x0 REVERT JUMPDEST PUSH2 0x5F8 DUP3 PUSH2 0x5AF JUMP JUMPDEST DUP2 ADD DUP2 DUP2 LT PUSH8 0xFFFFFFFFFFFFFFFF DUP3 GT OR ISZERO PUSH2 0x617 JUMPI PUSH2 0x616 PUSH2 0x5C0 JUMP JUMPDEST JUMPDEST DUP1 PUSH1 0x40 MSTORE POP POP POP JUMP JUMPDEST PUSH1 0x0 PUSH2 0x62A PUSH2 0x533 JUMP JUMPDEST SWAP1 POP PUSH2 0x636 DUP3 DUP3 PUSH2 0x5EF JUMP JUMPDEST SWAP2 SWAP1 POP JUMP JUMPDEST PUSH1 0x0 PUSH8 0xFFFFFFFFFFFFFFFF DUP3 GT ISZERO PUSH2 0x656 JUMPI PUSH2 0x655 PUSH2 0x5C0 JUMP JUMPDEST JUMPDEST PUSH2 0x65F DUP3 PUSH2 0x5AF JUMP JUMPDEST SWAP1 POP PUSH1 0x20 DUP2 ADD SWAP1 POP SWAP2 SWAP1 POP JUMP JUMPDEST DUP3 DUP2 DUP4 CALLDATACOPY PUSH1 0x0 DUP4 DUP4 ADD MSTORE POP POP POP JUMP JUMPDEST PUSH1 0x0 PUSH2 0x68E PUSH2 0x689 DUP5 PUSH2 0x63B JUMP JUMPDEST PUSH2 0x620 JUMP JUMPDEST SWAP1 POP DUP3 DUP2 MSTORE PUSH1 0x20 DUP2 ADD DUP5 DUP5 DUP5 ADD GT ISZERO PUSH2 0x6AA JUMPI PUSH2 0x6A9 PUSH2 0x5AA JUMP JUMPDEST JUMPDEST PUSH2 0x6B5 DUP5 DUP3 DUP6 PUSH2 0x66C JUMP JUMPDEST POP SWAP4 SWAP3 POP POP POP JUMP JUMPDEST PUSH1 0x0 DUP3 PUSH1 0x1F DUP4 ADD SLT PUSH2 0x6D2 JUMPI PUSH2 0x6D1 PUSH2 0x5A5 JUMP JUMPDEST JUMPDEST DUP2 CALLDATALOAD PUSH2 0x6E2 DUP5 DUP3 PUSH1 0x20 DUP7 ADD PUSH2 0x67B JUMP JUMPDEST SWAP2 POP POP SWAP3 SWAP2 POP POP JUMP JUMPDEST PUSH1 0x0 DUP1 PUSH1 0x40 DUP4 DUP6 SUB SLT ISZERO PUSH2 0x702 JUMPI PUSH2 0x701 PUSH2 0x53D JUMP JUMPDEST JUMPDEST PUSH1 0x0 PUSH2 0x710 DUP6 DUP3 DUP7 ADD PUSH2 0x590 JUMP JUMPDEST SWAP3 POP POP PUSH1 0x20 DUP4 ADD CALLDATALOAD PUSH8 0xFFFFFFFFFFFFFFFF DUP2 GT ISZERO PUSH2 0x731 JUMPI PUSH2 0x730 PUSH2 0x542 JUMP JUMPDEST JUMPDEST PUSH2 0x73D DUP6 DUP3 DUP7 ADD PUSH2 0x6BD JUMP JUMPDEST SWAP2 POP POP SWAP3 POP SWAP3 SWAP1 POP JUMP JUMPDEST PUSH1 0x0 DUP2 SWAP1 POP SWAP2 SWAP1 POP JUMP JUMPDEST PUSH2 0x75A DUP2 PUSH2 0x747 JUMP JUMPDEST DUP3 MSTORE POP POP JUMP JUMPDEST PUSH1 0x0 PUSH1 0x20 DUP3 ADD SWAP1 POP PUSH2 0x775 PUSH1 0x0 DUP4 ADD DUP5 PUSH2 0x751 JUMP JUMPDEST SWAP3 SWAP2 POP POP JUMP JUMPDEST PUSH2 0x784 DUP2 PUSH2 0x747 JUMP JUMPDEST DUP2 EQ PUSH2 0x78F JUMPI PUSH1 0x0 DUP1 REVERT JUMPDEST POP JUMP JUMPDEST PUSH1 0x0 DUP2 CALLDATALOAD SWAP1 POP PUSH2 0x7A1 DUP2 PUSH2 0x77B JUMP JUMPDEST SWAP3 SWAP2 POP POP JUMP JUMPDEST PUSH1 0x0 DUP1 PUSH1 0x40 DUP4 DUP6 SUB SLT ISZERO PUSH2 0x7BE JUMPI PUSH2 0x7BD PUSH2 0x53D JUMP JUMPDEST JUMPDEST PUSH1 0x0 DUP4 ADD CALLDATALOAD PUSH8 0xFFFFFFFFFFFFFFFF DUP2 GT ISZERO PUSH2 0x7DC JUMPI PUSH2 0x7DB PUSH2 0x542 JUMP JUMPDEST JUMPDEST PUSH2 0x7E8 DUP6 DUP3 DUP7 ADD PUSH2 0x6BD JUMP JUMPDEST SWAP3 POP POP PUSH1 0x20 PUSH2 0x7F9 DUP6 DUP3 DUP7 ADD PUSH2 0x792 JUMP JUMPDEST SWAP2 POP POP SWAP3 POP SWAP3 SWAP1 POP JUMP JUMPDEST PUSH1 0x0 DUP2 ISZERO ISZERO SWAP1 POP SWAP2 SWAP1 POP JUMP JUMPDEST PUSH2 0x818 DUP2 PUSH2 0x803 JUMP JUMPDEST DUP3 MSTORE POP POP JUMP JUMPDEST PUSH1 0x0 PUSH1 0x20 DUP3 ADD SWAP1 POP PUSH2 0x833 PUSH1 0x0 DUP4 ADD DUP5 PUSH2 0x80F JUMP JUMPDEST SWAP3 SWAP2 POP POP JUMP JUMPDEST PUSH2 0x842 DUP2 PUSH2 0x567 JUMP JUMPDEST DUP3 MSTORE POP POP JUMP JUMPDEST PUSH1 0x0 PUSH1 0x20 DUP3 ADD SWAP1 POP PUSH2 0x85D PUSH1 0x0 DUP4 ADD DUP5 PUSH2 0x839 JUMP JUMPDEST SWAP3 SWAP2 POP POP JUMP JUMPDEST PUSH1 0x0 PUSH2 0x86E DUP3 PUSH2 0x547 JUMP JUMPDEST SWAP1 POP SWAP2 SWAP1 POP JUMP JUMPDEST PUSH2 0x87E DUP2 PUSH2 0x863 JUMP JUMPDEST DUP3 MSTORE POP POP JUMP JUMPDEST PUSH1 0x0 PUSH1 0x20 DUP3 ADD SWAP1 POP PUSH2 0x899 PUSH1 0x0 DUP4 ADD DUP5 PUSH2 0x875 JUMP JUMPDEST SWAP3 SWAP2 POP POP JUMP JUMPDEST PUSH1 0x0 DUP1 PUSH1 0x40 DUP4 DUP6 SUB SLT ISZERO PUSH2 0x8B6 JUMPI PUSH2 0x8B5 PUSH2 0x53D JUMP JUMPDEST JUMPDEST PUSH1 0x0 PUSH2 0x8C4 DUP6 DUP3 DUP7 ADD PUSH2 0x590 JUMP JUMPDEST SWAP3 POP POP PUSH1 0x20 PUSH2 0x8D5 DUP6 DUP3 DUP7 ADD PUSH2 0x792 JUMP JUMPDEST SWAP2 POP POP SWAP3 POP SWAP3 SWAP1 POP JUMP JUMPDEST PUSH1 0x0 DUP1 PUSH1 0x40 DUP4 DUP6 SUB SLT ISZERO PUSH2 0x8F6 JUMPI PUSH2 0x8F5 PUSH2 0x53D JUMP JUMPDEST JUMPDEST PUSH1 0x0 PUSH2 0x904 DUP6 DUP3 DUP7 ADD PUSH2 0x792 JUMP JUMPDEST SWAP3 POP POP PUSH1 0x20 PUSH2 0x915 DUP6 DUP3 DUP7 ADD PUSH2 0x792 JUMP JUMPDEST SWAP2 POP POP SWAP3 POP SWAP3 SWAP1 POP JUMP JUMPDEST PUSH1 0x0 DUP2 MLOAD SWAP1 POP SWAP2 SWAP1 POP JUMP JUMPDEST PUSH1 0x0 DUP2 SWAP1 POP SWAP3 SWAP2 POP POP JUMP JUMPDEST PUSH1 0x0 JUMPDEST DUP4 DUP2 LT ISZERO PUSH2 0x953 JUMPI DUP1 DUP3 ADD MLOAD DUP2 DUP5 ADD MSTORE PUSH1 0x20 DUP2 ADD SWAP1 POP PUSH2 0x938 JUMP JUMPDEST PUSH1 0x0 DUP5 DUP5 ADD MSTORE POP POP POP POP JUMP JUMPDEST PUSH1 0x0 PUSH2 0x96A DUP3 PUSH2 0x91F JUMP JUMPDEST PUSH2 0x974 DUP2 DUP6 PUSH2 0x92A JUMP JUMPDEST SWAP4 POP PUSH2 0x984 DUP2 DUP6 PUSH1 0x20 DUP7 ADD PUSH2 0x935 JUMP JUMPDEST DUP1 DUP5 ADD SWAP2 POP POP SWAP3 SWAP2 POP POP JUMP JUMPDEST PUSH1 0x0 PUSH2 0x99C DUP3 DUP5 PUSH2 0x95F JUMP JUMPDEST SWAP2 POP DUP2 SWAP1 POP SWAP3 SWAP2 POP POP JUMP JUMPDEST PUSH1 0x0 DUP3 DUP3 MSTORE PUSH1 0x20 DUP3 ADD SWAP1 POP SWAP3 SWAP2 POP POP JUMP JUMPDEST PUSH32 0x496E76616C69642056616C75652E20546869732069732031206F722030000000 PUSH1 0x0 DUP3 ADD MSTORE POP JUMP JUMPDEST PUSH1 0x0 PUSH2 0x9EE PUSH1 0x1D DUP4 PUSH2 0x9A7 JUMP JUMPDEST SWAP2 POP PUSH2 0x9F9 DUP3 PUSH2 0x9B8 JUMP JUMPDEST PUSH1 0x20 DUP3 ADD SWAP1 POP SWAP2 SWAP1 POP JUMP JUMPDEST PUSH1 0x0 PUSH1 0x20 DUP3 ADD SWAP1 POP DUP2 DUP2 SUB PUSH1 0x0 DUP4 ADD MSTORE PUSH2 0xA1D DUP2 PUSH2 0x9E1 JUMP JUMPDEST SWAP1 POP SWAP2 SWAP1 POP JUMP JUMPDEST PUSH32 0x496E76616C696420436861707465722E00000000000000000000000000000000 PUSH1 0x0 DUP3 ADD MSTORE POP JUMP JUMPDEST PUSH1 0x0 PUSH2 0xA5A PUSH1 0x10 DUP4 PUSH2 0x9A7 JUMP JUMPDEST SWAP2 POP PUSH2 0xA65 DUP3 PUSH2 0xA24 JUMP JUMPDEST PUSH1 0x20 DUP3 ADD SWAP1 POP SWAP2 SWAP1 POP JUMP JUMPDEST PUSH1 0x0 PUSH1 0x20 DUP3 ADD SWAP1 POP DUP2 DUP2 SUB PUSH1 0x0 DUP4 ADD MSTORE PUSH2 0xA89 DUP2 PUSH2 0xA4D JUMP JUMPDEST SWAP1 POP SWAP2 SWAP1 POP JUMP JUMPDEST PUSH32 0x496E76616C69642056616C75652E000000000000000000000000000000000000 PUSH1 0x0 DUP3 ADD MSTORE POP JUMP JUMPDEST PUSH1 0x0 PUSH2 0xAC6 PUSH1 0xE DUP4 PUSH2 0x9A7 JUMP JUMPDEST SWAP2 POP PUSH2 0xAD1 DUP3 PUSH2 0xA90 JUMP JUMPDEST PUSH1 0x20 DUP3 ADD SWAP1 POP SWAP2 SWAP1 POP JUMP JUMPDEST PUSH1 0x0 PUSH1 0x20 DUP3 ADD SWAP1 POP DUP2 DUP2 SUB PUSH1 0x0 DUP4 ADD MSTORE PUSH2 0xAF5 DUP2 PUSH2 0xAB9 JUMP JUMPDEST SWAP1 POP SWAP2 SWAP1 POP JUMP INVALID LOG2 PUSH5 0x6970667358 0x22 SLT KECCAK256 0xA6 0xAE PUSH23 0x3A59A98B1BD71571F9E3F1D4053CAEB6874E6B61892CF2 STATICCALL 0xBC MSTORE 0xE9 0xCA PUSH12 0x64736F6C6343000810003300 "
				},
				"gasEstimates": {
					"creation": {
						"codeDepositCost": "573200",
						"executionCost": "24872",
						"totalCost": "598072"
					},
					"external": {
						"bookmark(address,uint256)": "infinite",
						"getBookmark(address,uint256)": "infinite",
						"getNsfwFilter(address,string)": "infinite",
						"getOwner()": "2567",
						"insertBookmark(uint256,uint256)": "infinite",
						"insertNsfwFilter(string,uint256)": "infinite",
						"nsfw_filter(address,string)": "infinite",
						"owner()": "2578"
					}
				},
				"methodIdentifiers": {
					"bookmark(address,uint256)": "9c6950a1",
					"getBookmark(address,uint256)": "9a3d66c0",
					"getNsfwFilter(address,string)": "0db17965",
					"getOwner()": "893d20e8",
					"insertBookmark(uint256,uint256)": "edc84da0",
					"insertNsfwFilter(string,uint256)": "13f79d8b",
					"nsfw_filter(address,string)": "b943cd16",
					"owner()": "8da5cb5b"
				}
			},
			"storageLayout": {
				"storage": [
					{
						"astId": 3,
						"contract": "build/solidity/reader.sol:PonyDrilandReader1",
						"label": "owner",
						"offset": 0,
						"slot": "0",
						"type": "t_address_payable"
					},
					{
						"astId": 9,
						"contract": "build/solidity/reader.sol:PonyDrilandReader1",
						"label": "bookmark",
						"offset": 0,
						"slot": "1",
						"type": "t_mapping(t_address,t_mapping(t_uint256,t_uint256))"
					},
					{
						"astId": 15,
						"contract": "build/solidity/reader.sol:PonyDrilandReader1",
						"label": "nsfw_filter",
						"offset": 0,
						"slot": "2",
						"type": "t_mapping(t_address,t_mapping(t_string_memory_ptr,t_uint256))"
					}
				],
				"types": {
					"t_address": {
						"encoding": "inplace",
						"label": "address",
						"numberOfBytes": "20"
					},
					"t_address_payable": {
						"encoding": "inplace",
						"label": "address payable",
						"numberOfBytes": "20"
					},
					"t_mapping(t_address,t_mapping(t_string_memory_ptr,t_uint256))": {
						"encoding": "mapping",
						"key": "t_address",
						"label": "mapping(address => mapping(string => uint256))",
						"numberOfBytes": "32",
						"value": "t_mapping(t_string_memory_ptr,t_uint256)"
					},
					"t_mapping(t_address,t_mapping(t_uint256,t_uint256))": {
						"encoding": "mapping",
						"key": "t_address",
						"label": "mapping(address => mapping(uint256 => uint256))",
						"numberOfBytes": "32",
						"value": "t_mapping(t_uint256,t_uint256)"
					},
					"t_mapping(t_string_memory_ptr,t_uint256)": {
						"encoding": "mapping",
						"key": "t_string_memory_ptr",
						"label": "mapping(string => uint256)",
						"numberOfBytes": "32",
						"value": "t_uint256"
					},
					"t_mapping(t_uint256,t_uint256)": {
						"encoding": "mapping",
						"key": "t_uint256",
						"label": "mapping(uint256 => uint256)",
						"numberOfBytes": "32",
						"value": "t_uint256"
					},
					"t_string_memory_ptr": {
						"encoding": "bytes",
						"label": "string",
						"numberOfBytes": "32"
					},
					"t_uint256": {
						"encoding": "inplace",
						"label": "uint256",
						"numberOfBytes": "32"
					}
				}
			},
			"userdoc": {
				"kind": "user",
				"methods": {},
				"version": 1
			}
		}
	}
}